:020000020000FC
:020004001ED10B
:020008001CD109
:02000C001AD107
:0200100018D105
:0200140016D103
:0200180014D101
:02001C0012D1FF
:0200200010D1FD
:020024000ED1FB
:020028000CD1F9
:02002C000AD1F7
:0200300008D1F5
:0200340006D1F3
:0200380004D1F1
:02003C0002D1EF
:0200400000D1ED
:02004400FED0EC
:02004800FCD0EA
:02004C00FAD0E8
:02005000F8D0E6
:02005400F6D0E4
:02005800F4D0E2
:02005C00F2D0E0
:02006000F0D0DE
:02006400EED0DC
:02006800ECD0DA
:02006C00EAD0D8
:02007000E8D0D6
:02007400E6D0D4
:02007800E4D0D2
:02007C00E2D0D0
:02008000E0D0CE
:02008400DED0CC
:02008800DCD0CA
:02008C00DAD0C8
:02009000D8D0C6
:02009400D6D0C4
:02009800D4D0C2
:02009C00D2D0C0
:0200A000D0D0BE
:0200A400CED0BC
:0200A800CCD0BA
:0200AC00CAD0B8
:0200B000C8D0B6
:0200B400C6D0B4
:0200B800C4D0B2
:0200BC00C2D0B0
:0200C000C0D0AE
:0200C400BED0AC
:0200C800BCD0AA
:0200CC00BAD0A8
:0200D000B8D0A6
:0200D400B6D0A4
:0200D800B4D0A2
:0200DC00B2D0A0
:1000E000B0D000200010FFFF39000A0041546D65B8
:0600F00067613235363174
:040090000C947B0051
:1000F600AF93AFB7AF93BF93EF93FF93B091CE009B
:10010600A0910002E2E0F2E0EA0FF31DB083A395AE
:10011600AF70A0930002FF91EF91BF91AF91AFBF77
:10012600AF9118950501590253010002A10133014F
:1001360006FF72782D69737200000501BA004C0142
:10014600A10053010102B801D1015D0353010F0063
:10015600410353010102AD0153010202CB02B80172
:10016600330107FF72783F2D697372009B0005010A
:100176009B0A53010102B80153010002B8012C0287
:10018600330107FF74782D706F6C6C00B4000501A5
:10019600D8004C01CB005301CE00AD01330108FF5E
:1001A60074783F2D706F6C6CC40005019B0A530177
:1001B600C800B801530120004103330104FF7562F2
:1001C6007272D2008E015400D10ED50E06FF2B7529
:1001D60073617274E1000501530198005301C9006F
:1001E600AD01530106005301CA00AD01E500D1017E
:1001F60039045301CD00AD015301CC00AD0195008A
:04020600950B330120
:040000000C94A40AAE
:10020A00BF93AF93DB0111969EF0FD015527EE0FC8
:10021A00FF1F551F5BBF679177911196FB01552709
:10022A00EE0FFF1F551F5BBF07911791F801099445
:10023A00E8946EE874E0F2CF0A920FB60A920F9031
:10024A000F900F900A940092140209900FBE099021
:10025A006894089504FF65786974E9003401AF91E0
:10026A00BF91D2CF07FF65786563757465002F016A
:10027A003E01BC0189919991D1CF4301FD015527D6
:10028A00EE0FFF1F551F5BBFA791B791BDCF4D0161
:10029A00982B8991999191F31196B6CF54019A931B
:1002AA008A93FD015527EE0FFF1F551F5BBF8791EC
:1002BA0097911196A9CF61019A938A93FB0131967E
:1002CA005527EE0FFF1F551F5BBF879197919CCF54
:1002DA006E019A938A93CB01019696CF74019A93F1
:1002EA008A93FB0131965527EE0FFF1F551F5BBFFF
:1002FA0087919791840D951D87CF07FF2876616CAA
:10030A007565290037010501A405280ECB058E0164
:10031A0033010E944C0ED101E4015D03DF043D016B
:10032A00330101FF400082019A01FC018191919100
:10033A006BCF01FF21009601A201FC0189919991DD
:10034A0091838083899199915FCF02FF63219E01F6
:10035A00AE01FC018991999180838991999154CF39
:10036A0002FF6340AA01B901FC01992780814CCFA1
:10037A0002FF4075B50105014204CB029901330120
:10038A0002FF2175BD0105014204CB02A10133011F
:10039A0003FF64757000C501D2019A938A9334CF22
:1003AA0004FF3F647570CD01DA01082F092B11F0A3
:1003BA009A938A9329CF04FF73776170D501E50177
:1003CA008C01899199911A930A931ECF04FF6F7633
:1003DA006572E001F0019A938A938A819B8114CF16
:1003EA0004FF64726F70EB01FA01899199910CCF45
:1003FA0003FF726F7400F50102028C012991399191
:10040A00899199913A932A931A930A93FDCE02FFFE
:10041A00723EFD0110029A938A938F919F91F4CEB6
:10042A0002FF3E720C0219029F938F938991999150
:10043A00EBCE02FF7240150222029A938A938F91A1
:10044A009F919F938F93E0CE02FF3C3E1E022D02A6
:10045A00299139918217930751F132C001FF3D006A
:10046A0029020501C1023D02330102FF303D330278
:10047A003E02982BE1F424C001FF3C003A02050138
:10048A00C1025202330101FF3E0041020501C102CD
:10049A008102330102FF303C4802530297FD10C02B
:1004AA0006C001FF30004F025A029A938A93C10193
:1004BA00ABCE04FF74727565560263029A938A93EF
:1004CA008FEF9FEFA1CE02FF753C5E026C0229916D
:1004DA0039918217930758F351F3F2CF02FF753E11
:1004EA0068027702299139912817390700F3F9F23E
:1004FA00E7CF02FF303E7302820282159305BCF2F7
:10050A00B1F2DECF02FF643E7E020501D8109202EC
:10051A00330103FF64303E0087029302821593057C
:10052A00899199918205930514F209F2C9CF02FFC4
:10053A00643C8E020501D810A702330103FF643020
:10054A003C009C02A802229697FD0C9465020C942A
:10055A005C0204FF6C6F6732A302B302FC019927A5
:10056A0080E18A9522F0EE0FFF1FD8F74DCE9A95BB
:10057A004BCE01FF2D00AE02C20209911991081B50
:10058A00190BC80141CE01FF2B00BE02CC02099112
:10059A001991800F911F38CE02FF6D2AC802D50229
:1005AA008C01899199919C0131027001209FC001AF
:1005BA003003F308900DE11CF31C1203F308900DAD
:1005CA00E11CF31C9A938A93C7011ECE06FF756D30
:1005DA002F6D6F64D102F1027C0129913991099141
:1005EA00199140E15527000F111F221F331F551F74
:1005FA002E153F05520518F003952E193F094A9505
:10060A0089F73A932A93C801FFCD03FF756D2A0033
:10061A00EB020F038C0189919991809FF0012227A7
:10062A003327909FF00D211D331D819FF00D211D51
:10063A00331D919F200D311DCF019A938A93C901D1
:10064A00E3CD06FF696E766572740A032C03809502
:10065A009095DACD02FF322F2603330395958795BD
:10066A00D3CD02FF322A2F033A03880F991FCCCD2C
:10067A0003FF616E640036034203099119918023D6
:10068A009123C2CD02FF6F723D034B030991199169
:10069A00802B912BB9CD03FF786F72004703550366
:1006AA000991199180279127AFCD02FF312B500371
:1006BA005E030196A9CD02FF312D5A036403019707
:1006CA00A3CD06FF6C736869667460036C03FC0152
:1006DA008991999131971AF0880F991FFBCF94CD80
:1006EA0006FF72736869667466037B03FC0189916D
:1006FA00999131971AF096958795FBCF85CD02FF90
:10070A002B2175038803FC018991999120813181FC
:10071A00820F931F808391838991999175CD03FFED
:10072A0072704000840399039A938A938DB79EB797
:10073A006BCD03FF727021009403A3032FB7F894C3
:10074A008DBF9EBF2FBF899199915ECD03FF7370B4
:10075A0040009E03B0039A938A93CE0155CD03FFBE
:10076A0073702100AB03B903EC01899199914CCDC7
:10077A00BE03FD015527EE0FFF1F551F5BBF0791F3
:10078A0017911196299139911F930F933F932F93A4
:10079A009F938F938991999137CDD303FD01552763
:1007AA00EE0FFF1F551F5BBF0791179111962991F5
:1007BA0039918217930741F7D8018991999124CDEC
:1007CA0001FF6900B4032202EA03EF91FF91E80FE7
:1007DA00F91F192F899199912F913F91E217F307E8
:1007EA0017FF02C03CF001C02CF43F932F93FF93F4
:1007FA00EF9344CD0F911F91119606CD0404EF910A
:10080A00FF9131962F913F91E217F30799F3EDCFBC
:10081A0006FF756E6C6F6F70E50313041F910F91DD
:10082A001F910F911F910F91EFCC06FF636D6F76A9
:10083A00653E0D042004BF93AF93E991F991A99104
:10084A00B991092F082B41F0E80FF91FA80FB91F1A
:10085A001E9112930197E1F7AF91BF9189919991F6
:10086A00D3CC02FF3E3C1A043A04092F982F802F5A
:10087A00CBCC03FF75704000360443049A938A93E5
:10088A00C201C2CC03FF757021003E044C042C0146
:10089A0089919991B9CC03FF733E6400470405011D
:1008AA00D1015202330103FF6E6F74005004050137
:1008BA003D02330104FF2B696E7458046404789472
:1008CA00A3CC04FF2D696E745F046B04F8949CCC6E
:1008DA0004FF696E74216604050153011502CB02F7
:1008EA00A101330104FF696E74406D0405015301CF
:1008FA001502CB029901330108FF696E742D7472D7
:10090A00617077048804809314028991999168949C
:10091A007BCC050153011402B80153011502CB0225
:10092A0099013D01990433019A0401D06DCC1895BF
:10093A0002FF21658104A104FC01899199912FB7D5
:10094A00F89428D000B5081709F00BD0319622D0B8
:10095A0000B5091711F0892F04D02FBF89919991F9
:10096A0053CCF999FECF07B700FDFDCFF2BDE1BD2B
:10097A0080BDFA9AF99A089502FF40659D04C5045C
:10098A002FB7F894FC0106D080B5319603D090B504
:10099A002FBF3ACCF999FECFF2BDE1BDF89A08957E
:1009AA0002FF2169C104F80B0A00BC0BC10B02FF4C
:1009BA004069D504E004FC015527EE0FFF1F551FBF
:1009CA005BBF8791979120CC04FF28692129DC0419
:1009DA00EE049C0189919991AF93BF93CF93DF93D2
:1009EA00E1E0EBBFF0EFE0E01995DF91CF91BF9125
:0809FA00AF918991999108CC9D
:020000023000CC
:10E0000010D0E094F0948E219F21982B19F0F90103
:10E0100003E023D0F90105E020D0F90101E11DD092
:10E020000895F901E078FF7FEF01A0E8B0E0FE017C
:10E030005527EE0FFF1F551F5BBF47915791FE01FC
:10E04000E217F30711F00A0102C07A010C0101E0A6
:10E0500004D02196119759F708951FB71F93F8948C
:10E06000F999FECF17B710FDFDCF5527EE0FFF1F13
:0EE07000551F5BBF07BFE8951F911FBF0895A6
:020000020000FC
:100A020005FF665F63707500E9048E0156000A05F2
:100A120013050501DF04D1013105C404E401C40456
:100A2200E401330105015301EBFF850805FF7374EF
:100A32006174650001056101870204FF62617365EB
:100A4200170574010C0005FF63656C6C73001E05CD
:100A520005013903330105FF63656C6C2B00240526
:100A620032050296D5CB04FF326475702C05050160
:100A7200EF01EF01330105FF3264726F700034053C
:100A82000501F901F901330103FF3E696E003C05DE
:100A92007401180004FF237469624505610189022B
:100AA20003FF706164004B0505018F05530164006B
:100AB200CB02330104FF656D69745105F80B0E001A
:100AC200D00BD70B05FF656D69743F005B05F80B12
:100AD2001000D00BD70B03FF6B6579006305F80B91
:100AE2001200D00BD70B04FF6B65793F6C05F80B36
:100AF2001400D00BD70B02FF647074058E01020044
:100B0200D10ED50E03FF656470007C058E010600D0
:100B1200D10ED50E04FF6865726583058E0104004F
:100B2200D10ED50E05FF616C6C6F74008B0505014B
:100B32008F05CB02B00B9005330108FF2863726565
:100B42006174652993050501150A1F0ED10118026A
:100B5200040E0F0253018D02A10153018B02A10168
:100B6200330101005C009E050501FA09E401F90167
:100B72004905A101330101002800B2050501530115
:100B82002900C6094105330107FF636F6D70696C67
:100B92006500BC0505010F02D1015D031802DF04E7
:100BA200D605330101FF2C00C50505017F05D804D8
:100BB2007F055D03B00B8005330103005B275D00F9
:100BC200D3050501CB0553015808D605330103FFB0
:100BD20062696E00DE050501530102002205A101D2
:100BE200330107FF646563696D616C00E805050107
:100BF20053010A002205A101330103FF6865780051
:100C0200F2050501530110002205A101330102FF83
:100C1200626CFE056101200007FF7475726E6B65E0
:100C220079000806F80B0800BC0BC10B05FF2A2F40
:100C32006D6F64000D0605011802D4020F02F00266
:100C4200330104FF2F6D6F64170627069C0109917B
:100C52001991412F432717FF04C0109500950F5F8C
:100C62001F4F37FF04C0309520952F5F3F4FEE2472
:100C7200FF1851E1001F111F5A9539F447FF04C0B4
:100C8200109500950F5F1F4F0BC0EE1CFF1CE21A60
:100C9200F30A20F4E20EF31E8894ECCF0894EACF14
:100CA200FA92EA92C801B4CA02FF2A2F220605016B
:100CB2001C06E401F901330105FF752F6D6F640015
:100CC20055060501180259020F02F002330106FF10
:100CD2006E65676174655D0605012B035D03330173
:100CE20001FF2F00680605012606E401F901330120
:100CF20003FF6D6F6400710605012606F9013301D9
:100D020003FF616273007906860699231AF48095BF
:100D1200909501967DCA03FF6D696E0081060501FB
:100D220038054B024C019606E401F901330103FF39
:100D32006D6178008C060501380544024C01A2065B
:100D4200E401F901330106FF77697468696E980658
:100D52000501EF01C1021802C1020F026B02330149
:100D620007FF746F757070657200A4060501D101EA
:100D72005301610053017B00A9064C01C3065301D4
:100D8200DF004103330107FF746F6C6F77657200F8
:100D9200B1060501D1015301410053015B00A906CF
:100DA2004C01D606530120004A03330103FF686C4D
:100DB2006400C40661018F0204FF686F6C64D70689
:100DC2000501DB06D10199016303D1011802E40197
:100DD200A1010F02AD01330102FF3C23DD06050133
:100DE2005505DB06A101330101FF2300ED060501D4
:100DF200220599017707010253010900EF0144021C
:100E02004C01060753010700CB0253013000CB020D
:100E1200E106330102FF2373F5060501F8063805E2
:100E22004A033D024C010F07330102FF233E0B0729
:100E320005014105DB069901D1015505E401C10215
:100E4200330104FF7369676E1607050152024C01F4
:100E52002D0753012D00E106330103FF642E7200BA
:100E6200220705011802E401EF01B80CF0060E0793
:100E72000102260719070F02EF01C1023A084908C9
:100E8200330102FF2E722E070501180254040F02CD
:100E92003207330102FF642E42070501590232076D
:100EA2003108330101FF2E004B07050154044E07A0
:100EB200330103FF75642E005307050159026707CA
:100EC2003108330104FF75642E725A0705011802B6
:100ED200F0060E0719070F02EF01C1023A0849088E
:100EE200330106FF75642F6D6F64630705011802F5
:100EF20059022102F0020F02E4011802F0020F026D
:100F0200330106FF64696769743F72070501B7061A
:100F120053013000C102D1015301090076024C0194
:100F22009E0753010700C102D10153010900AD0719
:100F32004C019E07F90159023301D10122059901A1
:100F4200B5074C01A707F9015902330162023301C7
:100F520003FF753C3D008207050176022B03330136
:100F620003FF753E3D00A90705016B022B03330108
:100F720005010F02D101D101DF04E4015D03E401A7
:100F82000102EF015D033203CB025D03180233015C
:100F920002FF732CB1070501D101D007330105010E
:100FA200D605D1013203E401EF013903C10218026F
:100FB2005902D203E207D1019901D6053105030492
:100FC200DC070F0281024C01E907D101B801D60505
:100FD200F901330105FF697479706500C9070501DC
:100FE200D1013203E401EF013903C10218025902AF
:100FF200D2030308D101DF04D10110080C085D03FC
:101002000304FB070F0281024C010A08D101DF042D
:101012001008F901330105013904100833010501F3
:101022005301FF0041035F05330106FF69636F75DA
:101032006E74EB070501D1015D03E401DF043301A6
:1010420002FF63721608050153010D005F0553018B
:101052000A005F05330105FF7370616365002108B3
:1010620005010B065F05330106FF7370616365734B
:101072002C080501D101810241035902D20344081F
:10108200310803044108330104FF7479706535089F
:101092000501EF01CB02E401D2035408E803B801D1
:1010A2005F0503044F08330101FF270045080501CE
:1010B200150A320A3D024C0161085301F3FF85080B
:1010C200330107FF68616E646C6572005508740134
:1010D2000A0005FF63617463680062080501AF03DB
:1010E200180268089901180298036808A1013D01D5
:1010F2000F026808A1010F02F9015902330105FF2D
:101102007468726F77006A080501D1013D024C01D3
:101112008C08F901330168089901A2030F026808DB
:10112200A1010F02E4011802B803F9010F02330111
:1011320005FF63736B697000800805011802D10115
:101142004C01AE08EF01B801210236024C01AE0893
:1011520053010100040A4201A0080F02F901330100
:1011620006FF61636365707499080501D101180275
:1011720018027005D10153010A002C024C01F40837
:10118200D10153010D002C024C01F408D10153018D
:10119200080036024C01E0080F022102EF0118029A
:1011A20036024C01D708F9014201BA08D1015F05A4
:1011B20031085F0563030F025D034201EE08D101AE
:1011C2000B0644024C01E708F9010B06D1015F0549
:1011D200EF01AD015D030F026303D10118023D026D
:1011E2004C01BA08D10141050F020F02E401C1020C
:1011F2002408330106FF726566696C6CB108F80B4E
:101202001A00D00BD70B04FF63686172FB0805015B
:10121200150AF901B801330106FF6E756D62657238
:1012220004090501220599011802830918024F09D0
:1012320083090F024A0318021802180259025902BE
:101242000F020F02A209D9014C0143095301010007
:1012520036024C013A09B80153012E0036024C0104
:101262003A090F024C013609C50C53010200420132
:101272004A094105F9010F02F9010F022205A101F4
:101282005902330141050F024C0148096D06530111
:1012920001000F022205A101620233010501EF01E3
:1012A200B801530129004B024C0158093301EF01E7
:1012B200B8015F0953010100040A33010501D1019C
:1012C2005301240036024C016909F9010206330177
:1012D200D1015301250036024C017209F901EC05D6
:1012E2003301D1015301260036024C017B09F90179
:1012F200F80533015301230036024C018209F80537
:10130200330133010501EF01B80153012B0036020D
:101312004C018E0953010100040AEF01B801530187
:101322002D003602D10118024C019A095301010025
:10133200040A0F02330107FF3E6E756D626572008B
:101342000D090501D1014C01C009EF01B801870760
:101352003D024C01AD0933011802EA0C0F02E4010F
:10136200220599010E03F9010102220599010E03DA
:10137200C610EA0C53010100040A4201A309330119
:1013820005FF7061727365009C0905011802FA0974
:1013920049059901040A0F02DB09D1015D034905E0
:1013A200870353010100040A330105FF637363617C
:1013B2006E00C1090501E401D10118025902D203EC
:1013C200F209EF01E803CB02B801EF0136024C014A
:1013D200F009F901E80312040F02F90133010304D1
:1013E200E209F9010F02330106FF736F757263653B
:1013F200D609F80B1600D00BD70B07FF2F737472A8
:10140200696E6700F5090501EF0190060102EF011F
:10141200CB0201020102C10233010AFF7061727341
:10142200652D6E616D65FE0905010B06190A330112
:1014320005011802FA0949059901040A21029E08C8
:101442000F02DB093805CB02FA09F901C10249058D
:10145200A101330109FF66696E642D6E616D65003D
:101462000E0A050153011400C4045902D2034D0AA5
:10147200380553011600E8032905CB02C4040C0CFD
:10148200D9014C014B0A1802180241050F020F0242
:10149200120433010304390A41055902330104FFDE
:1014A200717569742B0A0501CC0AB803E10AA2031B
:1014B200920E1C0599013D024C01600A760A000950
:1014C2004C015A0A5301FA0A6F08D9014C01720AF7
:1014D200D1015301FEFF44024C01700A840A420109
:1014E200550A7D0A42015A0A330105012408B90747
:1014F20002003E20F00733010501B9070300206F07
:101502006B00F00733010501B9070400203F3F20BB
:10151200F007220599011802F805560749059901B5
:1015220056070F022205A101330105FF7061757391
:101532006500500AF80B9102C60BCB0B04FF636FD8
:101542006C64960AA40AA4B6BB242224332424BEC3
:10155200E3E9F2E02F010FEF0DBF048311E21EBF9A
:101562001583CFEAC683D1E2D783AFEBBAE00C94FE
:10157200090104FF7761726D9F0A05013A0D53015B
:10158200950B53019B0AE30B1306540A330103FF25
:1015920073703000BA0A8E010600D50AD90A02FF1A
:1015A2007370C80A740108000501DF04C001330129
:1015B2000501DF04C801330103FF72703000D00A55
:1015C2000501E50A990133017401040005FF646510
:1015D20070746800DD0A0501CC0AAF03C102320350
:1015E2006303330109FF696E74657270726574007A
:1015F200E70A0501150AD90181024C011E0B5301AC
:101602002600C4045902D2031A0B3805E80301026A
:10161200010218021802290553012800CB02C40452
:101622003D010F020F0201024C01180BE10D0304F0
:10163200060B41056B0B4201FB0AF90133010AFF5C
:101642007265632D696E746E756DF30A0501120978
:101652004C013C0B1C0599014C01390B5301020052
:1016620036024C01360BE401480D480D42013A0B9B
:10167200F901620233015902330108FF7265632DD9
:1016820066696E64200B0501320AD1014C01570BC9
:1016920081024C014E0B4201550B1C0599014C0174
:1016A200550BD6054201560B3D01620233010CFF78
:1016B2007265632D6E6F74666F756E643E0B050105
:1016C20049085301F3FF8508330106FF3F73746134
:1016D200636B580B0501EC0A52024C01730B530168
:1016E200FCFF8508330103FF76657200660B050176
:1016F200660FF0073108220599011802F805740FE8
:101702005404F006F80653012E00E1060E071907ED
:101712000F022205A101490831087C0FF0073301AD
:1017220004FF6E6F6F70740B960B0C94090106FF29
:10173200756E75736564910B0501CC0A8F05C10244
:1017420033010200746F980B050158085D031C05F4
:1017520099014C01B60BCB05B00BD605330105013F
:101762000F02D1015D031802DF04D1015D035D03A5
:10177200DF043D01330105015D03DF04C4043301CD
:1017820005015D03DF04A004330105015D03DF04ED
:101792009901330105015D03DF04A1013301050154
:1017A2005D03DF044204CB029901330105015D03AD
:1017B200DF044204CB02A101330106FF64656665C2
:1017C2007221A20B0501D10153010300CB02DF04F8
:1017D2003D01330106FF646566657240DE0B05015B
:1017E200D1015D035D03DF043D013301F80B0E946B
:1017F2004C0ED1016303E4015D03DF043D013D01B1
:1018020033010FFF7365617263682D776F72646CC9
:1018120069737400EB0B05015902E40153011B0CBF
:10182200E401520CD1013D024C011A0C4105F901AF
:101832005902330105011802180238050F0201028C
:1018420001022102410C6D0C4C01350C4105F901DC
:10185200210207105D0362020F02DF0481024C01C4
:10186200330C6D06590233010F02F9016202330192
:101872000BFF6E616D653E737472696E6700020CD8
:1018820005011B085301FF004103330111FF74726C
:101892006176657273652D776F72646C697374001B
:1018A200390C0501C404D1014C01650C380518023C
:1018B2001802E4013D010F020F0201024C01650C06
:1018C2000710DF044201540C4105330108FF69632C
:1018D2006F6D70617265470C05011802EF010F020E
:1018E2002C024C01780C4105F90159023301E40143
:1018F2005902D203990CEF019901EF01DF04D101E2
:10190200530100016B024C018A0CE4015301FF00F8
:1019120041032C024C01910C41055902120433017E
:101922005D03E4013105E40153010200E9037C0C8B
:1019320041056202330101FF2A00670C0501D4024E
:10194200B10C330101FF6A009C0C0501980353019D
:101952000900CB029901330103FF643E7300A30C1B
:101962000501F901330104FF64616273AD0C0501E5
:10197200D10152024C01BE0CC50C330107FF646E4B
:10198200656761746500B40C0501B810530101006C
:101992005902C610330105FF636D6F766500BF0CF7
:1019A200D20CBF93AF93E991F991A991B991092F03
:1019B200082B21F01D9111930197E1F7AF91BF918F
:1019C200899199910C94090105FF32737761700036
:1019D200CC0C05010102180201020F02330103FFC0
:1019E20074696200E50C6101B1020AFF7265666901
:1019F2006C6C2D746962F00C0501F40C53016400E7
:101A0200B6084F05A10159024905A1015301FFFF83
:101A120033010AFF736F757263652D746962F60C88
:101A22000501F40C4F059901330107FF65652D751A
:101A3200736572000A0D6101380006FF65653E722A
:101A4200616D160D05015902D203310DEF01C40477
:101A5200EF01A1013105E4013105E4010304270D81
:101A62004105330109FF696E69742D757365720052
:101A72001E0D05011C0D420453011C003203230DEF
:101A8200330107006C69746572616C00330D0501E6
:101A9200CB055301D60533010800736C6974657276
:101AA200616C420D0501CB05B907CC073301050175
:101AB2007F05CB05FFFF330105016B0B7F05E401B9
:101AC200D804330105017F05330105016B0BD605EF
:101AD200330105006168656164004D0D0501CB05A8
:101AE2004201580D3301020069666A0D0501CB05FA
:101AF2004C01580D33010400656C7365740D0501CA
:101B0200CB054201580DE4015D0D330104007468F8
:101B1200656E7C0D05015D0D330105006265676927
:101B22006E00870D0501630D330105007768696C4E
:101B320065008E0D0501CB054C01580DE401330102
:101B42000600726570656174960D0501B90D5D0D33
:101B520033010500756E74696C00A10D0501CB059A
:101B62004C01660D33010500616761696E00AA0DC3
:101B72000501CB054201660D33010200646FB40D0D
:101B82000501CB05BD03580D630D330104006C6FD5
:101B92006F70BE0D0501CB050304660D5D0D3301AB
:101BA20005002B6C6F6F7000C70D0501CB05E903B3
:101BB200660D5D0D330105FF6C6561766500D10D23
:101BC200E20D0F911F910F911F91AF91BF910C9454
:101BD200090103003F646F00DC0D0501CB05D20350
:101BE200580D630D330106FF637265617465EA0D7A
:101BF2000501A405280ECB056E01330106FF6865B9
:101C020061646572F40D05017F0518021802D101A5
:101C120081024C01160ED101530100FF4A03D00785
:101C22000F02C404D6050F0233015301F0FF8508E9
:101C320007FF776C73636F706500FF0DF80B34005C
:101C4200BC0BC10B06FF72657665616C190E05014E
:101C520053018B029901D9014C01370E53018D02B8
:101C62009901A004590253018B02A101330106FF1D
:101C72006C6174657374230E610115030500646F52
:101C820065733E00380E0501CB05580ECB050E9448
:101C9200CB054C0E33019A938A93CB0101967F9127
:101CA2007F916F91BF93AF93DB010C940901050102
:101CB2000F0253018D029901C40407105D03D80479
:101CC200330101FF3A003F0E0501A4057F053D0ED9
:101CD200A101CB050501890E330107FF3A6E6F6E34
:101CE200616D6500620E05017F05D1013D0EA10106
:101CF200CB050501890E330101003B006E0E050183
:101D0200CB053301920E280E330101FF5D007D0EDB
:101D12000501530101001C05A101330101005B0013
:101D2200860E050159021C05A101330108FF7661E7
:101D3200726961626C658F0E05018F05AA0E5301EF
:101D420002009805330108FF636F6E7374616E744D
:101D5200970E0501A405280ECB056101D6053301B6
:101D620004FF75736572A40E0501A405280ECB0548
:101D72007401D605330105FF76616C756500B10EFD
:101D8200050188018705D605CB05D10ECB05D50EF9
:101D92008705D1015D035D03B00B8805A004330103
:101DA2000501DF04C40433010501DF04A00433018B
:101DB20007007265637572736500BC0E05013D0E06
:101DC2009901D605330109FF696D6D656469617416
:101DD2006500D90E0501C80FC404D101DF04530107
:101DE200FF7F4103E401D804330106005B636861AD
:101DF200725DE40E0501CB0553010809D6053301D6
:101E0200060061626F727422F60E0501CB054C0169
:101E12007F05CB05FFFF4610CB055301CB05FEFF27
:101E2200CB0585087F05E401D804330105FF616213
:101E32006F727400010F05015301FFFF850804FF53
:101E4200636F6465170F0501A405280E7F055D0306
:101E5200D605330108FF656E642D636F6465200F3C
:101E62000501CB050C94CB05090133010BFF656E0F
:101E72007669726F6E6D656E74002B0F61010C00D6
:101E820009FF776F72646C69737473000000050157
:101E920053010800330104FF2F706164410F0501F3
:101EA200AF035505C102330105FF2F686F6C640053
:101EB2004C0F050155058F05C10233010AFF666FFC
:101EC2007274682D6E616D65550F0501B9070700C3
:101ED200616D666F72746800330107FF7665727315
:101EE200696F6E005F0F050153013400330103FF78
:101EF200637075006E0F0501530175001B083301F5
:101F020008FF6D63752D696E666F780F05015301C9
:101F12007100330105FF2F7573657200810F050192
:101F220053011E00330104FF40655B5D370F05015D
:101F3200D101C404180221025902E401D203AA0FFA
:101F4200E8032905EF01CB02C404E4016202E903BC
:101F5200A10F41050F02330104FF21655B5D940F60
:101F620005013805A004E4015902D203BE0F310570
:101F7200E401EF01A0040304B80FF90133010BFFE0
:101F82006765742D63757272656E7400AD0F05011D
:101F920053011000C404330109FF6765742D6F7289
:101FA20064657200C00F050153011400980F3301DC
:101FB20007FF636F6D7061726500CD0FE00FBF9315
:101FC200AF938C0189919991DC01899199919C013E
:101FD20089919991FC01ED90F190EF1451F40A95D9
:101FE20019F02A95C1F701C02A95022B11F488270E
:101FF20002C08FEF00C0982FAF91BF910C940901DE
:1020020007FF6E66613E6C666100D90F05011B0811
:102012005301FF0041035D033203CB0233010BFF87
:102022006170706C7475726E6B65790001100501D8
:10203200EE006304780B310806055301E803F00251
:10204200E401F901F8055607B90704006B487A2044
:10205200F007330102FF752E1010050159025E07C9
:10206200330102FF2E732B100501CC0AAF03310599
:10207200D2034210E80399012E1053010200E90332
:102082003B10330102002E22321005014E10CB0507
:10209200F0073301020073224310050153012200AD
:1020A200C6091C0599014C015910CB05B907CC078B
:1020B200330105FF776F726473004B100501530102
:1020C2001600C4046E1033010DFF73686F772D770D
:1020D2006F72646C697374005A10050153017410B5
:1020E200E401520C33010501410CF0073108620290
:1020F200330106FF45646566657265100501A40536
:10210200280ECB05F80B8705D101D605CB05BC0BF4
:10211200CB05C10B3105B00B8805330106FF5264B4
:10212200656665727A100501A405280ECB05F80BC9
:102132008F05D605530102009805CB05C60BCB05CA
:10214200CB0B3301020069738F1005011C05990145
:102152004C01AF10E205CB05E30B33015808E30B4A
:10216200330107FF64696E7665727400A310B910BB
:102172000991199180959095009510951A930A935B
:102182000C94090102FF642BB210C71029913991F6
:10219200E990F99049915991240F351F8E1D9F1D89
:1021A2003A932A930C94090102FF642DC310D910AB
:1021B20029913991E990F99049915991421B530B18
:0E21C200E80AF90A5A934A93C7010C940901DE
:00000001FF
