:020000020000FC
:02000400D7D053
:02000800D5D051
:02000C00D3D04F
:02001000D1D04D
:02001400CFD04B
:02001800CDD049
:02001C00CBD047
:02002000C9D045
:02002400C7D043
:02002800C5D041
:02002C00C3D03F
:02003000C1D03D
:02003400BFD03B
:02003800BDD039
:02003C00BBD037
:02004000B9D035
:02004400B7D033
:02004800B5D031
:02004C00B3D02F
:02005000B1D02D
:02005400AFD02B
:02005800ADD029
:02005C00ABD027
:02006000A9D025
:02006400A7D023
:02006800A5D021
:02006C00A3D01F
:02007000A1D01D
:020074009FD01B
:020078009DD019
:02007C009BD017
:0200800099D015
:0200840097D013
:1000880095D000400010FFFF23000B0041546D6520
:08009800676131323834500079
:040050000C945000BC
:1000A000AF93AFB7AF93BF93EF93FF93B091C600F9
:1000B000A0910001E2E0F1E0EA0FF31DB083A39507
:1000C000AF70A0930001FF91EF91BF91AF91AFBFCF
:1000D000AF91189500F046F140F000018EF020F04D
:1000E00006FF72782D697372000000F08F0039F0FE
:1000F000760040F00101A5F0BEF04AF240F00F009A
:100100002EF240F001019AF040F00201B8F1A5F0A2
:1001100020F007FF72783F2D69737200700000F0C5
:10012000840640F00101A5F040F00001A5F019F1AE
:1001300020F007FF74782D706F6C6C00890000F060
:10014000AD0039F0A00040F0C6009AF020F008FFA2
:1001500074783F2D706F6C6C990000F0840640F04D
:10016000C000A5F040F020002EF220F004FF7562E0
:100170007272A7007BF05400B90ABD0A06FF2B7506
:1001800073617274B60000F040F0980040F0C10056
:100190009AF040F0060040F0C2009AF0BA00BEF0BB
:1001A00026F340F0C5009AF040F0C4009AF06A00CF
:0401B0007E0720F0B6
:040000000C948D06C9
:1001B4000A920FB60A920F900F900A9400921401BB
:1001C40009900FBE09906894089505FF665F6370F7
:1001D4007500BE007BF05600F000F90000F087F3D4
:1001E400BEF0170173F3D1F073F3D1F020F000F0F7
:1001F40040F0EBFF6E0405FF737461746500E70063
:100204004EF05B0104FF62617365FD0061F00C0058
:1002140005FF63656C6C7300040100F026F220F0A6
:1002240005FF63656C6C2B000A01180102960C949F
:1002340004F004FF32647570120100F0DCF0DCF0AD
:1002440020F005FF3264726F70001B0100F0E6F0CD
:10025400E6F020F003FF3E696E00230161F0180010
:1002640004FF237469622C014EF05D0103FF706189
:100274006400320100F0760140F06400B8F120F02F
:1002840004FF656D69743801E1070E00B907C00702
:1002940005FF656D69743F004201E1071000B9076D
:1002A400C00703FF6B6579004A01E1071200B90733
:1002B400C00704FF6B65793F5301E1071400B907D8
:1002C400C00702FF64705B017BF00200B90ABD0A3B
:1002D40003FF6564700063017BF00600B90ABD0A80
:1002E40004FF686572656A017BF00400B90ABD0AFF
:1002F40005FF616C6C6F7400720100F07601B8F157
:100304009907770120F008FF2863726561746529F5
:100314007A0100F0FE05080ABEF005F1ED09FCF0D3
:1003240040F061018EF040F05F018EF020F001009A
:100334005C00850100F0E305D1F0E6F030018EF0B9
:1003440020F001002800990100F040F02900AF05D9
:10035400280120F007FF636F6D70696C6500A301CD
:1003640000F0FCF0BEF04AF205F187F3BD0120F085
:1003740001FF2C00AC0100F0660194F366014AF21F
:100384009907670120F003005B275D00BA0100F0C4
:10039400B20140F04104BD0120F003FF62696E0028
:1003A400C50100F040F0020008018EF020F007FFC4
:1003B400646563696D616C00CF0100F040F00A0070
:1003C40008018EF020F003FF68657800D90100F081
:1003D40040F0100008018EF020F002FF626CE5018D
:1003E4004EF0200007FF7475726E6B657900EF01A3
:1003F400E1070800A507AA0705FF2A2F6D6F64000F
:10040400F40100F005F1C1F1FCF0DDF120F004FF8E
:100414002F6D6F64FE010E029C0109911991412F09
:10042400432717FF04C0109500950F5F1F4F37FF38
:1004340004C0309520952F5F3F4FEE24FF1851E103
:10044400001F111F5A9539F447FF04C010950095F9
:100454000F5F1F4F0BC0EE1CFF1CE21AF30A20F4BF
:10046400E20EF31E8894ECCF0894EACFFA92EA9253
:10047400C8010C9404F002FF2A2F090200F00302C1
:10048400D1F0E6F020F005FF752F6D6F64003D029A
:1004940000F005F146F1FCF0DDF120F006FF6E6599
:1004A40067617465450200F018F24AF220F001FF1A
:1004B4002F00500200F00D02D1F0E6F020F003FF0F
:1004C4006D6F6400590200F00D02E6F020F003FFA6
:1004D4006162730061026E0299231AF4809590950B
:1004E40001960C9404F003FF6D696E00690200F03C
:1004F4001F0138F139F07F02D1F0E6F020F003FF5C
:100504006D617800750200F01F0131F139F08B0242
:10051400D1F0E6F020F006FF77697468696E810215
:1005240000F0DCF0AEF105F1AEF1FCF058F120F092
:1005340007FF746F7570706572008D0200F0BEF075
:1005440040F0610040F07B00920239F0AC0240F0D0
:10055400DF002EF220F007FF746F6C6F7765720076
:100564009A0200F0BEF040F0410040F05B009202BD
:1005740039F0BF0240F0200037F220F003FF686C2E
:100584006400AD024EF0630104FF686F6C64C00246
:1005940000F0C402BEF086F050F2BEF005F1D1F0D6
:1005A4008EF0FCF09AF020F002FF3C23C60200F02B
:1005B4003C01C4028EF020F001FF2300D60200F0BB
:1005C400080186F06003EEF040F00900DCF031F140
:1005D40039F0EF0240F00700B8F140F03000B8F114
:1005E400CA0220F002FF2373DE0200F0E1021F01C1
:1005F40037F22AF139F0F80220F002FF233EF40228
:1006040000F02801C40286F0BEF03C01D1F0AEF146
:1006140020F004FF7369676EFF0200F03FF139F0C8
:10062400160340F02D00CA0220F003FF642E72006E
:100634000B0300F005F1D1F0DCF0A108D902F702B8
:10064400EEF00F030203FCF0DCF0AEF123043204FD
:1006540020F002FF2E72170300F005F141F3FCF0C5
:100664001B0320F002FF642E2B0300F046F11B0352
:100674001A0420F001FF2E00340300F041F3370385
:1006840020F003FF75642E003C0300F046F1500394
:100694001A0420F004FF75642E72430300F005F180
:1006A400D902F7020203FCF0DCF0AEF123043204B9
:1006B40020F006FF75642F6D6F644C0300F005F1A4
:1006C40046F10EF1DDF1FCF0D1F005F1DDF1FCF0C5
:1006D40020F006FF64696769743F5B0300F0A002C1
:1006E40040F03000AEF1BEF040F0090063F139F0A3
:1006F400870340F00700AEF1BEF040F00900960316
:1007040039F08703E6F046F120F0BEF0080186F0E8
:100714009E0339F09003E6F046F120F04FF120F00B
:1007240003FF753C3D006B0300F063F118F220F009
:1007340003FF753E3D00920300F058F118F220F0DB
:1007440000F0FCF0BEF0BEF087F3D1F04AF2D1F035
:10075400EEF0DCF04AF21FF2B8F14AF205F120F0B3
:1007640002FF732C9A0300F0BEF0B90320F000F0EE
:10077400BD01BEF01FF2D1F0DCF026F2AEF105F1BE
:1007840046F1BFF2CB03BEF086F0BD011701F0F2D3
:10079400C503FCF06EF139F0D203BEF0A5F0BD0143
:1007A400E6F020F005FF697479706500B20300F08B
:1007B400BEF01FF2D1F0DCF026F2AEF105F146F105
:1007C400BFF2EC03BEF087F3BEF0F903F5034AF27F
:1007D400F0F2E403FCF06EF139F0F303BEF087F3BA
:1007E400F903E6F020F000F026F3F90320F000F01E
:1007F40040F0FF002EF2460120F006FF69636F759A
:100804006E74D40300F0BEF04AF2D1F087F320F006
:1008140002FF6372FF0300F040F00D00460140F058
:100824000A00460120F005FF7370616365000A0445
:1008340000F0F201460120F006FF737061636573F6
:10084400150400F0BEF06EF12EF246F1BFF22D0455
:100854001A04F0F22A0420F004FF747970651E046F
:1008640000F0DCF0B8F1D1F0BFF23D04D5F2A5F010
:100874004601F0F2380420F001FF27002E0400F0B6
:10088400FE051B062AF139F04A0440F0F3FF6E041A
:1008940020F007FF68616E646C6572003E0461F0CD
:1008A4000A0005FF6361746368004B0400F09CF266
:1008B40005F1510486F005F185F251048EF02AF019
:1008C400FCF051048EF0FCF0E6F046F120F005FF58
:1008D4007468726F7700530400F0BEF02AF139F0A7
:1008E4007504E6F020F0510486F08FF2FCF0510418
:1008F4008EF0FCF0D1F005F1A5F2E6F0FCF020F06A
:1009040005FF63736B697000690400F005F1BEF0C4
:1009140039F09704DCF0A5F00EF123F139F09704D7
:1009240040F00100ED052FF08904FCF0E6F020F022
:1009340006FF616363657074820400F0BEF005F124
:1009440005F15701BEF040F00A0019F139F0DD0459
:10095400BEF040F00D0019F139F0DD04BEF040F0B6
:10096400080023F139F0C904FCF00EF1DCF005F1C4
:1009740023F139F0C004E6F02FF0A304BEF04601E1
:100984001A04460150F2FCF04AF22FF0D704BEF0EC
:10099400F20131F139F0D004E6F0F201BEF0460183
:1009A400DCF09AF04AF2FCF050F2BEF005F12AF1C4
:1009B40039F0A304BEF02801FCF0FCF0D1F0AEF154
:1009C4000D0420F006FF726566696C6C9A04E107F9
:1009D4001A00B907C00704FF63686172E40400F0F9
:1009E400FE05E6F0A5F020F006FF6E756D626572F7
:1009F400ED0400F0080186F005F16C0505F13805F9
:100A04006C05FCF037F205F105F105F146F146F10C
:100A1400FCF0FCF08B05C6F039F02C0540F0010029
:100A240023F139F02305A5F040F02E0023F139F02D
:100A34002305FCF039F01F05AE0840F002002FF04A
:100A440033052801E6F0FCF0E6F0FCF008018EF036
:100A540046F120F02801FCF039F03105550240F050
:100A64000100FCF008018EF04FF120F000F0DCF002
:100A7400A5F040F0290038F139F0410520F0DCF010
:100A8400A5F0480540F00100ED0520F000F0BEF0AF
:100A940040F0240023F139F05205E6F0E90120F09A
:100AA400BEF040F0250023F139F05B05E6F0D301F8
:100AB40020F0BEF040F0260023F139F06405E6F0A2
:100AC400DF0120F040F0230023F139F06B05DF0152
:100AD40020F020F000F0DCF0A5F040F02B0023F132
:100AE40039F0770540F00100ED05DCF0A5F040F0A9
:100AF4002D0023F1BEF005F139F0830540F001002B
:100B0400ED05FCF020F007FF3E6E756D6265720026
:100B1400F60400F0BEF039F0A905DCF0A5F070038E
:100B24002AF139F0960520F005F1D308FCF0D1F054
:100B3400080186F0FBF1E6F0EEF0080186F0FBF127
:100B4400E10CD30840F00100ED052FF08C0520F0F6
:100B540005FF706172736500850500F005F1E3051A
:100B6400300186F0ED05FCF0C405BEF04AF2300118
:100B740074F240F00100ED0520F005FF637363613A
:100B84006E00AA0500F0D1F0BEF005F146F1BFF207
:100B9400DB05DCF0D5F2B8F1A5F0DCF023F139F097
:100BA400D905E6F0D5F2FFF2FCF0E6F020F0F0F221
:100BB400CB05E6F0FCF020F006FF736F75726365F9
:100BC400BF05E1071600B907C00707FF2F7374724A
:100BD400696E6700DE0500F0DCF07902EEF0DCF00F
:100BE400B8F1EEF0EEF0AEF120F00AFF706172732E
:100BF400652D6E616D65E70500F0F201020620F0D7
:100C040000F005F1E305300186F0ED050EF18704EF
:100C1400FCF0C4051F01B8F1E305E6F0AEF13001C4
:100C24008EF020F009FF66696E642D6E616D6500BB
:100C3400F70500F040F0140073F346F1BFF23606F6
:100C44001F0140F01600D5F20F01B8F173F3F50758
:100C5400C6F039F0340605F105F12801FCF0FCF08A
:100C6400FFF220F0F0F22206280146F120F004FF02
:100C740071756974140600F0B506A5F2CA068FF200
:100C84007A0A020186F02AF139F049065F06E9047E
:100C940039F0430640F0E3065804C6F039F05B0629
:100CA400BEF040F0FEFF31F139F059066D062FF029
:100CB4003E0666062FF0430620F000F00D04A20362
:100CC40002003E20D90320F000F0A2030300206FAD
:100CD4006B00D90320F000F0A2030400203F3F2062
:100CE400D903080186F005F1DF013F03300186F0E6
:100CF4003F03FCF008018EF020F005FF706175736E
:100D040065003906E1076501AF07B40704FF636FA7
:100D14006C647F068D06A4B6BB242224332424BE2F
:100D2400E7E6F1E02F010FEF0DBF048310E41EBFCF
:100D34001583CFEAC683D0E4D783A8EAB6E00C943F
:100D440004F004FF7761726D880600F0230940F017
:100D54007E0740F08406CC07FA013D0620F003FF2D
:100D640073703000A3067BF00600BE06C20602FFC5
:100D74007370B10661F0080000F087F3ADF020F065
:100D840000F087F3B5F020F003FF72703000B9066D
:100D940000F0CE0686F020F061F0040005FF6465E3
:100DA40070746800C60600F0B5069CF2AEF11FF23E
:100DB40050F220F009FF696E7465727072657400F8
:100DC400D00600F0FE05C6F06EF139F0070740F0DA
:100DD400260073F346F1BFF203071F01D5F2EEF0CC
:100DE400EEF005F105F10F0140F02800B8F173F3BE
:100DF4002AF0FCF0FCF0EEF039F00107CA09F0F239
:100E0400EF06280154072FF0E406E6F020F00AFF6D
:100E14007265632D696E746E756DDC0600F0FB04FB
:100E240039F02507020186F039F0220740F002006C
:100E340023F139F01F07D1F0310931092FF02307CD
:100E4400E6F04FF120F046F120F008FF7265632DC3
:100E540066696E64090700F01B06BEF039F04007AE
:100E64006EF139F037072FF03E07020186F039F0B2
:100E74003E07BD012FF03F072AF04FF120F00CFF91
:100E84007265632D6E6F74666F756E64270700F06C
:100E9400320440F0F3FF6E0420F006FF3F737461E8
:100EA400636B410700F0D5063FF139F05C0740F071
:100EB400FCFF6E0420F003FF766572004F0700F01C
:100EC4004E0BD9031A04080186F005F1DF015C0B0F
:100ED40041F3D902E10240F02E00CA02F7020203F4
:100EE400FCF008018EF032041A04640BD90320F0DC
:100EF40004FF6E6F6F705D077F070C9404F006FFAC
:100F0400756E757365647A0700F0B5067601AEF107
:100F140020F00200746F810700F041044AF20201DC
:100F240086F039F09F07B2019907BD0120F000F067
:100F3400FCF0BEF04AF205F187F3BEF04AF24AF241
:100F440087F32AF020F000F04AF287F373F320F0DD
:100F540000F04AF287F34FF320F000F04AF287F3EF
:100F640086F020F000F04AF287F38EF020F000F0D3
:100F74004AF287F32FF3B8F186F020F000F04AF23A
:100F840087F32FF3B8F18EF020F006FF64656665F1
:100F940072218B0700F0BEF040F00300B8F187F334
:100FA4002AF020F006FF646566657240C70700F00A
:100FB400BEF04AF24AF287F32AF020F0E1070E94D9
:100FC400350ABEF050F2D1F04AF287F32AF02AF043
:100FD40020F00FFF7365617263682D776F72646C24
:100FE40069737400D40700F046F1D1F040F00408AE
:100FF400D1F03B08BEF02AF139F003082801E6F0ED
:1010040046F120F000F005F105F11F01FCF0EEF0CF
:10101400EEF00EF12A08560839F01E082801E6F011
:101024000EF1EF0B4AF24FF1FCF087F36EF139F059
:101034001C08550246F120F0FCF0E6F04FF120F0D8
:101044000BFF6E616D653E737472696E6700EB072A
:1010540000F0040440F0FF002EF220F011FF74723F
:101064006176657273652D776F72646C6973740051
:10107400220800F073F3BEF039F04E081F0105F1A9
:1010840005F1D1F02AF0FCF0FCF0EEF039F04E0856
:10109400EF0B87F32FF03D08280120F008FF696368
:1010A4006F6D70617265300800F005F1DCF0FCF0E2
:1010B40019F139F061082801E6F046F120F0D1F089
:1010C40046F1BFF28208DCF086F0DCF087F3BEF074
:1010D40040F0000158F139F07308D1F040F0FF00FE
:1010E4002EF219F139F07A08280146F1FFF220F0C6
:1010F4004AF2D1F01701D1F040F00200D6F26508AF
:1011040028014FF120F001FF2A00500800F0C1F13E
:101114009A0820F001FF6A00850800F085F240F08B
:101124000900B8F186F020F003FF643E73008C08D8
:1011340000F0E6F020F004FF64616273960800F0AA
:10114400BEF03FF139F0A708AE0820F007FF646E47
:101154006567617465009D0800F0090D40F00100A9
:1011640046F1E10C20F005FF636D6F766500A80879
:10117400BB08BF93AF93E991F991A991B991092F54
:10118400082B21F01D9111930197E1F7AF91BF91C5
:10119400899199910C9404F005FF32737761700082
:1011A400B50800F0EEF005F1EEF0FCF020F003FFDE
:1011B40074696200CE084EF08D010AFF726566699B
:1011C4006C6C2D746962D90800F0DD0840F064008D
:1011D4009F0436018EF046F130018EF040F0FFFF9F
:1011E40020F00AFF736F757263652D746962DF08FE
:1011F40000F0DD08360186F020F007FF65652D75E7
:1012040073657200F3084EF0380006FF65653E72A0
:10121400616DFF0800F046F1BFF21A09DCF073F3C8
:10122400DCF08EF01701D1F01701D1F0F0F21009C3
:10123400280120F009FF696E69742D7573657200C9
:10124400070900F005092FF340F01C001FF20C09F8
:1012540020F007006C69746572616C001C0900F071
:10126400B20140F0BD0120F00800736C697465722E
:10127400616C2B0900F0B201A203B50320F000F069
:101284006601B201FFFF20F000F054076601D1F0BF
:1012940094F320F000F0660120F000F05407BD0143
:1012A40020F00500616865616400360900F0B20150
:1012B4002FF0410920F002006966530900F0B201E1
:1012C40039F0410920F00400656C73655D0900F094
:1012D400B2012FF04109D1F0460920F004007468EE
:1012E400656E650900F0460920F0050062656769CE
:1012F4006E00700900F04C0920F005007768696CF5
:101304006500770900F0B20139F04109D1F020F00D
:1013140006007265706561747F0900F0A2094609D0
:1013240020F00500756E74696C008A0900F0B20142
:1013340039F04F0920F00500616761696E00930977
:1013440000F0B2012FF04F0920F00200646F9D09F4
:1013540000F0B201AAF241094C0920F004006C6FBC
:101364006F70A70900F0B201F0F24F09460920F0AE
:1013740005002B6C6F6F7000B00900F0B201D6F25B
:101384004F09460920F005FF6C6561766500BA09CE
:10139400CB090F911F910F911F91AF91BF910C94A5
:1013A40004F003003F646F00C50900F0B201BFF20E
:1013B40041094C0920F006FF637265617465D30925
:1013C40000F08B01110AB2015BF020F006FF6865A2
:1013D40061646572DD0900F0660105F105F1BEF096
:1013E4006EF139F0FF09BEF040F000FF37F2B903A7
:1013F400FCF073F3BD01FCF020F040F0F0FF6E044C
:1014040007FF776C73636F706500E809E1073400C8
:10141400A507AA0706FF72657665616C020A00F0EB
:1014240040F05F0186F0C6F039F0200A40F0610117
:1014340086F04FF346F140F05F018EF020F006FF96
:101444006C61746573740C0A4EF0F1010500646FED
:1014540065733E00210A00F0B201400AB2010E9405
:10146400B201350A20F09A938A93CB0101967F91B9
:101474006F91BF93AF93DB010C9404F000F0FCF088
:1014840040F0610186F073F3EF0B4AF294F320F01D
:1014940001FF3A00280A00F08B016601260A8EF04B
:1014A400B20100F0710A20F007FF3A6E6F6E616DB1
:1014B40065004A0A00F06601BEF0260A8EF0B20109
:1014C40000F0710A20F001003B00560A00F0B2015E
:1014D40020F07A0A110A20F001FF5D00650A00F08D
:1014E40040F0010002018EF020F001005B006E0A62
:1014F40000F046F102018EF020F008FF7661726977
:1015040061626C65770A00F07601920A40F002008D
:101514007F0120F008FF636F6E7374616E747F0A3D
:1015240000F08B01110AB2014EF0BD0120F004FF5E
:10153400757365728C0A00F08B01110AB20161F0B7
:10154400BD0120F005FF76616C756500990A00F015
:1015540075F06E01BD01B201B90AB201BD0A6E0196
:10156400BEF04AF24AF299076F014FF320F000F0FF
:1015740087F373F320F000F087F34FF320F00700B4
:101584007265637572736500A40A00F0260A86F01A
:10159400BD0120F009FF696D6D65646961746500C2
:1015A400C10A00F0B00B73F3BEF087F340F0FF7F85
:1015B4002EF2D1F094F320F006005B636861725D53
:1015C400CC0A00F0B20140F0F104BD0120F00600A5
:1015D40061626F727422DE0A00F0B20139F06601B2
:1015E400B201FFFF400DB20140F0B201FEFFB201B3
:1015F4006E046601D1F094F320F005FF61626F720E
:101604007400E90A00F040F0FFFF6E0404FF636F0A
:101614006465FF0A00F08B01110A66014AF2BD01FC
:1016240020F008FF656E642D636F6465080B00F09D
:10163400B2010C94B20104F020F00BFF656E7669E0
:10164400726F6E6D656E7400130B4EF00C0009FF23
:10165400776F72646C6973747300000000F040F07B
:10166400080020F004FF2F706164290B00F09CF245
:101674003C01AEF120F005FF2F686F6C6400340B61
:1016840000F03C017601AEF120F00AFF666F72743F
:10169400682D6E616D653D0B00F0A2030700616D5E
:1016A400666F7274680020F007FF76657273696F65
:1016B4006E00470B00F040F0340020F003FF63702D
:1016C4007500560B00F040F04900040420F008FFB8
:1016D4006D63752D696E666F600B00F040F0450018
:1016E40020F005FF2F7573657200690B00F040F060
:1016F400260020F004FF40655B5D1F0B00F0BEF088
:1017040073F305F10EF146F1D1F0BFF2920BD5F26D
:101714000F01DCF0B8F173F3D1F04FF1D6F2890B7D
:101724002801FCF020F004FF21655B5D7C0B00F0D8
:101734001F014FF3D1F046F1BFF2A60B1701D1F010
:10174400DCF04FF3F0F2A00BE6F020F00BFF67653E
:10175400742D63757272656E7400950B00F040F021
:10176400100073F320F009FF6765742D6F726465D0
:101774007200A80B00F040F01400800B20F007FF6B
:10178400636F6D7061726500B50BC80BBF93AF9347
:101794008C0189919991DC01899199919C0189919C
:1017A4009991FC01ED90F190EF1451F40A9519F020
:1017B4002A95C1F701C02A95022B11F4882702C08B
:1017C4008FEF00C0982FAF91BF910C9404F007FFE6
:1017D4006E66613E6C666100C10B00F0040440F06B
:1017E400FF002EF24AF21FF2B8F120F00BFF7365EE
:1017F400742D63757272656E7400E90B00F040F02D
:1018040010004FF320F008FF70726576696F7573EE
:10181400F80B00F0BC0BD1F0E6F050F2BEF02AF168
:1018240039F0170C40F0CEFF6E04740C20F00BFF5F
:10183400646566696E6974696F6E7300050C00F007
:10184400BC0BDCF0000C46F1BFF22B0CE6F0F0F21E
:10185400280C20F008FF776F72646C697374190C9C
:1018640000F06E0146F1DCF04FF3BEF04AF24AF2AA
:1018740099076F0120F004FF6F6E6C792C0C00F057
:1018840040F0120040F00100740C20F005FF666F78
:10189400727468003D0C00F0BC0BD1F0E6F05E0CF5
:1018A400D1F0740C20F00EFF666F7274682D776FA0
:1018B40072646C697374480C7BF00E00B90ABD0A3B
:1018C40004FF616C736F550C00F0BC0BDCF0D1F0BD
:1018D4004AF2740C20F009FF7365742D6F7264650D
:1018E4007200620C00F040F01400990B20F005FF28
:1018F4006F72646572006D0C00F0B00B1F0D0D0467
:10190400BC0BBEF01F0D46F1BFF28C0C1F0D1A0468
:10191400F0F2880C20F004FF2B696E74790C920CA1
:1019240078940C9404F004FF2D696E748D0C9A0C59
:10193400F8940C9404F004FF696E7421950C00F083
:1019440040F01501B8F18EF020F004FF696E744088
:101954009D0C00F040F01501B8F186F020F008FF6E
:10196400696E742D74726170A70CB80C80931401A5
:101974008991999168940C9404F000F040F014015A
:10198400A5F040F01501B8F186F02AF0CA0C20F059
:10199400CB0C02D00C9404F0189503FF64322A0097
:1019A400B10CD40C09911991000F111F881F991FB4
:1019B4001A930A930C9404F002FF642BCF0CE20CEC
:1019C40029913991E990F99049915991240F351F42
:1019D4008E1D9F1D3A932A930C9404F002FF642DEC
:1019E400DE0CF40C29913991E990F99049915991BF
:1019F400421B530BE80AF90A5A934A93C7010C9401
:101A040004F007FF64696E7665727400F00C0A0DC9
:101A14000991199180959095009510951A930A93C0
:101A24000C9404F002FF643D030D00F0F30C37F254
:101A34002AF120F002FF752E140D00F046F1470341
:101A440020F003FF752E72001C0D00F046F1D1F05A
:101A5400500320F002FF2E73230D00F0B5069CF214
:101A64001701BFF23C0DD5F286F01F0D40F00200C5
:101A7400D6F2350D20F002002E222C0D00F0480D78
:101A8400B201D90320F0020073223D0D00F040F0B2
:101A94002200AF05020186F039F0530DB201A20312
:101AA400B50320F006FF456465666572450D00F0D8
:101AB4008B01110AB201E1076E01BEF0BD01B20152
:101AC400A507B201AA07170199076F0120F006FFC5
:101AD400526465666572540D00F08B01110AB201FF
:101AE400E1077601BD0140F002007F01B201AF07BA
:101AF400B201B40720F002006973690D00F002011D
:101B040086F039F0890DC901B201CC0720F04104F7
:101B1400CC0720F00BFF6170706C7475726E6B658E
:101B240079007D0D00F0C300910C61071A04EC00EC
:101B340040F0E803DDF1D1F0E6F0DF013F03A2035A
:101B440004006B487A20D90320F004FF66696C6CAA
:101B54008C0D00F0EEF0EEF046F1BFF2B60D1F0171
:101B64009AF04AF2F0F2B10DE6F0E6F020F00DFF43
:101B740073686F772D776F72646C69737400A70D47
:101B840000F040F0C80DD1F03B0820F000F02A0826
:101B9400D9031A044FF120F005FF776F72647300C4
:101BA400B90D00F040F0160073F3C20D20F003FFEE
:101BB400316D7300CE0DDE0DE0EAFFE03197F1F7F1
:101BC4000C9404F00800326C69746572616CD90D70
:101BD40000F0D1F0B20140F0BD01B20140F0BD010E
:021BE40020F0EF
:020000021000EC
:10E00000BF93AF93DB0111969EF0FD015527EE0FF4
:10E01000FF1F551F5BBF679177911196FB01552735
:10E02000EE0FFF1F551F5BBF07911791F801099471
:10E03000E8946FEB7CE0F2CF04FF65786974E40D3F
:10E0400021F0AF91BF91E0CF07FF657865637574EC
:10E0500065001CF02BF0BC0189919991DFCF30F065
:10E06000FD015527EE0FFF1F551F5BBFA791B7910D
:10E07000CBCF3AF0982B8991999191F31196C4CF17
:10E0800041F09A938A93FD015527EE0FFF1F551F0C
:10E090005BBF879197911196B7CF4EF09A938A9371
:10E0A000FB0131965527EE0FFF1F551F5BBF879170
:10E0B0009791AACF5BF09A938A93CB010196A4CF54
:10E0C00061F09A938A93FB0131965527EE0FFF1F5B
:10E0D000551F5BBF87919791840D951D95CF07FFC5
:10E0E0002876616C7565290024F000F08B01110A17
:10E0F000B2017BF020F00E94350ABEF0D1F04AF266
:10E1000087F32AF020F001FF40006FF087F0FC0158
:10E110008191919179CF01FF210083F08FF0FC0173
:10E120008991999191838083899199916DCF02FF13
:10E1300063218BF09BF0FC018991999180838991F7
:10E14000999162CF02FF634097F0A6F0FC019927F6
:10E1500080815ACF02FF4075A2F000F02FF3B8F192
:10E1600086F020F002FF2175AAF000F02FF3B8F13D
:10E170008EF020F003FF64757000B2F0BFF09A9348
:10E180008A9342CF04FF3F647570BAF0C7F0082F3E
:10E19000092B11F09A938A9337CF04FF737761703C
:10E1A000C2F0D2F08C01899199911A930A932CCFE5
:10E1B00004FF6F766572CDF0DDF09A938A938A81C1
:10E1C0009B8122CF04FF64726F70D8F0E7F08991D1
:10E1D00099911ACF03FF726F7400E2F0EFF08C0197
:10E1E00029913991899199913A932A931A930A9393
:10E1F0000BCF02FF723EEAF0FDF09A938A938F9163
:10E200009F9102CF02FF3E72F9F006F19F938F9328
:10E2100089919991F9CE02FF724002F10FF19A9320
:10E220008A938F919F919F938F93EECE02FF3C3EF6
:10E230000BF11AF1299139918217930751F132C0EC
:10E2400001FF3D0016F100F0AEF12AF120F002FFCF
:10E25000303D20F12BF1982BE1F424C001FF3C006C
:10E2600027F100F0AEF13FF120F001FF3E002EF16A
:10E2700000F0AEF16EF120F002FF303C35F140F1DC
:10E2800097FD10C006C001FF30003CF147F19A93A2
:10E290008A93C101B9CE04FF7472756543F150F1E0
:10E2A0009A938A938FEF9FEFAFCE02FF753C4BF1AD
:10E2B00059F1299139918217930758F351F3F2CF0D
:10E2C00002FF753E55F164F12991399128173907FC
:10E2D00000F3F9F2E7CF02FF303E60F16FF18215F3
:10E2E0009305BCF2B1F2DECF02FF643E6BF100F0A9
:10E2F000F30C7FF120F003FF64303E0074F180F1F5
:10E3000082159305899199918205930514F209F27A
:10E31000C9CF02FF643C7BF100F0F30C94F120F0D4
:10E3200003FF64303C0089F195F1229697FD0C942F
:10E3300052F10C9449F104FF6C6F673290F1A0F137
:10E34000FC01992780E18A9522F0EE0FFF1FD8F794
:10E350005BCE9A9559CE01FF2D009BF1AFF109914B
:10E360001991081B190BC8014FCE01FF2B00ABF10F
:10E37000B9F109911991800F911F46CE02FF6D2AC4
:10E38000B5F1C2F18C01899199919C013102700122
:10E39000209FC0013003F308900DE11CF31C120311
:10E3A000F308900DE11CF31C9A938A93C7012CCEBD
:10E3B00006FF756D2F6D6F64BEF1DEF17C01299152
:10E3C00039910991199140E15527000F111F221F22
:10E3D000331F551F2E153F05520518F003952E19B2
:10E3E0003F094A9589F73A932A93C8010DCE03FF56
:10E3F000756D2A00D8F1FCF18C0189919991809F6B
:10E40000F00122273327909FF00D211D331D819F9E
:10E41000F00D211D331D919F200D311DCF019A93C9
:10E420008A93C901F1CD06FF696E76657274F7F1C2
:10E4300019F280959095E8CD02FF322F13F220F269
:10E4400095958795E1CD02FF322A1CF227F2880FBD
:10E45000991FDACD03FF616E640023F22FF2099158
:10E46000199180239123D0CD02FF6F722AF238F2E6
:10E4700009911991802B912BC7CD03FF786F720002
:10E4800034F242F20991199180279127BDCD02FF04
:10E49000312B3DF24BF20196B7CD02FF312D47F201
:10E4A00051F20197B1CD06FF6C73686966744DF245
:10E4B00059F2FC018991999131971AF0880F991FAF
:10E4C000FBCFA2CD06FF72736869667453F268F2DF
:10E4D000FC018991999131971AF096958795FBCF18
:10E4E00093CD02FF2B2162F275F2FC018991999183
:10E4F00020813181820F931F80839183899199912B
:10E5000083CD03FF7270400071F286F29A938A9372
:10E510008DB79EB779CD03FF7270210081F290F222
:10E520002FB7F8948DBF9EBF2FBF899199916CCD65
:10E5300003FF737040008BF29DF29A938A93CE0191
:10E5400063CD03FF7370210098F2A6F2EC0189916C
:10E5500099915ACDABF2FD015527EE0FFF1F551FC4
:10E560005BBF079117911196299139911F930F93D2
:10E570003F932F939F938F938991999145CDC0F2AB
:10E58000FD015527EE0FFF1F551F5BBF0791179128
:10E590001196299139918217930741F7D8018991F2
:10E5A000999132CD01FF6900A1F20FF1D7F2EF91FD
:10E5B000FF91E80FF91F192F899199912F913F91A0
:10E5C000E217F30717FF02C03CF001C02CF43F93A1
:10E5D0002F93FF93EF9344CD0F911F91119614CD7C
:10E5E000F1F2EF91FF9131962F913F91E217F307EE
:10E5F00099F3EDCF06FF756E6C6F6F70D2F200F37A
:10E600001F910F911F910F911F910F91FDCC06FF4C
:10E61000636D6F76653EFAF20DF3BF93AF93E991A8
:10E62000F991A991B991092F082B41F0E80FF91F31
:10E63000A80FB91F1E9112930197E1F7AF91BF91F7
:10E6400089919991E1CC02FF3E3C07F327F3092F12
:10E65000982F802FD9CC03FF7570400023F330F33F
:10E660009A938A93C201D0CC03FF757021002BF3DB
:10E6700039F32C0189919991C7CC03FF733E640053
:10E6800034F300F0BEF03FF120F003FF6E6F740032
:10E690003DF300F02AF120F002FF216545F350F32D
:10E6A000FC01899199912FB7F89428D000B50817EB
:10E6B00009F00BD0319622D000B5091711F0892F3F
:10E6C00004D02FBF899199919FCCF999FECF07B7BC
:10E6D00000FDFDCFF2BDE1BD80BDFA9AF99A089523
:10E6E00002FF40654CF374F32FB7F894FC0106D099
:10E6F00080B5319603D090B52FBF86CCF999FECF67
:10E70000F2BDE1BDF89A089502FF406970F388F305
:10E71000FC015527EE0FFF1F551F5BBF8791979197
:10E7200073CC02FF216984F3E1070A00A507AA0759
:10E7300009FF2821692D6E727777290091F3A0F3E4
:10E740001FB71F93F8949C0189919991AF93BF9340
:10E75000CF93DF9309D0DF91CF91BF91AF91899192
:10E7600099911F911FBF50CC10D0E094F0948E214E
:10E770009F21982B19F0F90102E023D0F90104E060
:10E7800020D0F90100E11DD00895F901E078FF7F64
:10E79000EF01A0E8B0E0FE015527EE0FFF1F551F67
:10E7A0005BBF47915791FE01E217F30711F00A0191
:10E7B00002C07A010C01002704D02196119759F765
:10E7C0000895F999FECF17B710FDFDCF5527EE0F2D
:10E7D000FF1F551F5BBF016007BFE895089503FF4A
:10E7E0006E3E720098F3F4F3FC01082F8991999121
:10E7F0009F938F930A95D1F7EF93FF938991999106
:10E8000003CC03FF6E723E00EFF306F49A938A93F3
:10E81000FF91EF910E2F8F919F919A938A930A9572
:06E82000D1F7CF01F1CB9E
:00000001FF
