:020000020000FC
:02000400B9D071
:02000800B7D06F
:02000C00B5D06D
:02001000B3D06B
:02001400B1D069
:02001800AFD067
:02001C00ADD065
:02002000ABD063
:02002400A9D061
:02002800A7D05F
:02002C00A5D05D
:02003000A3D05B
:02003400A1D059
:020038009FD057
:02003C009DD055
:020040009BD053
:0200440099D051
:0200480097D04F
:02004C0095D04D
:1000500093D00004000200381500080041546D657B
:04006000676131366D
:04002C000C943200FE
:10006400AF93AFB7AF93BF93EF93FF93B0912C00CF
:10007400A0916000E2E6F0E0EA0FF31DB083A395DF
:10008400AF70A0936000FF91EF91BF91AF91AFBFAC
:10009400AF911895001C341D371C60007C1C1A1C81
:1000A40006FF72782D6973720000001C7100301C09
:1000B4005800371C6100931CAC1C381E371C0F0001
:1000C4001C1E371C6100881C371C6200A61D931C73
:1000D4001A1C07FF72783F2D697372005200001CCE
:1000E4006606371C6100931C371C6000931C071DB7
:1000F4001A1C07FF74782D706F6C6C006B00001C69
:100104008F00301C8200371C2C00881C1A1C08FF2E
:1001140074783F2D706F6C6C7B00001C6606371C76
:100124002B00931C371C20001C1E1A1C04FF756234
:1001340072728900691C54009B0A9F0A06FF2B7582
:10014400736172749800001C371C9800371C2A00D5
:10015400881C371C0600371CC000881C9C00AC1C83
:100164000E1F371C4000881C371C2900881C4C00BB
:0401740060071A1CEA
:040000000C946F06E7
:100178000A920FB60A920F900F900A940092740098
:1001880009900FBE09906894089505FF665F637033
:100198007500A000691C5600D200DB00001C6F1F10
:1001A800AC1CF9005B1FBF1C5B1FBF1C1A1C001C8A
:1001B800371CEBFF500405FF737461746500C900B8
:1001C800421C9F0004FF62617365DF00521C0C0033
:1001D80005FF63656C6C7300E600001C141E1A1C96
:1001E80005FF63656C6C2B00EC00FA0002960C941A
:1001F800041C04FF32647570F400001CCA1CCA1C7D
:100208001A1C05FF3264726F7000FD00001CD41CBC
:10021800D41C1A1C03FF3E696E000501521C18000D
:1002280004FF237469620E01421CA10003FF706180
:1002380064001401001C5801371C6400A61D1A1C18
:1002480004FF656D69741A01C3070E009B07A207B6
:1002580005FF656D69743F002401C30710009B0703
:10026800A20703FF6B6579002C01C30712009B07E7
:10027800A20704FF6B65793F3501C30714009B078C
:10028800A20702FF64703D01691C02009B0A9F0AD5
:1002980003FF656470004501691C06009B0A9F0AFC
:1002A80004FF686572654C01691C04009B0A9F0A7B
:1002B80005FF616C6C6F74005401001C5801A61D89
:1002C8007B0759011A1C08FF286372656174652948
:1002D8005C01001CE005EA09AC1CF31CCF09EA1C10
:1002E800371CA5007C1C371CA3007C1C1A1C0100B1
:1002F8005C006701001CC505BF1CD41C12017C1CD6
:100308001A1C010028007B01001C371C29009105DC
:100318000A011A1C07FF636F6D70696C650085011F
:10032800001CEA1CAC1C381EF31C6F1F9F011A1C12
:1003380001FF2C008E01001C4801791F4801381E5E
:100348007B0749011A1C03005B275D009C01001C08
:100358009401371C23049F011A1C03FF62696E0075
:10036800A701001C371C0200EA007C1C1A1C07FFAE
:10037800646563696D616C00B101001C371C0A007B
:10038800EA007C1C1A1C03FF68657800BB01001C8E
:10039800371C1000EA007C1C1A1C02FF626CC701A3
:1003A800421C200007FF7475726E6B657900D101DD
:1003B800C307080087078C0705FF2A2F6D6F6400A5
:1003C800D601001CF31CAF1DEA1CCB1D1A1C04FF30
:1003D8002F6D6F64E001F0019C0109911991412F83
:1003E800432717FF04C0109500950F5F1F4F37FF75
:1003F80004C0309520952F5F3F4FEE24FF1851E140
:10040800001F111F5A9539F447FF04C01095009535
:100418000F5F1F4F0BC0EE1CFF1CE21AF30A20F4FB
:10042800E20EF31E8894ECCF0894EACFFA92EA928F
:10043800C8010C94041C02FF2A2FEB01001CE501E3
:10044800BF1CD41C1A1C05FF752F6D6F64001F029A
:10045800001CF31C341DEA1CCB1D1A1C06FF6E651C
:10046800676174652702001C061E381E1A1C01FFEE
:100478002F003202001CEF01BF1CD41C1A1C03FF02
:100488006D6F64003B02001CEF01D41C1A1C03FFB3
:10049800616273004302500299231AF48095909583
:1004A80001960C94041C03FF6D696E004B02001C3E
:1004B8000101261D301C6102BF1CD41C1A1C03FF3D
:1004C8006D6178005702001C01011F1D301C6D0270
:1004D800BF1CD41C1A1C06FF77697468696E630216
:1004E800001CCA1C9C1DF31C9C1DEA1C461D1A1CE2
:1004F80007FF746F7570706572006F02001CAC1C8A
:10050800371C6100371C7B007402301C8E02371CBC
:10051800DF001C1E1A1C07FF746F6C6F7765720072
:100528007C02001CAC1C371C4100371C5B007402A9
:10053800301CA102371C2000251E1A1C03FF686C02
:1005480064008F02421CA70004FF686F6C64A2025B
:10055800001CA602AC1C741C3E1EAC1CF31CBF1C69
:100568007C1CEA1C881C1A1C02FF3C23A802001CE5
:100578001E01A6027C1C1A1C01FF2300B802001CE5
:10058800EA00741C4203DC1C371C0900CA1C1F1D2E
:10059800301CD102371C0700A61D371C3000A61DD1
:1005A800AC021A1C02FF2373C002001CC302010123
:1005B800251E181D301CDA021A1C02FF233ED60223
:1005C800001C0A01A602741CAC1C1E01BF1C9C1D49
:1005D8001A1C04FF7369676EE102001C2D1D301C94
:1005E800F802371C2D00AC021A1C03FF642E72009F
:1005F800ED02001CF31CBF1CCA1C8308BB02D902F5
:10060800DC1CF102E402EA1CCA1C9C1D050414044B
:100618001A1C02FF2E72F902001CF31C291FEA1C87
:10062800FD021A1C02FF642E0D03001C341DFD027E
:10063800FC031A1C01FF2E001603001C291F1903B6
:100648001A1C03FF75642E001E03001C341D3203A0
:10065800FC031A1C04FF75642E722503001CF31C8E
:10066800BB02D902E402EA1CCA1C9C1D050414043E
:100678001A1C06FF75642F6D6F642E03001CF31C93
:10068800341DFC1CCB1DEA1CBF1CF31CCB1DEA1C33
:100698001A1C06FF64696769743F3D03001C8202E7
:1006A800371C30009C1DAC1C371C0900511D301C28
:1006B8006903371C07009C1DAC1C371C0900780314
:1006C800301C6903D41C341D1A1CAC1CEA00741CB1
:1006D8008003301C7203D41C341D1A1C3D1D1A1CC7
:1006E80003FF753C3D004D03001C511D061E1A1CDE
:1006F80003FF753E3D007403001C461D061E1A1CB0
:10070800001CEA1CAC1CAC1C6F1FBF1C381EBF1C95
:10071800DC1CCA1C381E0D1EA61D381EF31C1A1C14
:1007280002FF732C7C03001CAC1C9B031A1C001CCE
:100738009F01AC1C0D1EBF1CCA1C141E9C1DF31C63
:10074800341DAA1EAD03AC1C741C9F01F900D81EF1
:10075800A703EA1C5C1D301CB403AC1C931C9F014E
:10076800D41C1A1C05FF6974797065009403001C79
:10077800AC1C0D1EBF1CCA1C141E9C1DF31C341D72
:10078800AA1ECE03AC1C6F1FAC1CDB03D703381E9C
:10079800D81EC603EA1C5C1D301CD503AC1C6F1F99
:1007A800DB03D41C1A1C001C0E1FDB031A1C001CC4
:1007B800371CFF001C1E28011A1C06FF69636F7591
:1007C8006E74B603001CAC1C381EBF1C6F1F1A1CAD
:1007D80002FF6372E103001C371C0D002801371C5F
:1007E8000A0028011A1C05FF737061636500EC0399
:1007F800001CD40128011A1C06FF7370616365731D
:10080800F703001CAC1C5C1D1C1E341DAA1E0F0423
:10081800FC03D81E0C041A1C04FF747970650004CC
:10082800001CCA1CA61DBF1CAA1E1F04BD1E931CAB
:100838002801D81E1A041A1C01FF27001004001CE6
:10084800E005FD05181D301C2C04371CF3FF50046F
:100858001A1C07FF68616E646C6572002004521CE4
:100868000A0005FF6361746368002D04001C8A1E7A
:10087800F31C3304741CF31C731E33047C1C241CEB
:10088800EA1C33047C1CEA1CD41C341D1A1C05FF0A
:100898007468726F77003504001CAC1C181D301C7E
:1008A8005704D41C1A1C3304741C7D1EEA1C330420
:1008B8007C1CEA1CBF1CF31C931ED41CEA1C1A1CCB
:1008C80005FF63736B6970004B04001CF31CAC1CC0
:1008D800301C7904CA1C931CFC1C111D301C7904A3
:1008E800371C0100CF05291C6B04EA1CD41C1A1CF8
:1008F80006FF6163636570746404001CAC1CF31C20
:10090800F31C3901AC1C371C0A00071D301CBF043E
:10091800AC1C371C0D00071D301CBF04AC1C371C59
:100928000800111D301CAB04EA1CFC1CCA1CF31C7B
:10093800111D301CA204D41C291C8504AC1C2801E0
:10094800FC0328013E1EEA1C381E291CB904AC1CF5
:10095800D4011F1D301CB204D41CD401AC1C2801C6
:10096800CA1C881C381EEA1C3E1EAC1CF31C181D31
:10097800301C8504AC1C0A01EA1CEA1CBF1C9C1D27
:10098800EF031A1C06FF726566696C6C7C04C3076A
:100998001A009B07A20704FF63686172C604001C63
:1009A800E005D41C931C1A1C06FF6E756D626572F7
:1009B800CF04001CEA00741CF31C4E05F31C1A0536
:1009C8004E05EA1C251EF31CF31CF31C341D341DB4
:1009D800EA1CEA1C6D05B41C301C0E05371C01000E
:1009E800111D301C0505931C371C2E00111D301CD1
:1009F8000505EA1C301C01059008371C0200291C5B
:100A080015050A01D41CEA1CD41CEA1CEA007C1C4B
:100A1800341D1A1C0A01EA1C301C13053702371C46
:100A28000100EA1CEA007C1C3D1D1A1C001CCA1CA3
:100A3800931C371C2900261D301C23051A1CCA1CB0
:100A4800931C2A05371C0100CF051A1C001CAC1C7E
:100A5800371C2400111D301C3405D41CCB011A1C72
:100A6800AC1C371C2500111D301C3D05D41CB501DC
:100A78001A1CAC1C371C2600111D301C4605D41C42
:100A8800C1011A1C371C2300111D301C4D05C10162
:100A98001A1C1A1C001CCA1C931C371C2B00111D85
:100AA800301C5905371C0100CF05CA1C931C371C84
:100AB8002D00111DAC1CF31C301C6505371C0100F2
:100AC800CF05EA1C1A1C07FF3E6E756D6265720041
:100AD800D804001CAC1C301C8B05CA1C931C520388
:100AE800181D301C78051A1CF31CB508EA1CBF1C1D
:100AF800EA00741CE91DD41CDC1CEA00741CE91D06
:100B0800C30CB508371C0100CF05291C6E051A1C3B
:100B180005FF7061727365006705001CF31CC5054D
:100B28001201741CCF05EA1CA605AC1C381E120164
:100B3800621E371C0100CF051A1C05FF6373636131
:100B48006E008C05001CBF1CAC1CF31C341DAA1EB7
:100B5800BD05CA1CBD1EA61D931CCA1C111D301C38
:100B6800BB05D41CBD1EE71EEA1CD41C1A1CD81ECB
:100B7800AD05D41CEA1C1A1C06FF736F75726365F9
:100B8800A105C30716009B07A20707FF2F737472FE
:100B9800696E6700C005001CCA1C5B02DC1CCA1C0D
:100BA800A61DDC1CDC1C9C1D1A1C0AFF70617273DC
:100BB800652D6E616D65C905001CD401E4051A1C1C
:100BC800001CF31CC5051201741CCF05FC1C69042C
:100BD800EA1CA6050101A61DC505D41C9C1D120111
:100BE8007C1C1A1C09FF66696E642D6E616D6500B8
:100BF800D905001C371C14005B1F341DAA1E1806DB
:100C08000101371C1600BD1EF100A61D5B1FD7078A
:100C1800B41C301C1606F31CF31C0A01EA1CEA1C5F
:100C2800E71E1A1CD81E04060A01341D1A1C04FFEC
:100C380071756974F605001C9706931EAC067D1E37
:100C48005C0AE400741C181D301C2B064106CB04FA
:100C5800301C2506371CC5063A04B41C301C3D065A
:100C6800AC1C371CFEFF1F1D301C3B064F06291C01
:100C780020064806291C25061A1C001CEF038403BD
:100C880002003E20BB031A1C001C84030300206FD3
:100C98006B00BB031A1C001C84030400203F3F2088
:100CA800BB03EA00741CF31CC10121031201741C6C
:100CB8002103EA1CEA007C1C1A1C05FF706175738D
:100CC80065001B06C307A9009107960704FF636F19
:100CD8006C6461066F06A4B6BB242224332424BEA8
:100CE800EBEAF0E02F010FE50DBF048314E01EBF0F
:100CF8001583CFE0C683D4E0D783AAE8B6E00C9486
:100D0800041C04FF7761726D6A06001C0509371C14
:100D18006007371C6606AE07DC011F061A1C03FFB6
:100D2800737030008506691C0600A006A40602FF41
:100D380073709306521C0800001C6F1F9B1C1A1C22
:100D4800001C6F1FA31C1A1C03FF727030009B0647
:100D5800001CB006741C1A1C521C040005FF6465B4
:100D680070746800A806001C97068A1E9C1D0D1E3C
:100D78003E1E1A1C09FF696E7465727072657400F4
:100D8800B206001CE005B41C5C1D301CE906371CCB
:100D980026005B1F341DAA1EE5060101BD1EDC1CD2
:100DA800DC1CF31CF31CF100371C2800A61D5B1F7C
:100DB800241CEA1CEA1CDC1C301CE306AC09D81E07
:100DC800D1060A013607291CC606D41C1A1C0AFFBC
:100DD8007265632D696E746E756DBE06001CDD0448
:100DE800301C0707E400741C301C0407371C020081
:100DF800111D301C0107BF1C13091309291C050705
:100E0800D41C3D1D1A1C341D1A1C08FF7265632D65
:100E180066696E64EB06001CFD05AC1C301C2207DD
:100E28005C1D301C1907291C2007E400741C301CA9
:100E380020079F01291C2107241C3D1D1A1C0CFF9B
:100E48007265632D6E6F74666F756E640907001C9A
:100E58001404371CF3FF50041A1C06FF3F73746117
:100E6800636B2307001CB7062D1D301C3E07371C7B
:100E7800FCFF50041A1C03FF766572003107001C42
:100E8800300BBB03FC03EA00741CF31CC1013E0BCE
:100E9800291FBB02C302371C2E00AC02D902E40290
:100EA800EA1CEA007C1C1404FC03460BBB031A1C56
:100EB80004FF6E6F6F703F0761070C94041C06FFF8
:100EC800756E757365645C07001C970658019C1D58
:100ED8001A1C0200746F6307001C2304381EE40008
:100EE800741C301C810794017B079F011A1C001C8D
:100EF800EA1CAC1C381EF31C6F1FAC1C381E381EB5
:100F08006F1F241C1A1C001C381E6F1F5B1F1A1C25
:100F1800001C381E6F1F371F1A1C001C381E6F1F3D
:100F2800741C1A1C001C381E6F1F7C1C1A1C001C09
:100F3800381E6F1F171FA61D741C1A1C001C381E94
:100F48006F1F171FA61D7C1C1A1C06FF64656665AB
:100F580072216D07001CAC1C371C0300A61D6F1FF7
:100F6800241C1A1C06FF646566657240A907001CEC
:100F7800AC1C381E381E6F1F241C1A1CC3070E9485
:100F8800170AAC1C3E1EBF1C381E6F1F241C241CD5
:100F98001A1C0FFF7365617263682D776F72646C3A
:100FA80069737400B607001C341DBF1C371CE607A4
:100FB800BF1C1D08AC1C181D301CE5070A01D41CF9
:100FC800341D1A1C001CF31CF31C0101EA1CDC1C58
:100FD800DC1CFC1C0C083808301C00080A01D41C56
:100FE800FC1CD10B381E3D1DEA1C6F1F5C1D301CFC
:100FF800FE073702341D1A1CEA1CD41C3D1D1A1C9E
:101008000BFF6E616D653E737472696E6700CD0784
:10101800001CE603371CFF001C1E1A1C11FF74720B
:101028006176657273652D776F72646C697374008D
:101038000408001C5B1FAC1C301C30080101F31CA9
:10104800F31CBF1C241CEA1CEA1CDC1C301C3008E6
:10105800D10B6F1F291C1F080A011A1C08FF69639E
:101068006F6D706172651208001CF31CCA1CEA1CC3
:10107800071D301C43080A01D41C341D1A1CBF1C50
:10108800341DAA1E6408CA1C741CCA1C6F1FAC1C21
:10109800371C0001461D301C5508BF1C371CFF00BB
:1010A8001C1E071D301C5C080A01341DE71E1A1C93
:1010B800381EBF1CF900BF1C371C0200BE1E4708A3
:1010C8000A013D1D1A1C01FF2A003208001CAF1D31
:1010D8007C081A1C01FF6A006708001C731E371C75
:1010E8000900A61D741C1A1C03FF643E73006E08D9
:1010F800001CD41C1A1C04FF646162737808001C6D
:10110800AC1C2D1D301C890890081A1C07FF646E42
:101118006567617465007F08001CEB0C371C0100D3
:10112800341DC30C1A1C05FF636D6F7665008A08B1
:101138009D08BF93AF93E991F991A991B991092FAE
:10114800082B21F01D9111930197E1F7AF91BF9101
:10115800899199910C94041C05FF32737761700092
:101168009708001CDC1CF31CDC1CEA1C1A1C03FF7F
:1011780074696200B008421CD1000AFF7265666992
:101188006C6C2D746962BB08001CBF08371C6400B6
:10119800810418017C1C341D12017C1C371CFFFFC4
:1011A8001A1C0AFF736F757263652D746962C10832
:1011B800001CBF081801741C1A1C07FF65652D75F3
:1011C80073657200D508421C380006FF65653E72DB
:1011D800616DE108001C341DAA1EFC08CA1C5B1FB7
:1011E800CA1C7C1CF900BF1CF900BF1CD81EF208E1
:1011F8000A011A1C09FF696E69742D7573657200FE
:10120800E908001CE708171F371C1C000D1EEE0814
:101218001A1C07006C69746572616C00FE08001C7A
:101228009401371C9F011A1C0800736C697465725D
:10123800616C0D09001C9401840397031A1C001C9F
:1012480048019401FFFF1A1C001C36074801BF1C07
:10125800791F1A1C001C48011A1C001C36079F0124
:101268001A1C05006168656164001809001C940176
:10127800291C23091A1C020069663509001C9401FF
:10128800301C23091A1C0400656C73653F09001C97
:101298009401291C2309BF1C28091A1C040074681E
:1012A800656E4709001C28091A1C050062656769F4
:1012B8006E005209001C2E091A1C05007768696C1B
:1012C80065005909001C9401301C2309BF1C1A1C15
:1012D80006007265706561746109001C840928093B
:1012E8001A1C0500756E74696C006C09001C940169
:1012F800301C31091A1C0500616761696E007509A7
:10130800001C9401291C31091A1C0200646F7F0912
:10131800001C9401981E23092E091A1C04006C6FE6
:101328006F708909001C9401D81E310928091A1CFC
:1013380005002B6C6F6F70009209001C9401BE1E93
:10134800310928091A1C05FF6C65617665009C093E
:10135800AD090F911F910F911F91AF91BF910C94FF
:10136800041C03003F646F00A709001C9401AA1E17
:1013780023092E091A1C06FF637265617465B50995
:10138800001C6D01F30994014C1C1A1C06FF6865CA
:1013980061646572BF09001C4801F31CF31CAC1C96
:1013A8005C1D301CE109AC1C371C00FF251E9B038B
:1013B800EA1C5B1F9F01EA1C1A1C371CF0FF500433
:1013C80007FF776C73636F706500CA09C307340041
:1013D80087078C0706FF72657665616CE409001C57
:1013E800371CA300741CB41C301C020A371CA5004F
:1013F800741C371F341D371CA3007C1C1A1C06FFE5
:101408006C6174657374EE09421C35010500646FE4
:1014180065733E00030A001C9401220A94010E948D
:101428009401170A1A1C9A938A93CB0101967F910B
:101438006F91BF93AF93DB010C94041C001CEA1C52
:10144800371CA500741C5B1FD10B381E791F1A1C92
:1014580001FF3A000A0A001C6D014801080A7C1CB9
:101468009401001C530A1A1C07FF3A6E6F6E616DD7
:1014780065002C0A001C4801AC1C080A7C1C94015D
:10148800001C530A1A1C01003B00380A001C940176
:101498001A1C5C0AF3091A1C01FF5D00470A001CAC
:1014A800371C0100E4007C1C1A1C01005B00500A78
:1014B800001C341DE4007C1C1A1C08FF766172694C
:1014C80061626C65590A001C5801740A371C0200D5
:1014D80061011A1C08FF636F6E7374616E74610A90
:1014E800001C6D01F3099401421C9F011A1C04FFA2
:1014F800757365726E0A001C6D01F3099401521C24
:101508009F011A1C05FF76616C7565007B0A001C3B
:10151800631C50019F0194019B0A94019F0A50018A
:10152800AC1C381E381E7B075101371F1A1C001CC3
:101538006F1F5B1F1A1C001C6F1F371F1A1C070028
:101548007265637572736500860A001C080A741C4C
:101558009F011A1C09FF696D6D65646961746500F6
:10156800A30A001C920B5B1FAC1C6F1F371CFF7F6C
:101578001C1EBF1C791F1A1C06005B636861725D24
:10158800AE0A001C9401371CD3049F011A1C0600E4
:1015980061626F727422C00A001C9401301C4801F9
:1015A8009401FFFF220D9401371C9401FEFF940162
:1015B80050044801BF1C791F1A1C05FF61626F7235
:1015C8007400CB0A001C371CFFFF500404FF636F34
:1015D8006465E10A001C6D01F3094801381E9F018A
:1015E8001A1C08FF656E642D636F6465EA0A001CA7
:1015F80094010C949401041C1A1C0BFF656E766907
:10160800726F6E6D656E7400F50A421C0C0009FF5E
:10161800776F72646C69737473000000001C371C68
:1016280008001A1C04FF2F7061640B0B001C8A1E33
:101638001E019C1D1A1C05FF2F686F6C6400160B99
:10164800001C1E0158019C1D1A1C0AFF666F72744B
:10165800682D6E616D651F0B001C84030700616DAA
:10166800666F727468001A1C07FF76657273696F7B
:101678006E00290B001C371C34001A1C03FF637012
:101688007500380B001C371C2D00E6031A1C08FFD8
:101698006D63752D696E666F420B001C371C29003F
:1016A8001A1C05FF2F75736572004B0B001C371C45
:1016B80026001A1C04FF40655B5D010B001CAC1C76
:1016C8005B1FF31CFC1C341DBF1CAA1E740BBD1E23
:1016D800F100CA1CA61D5B1FBF1C3D1DBE1E6B0B67
:1016E8000A01EA1C1A1C04FF21655B5D5E0B001CE5
:1016F8000101371FBF1C341DAA1E880BF900BF1C2F
:10170800CA1C371FD81E820BD41C1A1C0BFF676516
:10171800742D63757272656E7400770B001C371C2C
:1017280010005B1F1A1C09FF6765742D6F726465D2
:1017380072008A0B001C371C1400620B1A1C07FF6E
:10174800636F6D7061726500970BAA0BBF93AF93BF
:101758008C0189919991DC01899199919C018991D8
:101768009991FC01ED90F190EF1451F40A9519F05C
:101778002A95C1F701C02A95022B11F4882702C0C7
:101788008FEF00C0982FAF91BF910C94041C07FFF6
:101798006E66613E6C666100A30B001CE603371C95
:1017A800FF001C1E381E0D1EA61D1A1C0BFF73659C
:1017B800742D63757272656E7400CB0B001C371C38
:1017C8001000371F1A1C08FF70726576696F7573F1
:1017D800DA0B001C9E0BBF1CD41C3E1EAC1C181D33
:1017E800301CF90B371CCEFF5004560C1A1C0BFF8B
:1017F800646566696E6974696F6E7300E70B001C37
:101808009E0BCA1CE20B341DAA1E0D0CD41CD81E3C
:101818000A0C1A1C08FF776F72646C697374FB0BEF
:10182800001C5001341DCA1C371FAC1C381E381E42
:101838007B0751011A1C04FF6F6E6C790E0C001C9B
:10184800371C1200371C0100560C1A1C05FF666F66
:10185800727468001F0C001C9E0BBF1CD41C400C2B
:10186800BF1C560C1A1C0EFF666F7274682D776FBA
:1018780072646C6973742A0C691C0E009B0A9F0AB7
:1018880004FF616C736F370C001C9E0BCA1CBF1CD5
:10189800381E560C1A1C09FF7365742D6F72646527
:1018A8007200440C001C371C14007B0B1A1C05FF2B
:1018B8006F72646572004F0C001C920B010DEF03F0
:1018C8009E0BAC1C010D341DAA1E6E0C010DFC03F1
:1018D800D81E6A0C1A1C04FF2B696E745B0C740CFE
:1018E80078940C94041C04FF2D696E746F0C7C0CA6
:1018F800F8940C94041C04FF696E7421770C001C86
:10190800371C7500A61D7C1C1A1C04FF696E7440E8
:101918007F0C001C371C7500A61D741C1A1C08FFC0
:10192800696E742D74726170890C9A0C80937400BE
:101938008991999168940C94041C001C371C7400BC
:10194800931C371C7500A61D741C241CAC0C1A1C97
:10195800AD0C02D00C94041C189503FF64322A00C5
:10196800930CB60C09911991000F111F881F991F2C
:101978001A930A930C94041C02FF642BB10CC40C38
:1019880029913991E990F99049915991240F351F7E
:101998008E1D9F1D3A932A930C94041C02FF642DFC
:1019A800C00CD60C29913991E990F9904991599137
:1019B800421B530BE80AF90A5A934A93C7010C943D
:1019C800041C07FF64696E7665727400D20CEC0C17
:1019D8000991199180959095009510951A930A93FD
:1019E8000C94041C02FF643DE50C001CD50C251E5C
:1019F800181D1A1C02FF752EF60C001C341D290335
:101A08001A1C03FF752E7200FE0C001C341DBF1C2F
:101A180032031A1C02FF2E73050D001C97068A1E3E
:101A2800F900AA1E1E0DBD1E741C010D371C0200F4
:101A3800BE1E170D1A1C02002E220E0D001C2A0DA8
:101A48009401BB031A1C020073221F0D001C371CD3
:101A580022009105E400741C301C350D94018403A8
:101A680097031A1C06FF456465666572270D001CFE
:101A78006D01F3099401C3075001AC1C9F01940147
:101A8800870794018C07F9007B0751011A1C06FF90
:101A9800526465666572360D001C6D01F309940188
:101AA800C30758019F01371C020061019401910787
:101AB800940196071A1C020069734B0D001CE40080
:101AC800741C301C6B0DAB019401AE071A1C230467
:101AD800AE071A1C0BFF6170706C7475726E6B65C3
:101AE80079005F0D001CA500730C4307FC03CE00B2
:101AF800371CE803CB1DBF1CD41CC1012103840380
:101B080004006B487A20BB031A1C04FF66696C6CDE
:101B18006E0D001CDC1CDC1C341DAA1E980D010176
:101B2800881C381ED81E930DD41CD41C1A1C0DFFFB
:101B380073686F772D776F72646C69737400890DA1
:101B4800001C371CAA0DBF1C1D081A1C001C0C0801
:101B5800BB03FC033D1D1A1C05FF776F72647300FD
:101B68009B0D001C371C16005B1FA40D1A1C03FFDD
:101B7800316D7300B00DC00DE0EDF7E03197F1F76E
:101B88000C94041C0800326C69746572616CBB0D9E
:101B9800001CBF1C9401371C9F019401371C9F0136
:021BA8001A1C05
:10380000BF93AF93DB0111966EF0FD01EE0FFF1F2A
:10381000659175911196FB01EE0FFF1F05911591B2
:10382000F8010994E89461EA7CE0F5CF04FF65783B
:103830006974C60D1B1CAF91BF91E6CF07FF657879
:10384000656375746500161C251CBC0189919991EE
:10385000E2CF2A1CFD01EE0FFF1FA591B591D4CF39
:10386000311C982B89919991A9F31196CDCF381CD1
:103870009A938A93FD01EE0FFF1F85919591119602
:10388000C3CF421C9A938A93FB013196EE0FFF1F20
:1038900085919591B9CF4C1C9A938A93CB0101964F
:1038A000B3CF521C9A938A93FB013196EE0FFF1F00
:1038B00085919591840D951DA7CF07FF2876616CA2
:1038C000756529001E1C001C6D01F3099401691C1B
:1038D0001A1C0E94170AAC1CBF1C381E6F1F241C28
:1038E0001A1C01FF40005D1C751CFC018191919127
:1038F0008BCF01FF2100711C7D1CFC0189919991E6
:1039000091838083899199917FCF02FF6321791CF4
:10391000891CFC018991999180838991999174CF37
:1039200002FF6340851C941CFC01992780816CCFA9
:1039300002FF4075901C001C171FA61D741C1A1C4A
:1039400002FF2175981C001C171FA61D7C1C1A1C49
:1039500003FF64757000A01CAD1C9A938A9354CF2A
:1039600004FF3F647570A81CB51C082F092B11F0CB
:103970009A938A9349CF04FF73776170B01CC01C7F
:103980008C01899199911A930A933ECF04FF6F7627
:103990006572BB1CCB1C9A938A938A819B8134CF1E
:1039A00004FF64726F70C61CD51C899199912CCF4D
:1039B00003FF726F7400D01CDD1C8C0129913991BA
:1039C000899199913A932A931A930A931DCF02FFF2
:1039D000723ED81CEB1C9A938A938F919F9114CFBF
:1039E00002FF3E72E71CF41C9F938F93899199917B
:1039F0000BCF02FF7240F01CFD1C9A938A938F91AB
:103A00009F919F938F9300CF02FF3C3EF91C081DAE
:103A1000299139918217930751F132C001FF3D007E
:103A2000041D001C9C1D181D1A1C02FF303D0E1D9C
:103A3000191D982BE1F424C001FF3C00151D001C4A
:103A40009C1D2D1D1A1C01FF3E001C1D001C9C1DF1
:103A50005C1D1A1C02FF303C231D2E1D97FD10C05B
:103A600006C001FF30002A1D351D9A938A93C101BB
:103A7000CBCE04FF74727565311D3E1D9A938A93F7
:103A80008FEF9FEFC1CE02FF753C391D471D299175
:103A900039918217930758F351F3F2CF02FF753E25
:103AA000431D521D299139912817390700F3F9F266
:103AB000E7CF02FF303E4E1D5D1D82159305BCF21F
:103AC000B1F2DECF02FF643E591D001CD50C6D1D06
:103AD0001A1C03FF64303E00621D6E1D82159305A3
:103AE000899199918205930514F209F2C9CF02FFD9
:103AF000643C691D001CD50C821D1A1C03FF643038
:103B00003C00771D831D229697FD0C94401D0C945C
:103B1000371D04FF6C6F67327E1D8E1DFC019927D7
:103B200080E18A9522F0EE0FFF1FD8F76DCE9A95AF
:103B30006BCE01FF2D00891D9D1D09911991081B58
:103B4000190BC80161CE01FF2B00991DA71D09911A
:103B50001991800F911F58CE02FF6D2AA31DB01D31
:103B60008C01899199919C0131027001209FC001C3
:103B70003003F308900DE11CF31C1203F308900DC1
:103B8000E11CF31C9A938A93C7013ECE06FF756D24
:103B90002F6D6F64AC1DCC1D7C0129913991099169
:103BA000199140E15527000F111F221F331F551F88
:103BB0002E153F05520518F003952E193F094A9519
:103BC00089F73A932A93C8011FCE03FF756D2A0027
:103BD000C61DEA1D8C0189919991809FF0012227D1
:103BE0003327909FF00D211D331D819FF00D211D66
:103BF000331D919F200D311DCF019A938A93C901E6
:103C000003CE06FF696E76657274E51D071E80950A
:103C10009095FACD02FF322F011E0E1E95958795C5
:103C2000F3CD02FF322A0A1E151E880F991FECCD14
:103C300003FF616E6400111E1D1E099119918023FE
:103C40009123E2CD02FF6F72181E261E0991199171
:103C5000802B912BD9CD03FF786F7200221E301E6E
:103C60000991199180279127CFCD02FF312B2B1E6F
:103C7000391E0196C9CD02FF312D351E3F1E019719
:103C8000C3CD06FF6C73686966743B1E471EFC015A
:103C90008991999131971AF0880F991FFBCFB4CD74
:103CA00006FF727368696674411E561EFC01899195
:103CB000999131971AF096958795FBCFA5CD02FF84
:103CC0002B21501E631EFC01899199912081318125
:103CD000820F931F808391838991999195CD03FFE2
:103CE000727040005F1E741E9A938A938DB79EB7C0
:103CF0008BCD03FF727021006F1E7E1E2FB7F894CC
:103D00008DBF9EBF2FBF899199917ECD03FF7370A8
:103D10004000791E8B1E9A938A93CE0175CD03FFC6
:103D200073702100861E941EEC01899199916CCDCF
:103D3000991EFD01EE0FFF1F059115911196299116
:103D400039911F930F933F932F939F938F93899153
:103D500099915ACDAB1EFD01EE0FFF1F05911591F4
:103D60001196299139918217930759F7D8018991B2
:103D700099914ACD01FF69008F1EFD1CBF1EEF9176
:103D8000FF91E80FF91F192F899199912F913F9178
:103D9000E217F30717FF02C03CF001C02CF43F9379
:103DA0002F93FF93EF9356CD0F911F9111962CCD2A
:103DB000D91EEF91FF9131962F913F91E217F307B2
:103DC00099F3EDCF06FF756E6C6F6F70BA1EE81E2B
:103DD0001F910F911F910F911F910F9115CD06FF0C
:103DE000636D6F76653EE21EF51EBF93AF93E9915A
:103DF000F991A991B991092F082B41F0E80FF91F0A
:103E0000A80FB91F1E9112930197E1F7AF91BF91CF
:103E100089919991F9CC02FF3E3CEF1E0F1F092FAB
:103E2000982F802FF1CC03FF757040000B1F181FD7
:103E30009A938A93C201E8CC03FF75702100131F87
:103E4000211F2C0189919991DFCC03FF733E6400FF
:103E50001C1F001CAC1C2D1D1A1C03FF6E6F740070
:103E6000251F001C181D1A1C02FF21652D1F381F5D
:103E7000FC01899199912FB7F89428D00DB30817B8
:103E800009F00BD0319622D00DB3091711F0892F0C
:103E900004D02FBF89919991B7CCE199FECF07B794
:103EA00000FDFDCFFFBBEEBB8DBBE29AE19A08950A
:103EB00002FF4065341F5C1F2FB7F894FC0106D049
:103EC0008DB3319603D09DB32FBF9ECCE199FECF29
:103ED000FFBBEEBBE09A089502FF4069581F701FB8
:103EE000FC01EE0FFF1F859195918ECC02FF216999
:103EF0006C1FC3070A0087078C0709FF2821692D5B
:103F00006E7277772900761F851F1FB71F93F8946D
:103F10009C0189919991AF93BF93CF93DF9309D07F
:103F2000DF91CF91BF91AF91899199911F911FBF5F
:103F30006BCC10D0E094F0948E219F21982B19F037
:103F4000F90102E020D0F90104E01DD0F90100E1FF
:103F50001AD00895F901E07CFF7FEF01A0E4B0E002
:103F6000FE01EE0FFF1F45915591FE01E217F30789
:103F700011F00A0102C07A010C01002704D0219639
:103F8000119771F70895E199FECF17B710FDFDCF96
:103F9000EE0FFF1F016007BFE895089503FF6E3E17
:103FA00072007D1FD31FFC01082F899199919F9367
:103FB0008F930A95D1F7EF93FF938991999124CC30
:103FC00003FF6E723E00CE1FE51F9A938A93FF9106
:103FD000EF910E2F8F919F919A938A930A95D1F723
:043FE000CF0112CC2F
:00000001FF
