:020000020000FC
:02000400B9D071
:02000800B7D06F
:02000C00B5D06D
:02001000B3D06B
:02001400B1D069
:02001800AFD067
:02001C00ADD065
:02002000ABD063
:02002400A9D061
:02002800A7D05F
:02002C00A5D05D
:02003000A3D05B
:02003400A1D059
:020038009FD057
:02003C009DD055
:020040009BD053
:0200440099D051
:0200480097D04F
:02004C0095D04D
:1000500093D00008000400701500080041546D653D
:04006000676133326F
:040034000C943200F6
:10006400AF93AFB7AF93BF93EF93FF93B0912C00CF
:10007400A0916000E2E6F0E0EA0FF31DB083A395DF
:10008400AF70A0936000FF91EF91BF91AF91AFBFAC
:10009400AF91189500383439373860007C381A38F5
:1000A40006FF72782D6973720000003871003038D1
:1000B4005800373861009338AC38383A37380F0075
:1000C4001C3A37386100883837386200A6399338CB
:1000D4001A3807FF72783F2D697372005200003896
:1000E400660637386100933837386000933807392B
:1000F4001A3807FF74782D706F6C6C006B00003831
:100104008F003038820037382C0088381A3808FFBE
:1001140074783F2D706F6C6C7B000038660637383E
:100124002B009338373820001C3A1A3804FF7562C4
:1001340072728900693854009B0A9F0A06FF2B7566
:1001440073617274980000383738980037382A0081
:100154008838373806003738C00088389C00AC38F7
:100164000E3B3738400088383738290088384C002F
:0401740060071A38CE
:040000000C946F06E7
:100178000A920FB60A920F900F900A940092740098
:1001880009900FBE09906894089505FF665F637033
:100198007500A00069385600D200DB0000386F3BBC
:1001A800AC38F9005B3BBF385B3BBF381A380038C6
:1001B8003738EBFF500405FF737461746500C9009C
:1001C80042389F0004FF62617365DF0052380C00FB
:1001D80005FF63656C6C7300E6000038143A1A3842
:1001E80005FF63656C6C2B00EC00FA0002960C941A
:1001F800043804FF32647570F4000038CA38CA380D
:100208001A3805FF3264726F7000FD000038D43868
:10021800D4381A3803FF3E696E00050152381800B9
:1002280004FF237469620E014238A10003FF706164
:10023800640014010038580137386400A6391A38A8
:1002480004FF656D69741A01C3070E009B07A207B6
:1002580005FF656D69743F002401C30710009B0703
:10026800A20703FF6B6579002C01C30712009B07E7
:10027800A20704FF6B65793F3501C30714009B078C
:10028800A20702FF64703D01693802009B0A9F0AB9
:1002980003FF656470004501693806009B0A9F0AE0
:1002A80004FF686572654C01693804009B0A9F0A5F
:1002B80005FF616C6C6F7400540100385801A63951
:1002C8007B0759011A3808FF28637265617465292C
:1002D8005C010038E005EA09AC38F338CF09EA38A0
:1002E8003738A5007C383738A3007C381A38010025
:1002F8005C0067010038C505BF38D43812017C3866
:100308001A38010028007B01003837382900910588
:100318000A011A3807FF636F6D70696C6500850103
:100328000038EA38AC38383AF3386F3B9F011A384E
:1003380001FF2C008E0100384801793B4801383A0A
:100348007B0749011A3803005B275D009C010038D0
:100358009401373823049F011A3803FF62696E003D
:10036800A701003837380200EA007C381A3807FF3E
:10037800646563696D616C00B101003837380A0043
:10038800EA007C381A3803FF68657800BB0100383A
:1003980037381000EA007C381A3802FF626CC7014F
:1003A8004238200007FF7475726E6B657900D101C1
:1003B800C307080087078C0705FF2A2F6D6F6400A5
:1003C800D6010038F338AF39EA38CB391A3804FF88
:1003D8002F6D6F64E001F0019C0109911991412F83
:1003E800432717FF04C0109500950F5F1F4F37FF75
:1003F80004C0309520952F5F3F4FEE24FF1851E140
:10040800001F111F5A9539F447FF04C01095009535
:100418000F5F1F4F0BC0EE1CFF1CE21AF30A20F4FB
:10042800E20EF31E8894ECCF0894EACFFA92EA928F
:10043800C8010C94043802FF2A2FEB010038E501AB
:10044800BF38D4381A3805FF752F6D6F64001F0246
:100458000038F3383439EA38CB391A3806FF6E6574
:100468006761746527020038063A383A1A3801FF7E
:100478002F0032020038EF01BF38D4381A3803FF92
:100488006D6F64003B020038EF01D4381A3803FF5F
:10049800616273004302500299231AF48095909583
:1004A80001960C94043803FF6D696E004B02003806
:1004B8000101263930386102BF38D4381A3803FFB1
:1004C8006D6178005702003801011F3930386D021C
:1004D800BF38D4381A3806FF77697468696E6302C2
:1004E8000038CA389C39F3389C39EA3846391A3802
:1004F80007FF746F7570706572006F020038AC3852
:100508003738610037387B00740230388E0237384C
:10051800DF001C3A1A3807FF746F6C6F776572003A
:100528007C020038AC383738410037385B00740239
:100538003038A10237382000253A1A3803FF686C92
:1005480064008F024238A70004FF686F6C64A2023F
:100558000038A602AC3874383E3AAC38F338BF38A5
:100568007C38EA3888381A3802FF3C23A802003859
:100578001E01A6027C381A3801FF2300B802003891
:10058800EA0074384203DC3837380900CA381F39A2
:100598003038D10237380700A63937383000A63945
:1005A800AC021A3802FF2373C0020038C3020101EB
:1005B800253A18393038DA021A3802FF233ED602B3
:1005C80000380A01A6027438AC381E01BF389C39BD
:1005D8001A3804FF7369676EE10200382D39303824
:1005E800F80237382D00AC021A3803FF642E720067
:1005F800ED020038F338BF38CA388308BB02D90285
:10060800DC38F102E402EA38CA389C3905041404DB
:100618001A3802FF2E72F9020038F338293BEA38FB
:10062800FD021A3802FF642E0D0300383439FD022A
:10063800FC031A3801FF2E0016030038293B190362
:100648001A3803FF75642E001E030038343932034C
:10065800FC031A3804FF75642E7225030038F3383A
:10066800BB02D902E402EA38CA389C3905041404EA
:100678001A3806FF75642F6D6F642E030038F3383F
:100688003439FC38CB39EA38BF38F338CB39EA3853
:100698001A3806FF64696769743F3D0300388202AF
:1006A800373830009C39AC38373809005139303880
:1006B8006903373807009C39AC38373809007803A4
:1006C80030386903D43834391A38AC38EA00743809
:1006D800800330387203D43834391A383D391A381F
:1006E80003FF753C3D004D0300385139063A1A386E
:1006F80003FF753E3D00740300384639063A1A3840
:100708000038EA38AC38AC386F3BBF38383ABF38B5
:10071800DC38CA38383A0D3AA639383AF3381A3834
:1007280002FF732C7C030038AC389B031A3800385E
:100738009F01AC380D3ABF38CA38143A9C39F3389F
:100748003439AA3AAD03AC3874389F01F900D83A65
:10075800A703EA385C393038B403AC3893389F01C2
:10076800D4381A3805FF6974797065009403003825
:10077800AC380D3ABF38CA38143A9C39F338343992
:10078800AA3ACE03AC386F3BAC38DB03D703383A10
:10079800D83AC603EA385C393038D503AC386F3BF1
:1007A800DB03D4381A3800380E3BDB031A3800381C
:1007B8003738FF001C3A28011A3806FF69636F753D
:1007C8006E74B6030038AC38383ABF386F3B1A3805
:1007D80002FF6372E103003837380D00280137380B
:1007E8000A0028011A3805FF737061636500EC037D
:1007F8000038D40128011A3806FF737061636573E5
:10080800F7030038AC385C391C3A3439AA3A0F047B
:10081800FC03D83A0C041A3804FF74797065000494
:100828000038CA38A639BF38AA3A1F04BD3A9338E7
:100838002801D83A1A041A3801FF27001004003892
:10084800E005FD05183930382C043738F3FF50041B
:100858001A3807FF68616E646C65720020045238AC
:100868000A0005FF6361746368002D0400388A3A42
:10087800F33833047438F338733A33047C38243843
:10088800EA3833047C38EA38D43834391A3805FF62
:100898007468726F770035040038AC38183930380E
:1008A8005704D4381A38330474387D3AEA38330494
:1008B8007C38EA38BF38F338933AD438EA381A38EB
:1008C80005FF63736B6970004B040038F338AC386C
:1008D80030387904CA389338FC38113930387904FB
:1008E80037380100CF0529386B04EA38D4381A386C
:1008F80006FF61636365707464040038AC38F338CC
:10090800F3383901AC3837380A0007393038BF04B2
:10091800AC3837380D0007393038BF04AC383738B1
:10092800080011393038AB04EA38FC38CA38F338D3
:1009380011393038A204D43829388504AC38280154
:10094800FC0328013E3AEA38383A2938B904AC3869
:10095800D4011F393038B204D438D401AC38280156
:10096800CA388838383AEA383E3AAC38F338183951
:1009780030388504AC380A01EA38EA38BF389C397F
:10098800EF031A3806FF726566696C6C7C04C3074E
:100998001A009B07A20704FF63686172C604003847
:1009A800E005D43893381A3806FF6E756D626572A3
:1009B800CF040038EA007438F3384E05F3381A05C6
:1009C8004E05EA38253AF338F338F33834393439F0
:1009D800EA38EA386D05B43830380E053738010082
:1009E800113930380505933837382E001139303829
:1009F8000505EA38303801059008373802002938EB
:100A080015050A01D438EA38D438EA38EA007C38BF
:100A180034391A380A01EA383038130537023738BA
:100A28000100EA38EA007C383D391A380038CA38FB
:100A38009338373829002639303823051A38CA3808
:100A480093382A0537380100CF051A380038AC38F2
:100A580037382400113930383405D438CB011A38E6
:100A6800AC3837382500113930383D05D438B50150
:100A78001A38AC3837382600113930384605D4389A
:100A8800C1011A3837382300113930384D05C101F2
:100A98001A381A380038CA38933837382B001139C1
:100AA8003038590537380100CF05CA3893383738F8
:100AB8002D001139AC38F338303865053738010066
:100AC800CF05EA381A3807FF3E6E756D6265720009
:100AD800D8040038AC3830388B05CA3893385203FC
:100AE8001839303878051A38F338B508EA38BF3875
:100AF800EA007438E939D438DC38EA007438E9395E
:100B0800C30CB50837380100CF0529386E051A38E7
:100B180005FF70617273650067050038F338C50515
:100B280012017438CF05EA38A605AC38383A1201F4
:100B3800623A37380100CF051A3805FF63736361DD
:100B48006E008C050038BF38AC38F3383439AA3A0F
:100B5800BD05CA38BD3AA6399338CA381139303874
:100B6800BB05D438BD3AE73AEA38D4381A38D83A07
:100B7800AD05D438EA381A3806FF736F75726365A5
:100B8800A105C30716009B07A20707FF2F737472FE
:100B9800696E6700C0050038CA385B02DC38CA389D
:100BA800A639DC38DC389C391A380AFF7061727350
:100BB800652D6E616D65C9050038D401E4051A38E4
:100BC8000038F338C50512017438CF05FC386904BC
:100BD800EA38A6050101A639C505D4389C391201A1
:100BE8007C381A3809FF66696E642D6E616D650080
:100BF800D9050038373814005B3B3439AA3A18064F
:100C0800010137381600BD3AF100A6395B3BD7071A
:100C1800B43830381606F338F3380A01EA38EA38B7
:100C2800E73A1A38D83A04060A0134391A3804FF60
:100C380071756974F60500389706933AAC067D3AE3
:100C48005C0AE4007438183930382B064106CB04A6
:100C5800303825063738C5063A04B43830383D06EA
:100C6800AC383738FEFF1F3930383B064F06293875
:100C780020064806293825061A380038EF03840369
:100C880002003E20BB031A38003884030300206F9B
:100C98006B00BB031A38003884030400203F3F2050
:100CA800BB03EA007438F338C10121031201743818
:100CB8002103EA38EA007C381A3805FF7061757339
:100CC80065001B06C307A9009107960704FF636F19
:100CD8006C6461066F06A4B6BB242224332424BEA8
:100CE800EBEAF0E02F010FE50DBF048318E01EBF0B
:100CF8001583CFE0C683D8E0D783AAE8B6E00C9482
:100D0800043804FF7761726D6A06003805093738C0
:100D1800600737386606AE07DC011F061A3803FF7E
:100D280073703000850669380600A006A40602FF25
:100D3800737093065238080000386F3B9B381A3896
:100D480000386F3BA3381A3803FF727030009B06D7
:100D58000038B00674381A385238040005FF646544
:100D680070746800A806003897068A3A9C390D3ACC
:100D78003E3A1A3809FF696E7465727072657400BC
:100D8800B2060038E005B4385C393038E90637383F
:100D980026005B3B3439AA3AE5060101BD3ADC3846
:100DA800DC38F338F338F10037382800A6395B3BD4
:100DB8002438EA38EA38DC383038E306AC09D83A5F
:100DC800D1060A0136072938C606D4381A380AFF68
:100DD8007265632D696E746E756DBE060038DD042C
:100DE80030380707E4007438303804073738020011
:100DF800113930380107BF38130913092938050795
:100E0800D4383D391A3834391A3808FF7265632DD9
:100E180066696E64EB060038FD05AC383038220789
:100E28005C393038190729382007E400743830381D
:100E380020079F012938210724383D391A380CFF2B
:100E48007265632D6E6F74666F756E64090700387E
:100E580014043738F3FF50041A3806FF3F737461DF
:100E6800636B23070038B7062D3930383E0737380B
:100E7800FCFF50041A3803FF76657200310700380A
:100E8800300BBB03FC03EA007438F338C1013E0B96
:100E9800293BBB02C30237382E00AC02D902E40258
:100EA800EA38EA007C381404FC03460BBB031A3802
:100EB80004FF6E6F6F703F0761070C94043806FFDC
:100EC800756E757365645C070038970658019C3920
:100ED8001A380200746F630700382304383AE400B4
:100EE80074383038810794017B079F011A3800381D
:100EF800EA38AC38383AF3386F3BAC38383A383AD5
:100F08006F3B24381A380038383A6F3B5B3B1A3845
:100F18000038383A6F3B373B1A380038383A6F3B5D
:100F280074381A380038383A6F3B7C381A38003829
:100F3800383A6F3B173BA63974381A380038383AB4
:100F48006F3B173BA6397C381A3806FF646566651F
:100F580072216D070038AC3837380300A6396F3B6B
:100F680024381A3806FF646566657240A907003898
:100F7800AC38383A383A6F3B24381A38C3070E94DD
:100F8800170AAC383E3ABF38383A6F3B2438243811
:100F98001A380FFF7365617263682D776F72646C1E
:100FA80069737400B60700383439BF383738E60734
:100FB800BF381D08AC3818393038E5070A01D4386D
:100FC80034391A380038F338F3380101EA38DC3894
:100FD800DC38FC380C083808303800080A01D438E6
:100FE800FC38D10B383A3D39EA386F3B5C39303838
:100FF800FE07370234391A38EA38D4383D391A38F6
:101008000BFF6E616D653E737472696E6700CD0784
:101018000038E6033738FF001C3A1A3811FF74729B
:101028006176657273652D776F72646C697374008D
:10103800040800385B3BAC38303830080101F3381D
:10104800F338BF382438EA38EA38DC383038300822
:10105800D10B6F3B29381F080A011A3808FF69634A
:101068006F6D7061726512080038F338CA38EA3853
:101078000739303843080A01D43834391A38BF38A8
:101088003439AA3A6408CA387438CA386F3BAC385D
:1010980037380001463930385508BF383738FF002F
:1010A8001C3A073930385C080A013439E73A1A38EB
:1010B800383ABF38F900BF3837380200BE3A470817
:1010C8000A013D391A3801FF2A0032080038AF39C1
:1010D8007C081A3801FF6A0067080038733A373805
:1010E8000900A63974381A3803FF643E73006E0885
:1010F8000038D4381A3804FF6461627378080038FD
:10110800AC382D393038890890081A3807FF646ED2
:101118006567617465007F080038EB0C373801009B
:101128003439C30C1A3805FF636D6F7665008A0879
:101138009D08BF93AF93E991F991A991B991092FAE
:10114800082B21F01D9111930197E1F7AF91BF9101
:10115800899199910C94043805FF32737761700076
:1011680097080038DC38F338DC38EA381A3803FFD7
:1011780074696200B0084238D1000AFF7265666976
:101188006C6C2D746962BB080038BF08373864007E
:10119800810418017C38343912017C383738FFFF54
:1011A8001A380AFF736F757263652D746962C10816
:1011B8000038BF08180174381A3807FF65652D759F
:1011C80073657200D5084238380006FF65653E72BF
:1011D800616DE10800383439AA3AFC08CA385B3B2B
:1011E800CA387C38F900BF38F900BF38D83AF20855
:1011F8000A011A3809FF696E69742D7573657200E2
:10120800E9080038E708173B37381C000D3AEE08A4
:101218001A3807006C69746572616C00FE08003842
:10122800940137389F011A380800736C6974657225
:10123800616C0D0900389401840397031A3800384B
:1012480048019401FFFF1A38003836074801BF38B3
:10125800793B1A38003848011A38003836079F0198
:101268001A3805006168656164001809003894013E
:10127800293823091A3802006966350900389401AB
:10128800303823091A380400656C73653F09003843
:10129800940129382309BF3828091A3804007468CA
:1012A800656E4709003828091A38050062656769BC
:1012B8006E00520900382E091A3805007768696CE3
:1012C800650059090038940130382309BF381A38A5
:1012D800060072657065617461090038840928091F
:1012E8001A380500756E74696C006C090038940131
:1012F800303831091A380500616761696E0075096F
:1013080000389401293831091A380200646F7F09BE
:1013180000389401983A23092E091A3804006C6F92
:101328006F70890900389401D83A310928091A38A8
:1013380005002B6C6F6F7000920900389401BE3A5B
:10134800310928091A3805FF6C65617665009C0922
:10135800AD090F911F910F911F91AF91BF910C94FF
:10136800043803003F646F00A70900389401AA3AC3
:1013780023092E091A3806FF637265617465B50979
:1013880000386D01F30994014C381A3806FF686576
:1013980061646572BF0900384801F338F338AC3826
:1013A8005C393038E109AC38373800FF253A9B03FF
:1013B800EA385B3B9F01EA381A383738F0FF5004A7
:1013C80007FF776C73636F706500CA09C307340041
:1013D80087078C0706FF72657665616CE40900383B
:1013E8003738A3007438B4383038020A3738A500C3
:1013F8007438373B34393738A3007C381A3806FF3D
:101408006C6174657374EE09423835010500646FC8
:1014180065733E00030A00389401220A94010E9471
:101428009401170A1A389A938A93CB0101967F91EF
:101438006F91BF93AF93DB010C9404380038EA38FE
:101448003738A50074385B3BD10B383A793B1A38EA
:1014580001FF3A000A0A00386D014801080A7C3881
:1014680094010038530A1A3807FF3A6E6F6E616D9F
:1014780065002C0A00384801AC38080A7C38940109
:101488000038530A1A3801003B00380A0038940122
:101498001A385C0AF3091A3801FF5D00470A003858
:1014A80037380100E4007C381A3801005B00500A24
:1014B80000383439E4007C381A3808FF76617269DC
:1014C80061626C65590A00385801740A373802009D
:1014D80061011A3808FF636F6E7374616E74610A74
:1014E80000386D01F309940142389F011A3804FF4E
:1014F800757365726E0A00386D01F30994015238EC
:101508009F011A3805FF76616C7565007B0A003803
:10151800633850019F0194019B0A94019F0A50016E
:10152800AC38383A383A7B075101373B1A3800381B
:101538006F3B5B3B1A3800386F3B373B1A38070064
:101548007265637572736500860A0038080A743814
:101558009F011A3809FF696D6D65646961746500DA
:10156800A30A0038920B5B3BAC386F3B3738FF7FE0
:101578001C3ABF38793B1A3806005B636861725DB4
:10158800AE0A003894013738D3049F011A38060090
:1015980061626F727422C00A0038940130384801C1
:1015A8009401FFFF220D940137389401FEFF940146
:1015B80050044801BF38793B1A3805FF61626F72E1
:1015C8007400CB0A00383738FFFF500404FF636FFC
:1015D8006465E10A00386D01F3094801383A9F0152
:1015E8001A3808FF656E642D636F6465EA0A00386F
:1015F80094010C94940104381A380BFF656E7669CF
:10160800726F6E6D656E7400F50A42380C0009FF42
:10161800776F72646C697374730000000038373830
:1016280008001A3804FF2F7061640B0B00388A3ADF
:101638001E019C391A3805FF2F686F6C6400160B61
:1016480000381E0158019C391A380AFF666F7274F7
:10165800682D6E616D651F0B003884030700616D8E
:10166800666F727468001A3807FF76657273696F5F
:101678006E00290B0038373834001A3803FF6370BE
:101688007500380B003837382D00E6031A3808FF84
:101698006D63752D696E666F420B00383738290007
:1016A8001A3805FF2F75736572004B0B00383738F1
:1016B80026001A3804FF40655B5D010B0038AC3822
:1016C8005B3BF338FC383439BF38AA3A740BBD3A5F
:1016D800F100CA38A6395B3BBF383D39BE3A6B0BBF
:1016E8000A01EA381A3804FF21655B5D5E0B003891
:1016F8000101373BBF383439AA3A880BF900BF38A3
:10170800CA38373BD83A820BD4381A380BFF67658A
:10171800742D63757272656E7400770B00383738F4
:1017280010005B3B1A3809FF6765742D6F7264659A
:1017380072008A0B003837381400620B1A3807FF1A
:10174800636F6D7061726500970BAA0BBF93AF93BF
:101758008C0189919991DC01899199919C018991D8
:101768009991FC01ED90F190EF1451F40A9519F05C
:101778002A95C1F701C02A95022B11F4882702C0C7
:101788008FEF00C0982FAF91BF910C94043807FFDA
:101798006E66613E6C666100A30B0038E60337385D
:1017A800FF001C3A383A0D3AA6391A380BFF736510
:1017B800742D63757272656E7400CB0B0038373800
:1017C8001000373B1A3808FF70726576696F7573B9
:1017D800DA0B00389E0BBF38D4383E3AAC3818398B
:1017E8003038F90B3738CEFF5004560C1A380BFF37
:1017F800646566696E6974696F6E7300E70B00381B
:101808009E0BCA38E20B3439AA3A0D0CD438D83AB0
:101818000A0C1A3808FF776F72646C697374FB0BD3
:10182800003850013439CA38373BAC38383A383A7E
:101838007B0751011A3804FF6F6E6C790E0C003863
:101848003738120037380100560C1A3805FF666F12
:10185800727468001F0C00389E0BBF38D438400CD7
:10186800BF38560C1A380EFF666F7274682D776F82
:1018780072646C6973742A0C69380E009B0A9F0A9B
:1018880004FF616C736F370C00389E0BCA38BF3881
:10189800383A560C1A3809FF7365742D6F726465EF
:1018A8007200440C0038373814007B0B1A3805FFD7
:1018B8006F72646572004F0C0038920B010DEF03D4
:1018C8009E0BAC38010D3439AA3A6E0C010DFC039D
:1018D800D83A6A0C1A3804FF2B696E745B0C740CC6
:1018E80078940C94043804FF2D696E746F0C7C0C8A
:1018F800F8940C94043804FF696E7421770C00384E
:1019080037387500A6397C381A3804FF696E744078
:101918007F0C003837387500A63974381A3808FF34
:10192800696E742D74726170890C9A0C80937400BE
:101938008991999168940C94043800383738740068
:10194800933837387500A63974382438AC0C1A38EF
:10195800AD0C02D00C940438189503FF64322A00A9
:10196800930CB60C09911991000F111F881F991F2C
:101978001A930A930C94043802FF642BB10CC40C1C
:1019880029913991E990F99049915991240F351F7E
:101998008E1D9F1D3A932A930C94043802FF642DE0
:1019A800C00CD60C29913991E990F9904991599137
:1019B800421B530BE80AF90A5A934A93C7010C943D
:1019C800043807FF64696E7665727400D20CEC0CFB
:1019D8000991199180959095009510951A930A93FD
:1019E8000C94043802FF643DE50C0038D50C253A08
:1019F80018391A3802FF752EF60C003834392903C5
:101A08001A3803FF752E7200FE0C00383439BF38BF
:101A180032031A3802FF2E73050D003897068A3AEA
:101A2800F900AA3A1E0DBD3A7438010D3738020084
:101A3800BE3A170D1A3802002E220E0D00382A0D54
:101A48009401BB031A38020073221F0D003837387F
:101A580022009105E40074383038350D9401840370
:101A680097031A3806FF456465666572270D0038C6
:101A78006D01F3099401C3075001AC389F0194012B
:101A8800870794018C07F9007B0751011A3806FF74
:101A9800526465666572360D00386D01F30994016C
:101AA800C30758019F01373802006101940191076B
:101AB800940196071A38020069734B0D0038E40048
:101AC800743830386B0DAB019401AE071A38230413
:101AD800AE071A380BFF6170706C7475726E6B65A7
:101AE80079005F0D0038A500730C4307FC03CE0096
:101AF8003738E803CB39BF38D438C1012103840310
:101B080004006B487A20BB031A3804FF66696C6CC2
:101B18006E0D0038DC38DC383439AA3A980D0101EA
:101B28008838383AD83A930DD438D4381A380DFF53
:101B380073686F772D776F72646C69737400890DA1
:101B480000383738AA0DBF381D081A3800380C0875
:101B5800BB03FC033D391A3805FF776F72647300C5
:101B68009B0D0038373816005B3BA40D1A3803FF6D
:101B7800316D7300B00DC00DE0EDF7E03197F1F76E
:101B88000C9404380800326C69746572616CBB0D82
:101B98000038BF38940137389F01940137389F01C6
:021BA8001A38E9
:10700000BF93AF93DB0111966EF0FD01EE0FFF1FF2
:10701000659175911196FB01EE0FFF1F059115917A
:10702000F8010994E89461EA7CE0F5CF04FF657803
:107030006974C60D1B38AF91BF91E6CF07FF657825
:1070400065637574650016382538BC01899199917E
:10705000E2CF2A38FD01EE0FFF1FA591B591D4CFE5
:107060003138982B89919991A9F31196CDCF383861
:107070009A938A93FD01EE0FFF1F859195911196CA
:10708000C3CF42389A938A93FB013196EE0FFF1FCC
:1070900085919591B9CF4C389A938A93CB010196FB
:1070A000B3CF52389A938A93FB013196EE0FFF1FAC
:1070B00085919591840D951DA7CF07FF2876616C6A
:1070C000756529001E3800386D01F309940169388F
:1070D0001A380E94170AAC38BF38383A6F3B243848
:1070E0001A3801FF40005D387538FC01819191919B
:1070F0008BCF01FF210071387D38FC018991999176
:1071000091838083899199917FCF02FF63217938A0
:107110008938FC018991999180838991999174CFE3
:1071200002FF634085389438FC01992780816CCF39
:1071300002FF407590380038173BA63974381A386A
:1071400002FF217598380038173BA6397C381A3869
:1071500003FF64757000A038AD389A938A9354CFBA
:1071600004FF3F647570A838B538082F092B11F05B
:107170009A938A9349CF04FF73776170B038C0380F
:107180008C01899199911A930A933ECF04FF6F76EF
:107190006572BB38CB389A938A938A819B8134CFAE
:1071A00004FF64726F70C638D538899199912CCFDD
:1071B00003FF726F7400D038DD388C01299139914A
:1071C000899199913A932A931A930A931DCF02FFBA
:1071D000723ED838EB389A938A938F919F9114CF4F
:1071E00002FF3E72E738F4389F938F93899199910B
:1071F0000BCF02FF7240F038FD389A938A938F913B
:107200009F919F938F9300CF02FF3C3EF93808393E
:10721000299139918217930751F132C001FF3D0046
:10722000043900389C3918391A3802FF303D0E39BC
:107230001939982BE1F424C001FF3C0015390038BE
:107240009C392D391A3801FF3E001C3900389C3911
:107250005C391A3802FF303C23392E3997FD10C0B3
:1072600006C001FF30002A3935399A938A93C1014B
:10727000CBCE04FF7472756531393E399A938A9387
:107280008FEF9FEFC1CE02FF753C39394739299105
:1072900039918217930758F351F3F2CF02FF753EED
:1072A00043395239299139912817390700F3F9F2F6
:1072B000E7CF02FF303E4E395D3982159305BCF2AF
:1072C000B1F2DECF02FF643E59390038D50C6D397A
:1072D0001A3803FF64303E0062396E398215930517
:1072E000899199918205930514F209F2C9CF02FFA1
:1072F000643C69390038D50C82391A3803FF643090
:107300003C0077398339229697FD0C9440390C94D0
:10731000373904FF6C6F67327E398E39FC0199274B
:1073200080E18A9522F0EE0FFF1FD8F76DCE9A9577
:107330006BCE01FF2D0089399D3909911991081BE8
:10734000190BC80161CE01FF2B009939A7390991AA
:107350001991800F911F58CE02FF6D2AA339B039C1
:107360008C01899199919C0131027001209FC0018B
:107370003003F308900DE11CF31C1203F308900D89
:10738000E11CF31C9A938A93C7013ECE06FF756DEC
:107390002F6D6F64AC39CC397C01299139910991F9
:1073A000199140E15527000F111F221F331F551F50
:1073B0002E153F05520518F003952E193F094A95E1
:1073C00089F73A932A93C8011FCE03FF756D2A00EF
:1073D000C639EA398C0189919991809FF001222761
:1073E0003327909FF00D211D331D819FF00D211D2E
:1073F000331D919F200D311DCF019A938A93C901AE
:1074000003CE06FF696E76657274E539073A80959A
:107410009095FACD02FF322F013A0E3A9595879555
:10742000F3CD02FF322A0A3A153A880F991FECCDA4
:1074300003FF616E6400113A1D3A0991199180238E
:107440009123E2CD02FF6F72183A263A0991199101
:10745000802B912BD9CD03FF786F7200223A303AFE
:107460000991199180279127CFCD02FF312B2B3A1B
:10747000393A0196C9CD02FF312D353A3F3A01978D
:10748000C3CD06FF6C73686966743B3A473AFC01EA
:107490008991999131971AF0880F991FFBCFB4CD3C
:1074A00006FF727368696674413A563AFC01899125
:1074B000999131971AF096958795FBCFA5CD02FF4C
:1074C0002B21503A633AFC018991999120813181B5
:1074D000820F931F808391838991999195CD03FFAA
:1074E000727040005F3A743A9A938A938DB79EB750
:1074F0008BCD03FF727021006F3A7E3A2FB7F8945C
:107500008DBF9EBF2FBF899199917ECD03FF737070
:107510004000793A8B3A9A938A93CE0175CD03FF56
:1075200073702100863A943AEC01899199916CCD5F
:10753000993AFD01EE0FFF1F0591159111962991C2
:1075400039911F930F933F932F939F938F9389911B
:1075500099915ACDAB3AFD01EE0FFF1F05911591A0
:107560001196299139918217930759F7D80189917A
:1075700099914ACD01FF69008F3AFD38BF3AEF91EA
:10758000FF91E80FF91F192F899199912F913F9140
:10759000E217F30717FF02C03CF001C02CF43F9341
:1075A0002F93FF93EF9356CD0F911F9111962CCDF2
:1075B000D93AEF91FF9131962F913F91E217F3075E
:1075C00099F3EDCF06FF756E6C6F6F70BA3AE83ABB
:1075D0001F910F911F910F911F910F9115CD06FFD4
:1075E000636D6F76653EE23AF53ABF93AF93E991EA
:1075F000F991A991B991092F082B41F0E80FF91FD2
:10760000A80FB91F1E9112930197E1F7AF91BF9197
:1076100089919991F9CC02FF3E3CEF3A0F3B092F3B
:10762000982F802FF1CC03FF757040000B3B183B67
:107630009A938A93C201E8CC03FF75702100133B33
:10764000213B2C0189919991DFCC03FF733E6400AB
:107650001C3B0038AC382D391A3803FF6E6F7400AC
:10766000253B003818391A3802FF21652D3B383B7D
:10767000FC01899199912FB7F89428D00DB3081780
:1076800009F00BD0319622D00DB3091711F0892FD4
:1076900004D02FBF89919991B7CCE199FECF07B75C
:1076A00000FDFDCFFFBBEEBB8DBBE29AE19A0895D2
:1076B00002FF4065343B5C3B2FB7F894FC0106D0D9
:1076C0008DB3319603D09DB32FBF9ECCE199FECFF1
:1076D000FFBBEEBBE09A089502FF4069583B703B48
:1076E000FC01EE0FFF1F859195918ECC02FF216961
:1076F0006C3BC3070A0087078C0709FF2821692D07
:107700006E7277772900763B853B1FB71F93F894FD
:107710009C0189919991AF93BF93CF93DF9309D047
:10772000DF91CF91BF91AF91899199911F911FBF27
:107730006BCC10D0E094F0948E219F21982B19F0FF
:10774000F90102E020D0F90104E01DD0F90100E1C7
:107750001AD00895F901E07CFF7FEF01A0E4B0E0CA
:10776000FE01EE0FFF1F45915591FE01E217F30751
:1077700011F00A0102C07A010C01002704D0219601
:10778000119771F70895E199FECF17B710FDFDCF5E
:10779000EE0FFF1F016007BFE895089503FF6E3EDF
:1077A00072007D3BD33BFC01082F899199919F93F7
:1077B0008F930A95D1F7EF93FF938991999124CCF8
:1077C00003FF6E723E00CE3BE53B9A938A93FF9196
:1077D000EF910E2F8F919F919A938A930A95D1F7EB
:0477E000CF0112CCF7
:00000001FF
