:020000020000FC
:02000400C4D066
:02000800C2D064
:02000C00C0D062
:02001000BED060
:02001400BCD05E
:02001800BAD05C
:02001C00B8D05A
:02002000B6D058
:02002400B4D056
:02002800B2D054
:02002C00B0D052
:02003000AED050
:02003400ACD04E
:02003800AAD04C
:02003C00A8D04A
:02004000A6D048
:02004400A4D046
:02004800A2D044
:02004C00A0D042
:020050009ED040
:020054009CD03E
:020058009AD03C
:02005C0098D03A
:0200600096D038
:1000640094D00008000400701A000A0041546D6521
:06007400676133323850D1
:040048000C943D00D7
:10007A00AF93AFB7AF93BF93EF93FF93B091C6001F
:10008A00A0910001E2E0F1E0EA0FF31DB083A3952D
:10009A00AF70A0930001FF91EF91BF91AF91AFBFF5
:1000AA00AF91189500383439373800017C381A383E
:1000BA0006FF72782D697372000000387C003038B0
:1000CA006300373801019338AC38383A37380F00B3
:1000DA001C3A37380101883837380201A639933873
:1000EA001A3807FF72783F2D697372005D00003875
:1000FA0071063738010193383738000193380739C8
:10010A001A3807FF74782D706F6C6C00760000380F
:10011A009A0030388D003738C60088381A3808FFF8
:10012A0074783F2D706F6C6C860000387106373812
:10013A00C0009338373820001C3A1A3804FF756219
:10014A007272940069385400A60AAA0A06FF2B752F
:10015A0073617274A3000038373898003738C100C9
:10016A008838373806003738C2008838A700AC38D4
:10017A000E3B3738C50088383738C40088385700EE
:04018A006B071A38AD
:040000000C947A06DC
:10018E000A920FB60A920F900F900A9400921401E1
:10019E0009900FBE09906894089505FF665F63701D
:1001AE007500AB0069385600DD00E60000386F3B85
:1001BE00AC3804015B3BBF385B3BBF381A380038A4
:1001CE003738EBFF5B0405FF737461746500D40070
:1001DE004238490104FF62617365EA0052380C002F
:1001EE0005FF63656C6C7300F1000038143A1A3821
:1001FE0005FF63656C6C2B00F700050102960C94ED
:10020E00043804FF32647570FF000038CA38CA38EB
:10021E001A3805FF3264726F700008010038D43846
:10022E00D4381A3803FF3E696E0010015238180098
:10023E0004FF23746962190142384B0103FF706198
:10024E0064001F010038630137386400A6391A387C
:10025E0004FF656D69742501CE070E00A607AD0774
:10026E0005FF656D69743F002F01CE071000A607CC
:10027E00AD0703FF6B6579003701CE071200A607A5
:10028E00AD0704FF6B65793F4001CE071400A6074A
:10029E00AD0702FF6470480169380200A60AAA0A77
:1002AE0003FF65647000500169380600A60AAA0AA9
:1002BE0004FF68657265570169380400A60AAA0A28
:1002CE0005FF616C6C6F74005F0100386301A63925
:1002DE00860764011A3808FF286372656174652900
:1002EE0067010038EB05F509AC38F338DA09EA385E
:1002FE0037384F017C3837384D017C381A380100B9
:10030E005C0072010038D005BF38D4381D017C382E
:10031E001A380100280086010038373829009C055C
:10032E0015011A3807FF636F6D70696C65009001D7
:10033E000038EA38AC38383AF3386F3BAA011A382D
:10034E0001FF2C00990100385301793B5301383AD3
:10035E00860754011A3803005B275D00A701003899
:10036E009F0137382E04AA011A3803FF62696E0006
:10037E00B201003837380200F5007C381A3807FF12
:10038E00646563696D616C00BC01003837380A0022
:10039E00F5007C381A3803FF68657800C60100380E
:1003AE0037381000F5007C381A3802FF626CD20123
:1003BE004238200007FF7475726E6B657900DC01A0
:1003CE00CE0708009207970705FF2A2F6D6F64006E
:1003DE00E1010038F338AF39EA38CB391A3804FF67
:1003EE002F6D6F64EB01FB019C0109911991412F57
:1003FE00432717FF04C0109500950F5F1F4F37FF5F
:10040E0004C0309520952F5F3F4FEE24FF1851E129
:10041E00001F111F5A9539F447FF04C0109500951F
:10042E000F5F1F4F0BC0EE1CFF1CE21AF30A20F4E5
:10043E00E20EF31E8894ECCF0894EACFFA92EA9279
:10044E00C8010C94043802FF2A2FF6010038F0017F
:10045E00BF38D4381A3805FF752F6D6F64002A0225
:10046E000038F3383439EA38CB391A3806FF6E655E
:10047E006761746532020038063A383A1A3801FF5D
:10048E002F003D020038FA01BF38D4381A3803FF66
:10049E006D6F640046020038FA01D4381A3803FF33
:1004AE00616273004E025B0299231AF48095909557
:1004BE0001960C94043803FF6D696E0056020038E5
:1004CE000C01263930386C02BF38D4381A3803FF85
:1004DE006D617800620200380C011F3930387802E5
:1004EE00BF38D4381A3806FF77697468696E6E02A1
:1004FE000038CA389C39F3389C39EA3846391A38EC
:10050E0007FF746F7570706572007A020038AC3830
:10051E003738610037387B007F0230389902373820
:10052E00DF001C3A1A3807FF746F6C6F7765720024
:10053E0087020038AC383738410037385B007F020D
:10054E003038AC0237382000253A1A3803FF686C71
:10055E0064009A024238510104FF686F6C64AD0268
:10056E000038B102AC3874383E3AAC38F338BF3884
:10057E007C38EA3888381A3802FF3C23B302003838
:10058E002901B1027C381A3801FF2300C30200385A
:10059E00F50074384D03DC3837380900CA381F3976
:1005AE003038DC0237380700A63937383000A63924
:1005BE00B7021A3802FF2373CB020038CE020C01A9
:1005CE00253A18393038E5021A3802FF233EE10287
:1005DE0000381501B1027438AC382901BF389C3986
:1005EE001A3804FF7369676EEC0200382D39303803
:1005FE00030337382D00B7021A3803FF642E72003A
:10060E00F8020038F338BF38CA388E08C602E40242
:10061E00DC38FC02EF02EA38CA389C3910041F0499
:10062E001A3802FF2E7204030038F338293BEA38D9
:10063E0008031A3802FF642E1803003834390803F1
:10064E0007041A3801FF2E0021030038293B24032A
:10065E001A3803FF75642E002903003834393D0320
:10066E0007041A3804FF75642E7230030038F3380D
:10067E00C602E402EF02EA38CA389C3910041F049D
:10068E001A3806FF75642F6D6F6439030038F3381E
:10069E003439FC38CB39EA38BF38F338CB39EA383D
:1006AE001A3806FF64696769743F480300388D0283
:1006BE00373830009C39AC3837380900513930386A
:1006CE007403373807009C39AC3837380900830378
:1006DE0030387403D43834391A38AC38F5007438DD
:1006EE008B0330387D03D43834391A383D391A38F3
:1006FE0003FF753C3D00580300385139063A1A384D
:10070E0003FF753E3D007F0300384639063A1A381E
:10071E000038EA38AC38AC386F3BBF38383ABF389F
:10072E00DC38CA38383A0D3AA639383AF3381A381E
:10073E0002FF732C87030038AC38A6031A38003832
:10074E00AA01AC380D3ABF38CA38143A9C39F3387E
:10075E003439AA3AB803AC387438AA010401D83A2D
:10076E00B203EA385C393038BF03AC389338AA018B
:10077E00D4381A3805FF6974797065009F03003804
:10078E00AC380D3ABF38CA38143A9C39F33834397C
:10079E00AA3AD903AC386F3BAC38E603E203383AD9
:1007AE00D83AD103EA385C393038E003AC386F3BC5
:1007BE00E603D4381A3800380E3BE6031A380038F0
:1007CE003738FF001C3A33011A3806FF69636F751C
:1007DE006E74C1030038AC38383ABF386F3B1A38E4
:1007EE0002FF6372EC03003837380D0033013738DF
:1007FE000A0033011A3805FF737061636500F70351
:10080E000038DF0133011A3806FF737061636573B8
:10081E0002040038AC385C391C3A3439AA3A1A044E
:10082E000704D83A17041A3804FF747970650B045C
:10083E000038CA38A639BF38AA3A2A04BD3A9338C6
:10084E003301D83A25041A3801FF27001B0400385B
:10085E00EB0508061839303837043738F3FF5B04D8
:10086E001A3807FF68616E646C6572002B0452388B
:10087E000A0005FF636174636800380400388A3A21
:10088E00F3383E047438F338733A3E047C38243817
:10089E00EA383E047C38EA38D43834391A3805FF41
:1008AE007468726F770040040038AC3818393038ED
:1008BE006204D4381A383E0474387D3AEA383E045D
:1008CE007C38EA38BF38F338933AD438EA381A38D5
:1008DE0005FF63736B69700056040038F338AC384B
:1008EE0030388404CA389338FC38113930388404CF
:1008FE0037380100DA0529387604EA38D4381A3840
:10090E0006FF6163636570746F040038AC38F338AA
:10091E00F3384401AC3837380A0007393038CA0486
:10092E00AC3837380D0007393038CA04AC38373890
:10093E00080011393038B604EA38FC38CA38F338B2
:10094E0011393038AD04D43829389004AC3833011D
:10095E00070433013E3AEA38383A2938C404AC3831
:10096E00DF011F393038BD04D438DF01AC38330114
:10097E00CA388838383AEA383E3AAC38F33818393B
:10098E0030389004AC381501EA38EA38BF389C3953
:10099E00FA031A3806FF726566696C6C8704CE0717
:1009AE001A00A607AD0704FF63686172D104003810
:1009BE00EB05D43893381A3806FF6E756D62657282
:1009CE00DA040038F5007438F3385905F338250584
:1009DE005905EA38253AF338F338F33834393439CF
:1009EE00EA38EA387805B438303819053738010056
:1009FE00113930381005933837382E001139303808
:100A0E001005EA3830380C059B08373802002938B3
:100A1E0020051501D438EA38D438EA38F5007C3888
:100A2E0034391A381501EA3830381E054202373883
:100A3E000100EA38F5007C383D391A380038CA38DA
:100A4E00933837382900263930382E051A38CA38E7
:100A5E009338350537380100DA051A380038AC38C6
:100A6E0037382400113930383F05D438D6011A38BA
:100A7E00AC3837382500113930384805D438C00124
:100A8E001A38AC3837382600113930385105D43879
:100A9E00CC011A3837382300113930385805CC01BB
:100AAE001A381A380038CA38933837382B001139AB
:100ABE003038640537380100DA05CA3893383738CC
:100ACE002D001139AC38F338303870053738010045
:100ADE00DA05EA381A3807FF3E6E756D62657200E8
:100AEE00E3040038AC3830389605CA3893385D03C5
:100AFE001839303883051A38F338C008EA38BF3849
:100B0E00F5007438E939D438DC38F5007438E93931
:100B1E00CE0CC00837380100DA05293879051A38A5
:100B2E0005FF70617273650072050038F338D005E9
:100B3E001D017438DA05EA38B105AC38383A1D01B2
:100B4E00623A37380100DA051A3805FF63736361BC
:100B5E006E0097050038BF38AC38F3383439AA3AEE
:100B6E00C805CA38BD3AA6399338CA381139303853
:100B7E00C605D438BD3AE73AEA38D4381A38D83AE6
:100B8E00B805D438EA381A3806FF736F7572636584
:100B9E00AC05CE071600A607AD0707FF2F737472BC
:100BAE00696E6700CB050038CA386602DC38CA3871
:100BBE00A639DC38DC389C391A380AFF706172733A
:100BCE00652D6E616D65D4050038DF01EF051A38AD
:100BDE000038F338D0051D017438DA05FC3874047A
:100BEE00EA38B1050C01A639D005D4389C391D015F
:100BFE007C381A3809FF66696E642D6E616D65006A
:100C0E00E4050038373814005B3B3439AA3A230622
:100C1E000C0137381600BD3AFC00A6395B3BE207E3
:100C2E00B43830382106F338F3381501EA38EA388B
:100C3E00E73A1A38D83A0F06150134391A3804FF34
:100C4E007175697401060038A206933AB7067D3AAB
:100C5E00670AEF0074381839303836064C06D60459
:100C6E00303830063738D0064504B43830384806A8
:100C7E00AC383738FEFF1F39303846065A06293849
:100C8E002B065306293830061A380038FA038F031C
:100C9E0002003E20C6031A3800388F030300206F6F
:100CAE006B00C6031A3800388F030400203F3F2024
:100CBE00C603F5007438F338CC012C031D017438CB
:100CCE002C03EA38F5007C381A3805FF706175730D
:100CDE0065002606CE0753019C07A10704FF636F2C
:100CEE006C646C067A06A4B6BB242224332424BE7C
:100CFE00E5E5F1E02F010FEF0DBF048318E01EBFF5
:100D0E001583CFEAC683D8E0D783A5E9B6E00C9465
:100D1E00043804FF7761726D750600381009373894
:100D2E006B0737387106B907E7012A061A3803FF31
:100D3E0073703000900669380600AB06AF0602FFEE
:100D4E0073709E065238080000386F3B9B381A3875
:100D5E0000386F3BA3381A3803FF72703000A606B6
:100D6E000038BB0674381A385238040005FF646523
:100D7E0070746800B3060038A2068A3A9C390D3AA0
:100D8E003E3A1A3809FF696E7465727072657400A6
:100D9E00BD060038EB05B4385C393038F406373808
:100DAE0026005B3B3439AA3AF0060C01BD3ADC381A
:100DBE00DC38F338F338FC0037382800A6395B3BB3
:100DCE002438EA38EA38DC383038EE06B709D83A33
:100DDE00DC06150141072938D106D4381A380AFF26
:100DEE007265632D696E746E756DC9060038E80400
:100DFE0030381207EF00743830380F0737380200DA
:100E0E00113930380C07BF381E091E092938100752
:100E1E00D4383D391A3834391A3808FF7265632DC3
:100E2E0066696E64F60600380806AC3830382D0751
:100E3E005C393038240729382B07EF0074383038E6
:100E4E002B07AA0129382C0724383D391A380CFFF4
:100E5E007265632D6E6F74666F756E64140700385D
:100E6E001F043738F3FF5B041A3806FF3F737461B3
:100E7E00636B2E070038C2062D39303849073738D4
:100E8E00FCFF5B041A3803FF766572003C070038DE
:100E9E003B0BC6030704F5007438F338CC01490B3D
:100EAE00293BC602CE0237382E00B702E402EF020B
:100EBE00EA38F5007C381F040704510BC6031A38B4
:100ECE0004FF6E6F6F704A076C070C94043806FFB0
:100EDE00756E7573656467070038A20663019C39E9
:100EEE001A380200746F6E0700382E04383AEF007D
:100EFE00743830388C079F018607AA011A380038DB
:100F0E00EA38AC38383AF3386F3BAC38383A383ABE
:100F1E006F3B24381A380038383A6F3B5B3B1A382F
:100F2E000038383A6F3B373B1A380038383A6F3B47
:100F3E0074381A380038383A6F3B7C381A38003813
:100F4E00383A6F3B173BA63974381A380038383A9E
:100F5E006F3B173BA6397C381A3806FF6465666509
:100F6E00722178070038AC3837380300A6396F3B4A
:100F7E0024381A3806FF646566657240B407003877
:100F8E00AC38383A383A6F3B24381A38CE070E94BC
:100F9E00220AAC383E3ABF38383A6F3B24382438F0
:100FAE001A380FFF7365617263682D776F72646C08
:100FBE0069737400C10700383439BF383738F10708
:100FCE00BF382808AC3818393038F0071501D43836
:100FDE0034391A380038F338F3380C01EA38DC3873
:100FEE00DC38FC381708430830380B081501D438A4
:100FFE00FC38DC0B383A3D39EA386F3B5C39303817
:10100E000908420234391A38EA38D4383D391A38C8
:10101E000BFF6E616D653E737472696E6700D80763
:10102E000038F1033738FF001C3A1A3811FF74727A
:10103E006176657273652D776F72646C6973740077
:10104E000F0800385B3BAC3830383B080C01F338E6
:10105E00F338BF382438EA38EA38DC3830383B0801
:10106E00DC0B6F3B29382A0815011A3808FF696313
:10107E006F6D706172651D080038F338CA38EA3832
:10108E00073930384E081501D43834391A38BF387C
:10109E003439AA3A6F08CA387438CA386F3BAC383C
:1010AE0037380001463930386008BF383738FF000E
:1010BE001C3A07393038670815013439E73A1A38BF
:1010CE00383ABF380401BF3837380200BE3A5208EA
:1010DE0015013D391A3801FF2A003D080038AF3995
:1010EE0087081A3801FF6A0072080038733A3738D9
:1010FE000900A63974381A3803FF643E7300790864
:10110E000038D4381A3804FF6461627383080038DB
:10111E00AC382D39303894089B081A3807FF646EA6
:10112E006567617465008A080038F60C373801006F
:10113E003439CE0C1A3805FF636D6F76650095084D
:10114E00A808BF93AF93E991F991A991B991092F8D
:10115E00082B21F01D9111930197E1F7AF91BF91EB
:10116E00899199910C94043805FF32737761700060
:10117E00A2080038DC38F338DC38EA381A3803FFB6
:10118E0074696200BB0842387B010AFF72656669AA
:10119E006C6C2D746962C6080038CA083738640052
:1011AE008C0423017C3834391D017C383738FFFF1D
:1011BE001A380AFF736F757263652D746962CC08F5
:1011CE000038CA08230174381A3807FF65652D7573
:1011DE0073657200E0084238380006FF65653E729E
:1011EE00616DEC0800383439AA3A0709CA385B3BFE
:1011FE00CA387C380401BF380401BF38D83AFD081C
:10120E0015011A3809FF696E69742D7573657200C0
:10121E00F4080038F208173B37381C000D3AF9086D
:10122E001A3807006C69746572616C000909003820
:10123E009F013738AA011A380800736C69746572F9
:10124E00616C180900389F018F03A2031A38003809
:10125E0053019F01FFFF1A38003841075301BF3871
:10126E00793B1A38003853011A3800384107AA0161
:10127E001A380500616865616400230900389F0112
:10128E0029382E091A3802006966400900389F0174
:10129E0030382E091A380400656C73654A09003817
:1012AE009F0129382E09BF3833091A380400746893
:1012BE00656E5209003833091A3805006265676990
:1012CE006E005D09003839091A3805007768696CB7
:1012DE006500640900389F0130382E09BF381A386E
:1012EE0006007265706561746C0900388F093309E8
:1012FE001A380500756E74696C00770900389F0105
:10130E0030383C091A380500616761696E00800942
:10131E0000389F0129383C091A380200646F8A0987
:10132E0000389F01983A2E0939091A3804006C6F5B
:10133E006F70940900389F01D83A3C0933091A3866
:10134E0005002B6C6F6F70009D0900389F01BE3A2F
:10135E003C0933091A3805FF6C6561766500A709EB
:10136E00B8090F911F910F911F91AF91BF910C94DE
:10137E00043803003F646F00B20900389F01AA3A97
:10138E002E0939091A3806FF637265617465C00942
:10139E0000387801FE099F014C381A3806FF68653F
:1013AE0061646572CA0900385301F338F338AC38FA
:1013BE005C393038EC09AC38373800FF253AA603D3
:1013CE00EA385B3BAA01EA381A383738F0FF5B047B
:1013DE0007FF776C73636F706500D509CE07340015
:1013EE009207970706FF72657665616CEF09003804
:1013FE0037384D017438B43830380D0A37384F014C
:10140E007438373B343937384D017C381A3806FF7B
:10141E006C6174657374F9094238DF010500646FFD
:10142E0065733E000E0A00389F012D0A9F010E942F
:10143E009F01220A1A389A938A93CB0101967F91C3
:10144E006F91BF93AF93DB010C9404380038EA38E8
:10145E0037384F0174385B3BDC0B383A793B1A381E
:10146E0001FF3A00150A003878015301130A7C383F
:10147E009F0100385E0A1A3807FF3A6E6F6E616D73
:10148E006500370A00385301AC38130A7C389F01C7
:10149E0000385E0A1A3801003B00430A00389F01EB
:1014AE001A38670AFE091A3801FF5D00520A003821
:1014BE0037380100EF007C381A3801005B005B0AF8
:1014CE0000383439EF007C381A3808FF76617269BB
:1014DE0061626C65640A003863017F0A3738020066
:1014EE006C011A3808FF636F6E7374616E746C0A48
:1014FE0000387801FE099F014238AA011A3804FF0C
:10150E0075736572790A00387801FE099F015238A9
:10151E00AA011A3805FF76616C756500860A0038D7
:10152E0063385B01AA019F01A60A9F01AA0A5B010B
:10153E00AC38383A383A86075C01373B1A380038EF
:10154E006F3B5B3B1A3800386F3B373B1A3807004E
:10155E007265637572736500910A0038130A7438E8
:10156E00AA011A3809FF696D6D65646961746500B9
:10157E00AE0A00389D0B5B3BAC386F3B3738FF7FB4
:10158E001C3ABF38793B1A3806005B636861725D9E
:10159E00B90A00389F013738DE04AA011A3806004E
:1015AE0061626F727422CB0A00389F01303853018A
:1015BE009F01FFFF2D0D9F0137389F01FEFF9F01F9
:1015CE005B045301BF38793B1A3805FF61626F72B5
:1015DE007400D60A00383738FFFF5B0404FF636FD0
:1015EE006465EC0A00387801FE095301383AAA0105
:1015FE001A3808FF656E642D636F6465F50A00384E
:10160E009F010C949F0104381A380BFF656E7669A2
:10161E00726F6E6D656E7400000B42380C0009FF20
:10162E00776F72646C69737473000000003837381A
:10163E0008001A3804FF2F706164160B00388A3ABE
:10164E0029019C391A3805FF2F686F6C6400210B35
:10165E000038290163019C391A380AFF666F7274CB
:10166E00682D6E616D652A0B00388F030700616D62
:10167E00666F727468001A3807FF76657273696F49
:10168E006E00340B0038373834001A3803FF63709D
:10169E007500430B003837383700F1031A3808FF4E
:1016AE006D63752D696E666F4D0B003837383300DC
:1016BE001A3805FF2F7573657200560B00383738D0
:1016CE0026001A3804FF40655B5D0C0B0038AC3801
:1016DE005B3BF338FC383439BF38AA3A7F0BBD3A3E
:1016EE00FC00CA38A6395B3BBF383D39BE3A760B93
:1016FE001501EA381A3804FF21655B5D690B003865
:10170E000C01373BBF383439AA3A930B0401BF386A
:10171E00CA38373BD83A8D0BD4381A380BFF676569
:10172E00742D63757272656E7400820B00383738D3
:10173E0010005B3B1A3809FF6765742D6F72646584
:10174E007200950B0038373814006D0B1A3807FFEE
:10175E00636F6D7061726500A20BB50BBF93AF9393
:10176E008C0189919991DC01899199919C018991C2
:10177E009991FC01ED90F190EF1451F40A9519F046
:10178E002A95C1F701C02A95022B11F4882702C0B1
:10179E008FEF00C0982FAF91BF910C94043807FFC4
:1017AE006E66613E6C666100AE0B0038F103373831
:1017BE00FF001C3A383A0D3AA6391A380BFF7365FA
:1017CE00742D63757272656E7400D60B00383738DF
:1017DE001000373B1A3808FF70726576696F7573A3
:1017EE00E50B0038A90BBF38D4383E3AAC3818395F
:1017FE003038040C3738CEFF5B04610C1A380BFFFF
:10180E00646566696E6974696F6E7300F20B0038F9
:10181E00A90BCA38ED0B3439AA3A180CD438D83A79
:10182E00150C1A3808FF776F72646C697374060CA6
:10183E0000385B013439CA38373BAC38383A383A5D
:10184E0086075C011A3804FF6F6E6C79190C00382C
:10185E003738120037380100610C1A3805FF666FF1
:10186E00727468002A0C0038A90BBF38D4384B0CA0
:10187E00BF38610C1A380EFF666F7274682D776F61
:10188E0072646C697374350C69380E00A60AAA0A64
:10189E0004FF616C736F420C0038A90BCA38BF3855
:1018AE00383A610C1A3809FF7365742D6F726465CE
:1018BE0072004F0C003837381400860B1A3805FFAB
:1018CE006F72646572005A0C00389D0B0C0DFA0392
:1018DE00A90BAC380C0D3439AA3A790C0C0D07044F
:1018EE00D83A750C1A3804FF2B696E74660C7F0C8F
:1018FE0078940C94043804FF2D696E747A0C870C5E
:10190E00F8940C94043804FF696E7421820C00382C
:10191E0037381501A6397C381A3804FF696E7440C1
:10192E008A0C003837381501A63974381A3808FF72
:10193E00696E742D74726170940CA50C80931401F1
:10194E008991999168940C940438003837381401B1
:10195E00933837381501A63974382438B70C1A382D
:10196E00B80C02D00C940438189503FF64322A0088
:10197E009E0CC10C09911991000F111F881F991F00
:10198E001A930A930C94043802FF642BBC0CCF0CF0
:10199E0029913991E990F99049915991240F351F68
:1019AE008E1D9F1D3A932A930C94043802FF642DCA
:1019BE00CB0CE10C29913991E990F990499159910B
:1019CE00421B530BE80AF90A5A934A93C7010C9427
:1019DE00043807FF64696E7665727400DD0CF70CCF
:1019EE000991199180959095009510951A930A93E7
:1019FE000C94043802FF643DF00C0038E00C253ADC
:101A0E0018391A3802FF752E010D00383439340397
:101A1E001A3803FF752E7200090D00383439BF389D
:101A2E003D031A3802FF2E73100D0038A2068A3AB3
:101A3E000401AA3A290DBD3A74380C0D373802004C
:101A4E00BE3A220D1A3802002E22190D0038350D1D
:101A5E009F01C6031A38020073222A0D0038373848
:101A6E0022009C05EF0074383038400D9F018F0323
:101A7E00A2031A3806FF456465666572320D00389A
:101A8E007801FE099F01CE075B01AC38AA019F01C8
:101A9E0092079F019707040186075C011A3806FF1B
:101AAE00526465666572410D00387801FE099F012A
:101ABE00CE076301AA01373802006C019F019C0713
:101ACE009F01A1071A3802006973560D0038EF0006
:101ADE0074383038760DB6019F01B9071A382E04C6
:101AEE00B9071A380BFF6170706C7475726E6B6586
:101AFE0079006A0D0038B0007E0C4E070704D9003D
:101B0E003738E803CB39BF38D438CC012C038F03D8
:101B1E0004006B487A20C6031A3804FF66696C6CA1
:101B2E00790D0038DC38DC383439AA3AA30D0C01B3
:101B3E008838383AD83A9E0DD438D4381A380DFF32
:101B4E0073686F772D776F72646C69737400940D80
:101B5E0000383738B50DBF3828081A38003817083E
:101B6E00C60307043D391A3805FF776F7264730098
:101B7E00A60D0038373816005B3BAF0D1A3803FF41
:101B8E00316D7300BB0DCB0DE0EAFFE03197F1F73D
:101B9E000C9404380800326C69746572616CC60D61
:101BAE000038BF389F013738AA019F013738AA0184
:021BBE001A38D3
:10700000BF93AF93DB0111966EF0FD01EE0FFF1FF2
:10701000659175911196FB01EE0FFF1F059115917A
:10702000F8010994E8946CEA7CE0F5CF04FF6578F8
:107030006974D10D1B38AF91BF91E6CF07FF65781A
:1070400065637574650016382538BC01899199917E
:10705000E2CF2A38FD01EE0FFF1FA591B591D4CFE5
:107060003138982B89919991A9F31196CDCF383861
:107070009A938A93FD01EE0FFF1F859195911196CA
:10708000C3CF42389A938A93FB013196EE0FFF1FCC
:1070900085919591B9CF4C389A938A93CB010196FB
:1070A000B3CF52389A938A93FB013196EE0FFF1FAC
:1070B00085919591840D951DA7CF07FF2876616C6A
:1070C000756529001E3800387801FE099F0169386E
:1070D0001A380E94220AAC38BF38383A6F3B24383D
:1070E0001A3801FF40005D387538FC01819191919B
:1070F0008BCF01FF210071387D38FC018991999176
:1071000091838083899199917FCF02FF63217938A0
:107110008938FC018991999180838991999174CFE3
:1071200002FF634085389438FC01992780816CCF39
:1071300002FF407590380038173BA63974381A386A
:1071400002FF217598380038173BA6397C381A3869
:1071500003FF64757000A038AD389A938A9354CFBA
:1071600004FF3F647570A838B538082F092B11F05B
:107170009A938A9349CF04FF73776170B038C0380F
:107180008C01899199911A930A933ECF04FF6F76EF
:107190006572BB38CB389A938A938A819B8134CFAE
:1071A00004FF64726F70C638D538899199912CCFDD
:1071B00003FF726F7400D038DD388C01299139914A
:1071C000899199913A932A931A930A931DCF02FFBA
:1071D000723ED838EB389A938A938F919F9114CF4F
:1071E00002FF3E72E738F4389F938F93899199910B
:1071F0000BCF02FF7240F038FD389A938A938F913B
:107200009F919F938F9300CF02FF3C3EF93808393E
:10721000299139918217930751F132C001FF3D0046
:10722000043900389C3918391A3802FF303D0E39BC
:107230001939982BE1F424C001FF3C0015390038BE
:107240009C392D391A3801FF3E001C3900389C3911
:107250005C391A3802FF303C23392E3997FD10C0B3
:1072600006C001FF30002A3935399A938A93C1014B
:10727000CBCE04FF7472756531393E399A938A9387
:107280008FEF9FEFC1CE02FF753C39394739299105
:1072900039918217930758F351F3F2CF02FF753EED
:1072A00043395239299139912817390700F3F9F2F6
:1072B000E7CF02FF303E4E395D3982159305BCF2AF
:1072C000B1F2DECF02FF643E59390038E00C6D396F
:1072D0001A3803FF64303E0062396E398215930517
:1072E000899199918205930514F209F2C9CF02FFA1
:1072F000643C69390038E00C82391A3803FF643085
:107300003C0077398339229697FD0C9440390C94D0
:10731000373904FF6C6F67327E398E39FC0199274B
:1073200080E18A9522F0EE0FFF1FD8F76DCE9A9577
:107330006BCE01FF2D0089399D3909911991081BE8
:10734000190BC80161CE01FF2B009939A7390991AA
:107350001991800F911F58CE02FF6D2AA339B039C1
:107360008C01899199919C0131027001209FC0018B
:107370003003F308900DE11CF31C1203F308900D89
:10738000E11CF31C9A938A93C7013ECE06FF756DEC
:107390002F6D6F64AC39CC397C01299139910991F9
:1073A000199140E15527000F111F221F331F551F50
:1073B0002E153F05520518F003952E193F094A95E1
:1073C00089F73A932A93C8011FCE03FF756D2A00EF
:1073D000C639EA398C0189919991809FF001222761
:1073E0003327909FF00D211D331D819FF00D211D2E
:1073F000331D919F200D311DCF019A938A93C901AE
:1074000003CE06FF696E76657274E539073A80959A
:107410009095FACD02FF322F013A0E3A9595879555
:10742000F3CD02FF322A0A3A153A880F991FECCDA4
:1074300003FF616E6400113A1D3A0991199180238E
:107440009123E2CD02FF6F72183A263A0991199101
:10745000802B912BD9CD03FF786F7200223A303AFE
:107460000991199180279127CFCD02FF312B2B3A1B
:10747000393A0196C9CD02FF312D353A3F3A01978D
:10748000C3CD06FF6C73686966743B3A473AFC01EA
:107490008991999131971AF0880F991FFBCFB4CD3C
:1074A00006FF727368696674413A563AFC01899125
:1074B000999131971AF096958795FBCFA5CD02FF4C
:1074C0002B21503A633AFC018991999120813181B5
:1074D000820F931F808391838991999195CD03FFAA
:1074E000727040005F3A743A9A938A938DB79EB750
:1074F0008BCD03FF727021006F3A7E3A2FB7F8945C
:107500008DBF9EBF2FBF899199917ECD03FF737070
:107510004000793A8B3A9A938A93CE0175CD03FF56
:1075200073702100863A943AEC01899199916CCD5F
:10753000993AFD01EE0FFF1F0591159111962991C2
:1075400039911F930F933F932F939F938F9389911B
:1075500099915ACDAB3AFD01EE0FFF1F05911591A0
:107560001196299139918217930759F7D80189917A
:1075700099914ACD01FF69008F3AFD38BF3AEF91EA
:10758000FF91E80FF91F192F899199912F913F9140
:10759000E217F30717FF02C03CF001C02CF43F9341
:1075A0002F93FF93EF9356CD0F911F9111962CCDF2
:1075B000D93AEF91FF9131962F913F91E217F3075E
:1075C00099F3EDCF06FF756E6C6F6F70BA3AE83ABB
:1075D0001F910F911F910F911F910F9115CD06FFD4
:1075E000636D6F76653EE23AF53ABF93AF93E991EA
:1075F000F991A991B991092F082B41F0E80FF91FD2
:10760000A80FB91F1E9112930197E1F7AF91BF9197
:1076100089919991F9CC02FF3E3CEF3A0F3B092F3B
:10762000982F802FF1CC03FF757040000B3B183B67
:107630009A938A93C201E8CC03FF75702100133B33
:10764000213B2C0189919991DFCC03FF733E6400AB
:107650001C3B0038AC382D391A3803FF6E6F7400AC
:10766000253B003818391A3802FF21652D3B383B7D
:10767000FC01899199912FB7F89428D000B508178B
:1076800009F00BD0319622D000B5091711F0892FDF
:1076900004D02FBF89919991B7CCF999FECF07B744
:1076A00000FDFDCFF2BDE1BD80BDFA9AF99A0895C3
:1076B00002FF4065343B5C3B2FB7F894FC0106D0D9
:1076C00080B5319603D090B52FBF9ECCF999FECFEF
:1076D000F2BDE1BDF89A089502FF4069583B703B46
:1076E000FC01EE0FFF1F859195918ECC02FF216961
:1076F0006C3BCE070A009207970709FF2821692DE6
:107700006E7277772900763B853B1FB71F93F894FD
:107710009C0189919991AF93BF93CF93DF9309D047
:10772000DF91CF91BF91AF91899199911F911FBF27
:107730006BCC10D0E094F0948E219F21982B19F0FF
:10774000F90102E020D0F90104E01DD0F90100E1C7
:107750001AD00895F901E07CFF7FEF01A0E4B0E0CA
:10776000FE01EE0FFF1F45915591FE01E217F30751
:1077700011F00A0102C07A010C01002704D0219601
:10778000119771F70895F999FECF17B710FDFDCF46
:10779000EE0FFF1F016007BFE895089503FF6E3EDF
:1077A00072007D3BD33BFC01082F899199919F93F7
:1077B0008F930A95D1F7EF93FF938991999124CCF8
:1077C00003FF6E723E00CE3BE53B9A938A93FF9196
:1077D000EF910E2F8F919F919A938A930A95D1F7EB
:0477E000CF0112CCF7
:00000001FF
