:020000020000FC
:02000400C8D062
:02000800C6D060
:02000C00C4D05E
:02001000C2D05C
:02001400C0D05A
:02001800BED058
:02001C00BCD056
:02002000BAD054
:02002400B8D052
:02002800B6D050
:02002C00B4D04E
:02003000B2D04C
:02003400B0D04A
:02003800AED048
:02003C00ACD046
:02004000AAD044
:02004400A8D042
:02004800A6D040
:02004C00A4D03E
:02005000A2D03C
:02005400A0D03A
:020058009ED038
:02005C009CD036
:020060009AD034
:0200640098D032
:0200680096D030
:10006C0094D00010000800E01C00090041546D659C
:06007C0067613634340018
:040050000C944100CB
:10008200AF93AFB7AF93BF93EF93FF93B091C60017
:10009200A0910001E2E0F1E0EA0FF31DB083A39525
:1000A200AF70A0930001FF91EF91BF91AF91AFBFED
:1000B200AF91189500703471377000017C701A701E
:1000C20006FF72782D697372000000708000307034
:1000D2006700377001019370AC70387237700F008F
:1000E2001C7237700101887037700201A67193701B
:1000F2001A7007FF72783F2D6973720061000070F9
:1001020075063770010193703770000193700771A3
:100112001A7007FF74782D706F6C6C007A00007093
:100122009E00307091003770C60088701A7008FF08
:1001320074783F2D706F6C6C8A0000707506377092
:10014200C0009370377020001C721A7004FF756231
:100152007272980069705400AA0AAE0A06FF2B75E3
:1001620073617274A7000070377098003770C10015
:100172008870377006003770C2008870AB00AC70B0
:100182000E733770C50088703770C40088705B00CA
:040192006F071A7069
:040000000C947E06D8
:100196000A920FB60A920F900F900A9400921401D9
:1001A60009900FBE09906894089505FF665F637015
:1001B6007500AF0069705600E100EA0000706F73C9
:1001C600AC7008015B73BF705B73BF701A70007010
:1001D6003770EBFF5F0405FF737461746500D80028
:1001E60042704D0104FF62617365EE0052700C00AF
:1001F60005FF63656C6C7300F500007014721A706D
:1002060005FF63656C6C2B00FB00090102960C94DC
:10021600047004FF3264757003010070CA70CA70FE
:100226001A7005FF3264726F70000C010070D47092
:10023600D4701A7003FF3E696E00140152701800E4
:1002460004FF237469621D0142704F0103FF706150
:10025600640023010070670137706400A6711A708C
:1002660004FF656D69742901D2070E00AA07B1075C
:1002760005FF656D69743F003301D2071000AA07B8
:10028600B10703FF6B6579003B01D2071200AA078D
:10029600B10704FF6B65793F4401D2071400AA0732
:1002A600B10702FF64704C0169700200AA0AAE0A27
:1002B60003FF65647000540169700600AA0AAE0A5D
:1002C60004FF686572655B0169700400AA0AAE0ADC
:1002D60005FF616C6C6F7400630100706701A671A5
:1002E6008A0768011A7008FF2863726561746529B8
:1002F6006B010070EF05F909AC70F370DE09EA7066
:10030600377053017C70377051017C701A70010090
:100316005C0076010070D405BF70D47021017C703A
:100326001A70010028008A01007037702900A005A4
:1003360019011A7007FF636F6D70696C650094018F
:100346000070EA70AC703872F3706F73AE011A7099
:1003560001FF2C009D010070570179735701387217
:100366008A0758011A7003005B275D00AB01007015
:10037600A30137703204AE011A7003FF62696E0082
:10038600B601007037700200F9007C701A7007FF22
:10039600646563696D616C00C001007037700A00A6
:1003A600F9007C701A7003FF68657800CA01007056
:1003B60037701000F9007C701A7002FF626CD6016B
:1003C6004270200007FF7475726E6B657900E0015C
:1003D600D207080096079B0705FF2A2F6D6F64005A
:1003E600E5010070F370AF71EA70CB711A7004FF0B
:1003F6002F6D6F64EF01FF019C0109911991412F47
:10040600432717FF04C0109500950F5F1F4F37FF56
:1004160004C0309520952F5F3F4FEE24FF1851E121
:10042600001F111F5A9539F447FF04C01095009517
:100436000F5F1F4F0BC0EE1CFF1CE21AF30A20F4DD
:10044600E20EF31E8894ECCF0894EACFFA92EA9271
:10045600C8010C94047002FF2A2FFA010070F401FF
:10046600BF70D4701A7005FF752F6D6F64002E0271
:100476000070F3703471EA70CB711A7006FF6E6506
:100486006761746536020070067238721A7001FF71
:100496002F0041020070FE01BF70D4701A7003FF76
:1004A6006D6F64004A020070FE01D4701A7003FF7B
:1004B6006162730052025F0299231AF48095909547
:1004C60001960C94047003FF6D696E005A02007069
:1004D6001001267130707002BF70D4701A7003FF5D
:1004E6006D6178006602007010011F7130707C0229
:1004F600BF70D4701A7006FF77697468696E7202ED
:100506000070CA709C71F3709C71EA7046711A7023
:1005160007FF746F7570706572007E020070AC70B4
:100526003770610037707B00830230709D02377030
:10053600DF001C721A7007FF746F6C6F77657200AC
:100546008B020070AC703770410037705B0083021D
:100556003070B0023770200025721A7003FF686C85
:1005660064009E024270550104FF686F6C64B1021C
:100576000070B502AC7074703E72AC70F370BF70F0
:100586007C70EA7088701A7002FF3C23B702007014
:100596002D01B5027C701A7001FF2300C70200709E
:1005A600F90074705103DC7037700900CA701F714E
:1005B6003070E00237700700A67137703000A67100
:1005C600BB021A7002FF2373CF020070D202100121
:1005D600257218713070E9021A7002FF233EE50297
:1005E60000701901B5027470AC702D01BF709C715A
:1005F6001A7004FF7369676EF00200702D71307017
:10060600070337702D00BB021A7003FF642E7200B9
:10061600FC020070F370BF70CA709208CA02E8024A
:10062600DC700003F302EA70CA709C7114042304A0
:100636001A7002FF2E7208030070F3702973EA70B5
:100646000C031A7002FF642E1C03007034710C0335
:100656000B041A7001FF2E0025030070297328036E
:100666001A7003FF75642E002D0300703471410368
:100676000B041A7004FF75642E7234030070F37055
:10068600CA02E802F302EA70CA709C7114042304D9
:100696001A7006FF75642F6D6F643D030070F3706A
:1006A6003471FC70CB71EA70BF70F370CB71EA7075
:1006B6001A7006FF64696769743F4C030070910203
:1006C600377030009C71AC70377009005171307012
:1006D6007803377007009C71AC7037700900870388
:1006E60030707803D47034711A70AC70F90074707D
:1006F6008F0330708103D47034711A703D711A7093
:1007060003FF753C3D005C030070517106721A7060
:1007160003FF753E3D0083030070467106721A7032
:100726000070EA70AC70AC706F73BF703872BF70D7
:10073600DC70CA7038720D72A6713872F3701A7056
:1007460002FF732C8B030070AC70AA031A70007042
:10075600AE01AC700D72BF70CA7014729C71F370EA
:100766003471AA72BC03AC707470AE010801D87201
:10077600B603EA705C713070C303AC709370AE015F
:10078600D4701A7005FF697479706500A303007050
:10079600AC700D72BF70CA7014729C71F3703471B4
:1007A600AA72DD03AC706F73AC70EA03E6033872AD
:1007B600D872D503EA705C713070E403AC706F7365
:1007C600EA03D4701A7000700E73EA031A70007090
:1007D6003770FF001C7237011A7006FF69636F7568
:1007E6006E74C5030070AC703872BF706F731A7088
:1007F60002FF6372F003007037700D003701377027
:100806000A0037011A7005FF737061636500FB0308
:100816000070E30137011A7006FF73706163657338
:1008260006040070AC705C711C723471AA721E04EE
:100836000B04D8721B041A7004FF747970650F04D8
:100846000070CA70A671BF70AA722E04BD72937032
:100856003701D87229041A7001FF27001F0400709F
:10086600EF050C06187130703B043770F3FF5F0418
:100876001A7007FF68616E646C6572002F0452700F
:100886000A0005FF6361746368003C0400708A72A5
:10089600F37042047470F370737242047C702470B7
:1008A600EA7042047C70EA70D47034711A7005FFE5
:1008B6007468726F770044040070AC701871307001
:1008C6006604D4701A70420474707D72EA70420431
:1008D6007C70EA70BF70F3709372D470EA701A700D
:1008E60005FF63736B6970005A040070F370AC7097
:1008F60030708804CA709370FC701171307088046F
:1009060037700100DE0529707A04EA70D4701A7017
:1009160006FF61636365707473040070AC70F370F6
:10092600F3704801AC7037700A0007713070CE045E
:10093600AC7037700D0007713070CE04AC70377034
:10094600080011713070BA04EA70FC70CA70F37056
:1009560011713070B104D47029709404AC703701F1
:100966000B0437013E72EA7038722970C804AC7005
:10097600E3011F713070C104D470E301AC7037011C
:10098600CA7088703872EA703E72AC70F370187173
:1009960030709404AC701901EA70EA70BF709C71F3
:1009A600FE031A7006FF726566696C6C8B04D207CB
:1009B6001A00AA07B10704FF63686172D5040070C4
:1009C600EF05D47093701A7006FF6E756D626572CE
:1009D600DE040070F9007470F3705D05F37029058C
:1009E6005D05EA702572F370F370F370347134713B
:1009F600EA70EA707C05B47030701D05377001002E
:100A0600117130701405937037702E0011713070AB
:100A16001405EA70307010059F08377002002970BF
:100A260024051901D470EA70D470EA70F9007C705C
:100A360034711A701901EA70307022054602377057
:100A46000100EA70F9007C703D711A700070CA707E
:100A56009370377029002671307032051A70CA708B
:100A66009370390537700100DE051A700070AC709E
:100A760037702400117130704305D470DA011A7092
:100A8600AC7037702500117130704C05D470C401FC
:100A96001A70AC7037702600117130705505D4701D
:100AA600D0011A7037702300117130705C05D001C7
:100AB6001A701A700070CA70937037702B0011711B
:100AC6003070680537700100DE05CA7093703770A4
:100AD6002D001171AC70F370307074053770010021
:100AE600DE05EA701A7007FF3E6E756D626572006C
:100AF600E7040070AC7030709A05CA709370610399
:100B06001871307087051A70F370C408EA70BF70E8
:100B1600F9007470E971D470DC70F9007470E971D1
:100B2600D20CC40837700100DE0529707D051A70E5
:100B360005FF70617273650076050070F370D40569
:100B460021017470DE05EA70B505AC7038722101BA
:100B5600627237700100DE051A7005FF6373636108
:100B66006E009B050070BF70AC70F3703471AA7292
:100B7600CC05CA70BD72A6719370CA7011713070BF
:100B8600CA05D470BD72E772EA70D4701A70D87252
:100B9600BC05D470EA701A7006FF736F75726365D0
:100BA600B005D2071600AA07B10707FF2F737472A4
:100BB600696E6700CF050070CA706A02DC70CA7081
:100BC600A671DC70DC709C711A700AFF706172731A
:100BD600652D6E616D65D8050070E301F3051A7029
:100BE6000070F370D40521017470DE05FC70780482
:100BF600EA70B5051001A671D405D4709C71210167
:100C06007C701A7009FF66696E642D6E616D6500F1
:100C1600E8050070377014005B733471AA722706FA
:100C2600100137701600BD720001A6715B73E607EE
:100C3600B47030702506F370F3701901EA70EA702B
:100C4600E7721A70D8721306190134711A7004FF0C
:100C56007175697405060070A6069372BB067D72EF
:100C66006B0AF3007470187130703A065006DA0495
:100C7600307034063770D4064904B47030704C06B0
:100C8600AC703770FEFF1F7130704A065E06297021
:100C96002F065706297034061A700070FE03930358
:100CA60002003E20CA031A70007093030300206FEF
:100CB6006B00CA031A70007093030400203F3F20A4
:100CC600CA03F9007470F370D00130032101747007
:100CD6003003EA70F9007C701A7005FF7061757355
:100CE60065002A06D2075701A007A50704FF636F10
:100CF6006C6470067E06A4B6BB242224332424BE6C
:100D0600E9E5F1E02F010FEF0DBF048310E11EBFEF
:100D16001583CFEAC683D0E1D783A9E9B6E00C9460
:100D2600047004FF7761726D7906007014093770DC
:100D36006F0737707506BD07EB012E061A7003FFA5
:100D460073703000940669700600AF06B30602FFA2
:100D56007370A2065270080000706F739B701A7051
:100D660000706F73A3701A7003FF72703000AA06CA
:100D76000070BF0674701A705270040005FF646537
:100D860070746800B7060070A6068A729C710D72B0
:100D96003E721A7009FF696E74657270726574002E
:100DA600C1060070EF05B4705C713070F8063770DC
:100DB60026005B733471AA72F4061001BD72DC70F2
:100DC600DC70F370F370000137702800A6715B7356
:100DD6002470EA70EA70DC703070F206BB09D872D3
:100DE600E006190145072970D506D4701A700AFF66
:100DF6007265632D696E746E756DCD060070EC04B8
:100E060030701607F30074703070130737700200E5
:100E1600117130701007BF7022092209297014075A
:100E2600D4703D711A7034711A7008FF7265632DA3
:100E360066696E64FA0600700C06AC703070310795
:100E46005C713070280729702F07F30074703070BA
:100E56002F07AE012970300724703D711A700CFF00
:100E66007265632D6E6F74666F756E641807007019
:100E760023043770F3FF5F041A7006FF3F73746133
:100E8600636B32070070C6062D7130704D073770E0
:100E9600FCFF5F041A7003FF76657200400700705E
:100EA6003F0BCA030B04F9007470F370D0014D0BAD
:100EB6002973CA02D20237702E00BB02E802F3027F
:100EC600EA70F9007C7023040B04550BCA031A70F0
:100ED60004FF6E6F6F704E0770070C94047006FF68
:100EE600756E757365646B070070A60667019C7165
:100EF6001A700200746F7207007032043872F300C1
:100F0600747030709007A3018A07AE011A700070E2
:100F1600EA70AC703872F3706F73AC7038723872F6
:100F26006F7324701A70007038726F735B731A7067
:100F3600007038726F7337731A70007038726F737F
:100F460074701A70007038726F737C701A7000704B
:100F560038726F731773A67174701A7000703872D6
:100F66006F731773A6717C701A7006FF64656665E9
:100F760072217C070070AC7037700300A6716F7326
:100F860024701A7006FF646566657240B8070070C3
:100F9600AC70387238726F7324701A70D2070E9460
:100FA600260AAC703E72BF7038726F73247024705C
:100FB6001A700FFF7365617263682D776F72646CC8
:100FC60069737400C50700703471BF703770F50718
:100FD600BF702C08AC7018713070F4071901D4700A
:100FE60034711A700070F370F3701001EA70DC70DF
:100FF600DC70FC701B08470830700F081901D470AC
:10100600FC70E00B38723D71EA706F735C71307082
:101016000D08460234711A70EA70D4703D711A7068
:101026000BFF6E616D653E737472696E6700DC0757
:101036000070F5033770FF001C721A7011FF74728E
:101046006176657273652D776F72646C697374006F
:10105600130800705B73AC7030703F081001F370BA
:10106600F370BF702470EA70EA70DC7030703F086D
:10107600E00B6F7329702E0819011A7008FF696357
:101086006F6D7061726521080070F370CA70EA7046
:101096000771307052081901D47034711A70BF701C
:1010A6003471AA727308CA707470CA706F73AC70A8
:1010B60037700001467130706408BF703770FF00EA
:1010C6001C72077130706B0819013471E7721A705F
:1010D6003872BF700801BF7037700200BE725608C2
:1010E60019013D711A7001FF2A0041080070AF71A5
:1010F6008B081A7001FF6A007608007073723770E9
:101106000900A67174701A7003FF643E73007D08AF
:101116000070D4701A7004FF6461627387080070EF
:10112600AC702D71307098089F081A7007FF646EB6
:101136006567617465008E080070FA0C37700100EF
:101146003471D20C1A7005FF636D6F7665009908CD
:10115600AC08BF93AF93E991F991A991B991092F81
:10116600082B21F01D9111930197E1F7AF91BF91E3
:10117600899199910C94047005FF32737761700020
:10118600A6080070DC70F370DC70EA701A7003FF5A
:1011960074696200BF0842707F010AFF7265666962
:1011A6006C6C2D746962CA080070CE0837706400D2
:1011B600900427017C70347121017C703770FFFF29
:1011C6001A700AFF736F757263652D746962D008B1
:1011D6000070CE08270174701A7007FF65652D75BB
:1011E60073657200E4084270380006FF65653E725A
:1011F600616DF00800703471AA720B09CA705B73D6
:10120600CA707C700801BF700801BF70D8720109EE
:1012160019011A7009FF696E69742D75736572007C
:10122600F8080070F608177337701C000D72FD0879
:101236001A7007006C69746572616C000D090070A4
:10124600A3013770AE011A700800736C6974657279
:10125600616C1C090070A3019303A6031A70007049
:101266005701A301FFFF1A70007045075701BF70B1
:1012760079731A70007057011A7000704507AE0135
:101286001A70050061686561640027090070A30192
:10129600297032091A700200696644090070A301B8
:1012A600307032091A700400656C73654E0900705F
:1012B600A30129703209BF7037091A7004007468D7
:1012C600656E5609007037091A7005006265676910
:1012D6006E00610900703D091A7005007768696C37
:1012E600650068090070A30130703209BF701A707A
:1012F600060072657065617470090070930937099C
:101306001A700500756E74696C007B090070A30184
:10131600307040091A700500616761696E008409C2
:101326000070A301297040091A700200646F8E09CB
:101336000070A301987232093D091A7004006C6F9F
:101346006F7098090070A301D872400937091A70A6
:1013560005002B6C6F6F7000A1090070A301BE72AF
:10136600400937091A7005FF6C6561766500AB099F
:10137600BC090F911F910F911F91AF91BF910C94D2
:10138600047003003F646F00B6090070A301AA72DF
:1013960032093D091A7006FF637265617465C409F6
:1013A60000707C01020AA3014C701A7006FF686582
:1013B60061646572CE0900705701F370F370AC700A
:1013C6005C713070F009AC70377000FF2572AA03AB
:1013D600EA705B73AE01EA701A703770F0FF5F0453
:1013E60007FF776C73636F706500D909D207340005
:1013F60096079B0706FF72657665616CF3090070B8
:10140600377051017470B4703070110A377053011F
:10141600747037733471377051017C701A7006FF1F
:101426006C6174657374FD094270E3010500646FB5
:1014360065733E00120A0070A301310AA3010E94DF
:10144600A301260A1A709A938A93CB0101967F917B
:101456006F91BF93AF93DB010C9404700070EA7038
:101466003770530174705B73E00B387279731A70BE
:1014760001FF3A00190A00707C015701170A7C70B7
:10148600A3010070620A1A7007FF3A6E6F6E616DF3
:1014960065003B0A00705701AC70170A7C70A30107
:1014A6000070620A1A7001003B00470A0070A3012F
:1014B6001A706B0A020A1A7001FF5D00560A007064
:1014C60037700100F3007C701A7001005B005F0A40
:1014D60000703471F3007C701A7008FF76617269CF
:1014E60061626C65680A00706701830A37700200E2
:1014F60070011A7008FF636F6E7374616E74700A00
:1015060000707C01020AA3014270AE011A7004FF4A
:10151600757365727D0A00707C01020AA301527020
:10152600AE011A7005FF76616C7565008A0A007057
:1015360063705F01AE01A301AA0AA301AE0A5F01AF
:10154600AC70387238728A07600137731A7000708F
:101556006F735B731A7000706F7337731A700700BE
:101566007265637572736500950A0070170A747068
:10157600AE011A7009FF696D6D6564696174650075
:10158600B20A0070A10B5B73AC706F733770FF7F8C
:101596001C72BF7079731A7006005B636861725DB6
:1015A600BD0A0070A3013770E204AE011A7006008E
:1015B60061626F727422CF0A0070A3013070570106
:1015C600A301FFFF310DA3013770A301FEFFA301A5
:1015D6005F045701BF7079731A7005FF61626F72FD
:1015E6007400DA0A00703770FFFF5F0404FF636F50
:1015F6006465F00A00707C01020A57013872AE0178
:101606001A7008FF656E642D636F6465F90A0070D1
:10161600A3010C94A30104701A700BFF656E766922
:10162600726F6E6D656E7400040B42700C0009FFDC
:10163600776F72646C6973747300000000703770A2
:1016460008001A7004FF2F7061641A0B00708A720A
:101656002D019C711A7005FF2F686F6C6400250BB5
:1016660000702D0167019C711A700AFF666F727413
:10167600682D6E616D652E0B007093030700616D1A
:10168600666F727468001A7007FF76657273696F09
:101696006E00380B0070377034001A7003FF6370E9
:1016A6007500470B007037703B00F5031A7008FF92
:1016B6006D63752D696E666F510B0070377037005C
:1016C6001A7005FF2F75736572005A0B007037701C
:1016D60026001A7004FF40655B5D100B0070AC704D
:1016E6005B73F370FC703471BF70AA72830BBD72AA
:1016F6000001CA70A6715B73BF703D71BE727A0B32
:101706001901EA701A7004FF21655B5D6D0B0070AC
:1017160010013773BF703471AA72970B0801BF703E
:10172600CA703773D872910BD4701A700BFF676545
:10173600742D63757272656E7400860B0070377057
:1017460010005B731A7009FF6765742D6F7264650C
:101756007200990B007037701400710B1A7007FF36
:10176600636F6D7061726500A60BB90BBF93AF9383
:101776008C0189919991DC01899199919C018991BA
:101786009991FC01ED90F190EF1451F40A9519F03E
:101796002A95C1F701C02A95022B11F4882702C0A9
:1017A6008FEF00C0982FAF91BF910C94047007FF84
:1017B6006E66613E6C666100B20B0070F5033770B1
:1017C600FF001C7238720D72A6711A700BFF7365DA
:1017D600742D63757272656E7400DA0B0070377063
:1017E600100037731A7008FF70726576696F75732B
:1017F600E90B0070AD0BBF70D4703E72AC701871FF
:101806003070080C3770CEFF5F04650C1A700BFF42
:10181600646566696E6974696F6E7300F60B0070B5
:10182600AD0BCA70F10B3471AA721C0CD470D8724D
:10183600190C1A7008FF776F72646C6973740A0C5E
:1018460000705F013471CA703773AC7038723872C9
:101856008A0760011A7004FF6F6E6C791D0C0070A8
:101866003770120037700100650C1A7005FF666F3D
:10187600727468002E0C0070AD0BBF70D4704F0CE4
:10188600BF70650C1A700EFF666F7274682D776FE5
:1018960072646C697374390C69700E00AA0AAE0A18
:1018A60004FF616C736F460C0070AD0BCA70BF709D
:1018B6003872650C1A7009FF7365742D6F72646552
:1018C6007200530C0070377014008A0B1A7005FFF3
:1018D6006F72646572005E0C0070A10B100DFE0342
:1018E600AD0BAC70100D3471AA727D0C100D0B048B
:1018F600D872790C1A7004FF2B696E746A0C830C0B
:1019060078940C94047004FF2D696E747E0C8B0C15
:10191600F8940C94047004FF696E7421860C0070B0
:1019260037701501A6717C701A7004FF696E7440D9
:101936008E0C007037701501A67174701A7008FF4E
:10194600696E742D74726170980CA90C80931401E1
:101956008991999168940C94047000703770140101
:10196600937037701501A67174702470BB0C1A70D1
:10197600BC0C02D00C940470189503FF64322A0044
:10198600A20CC50C09911991000F111F881F991FF0
:101996001A930A930C94047002FF642BC00CD30CA8
:1019A60029913991E990F99049915991240F351F60
:1019B6008E1D9F1D3A932A930C94047002FF642D8A
:1019C600CF0CE50C29913991E990F99049915991FB
:1019D600421B530BE80AF90A5A934A93C7010C941F
:1019E600047007FF64696E7665727400E10CFB0C87
:1019F6000991199180959095009510951A930A93DF
:101A06000C94047002FF643DF40C0070E40C257223
:101A160018711A7002FF752E050D007034713803A7
:101A26001A7003FF752E72000D0D00703471BF70B1
:101A360041031A7002FF2E73140D0070A6068A72F7
:101A46000801AA722D0DBD727470100D3770020058
:101A5600BE72260D1A7002002E221D0D0070390D61
:101A6600A301CA031A70020073222E0D007037708C
:101A76002200A005F30074703070440DA301930397
:101A8600A6031A7006FF456465666572360D00701A
:101A96007C01020AA301D2075F01AC70AE01A3016B
:101AA6009607A3019B0708018A0760011A7006FFC3
:101AB600526465666572450D00707C01020AA301D9
:101AC600D2076701AE01377002007001A301A007BB
:101AD600A301A5071A70020069735A0D0070F3007E
:101AE600747030707A0DBA01A301BD071A70320402
:101AF600BD071A700BFF6170706C7475726E6B6542
:101B060079006E0D0070B400820C52070B04DD00E4
:101B16003770E803CB71BF70D470D00130039303E4
:101B260004006B487A20CA031A7004FF66696C6C5D
:101B36007D0D0070DC70DC703471AA72A70D100187
:101B460088703872D872A20DD470D4701A700DFFD6
:101B560073686F772D776F72646C69737400980D74
:101B660000703770B90DBF702C081A7000701B0812
:101B7600CA030B043D711A7005FF776F7264730018
:101B8600AA0D0070377016005B73B30D1A7003FF51
:101B9600316D7300BF0DCF0DE0EAFFE03197F1F72D
:101BA6000C9404700800326C69746572616CCA0D1D
:101BB6000070BF70A3013770AE01A3013770AE018C
:021BC6001A7093
:10E00000BF93AF93DB0111966EF0FD01EE0FFF1F82
:10E01000659175911196FB01EE0FFF1F059115910A
:10E02000F8010994E89460EB7CE0F5CF04FF657893
:10E030006974D50D1B70AF91BF91E6CF07FF65786E
:10E0400065637574650016702570BC01899199919E
:10E05000E2CF2A70FD01EE0FFF1FA591B591D4CF3D
:10E060003170982B89919991A9F31196CDCF387081
:10E070009A938A93FD01EE0FFF1F8591959111965A
:10E08000C3CF42709A938A93FB013196EE0FFF1F24
:10E0900085919591B9CF4C709A938A93CB01019653
:10E0A000B3CF52709A938A93FB013196EE0FFF1F04
:10E0B00085919591840D951DA7CF07FF2876616CFA
:10E0C000756529001E7000707C01020AA301697049
:10E0D0001A700E94260AAC70BF7038726F73247079
:10E0E0001A7001FF40005D707570FC018191919183
:10E0F0008BCF01FF210071707D70FC018991999196
:10E1000091838083899199917FCF02FF63217970F8
:10E110008970FC018991999180838991999174CF3B
:10E1200002FF634085709470FC01992780816CCF59
:10E1300002FF4075907000701773A67174701A70AA
:10E1400002FF2175987000701773A6717C701A70A9
:10E1500003FF64757000A070AD709A938A9354CFDA
:10E1600004FF3F647570A870B570082F092B11F07B
:10E170009A938A9349CF04FF73776170B070C0702F
:10E180008C01899199911A930A933ECF04FF6F767F
:10E190006572BB70CB709A938A938A819B8134CFCE
:10E1A00004FF64726F70C670D570899199912CCFFD
:10E1B00003FF726F7400D070DD708C01299139916A
:10E1C000899199913A932A931A930A931DCF02FF4A
:10E1D000723ED870EB709A938A938F919F9114CF6F
:10E1E00002FF3E72E770F4709F938F93899199912B
:10E1F0000BCF02FF7240F070FD709A938A938F915B
:10E200009F919F938F9300CF02FF3C3EF97008715E
:10E21000299139918217930751F132C001FF3D00D6
:10E22000047100709C7118711A7002FF303D0E71FC
:10E230001971982BE1F424C001FF3C0015710070A6
:10E240009C712D711A7001FF3E001C7100709C7151
:10E250005C711A7002FF303C23712E7197FD10C063
:10E2600006C001FF30002A7135719A938A93C1016B
:10E27000CBCE04FF7472756531713E719A938A93A7
:10E280008FEF9FEFC1CE02FF753C39714771299125
:10E2900039918217930758F351F3F2CF02FF753E7D
:10E2A00043715271299139912817390700F3F9F216
:10E2B000E7CF02FF303E4E715D7182159305BCF2CF
:10E2C000B1F2DECF02FF643E59710070E40C6D7153
:10E2D0001A7003FF64303E0062716E7182159305FF
:10E2E000899199918205930514F209F2C9CF02FF31
:10E2F000643C69710070E40C82711A7003FF643031
:10E300003C0077718371229697FD0C9440710C94B8
:10E31000377104FF6C6F67327E718E71FC01992733
:10E3200080E18A9522F0EE0FFF1FD8F76DCE9A9507
:10E330006BCE01FF2D0089719D7109911991081B08
:10E34000190BC80161CE01FF2B009971A7710991CA
:10E350001991800F911F58CE02FF6D2AA371B071E1
:10E360008C01899199919C0131027001209FC0011B
:10E370003003F308900DE11CF31C1203F308900D19
:10E38000E11CF31C9A938A93C7013ECE06FF756D7C
:10E390002F6D6F64AC71CC717C0129913991099119
:10E3A000199140E15527000F111F221F331F551FE0
:10E3B0002E153F05520518F003952E193F094A9571
:10E3C00089F73A932A93C8011FCE03FF756D2A007F
:10E3D000C671EA718C0189919991809FF001222781
:10E3E0003327909FF00D211D331D819FF00D211DBE
:10E3F000331D919F200D311DCF019A938A93C9013E
:10E4000003CE06FF696E76657274E57107728095BA
:10E410009095FACD02FF322F01720E729595879575
:10E42000F3CD02FF322A0A721572880F991FECCDC4
:10E4300003FF616E640011721D72099119918023AE
:10E440009123E2CD02FF6F72187226720991199121
:10E45000802B912BD9CD03FF786F7200227230721E
:10E460000991199180279127CFCD02FF312B2B7273
:10E4700039720196C9CD02FF312D35723F72019775
:10E48000C3CD06FF6C73686966743B724772FC010A
:10E490008991999131971AF0880F991FFBCFB4CDCC
:10E4A00006FF72736869667441725672FC01899145
:10E4B000999131971AF096958795FBCFA5CD02FFDC
:10E4C0002B2150726372FC018991999120813181D5
:10E4D000820F931F808391838991999195CD03FF3A
:10E4E000727040005F7274729A938A938DB79EB770
:10E4F0008BCD03FF727021006F727E722FB7F8947C
:10E500008DBF9EBF2FBF899199917ECD03FF737000
:10E51000400079728B729A938A93CE0175CD03FF76
:10E520007370210086729472EC01899199916CCD7F
:10E530009972FD01EE0FFF1F05911591119629911A
:10E5400039911F930F933F932F939F938F938991AB
:10E5500099915ACDAB72FD01EE0FFF1F05911591F8
:10E560001196299139918217930759F7D80189910A
:10E5700099914ACD01FF69008F72FD70BF72EF91D2
:10E58000FF91E80FF91F192F899199912F913F91D0
:10E59000E217F30717FF02C03CF001C02CF43F93D1
:10E5A0002F93FF93EF9356CD0F911F9111962CCD82
:10E5B000D972EF91FF9131962F913F91E217F307B6
:10E5C00099F3EDCF06FF756E6C6F6F70BA72E872DB
:10E5D0001F910F911F910F911F910F9115CD06FF64
:10E5E000636D6F76653EE272F572BF93AF93E9910A
:10E5F000F991A991B991092F082B41F0E80FF91F62
:10E60000A80FB91F1E9112930197E1F7AF91BF9127
:10E6100089919991F9CC02FF3E3CEF720F73092F5B
:10E62000982F802FF1CC03FF757040000B73187387
:10E630009A938A93C201E8CC03FF7570210013738B
:10E6400021732C0189919991DFCC03FF733E640003
:10E650001C730070AC702D711A7003FF6E6F740024
:10E660002573007018711A7002FF21652D733873BD
:10E67000FC01899199912FB7F89428D000B508171B
:10E6800009F00BD0319622D000B5091711F0892F6F
:10E6900004D02FBF89919991B7CCF999FECF07B7D4
:10E6A00000FDFDCFF2BDE1BD80BDFA9AF99A089553
:10E6B00002FF406534735C732FB7F894FC0106D0F9
:10E6C00080B5319603D090B52FBF9ECCF999FECF7F
:10E6D000F2BDE1BDF89A089502FF40695873707366
:10E6E000FC01EE0FFF1F859195918ECC02FF2169F1
:10E6F0006C73D2070A0096079B0709FF2821692D32
:10E700006E7277772900767385731FB71F93F8941D
:10E710009C0189919991AF93BF93CF93DF9309D0D7
:10E72000DF91CF91BF91AF91899199911F911FBFB7
:10E730006BCC10D0E094F0948E219F21982B19F08F
:10E74000F90102E020D0F90104E01DD0F90100E157
:10E750001AD00895F901E078FF7FEF01A0E8B0E05A
:10E76000FE01EE0FFF1F45915591FE01E217F307E1
:10E7700011F00A0102C07A010C01002704D0219691
:10E78000119771F70895F999FECF17B710FDFDCFD6
:10E79000EE0FFF1F016007BFE895089503FF6E3E6F
:10E7A00072007D73D373FC01082F899199919F9317
:10E7B0008F930A95D1F7EF93FF938991999124CC88
:10E7C00003FF6E723E00CE73E5739A938A93FF91B6
:10E7D000EF910E2F8F919F919A938A930A95D1F77B
:04E7E000CF0112CC87
:00000001FF
