:020000020000FC
:0200040024D105
:0200080022D103
:02000C0020D101
:020010001ED1FF
:020014001CD1FD
:020018001AD1FB
:02001C0018D1F9
:0200200016D1F7
:0200240014D1F5
:0200280012D1F3
:02002C0010D1F1
:020030000ED1EF
:020034000CD1ED
:020038000AD1EB
:02003C0008D1E9
:0200400006D1E7
:0200440004D1E5
:0200480002D1E3
:02004C0000D1E1
:02005000FED0E0
:02005400FCD0DE
:02005800FAD0DC
:02005C00F8D0DA
:02006000F6D0D8
:02006400F4D0D6
:02006800F2D0D4
:02006C00F0D0D2
:02007000EED0D0
:02007400ECD0CE
:02007800EAD0CC
:02007C00E8D0CA
:02008000E6D0C8
:02008400E4D0C6
:10008800E2D000400010FFFF23000B0041546D65D3
:10009800676131323834500008FF31772E7265734A
:1000A8006574000057009A938A9399270C9A1498BC
:1000B800E0ECF3E03197F1F71FB7F894149A0C9835
:1000C800E0E8F0E03197F1F780B184FF9FEF1FBFC0
:1000D8000C981498E0E4F3E03197F1F7892F0C9429
:1000E80004F007FF31772E736C6F740050007C00AA
:1000F8000C9A14981FB7F894ECE0F0E03197F1F7F8
:100108008894879510F40C98149AE2E1F0E03197FE
:10011800F1F700B104FD8068E6E6F0E03197F1F709
:100128000C98149AE4E0F0E03197F1F71FBF0C94B3
:0201380004F0D1
:040050000C949D006F
:10013A00AF93AFB7AF93BF93EF93FF93B091C6005E
:10014A00A0910001E2E0F1E0EA0FF31DB083A3956C
:10015A00AF70A0930001FF91EF91BF91AF91AFBF34
:10016A00AF91189500F046F140F000018EF020F0B2
:10017A0006FF72782D697372750000F0DC0039F0A1
:10018A00C30040F00101A5F0BEF04AF240F00F00B2
:10019A002EF240F001019AF040F00201B8F1A5F008
:1001AA0020F007FF72783F2D69737200BD0000F0DE
:1001BA00D10640F00101A5F040F00001A5F019F1C7
:1001CA0020F007FF74782D706F6C6C00D60000F079
:1001DA00FA0039F0ED0040F0C6009AF020F008FF6E
:1001EA0074783F2D706F6C6CE60000F0D10640F019
:1001FA00C000A5F040F020002EF220F004FF756246
:10020A007272F4007BF05400CE0BD20B06FF2B75F2
:10021A0073617274030100F040F0980040F0C1006D
:10022A009AF040F0060040F0C2009AF00701BEF0D2
:10023A0026F340F0C5009AF040F0C4009AF0B700E7
:04024A00CB0720F0CE
:040000000C94DA067C
:10024E000A920FB60A920F900F900A940092140120
:10025E0009900FBE09906894089505FF665F63705C
:10026E0075000B017BF056003D01460100F0E5F3F1
:10027E00BEF0640173F3D1F073F3D1F020F000F00F
:10028E0040F0EBFFBB0405FF73746174650034012D
:10029E004EF05B0104FF626173654A0161F00C0070
:1002AE0005FF63656C6C7300510100F026F220F0BF
:1002BE0005FF63656C6C2B005701650102960C946B
:1002CE0004F004FF326475705F0100F0DCF0DCF0C6
:1002DE0020F005FF3264726F7000680100F0E6F0E6
:1002EE00E6F020F003FF3E696E00700161F0180029
:1002FE0004FF2374696279014EF05D0103FF7061A2
:10030E0064007F0100F0C30140F06400B8F120F0FA
:10031E0004FF656D697485012E080E0006080D0830
:10032E0005FF656D69743F008F012E0810000608E9
:10033E000D0803FF6B65790097012E081200060861
:10034E000D0804FF6B65793FA0012E081400060806
:10035E000D0802FF6470A8017BF00200CE0BD20BD9
:10036E0003FF65647000B0017BF00600CE0BD20B6C
:10037E0004FF68657265B7017BF00400CE0BD20BEB
:10038E0005FF616C6C6F7400BF0100F0C301B8F122
:10039E00E607C40120F008FF2863726561746529C1
:1003AE00C70100F04B061D0BBEF005F1020BFCF071
:1003BE0040F061018EF040F05F018EF020F0010000
:1003CE005C00D20100F03006D1F0E6F07D018EF037
:1003DE0020F001002800E60100F040F02900FC05A5
:1003EE00750120F007FF636F6D70696C6500F00199
:1003FE0000F0FCF0BEF04AF205F1E5F30A0220F03F
:10040E0001FF2C00F90100F0B30187F3B3014AF2AA
:10041E00E607B40120F003005B275D00070200F041
:10042E00FF0140F08E040A0220F003FF62696E00A5
:10043E00120200F040F0020055018EF020F007FF8E
:10044E00646563696D616C001C0200F040F00A0087
:10045E0055018EF020F003FF68657800260200F04B
:10046E0040F0100055018EF020F002FF626C320257
:10047E004EF0200007FF7475726E6B6579003C02BA
:10048E002E080800F207F70705FF2A2F6D6F64008C
:10049E00410200F005F1C1F1FCF0DDF120F004FFA6
:1004AE002F6D6F644B025B029C0109911991412FD4
:1004BE00432717FF04C0109500950F5F1F4F37FF9E
:1004CE0004C0309520952F5F3F4FEE24FF1851E169
:1004DE00001F111F5A9539F447FF04C0109500955F
:1004EE000F5F1F4F0BC0EE1CFF1CE21AF30A20F425
:1004FE00E20EF31E8894ECCF0894EACFFA92EA92B9
:10050E00C8010C9404F002FF2A2F560200F050028C
:10051E00D1F0E6F020F005FF752F6D6F64008A02B2
:10052E0000F005F146F1FCF0DDF120F006FF6E65FE
:10053E0067617465920200F018F24AF220F001FF32
:10054E002F009D0200F05A02D1F0E6F020F003FFDA
:10055E006D6F6400A60200F05A02E6F020F003FF71
:10056E0061627300AE02BB0299231AF480959095D6
:10057E0001960C9404F003FF6D696E00B60200F054
:10058E006C0138F139F0CC02D1F0E6F020F003FF27
:10059E006D617800C20200F06C0131F139F0D802C1
:1005AE00D1F0E6F020F006FF77697468696ECE022E
:1005BE0000F0DCF0AEF105F1AEF1FCF058F120F0F8
:1005CE0007FF746F757070657200DA0200F0BEF08E
:1005DE0040F0610040F07B00DF0239F0F90240F09C
:1005EE00DF002EF220F007FF746F6C6F77657200DC
:1005FE00E70200F0BEF040F0410040F05B00DF0289
:10060E0039F00C0340F0200037F220F003FF686C45
:10061E006400FA024EF0630104FF686F6C640D0310
:10062E0000F01103BEF086F050F2BEF005F1D1F0ED
:10063E008EF0FCF09AF020F002FF3C23130300F042
:10064E00890111038EF020F001FF2300230300F037
:10065E00550186F0AD03EEF040F00900DCF031F10B
:10066E0039F03C0340F00700B8F140F03000B8F12B
:10067E00170320F002FF23732B0300F02E036C01EF
:10068E0037F22AF139F0450320F002FF233E4103F1
:10069E0000F07501110386F0BEF08901D1F0AEF1C4
:1006AE0020F004FF7369676E4C0300F03FF139F0E0
:1006BE00630340F02D00170320F003FF642E720039
:1006CE00580300F005F1D1F0DCF0FF0826034403D7
:1006DE00EEF05C034F03FCF0DCF0AEF170047F042F
:1006EE0020F002FF2E72640300F005F141F3FCF0DE
:1006FE00680320F002FF642E780300F046F16803D1
:10070E00670420F001FF2E00810300F041F3840303
:10071E0020F003FF75642E00890300F046F19D035F
:10072E00670420F004FF75642E72900300F005F14B
:10073E00260344034F03FCF0DCF0AEF170047F049B
:10074E0020F006FF75642F6D6F64990300F005F1BC
:10075E0046F10EF1DDF1FCF0D1F005F1DDF1FCF02A
:10076E0020F006FF64696769743FA80300F0ED028C
:10077E0040F03000AEF1BEF040F0090063F139F008
:10078E00D40340F00700AEF1BEF040F00900E303E1
:10079E0039F0D403E6F046F120F0BEF0550186F0B4
:1007AE00EB0339F0DD03E6F046F120F04FF120F0D7
:1007BE0003FF753C3D00B80300F063F118F220F022
:1007CE0003FF753E3D00DF0300F058F118F220F0F4
:1007DE0000F0FCF0BEF0BEF0E5F3D1F04AF2D1F03D
:1007EE00EEF0DCF04AF21FF2B8F14AF205F120F019
:1007FE0002FF732CE70300F0BEF0060420F000F0B9
:10080E000A02BEF01FF2D1F0DCF026F2AEF105F1D5
:10081E0046F1BFF21804BEF086F00A026401F0F24F
:10082E001204FCF06EF139F01F04BEF0A5F00A02BE
:10083E00E6F020F005FF697479706500FF0300F0A3
:10084E00BEF01FF2D1F0DCF026F2AEF105F146F16A
:10085E00BFF23904BEF0E5F3BEF0460442044AF29C
:10086E00F0F23104FCF06EF139F04004BEF0E5F325
:10087E004604E6F020F000F026F3460420F000F0E7
:10088E0040F0FF002EF2930120F006FF69636F75B2
:10089E006E74210400F0BEF04AF2D1F0E5F320F0C0
:1008AE0002FF63724C0400F040F00D00930140F023
:1008BE000A00930120F005FF737061636500570411
:1008CE0000F03F02930120F006FF737061636573C1
:1008DE00620400F0BEF06EF12EF246F1BFF27A0421
:1008EE006704F0F2770420F004FF747970656B04EE
:1008FE0000F0DCF0B8F1D1F0BFF28A04D5F2A5F029
:10090E009301F0F2850420F001FF27007B0400F034
:10091E004B0668062AF139F0970440F0F3FFBB044A
:10092E0020F007FF68616E646C6572008B0461F0E5
:10093E000A0005FF636174636800980400F09CF27E
:10094E0005F19E0486F005F185F29E048EF02AF0E4
:10095E00FCF09E048EF0FCF0E6F046F120F005FF70
:10096E007468726F7700A00400F0BEF02AF139F0BF
:10097E00C204E6F020F09E0486F08FF2FCF09E0496
:10098E008EF0FCF0D1F005F1A5F2E6F0FCF020F0CF
:10099E0005FF63736B697000B60400F005F1BEF0DD
:1009AE0039F0E404DCF0A5F00EF123F139F0E404A3
:1009BE0040F001003A062FF0D604FCF0E6F020F0ED
:1009CE0006FF616363657074CF0400F0BEF005F13D
:1009DE0005F1A401BEF040F00A0019F139F02A0524
:1009EE00BEF040F00D0019F139F02A05BEF040F0CE
:1009FE00080023F139F01605FCF00EF1DCF005F1DC
:100A0E0023F139F00D05E6F02FF0F004BEF093015E
:100A1E006704930150F2FCF04AF22FF02405BEF069
:100A2E003F0231F139F01D05E6F03F02BEF09301B1
:100A3E00DCF09AF04AF2FCF050F2BEF005F12AF129
:100A4E0039F0F004BEF07501FCF0FCF0D1F0AEF11F
:100A5E005A0420F006FF726566696C6CE7042E0876
:100A6E001A0006080D0804FF63686172310500F074
:100A7E004B06E6F0A5F020F006FF6E756D6265720E
:100A8E003A0500F0550186F005F1B90505F1850529
:100A9E00B905FCF037F205F105F105F146F146F125
:100AAE00FCF0FCF0D805C6F039F0790540F00100F5
:100ABE0023F139F07005A5F040F02E0023F139F046
:100ACE007005FCF039F06C050C0940F002002FF0B7
:100ADE0080057501E6F0FCF0E6F0FCF055018EF0B5
:100AEE0046F120F07501FCF039F07E05A20240F0CF
:100AFE000100FCF055018EF04FF120F000F0DCF01B
:100B0E00A5F040F0290038F139F08E0520F0DCF028
:100B1E00A5F0950540F001003A0620F000F0BEF079
:100B2E0040F0240023F139F09F05E6F0360220F064
:100B3E00BEF040F0250023F139F0A805E6F02002C2
:100B4E0020F0BEF040F0260023F139F0B105E6F0BA
:100B5E002C0220F040F0230023F139F0B8052C02CE
:100B6E0020F020F000F0DCF0A5F040F02B0023F197
:100B7E0039F0C40540F001003A06DCF0A5F040F073
:100B8E002D0023F1BEF005F139F0D00540F0010043
:100B9E003A06FCF020F007FF3E6E756D626572003E
:100BAE00430500F0BEF039F0F605DCF0A5F0BD030C
:100BBE002AF139F0E30520F005F13109FCF0D1F00E
:100BCE00550186F0FBF1E6F0EEF0550186F0FBF1F3
:100BDE009B09310940F001003A062FF0D90520F0AB
:100BEE0005FF706172736500D20500F005F13006E5
:100BFE007D0186F03A06FCF01106BEF04AF27D0148
:100C0E0074F240F001003A0620F005FF6373636151
:100C1E006E00F70500F0D1F0BEF005F146F1BFF21F
:100C2E002806DCF0D5F2B8F1A5F0DCF023F139F0AE
:100C3E002606E6F0D5F2FFF2FCF0E6F020F0F0F238
:100C4E001806E6F0FCF020F006FF736F7572636510
:100C5E000C062E08160006080D0807FF2F73747277
:100C6E00696E67002B0600F0DCF0C602EEF0DCF0D9
:100C7E00B8F1EEF0EEF0AEF120F00AFF7061727393
:100C8E00652D6E616D65340600F03F024F0620F053
:100C9E0000F005F130067D0186F03A060EF1D4041F
:100CAE00FCF011066C01B8F13006E6F0AEF17D01F4
:100CBE008EF020F009FF66696E642D6E616D650021
:100CCE00440600F040F0140073F346F1BFF28306C1
:100CDE006C0140F01600D5F25C01B8F173F34208D6
:100CEE00C6F039F0810605F105F17501FCF0FCF056
:100CFE00FFF220F0F0F26F06750146F120F004FFCE
:100D0E0071756974610600F00207A5F217078FF27C
:100D1E008F0B4F0186F02AF139F09606AC06360598
:100D2E0039F0900640F03007A504C6F039F0A80659
:100D3E00BEF040F0FEFF31F139F0A606BA062FF0F4
:100D4E008B06B3062FF0900620F000F05A04EF0346
:100D5E0002003E20260420F000F0EF030300206F77
:100D6E006B00260420F000F0EF030400203F3F202C
:100D7E002604550186F005F12C028C037D0186F0C8
:100D8E008C03FCF055018EF020F005FF7061757339
:100D9E00650086062E086501FC07010804FF636FD7
:100DAE006C64CC06DA06A4B6BB242224332424BEFB
:100DBE00E7E6F1E02F010FEF0DBF048310E41EBF35
:100DCE001583CFEAC683D0E4D783A5EFB6E00C94A3
:100DDE0004F004FF7761726DD50600F0810940F0D2
:100DEE00CB0740F0D106190847028A0620F003FF10
:100DFE0073703000F0067BF006000B070F0702FF42
:100E0E007370FE0661F0080000F0E5F3ADF020F01F
:100E1E0000F0E5F3B5F020F003FF72703000060726
:100E2E0000F01B0786F020F061F0040005FF6465FA
:100E3E0070746800130700F002079CF2AEF11FF207
:100E4E0050F220F009FF696E74657270726574005D
:100E5E001D0700F04B06C6F06EF139F0540740F056
:100E6E00260073F346F1BFF250076C01D5F2EEF097
:100E7E00EEF005F105F15C0140F02800B8F173F3D6
:100E8E002AF0FCF0FCF0EEF039F04E07DF0AF0F23B
:100E9E003C077501A1072FF03107E6F020F00AFF9D
:100EAE007265632D696E746E756D290700F04805C5
:100EBE0039F072074F0186F039F06F0740F00200EB
:100ECE0023F139F06C07D1F0460A460A2FF070076D
:100EDE00E6F04FF120F046F120F008FF7265632D29
:100EEE0066696E64560700F06806BEF039F08D072D
:100EFE006EF139F084072FF08B074F0186F039F031
:100F0E008B070A022FF08C072AF04FF120F00CFF0E
:100F1E007265632D6E6F74666F756E64740700F084
:100F2E007F0440F0F3FFBB0420F006FF3F737461B3
:100F3E00636B8E0700F022073FF139F0A90740F0EE
:100F4E00FCFFBB0420F003FF766572009C0700F0E7
:100F5E00630C26046704550186F005F12C02710C12
:100F6E0041F326032E0340F02E00170344034F03D4
:100F7E00FCF055018EF07F046704790C260420F0F6
:100F8E0004FF6E6F6F70AA07CC070C9404F006FF77
:100F9E00756E75736564C70700F00207C301AEF185
:100FAE0020F00200746FCE0700F08E044AF24F015B
:100FBE0086F039F0EC07FF01E6070A0220F000F098
:100FCE00FCF0BEF04AF205F1E5F3BEF04AF24AF249
:100FDE00E5F32AF020F000F04AF2E5F373F320F087
:100FEE0000F04AF2E5F34FF320F000F04AF2E5F399
:100FFE0086F020F000F04AF2E5F38EF020F000F0DB
:10100E004AF2E5F32FF3B8F186F020F000F04AF241
:10101E00E5F32FF3B8F18EF020F006FF64656665F8
:10102E007221D80700F0BEF040F00300B8F1E5F3EE
:10103E002AF020F006FF646566657240140800F021
:10104E00BEF04AF24AF2E5F32AF020F02E080E9492
:10105E004A0BBEF050F2D1F04AF2E5F32AF02AF034
:10106E0020F00FFF7365617263682D776F72646C89
:10107E0069737400210800F046F1D1F040F0510878
:10108E00D1F08808BEF02AF139F050087501E6F06B
:10109E0046F120F000F005F105F16C01FCF0EEF0E8
:1010AE00EEF00EF17708A30839F06B087501E6F043
:1010BE000EF1040D4AF24FF1FCF0E5F36EF139F04A
:1010CE006908A20246F120F0FCF0E6F04FF120F0A4
:1010DE000BFF6E616D653E737472696E6700380842
:1010EE0000F0510440F0FF002EF220F011FF747258
:1010FE006176657273652D776F72646C69737400B7
:10110E006F0800F073F3BEF039F09B086C0105F127
:10111E0005F1D1F02AF0FCF0FCF0EEF039F09B086E
:10112E00040DE5F32FF08A08750120F008FF6963BE
:10113E006F6D706172657D0800F005F1DCF0FCF0FA
:10114E0019F139F0AE087501E6F046F120F0D1F054
:10115E0046F1BFF2D108DCF086F0D408DCF0E5F3FE
:10116E00D408BEF040F0000158F139F0C208D1F0B9
:10117E0040F0FF002EF219F139F0C908750146F161
:10118E00FFF220F04AF2D1F06401D1F040F00200FB
:10119E00D6F2B20875014FF120F000F0BEF040F02B
:1011AE00FF002EF20003D1F026F340F0FF002EF2E6
:1011BE00000326F337F220F001FF2A009D0800F00D
:1011CE00C1F1F80820F001FF6A00E30800F085F293
:1011DE0040F00900B8F186F020F003FF643E730082
:1011EE00EA0800F0E6F020F004FF64616273F40890
:1011FE0000F0BEF03FF139F005090C0920F007FFB1
:10120E00646E656761746500FB0800F0C30940F009
:10121E00010046F19B0920F005FF636D6F766500B6
:10122E0006091909BF93AF93E991F991A991B99163
:10123E00092F082B21F01D9111930197E1F7AF9122
:10124E00BF91899199910C9404F005FF32737761E7
:10125E007000130900F0EEF005F1EEF0FCF020F056
:10126E0003FF746962002C094EF08D010AFF72654E
:10127E0066696C6C2D746962370900F03B0940F0A9
:10128E006400EC0483018EF046F17D018EF040F097
:10129E00FFFF20F00AFF736F757263652D7469622C
:1012AE003D0900F03B09830186F020F007FF6565DC
:1012BE002D757365720051094EF0380006FF656595
:1012CE003E72616D5D0900F046F1BFF27809DCF007
:1012DE0073F3DCF08EF06401D1F06401D1F0F0F222
:1012EE006E09750120F009FF696E69742D757365BD
:1012FE007200650900F063092FF340F01C001FF225
:10130E006A0920F003FF64322A007A098E090991D6
:10131E001991000F111F881F991F1A930A930C948D
:10132E0004F002FF642B89099C0929913991E990F7
:10133E00F99049915991240F351F8E1D9F1D3A9397
:10134E002A930C9404F002FF642D9809AE0929919A
:10135E003991E990F99049915991421B530BE80A42
:10136E00F90A5A934A93C7010C9404F007FF646973
:10137E006E7665727400AA09C40909911991809557
:10138E009095009510951A930A930C9404F002FF11
:10139E00752EBD0900F046F1940320F002FF2E7366
:1013AE00CE0900F002079CF26401BFF2E509D5F206
:1013BE0086F0D10940F00200D6F2DE0920F00200DC
:1013CE002E22D50900F0F109FF01260420F00200BB
:1013DE007322E60900F040F02200FC054F0186F072
:1013EE0039F0FC09FF01EF03020420F005FF776FCF
:1013FE0072647300EE0900F040F0160073F3160DE0
:10140E0020F006FF456465666572FD0900F0D8019F
:10141E00260BFF012E08BB01BEF00A02FF01F207E8
:10142E00FF01F7076401E607BC0120F006FF5264D6
:10143E0065666572080A00F0D801260BFF012E08BA
:10144E00C3010A0240F00200CC01FF01FC07FF01BC
:10145E00010820F0020069731D0A00F04F0186F0AA
:10146E0039F03D0A1602FF01190820F08E04190802
:10147E0020F007006C69746572616C00310A00F02F
:10148E00FF0140F00A0220F00800736C6974657267
:10149E00616C400A00F0FF01EF03020420F000F03F
:1014AE00B301FF01FFFF20F000F0A107B301D1F05F
:1014BE0087F320F000F0B30120F000F0A1070A023C
:1014CE0020F005006168656164004B0A00F0FF01C1
:1014DE002FF0560A20F002006966680A00F0FF013C
:1014EE0039F0560A20F00400656C7365720A00F03C
:1014FE00FF012FF0560AD1F05B0A20F00400746849
:10150E00656E7A0A00F05B0A20F005006265676975
:10151E006E00850A00F0610A20F005007768696C9C
:10152E0065008C0A00F0FF0139F0560AD1F020F068
:10153E000600726570656174940A00F0B70A5B0A62
:10154E0020F00500756E74696C009F0A00F0FF01B3
:10155E0039F0640A20F00500616761696E00A80A1F
:10156E0000F0FF012FF0640A20F00200646FB20A4F
:10157E0000F0FF01AAF2560A610A20F004006C6F17
:10158E006F70BC0A00F0FF01F0F2640A5B0A20F0F3
:10159E0005002B6C6F6F7000C50A00F0FF01D6F2CC
:1015AE00640A5B0A20F005FF6C6561766500CF0A60
:1015BE00E00A0F911F910F911F91AF91BF910C9463
:1015CE0004F003003F646F00DA0A00F0FF01BFF27F
:1015DE00560A610A20F006FF637265617465E80AB7
:1015EE0000F0D801260BFF015BF020F006FF6865C6
:1015FE0061646572F20A00F0B30105F105F1BEF007
:10160E006EF139F0140BBEF040F000FF37F2060415
:10161E00FCF073F30A02FCF020F040F0F0FFBB0484
:10162E0007FF776C73636F706500FD0A2E08340038
:10163E00F207F70706FF72657665616C170B00F00F
:10164E0040F05F0186F0C6F039F0350B40F06101D5
:10165E0086F04FF346F140F05F018EF020F006FF6A
:10166E006C6174657374210B4EF0F1010500646FAB
:10167E0065733E00360B00F0FF01550BFF010E9413
:10168E00FF014A0B20F09A938A93CB0101967F912A
:10169E006F91BF93AF93DB010C9404F000F0FCF05C
:1016AE0040F0610186F073F3040D4AF287F320F0E7
:1016BE0001FF3A003D0B00F0D801B3013B0B8EF059
:1016CE00FF0100F0860B20F007FF3A6E6F6E616D22
:1016DE0065005F0B00F0B301BEF03B0B8EF0FF0117
:1016EE0000F0860B20F001003B006B0B00F0FF01B9
:1016FE0020F08F0B260B20F001FF5D007A0B00F01F
:10170E0040F001004F018EF020F001005B00830BD2
:10171E0000F046F14F018EF020F008FF76617269FD
:10172E0061626C658C0B00F0C301A70B40F00200E8
:10173E00CC0120F008FF636F6E7374616E74940BAE
:10174E0000F0D801260BFF014EF00A0220F004FF34
:10175E0075736572A10B00F0D801260BFF0161F0C5
:10176E000A0220F005FF76616C756500AE0B00F085
:10177E0075F0BB010A02FF01CE0BFF01D20BBB01BC
:10178E00BEF04AF24AF2E607BC014FF320F000F039
:10179E00E5F373F320F000F0E5F34FF320F00700CC
:1017AE007265637572736500B90B00F03B0B86F0C2
:1017BE000A0220F009FF696D6D6564696174650048
:1017CE00D60B00F0C50C73F3BEF0E5F340F0FF7FCF
:1017DE002EF2D1F087F320F006005B636861725D34
:1017EE00E10B00F0FF0140F03E050A0220F006007A
:1017FE0061626F727422F30B00F0FF0139F0B301D6
:10180E00FF01FFFFE909FF0140F0FF01FEFFFF01AD
:10181E00BB04B301D1F087F320F005FF61626F7254
:10182E007400FE0B00F040F0FFFFBB0404FF636F7B
:10183E006465140C00F0D801260BB3014AF20A02BB
:10184E0020F008FF656E642D636F64651D0C00F05B
:10185E00FF010C94FF0104F020F00BFF656E76691A
:10186E00726F6E6D656E7400280C4EF00C0009FFE1
:10187E00776F72646C6973747300000000F040F04F
:10188E00080020F004FF2F7061643E0C00F09CF203
:10189E008901AEF120F005FF2F686F6C6400490CD2
:1018AE0000F08901C301AEF120F00AFF666F727479
:1018BE00682D6E616D65520C00F0EF030700616DCF
:1018CE00666F7274680020F007FF76657273696F39
:1018DE006E005C0C00F040F0340020F003FF6370EB
:1018EE0075006B0C00F040F04900510420F008FF29
:1018FE006D63752D696E666F750C00F040F04500D6
:10190E0020F005FF2F75736572007E0C00F040F01D
:10191E00260020F004FF40655B5D340C00F0BEF045
:10192E0073F305F10EF146F1D1F0BFF2A70CD5F22B
:10193E005C01DCF0B8F173F3D1F04FF1D6F29E0CEE
:10194E007501FCF020F004FF21655B5D910C00F049
:10195E006C014FF3D1F046F1BFF2BB0C6401D1F034
:10196E00DCF04FF3F0F2B50CE6F020F00BFF6765FC
:10197E00742D63757272656E7400AA0C00F040F0DF
:10198E00100073F320F009FF6765742D6F726465A4
:10199E007200BD0C00F040F01400950C20F007FF13
:1019AE00636F6D7061726500CA0CDD0CBF93AF93EF
:1019BE008C0189919991DC01899199919C01899170
:1019CE009991FC01ED90F190EF1451F40A9519F0F4
:1019DE002A95C1F701C02A95022B11F4882702C05F
:1019EE008FEF00C0982FAF91BF910C9404F007FFBA
:1019FE006E66613E6C666100D60C00F0510440F0DC
:101A0E00FF002EF24AF21FF2B8F120F00DFF7368BC
:101A1E006F772D776F72646C69737400FE0C00F033
:101A2E0040F01C0DD1F0880820F000F07708260455
:101A3E0067044FF120F004FF2B696E740D0D270D16
:101A4E0078940C9404F004FF2D696E74220D2F0D02
:101A5E00F8940C9404F004FF696E74212A0D00F0C2
:101A6E0040F01501B8F18EF020F004FF696E74405D
:101A7E00320D00F040F01501B8F186F020F008FFAD
:101A8E00696E742D747261703C0D4D0D809314014E
:101A9E008991999168940C9404F000F040F014012F
:101AAE00A5F040F01501B8F186F02AF05F0D20F098
:101ABE00600D02D00C9404F018950BFF6170706CE1
:101ACE007475726E6B657900460D00F01001260D6F
:101ADE00AE0720F001FF3F00640D00F086F08C038E
:101AEE0020F008FF286D61726B657229710D7BF015
:061AFE003600CE0BD20BF6
:020000021000EC
:10E00000BF93AF93DB0111969EF0FD015527EE0FF4
:10E01000FF1F551F5BBF679177911196FB01552735
:10E02000EE0FFF1F551F5BBF07911791F801099471
:10E03000E89464E57DE0F2CF04FF65786974780DBB
:10E0400021F0AF91BF91E0CF07FF657865637574EC
:10E0500065001CF02BF0BC0189919991DFCF30F065
:10E06000FD015527EE0FFF1F551F5BBFA791B7910D
:10E07000CBCF3AF0982B8991999191F31196C4CF17
:10E0800041F09A938A93FD015527EE0FFF1F551F0C
:10E090005BBF879197911196B7CF4EF09A938A9371
:10E0A000FB0131965527EE0FFF1F551F5BBF879170
:10E0B0009791AACF5BF09A938A93CB010196A4CF54
:10E0C00061F09A938A93FB0131965527EE0FFF1F5B
:10E0D000551F5BBF87919791840D951D95CF07FFC5
:10E0E0002876616C7565290024F000F0D801260BB4
:10E0F000FF017BF020F00E944A0BBEF0D1F04AF203
:10E10000E5F32AF020F001FF40006FF087F0FC01FA
:10E110008191919179CF01FF210083F08FF0FC0173
:10E120008991999191838083899199916DCF02FF13
:10E1300063218BF09BF0FC018991999180838991F7
:10E14000999162CF02FF634097F0A6F0FC019927F6
:10E1500080815ACF02FF4075A2F000F02FF3B8F192
:10E1600086F020F002FF2175AAF000F02FF3B8F13D
:10E170008EF020F003FF64757000B2F0BFF09A9348
:10E180008A9342CF04FF3F647570BAF0C7F0082F3E
:10E19000092B11F09A938A9337CF04FF737761703C
:10E1A000C2F0D2F08C01899199911A930A932CCFE5
:10E1B00004FF6F766572CDF0DDF09A938A938A81C1
:10E1C0009B8122CF04FF64726F70D8F0E7F08991D1
:10E1D00099911ACF03FF726F7400E2F0EFF08C0197
:10E1E00029913991899199913A932A931A930A9393
:10E1F0000BCF02FF723EEAF0FDF09A938A938F9163
:10E200009F9102CF02FF3E72F9F006F19F938F9328
:10E2100089919991F9CE02FF724002F10FF19A9320
:10E220008A938F919F919F938F93EECE02FF3C3EF6
:10E230000BF11AF1299139918217930751F132C0EC
:10E2400001FF3D0016F100F0AEF12AF120F002FFCF
:10E25000303D20F12BF1982BE1F424C001FF3C006C
:10E2600027F100F0AEF13FF120F001FF3E002EF16A
:10E2700000F0AEF16EF120F002FF303C35F140F1DC
:10E2800097FD10C006C001FF30003CF147F19A93A2
:10E290008A93C101B9CE04FF7472756543F150F1E0
:10E2A0009A938A938FEF9FEFAFCE02FF753C4BF1AD
:10E2B00059F1299139918217930758F351F3F2CF0D
:10E2C00002FF753E55F164F12991399128173907FC
:10E2D00000F3F9F2E7CF02FF303E60F16FF18215F3
:10E2E0009305BCF2B1F2DECF02FF643E6BF100F0A9
:10E2F000AD097FF120F003FF64303E0074F180F13E
:10E3000082159305899199918205930514F209F27A
:10E31000C9CF02FF643C7BF100F0AD0994F120F01D
:10E3200003FF64303C0089F195F1229697FD0C942F
:10E3300052F10C9449F104FF6C6F673290F1A0F137
:10E34000FC01992780E18A9522F0EE0FFF1FD8F794
:10E350005BCE9A9559CE01FF2D009BF1AFF109914B
:10E360001991081B190BC8014FCE01FF2B00ABF10F
:10E37000B9F109911991800F911F46CE02FF6D2AC4
:10E38000B5F1C2F18C01899199919C013102700122
:10E39000209FC0013003F308900DE11CF31C120311
:10E3A000F308900DE11CF31C9A938A93C7012CCEBD
:10E3B00006FF756D2F6D6F64BEF1DEF17C01299152
:10E3C00039910991199140E15527000F111F221F22
:10E3D000331F551F2E153F05520518F003952E19B2
:10E3E0003F094A9589F73A932A93C8010DCE03FF56
:10E3F000756D2A00D8F1FCF18C0189919991809F6B
:10E40000F00122273327909FF00D211D331D819F9E
:10E41000F00D211D331D919F200D311DCF019A93C9
:10E420008A93C901F1CD06FF696E76657274F7F1C2
:10E4300019F280959095E8CD02FF322F13F220F269
:10E4400095958795E1CD02FF322A1CF227F2880FBD
:10E45000991FDACD03FF616E640023F22FF2099158
:10E46000199180239123D0CD02FF6F722AF238F2E6
:10E4700009911991802B912BC7CD03FF786F720002
:10E4800034F242F20991199180279127BDCD02FF04
:10E49000312B3DF24BF20196B7CD02FF312D47F201
:10E4A00051F20197B1CD06FF6C73686966744DF245
:10E4B00059F2FC018991999131971AF0880F991FAF
:10E4C000FBCFA2CD06FF72736869667453F268F2DF
:10E4D000FC018991999131971AF096958795FBCF18
:10E4E00093CD02FF2B2162F275F2FC018991999183
:10E4F00020813181820F931F80839183899199912B
:10E5000083CD03FF7270400071F286F29A938A9372
:10E510008DB79EB779CD03FF7270210081F290F222
:10E520002FB7F8948DBF9EBF2FBF899199916CCD65
:10E5300003FF737040008BF29DF29A938A93CE0191
:10E5400063CD03FF7370210098F2A6F2EC0189916C
:10E5500099915ACDABF2FD015527EE0FFF1F551FC4
:10E560005BBF079117911196299139911F930F93D2
:10E570003F932F939F938F938991999145CDC0F2AB
:10E58000FD015527EE0FFF1F551F5BBF0791179128
:10E590001196299139918217930741F7D8018991F2
:10E5A000999132CD01FF6900A1F20FF1D7F2EF91FD
:10E5B000FF91E80FF91F192F899199912F913F91A0
:10E5C000E217F30717FF02C03CF001C02CF43F93A1
:10E5D0002F93FF93EF9344CD0F911F91119614CD7C
:10E5E000F1F2EF91FF9131962F913F91E217F307EE
:10E5F00099F3EDCF06FF756E6C6F6F70D2F200F37A
:10E600001F910F911F910F911F910F91FDCC06FF4C
:10E61000636D6F76653EFAF20DF3BF93AF93E991A8
:10E62000F991A991B991092F082B41F0E80FF91F31
:10E63000A80FB91F1E9112930197E1F7AF91BF91F7
:10E6400089919991E1CC02FF3E3C07F327F3092F12
:10E65000982F802FD9CC03FF7570400023F330F33F
:10E660009A938A93C201D0CC03FF757021002BF3DB
:10E6700039F32C0189919991C7CC03FF733E640053
:10E6800034F300F0BEF03FF120F003FF6E6F740032
:10E690003DF300F02AF120F002FF216545F350F32D
:10E6A000FC01899199912FB7F89428D000B50817EB
:10E6B00009F00BD0319622D000B5091711F0892F3F
:10E6C00004D02FBF899199919FCCF999FECF07B7BC
:10E6D00000FDFDCFF2BDE1BD80BDFA9AF99A089523
:10E6E00002FF40654CF374F32FB7F894FC0106D099
:10E6F00080B5319603D090B52FBF86CCF999FECF67
:10E70000F2BDE1BDF89A089502FF216970F32E0869
:10E710000A00F207F70709FF2821692D6E72777743
:10E72000290084F393F31FB71F93F8949C018991F8
:10E730009991AF93BF93CF93DF9309D0DF91CF919E
:10E74000BF91AF91899199911F911FBF5DCC10D05E
:10E75000E094F0948E219F21982B19F0F90102E0AA
:10E7600023D0F90104E020D0F90100E11DD0089583
:10E77000F901E078FF7FEF01A0E8B0E0FE01552746
:10E78000EE0FFF1F551F5BBF47915791FE01E21728
:10E79000F30711F00A0102C07A010C01002704D02E
:10E7A0002196119759F70895F999FECF17B710FDE3
:10E7B000FDCF5527EE0FFF1F551F5BBF016007BF41
:10E7C000E895089502FF40698BF3E6F3FC015527B5
:0EE7D000EE0FFF1F551F5BBF8791979115CC71
:00000001FF
