:020000020000FC
:02000400C4D066
:02000800C2D064
:02000C00C0D062
:02001000BED060
:02001400BCD05E
:02001800BAD05C
:02001C00B8D05A
:02002000B6D058
:02002400B4D056
:02002800B2D054
:02002C00B0D052
:02003000AED050
:02003400ACD04E
:02003800AAD04C
:02003C00A8D04A
:02004000A6D048
:02004400A4D046
:02004800A2D044
:02004C00A0D042
:020050009ED040
:020054009CD03E
:020058009AD03C
:02005C0098D03A
:0200600096D038
:1000640094D00008000400701A000A0041546D6521
:06007400676133323850D1
:040048000C943D00D7
:10007A00AF93AFB7AF93BF93EF93FF93B091C6001F
:10008A00A0910001E2E0F1E0EA0FF31DB083A3952D
:10009A00AF70A0930001FF91EF91BF91AF91AFBFF5
:1000AA00AF91189500383439373800017C381A383E
:1000BA0006FF72782D697372000000387C003038B0
:1000CA006300373801019338AC38383A37380F00B3
:1000DA001C3A37380101883837380201A639933873
:1000EA001A3807FF72783F2D697372005D00003875
:1000FA00B306373801019338373800019338073986
:10010A001A3807FF74782D706F6C6C00760000380F
:10011A009A0030388D003738C60088381A3808FFF8
:10012A0074783F2D706F6C6C86000038B3063738D0
:10013A00C0009338373820001C3A1A3804FF756219
:10014A0072729400693854005A3D5E3D06FF2B7561
:10015A0073617274A3000038373898003738C100C9
:10016A008838373806003738C2008838A700AC38D4
:10017A000E3B3738C50088383738C40088385700EE
:04018A00AD071A386B
:040000000C94BC069A
:10018E000A920FB60A920F900F900A9400921401E1
:10019E0009900FBE09906894089504FF2B696E7440
:1001AE00AB00D90078940C94043804FF2D696E745A
:1001BE00D400E100F8940C94043804FF696E7421A5
:1001CE00DC00003837381501A6397C381A3804FFA0
:1001DE00696E7440E400003837381501A63974385A
:1001EE001A3808FF696E742D74726170EE00FF008C
:1001FE00809314018991999168940C940438003875
:10020E0037381401933837381501A6397438243825
:10021E0011011A38120102D00C940438189505FFFA
:10022E00665F63707500F800693856001F0128017B
:10023E000038C73BAC3846015B3BBF385B3BBF3831
:10024E001A3800383738EBFF9D0405FF737461745C
:10025E00650016014238490104FF626173652C0185
:10026E0052380C0005FF63656C6C73003301003867
:10027E00143A1A3805FF63656C6C2B00390147017F
:10028E0002960C94043804FF3264757041010038F4
:10029E00CA38CA381A3805FF3264726F70004A01C4
:1002AE000038D438D4381A3803FF3E696E00520134
:1002BE005238180004FF237469625B0142384B0107
:1002CE0003FF7061640061010038A50137386400D6
:1002DE00A6391A3804FF656D6974670110080E009F
:1002EE00E807EF0705FF656D69743F00710110089F
:1002FE001000E807EF0703FF6B657900790110081E
:10030E001200E807EF0704FF6B65793F82011008C2
:10031E001400E807EF0702FF64708A0169380200D3
:10032E005A3D5E3D03FF6564700092016938060018
:10033E005A3D5E3D04FF6865726599016938040097
:10034E005A3D5E3D05FF616C6C6F7400A101003873
:10035E00A501A639C807A6011A3808FF28637265D9
:10036E0061746529A90100382D06AA3CAC38F33812
:10037E008F3CEA3837384F017C3837384D017C389E
:10038E001A3801005C00B40100381206BF38D438A8
:10039E005F017C381A3801002800C8010038373850
:1003AE002900DE0557011A3807FF636F6D70696CFF
:1003BE006500D2010038EA38AC38383AF338C73B1A
:1003CE00EC011A3801FF2C00DB01003895016F3B60
:1003DE009501383AC80796011A3803005B275D006D
:1003EE00E9010038E10137387004EC011A3803FFD7
:1003FE0062696E00F40100383738020037017C382C
:10040E001A3807FF646563696D616C00FE01003880
:10041E0037380A0037017C381A3803FF68657800D0
:10042E00080200383738100037017C381A3802FFBE
:10043E00626C14024238200007FF7475726E6B6591
:10044E0079001E0210080800D407D90705FF2A2FCD
:10045E006D6F640023020038F338AF39EA38CB39B8
:10046E001A3804FF2F6D6F642D023D029C01099115
:10047E001991412F432717FF04C0109500950F5F68
:10048E001F4F37FF04C0309520952F5F3F4FEE244E
:10049E00FF1851E1001F111F5A9539F447FF04C090
:1004AE00109500950F5F1F4F0BC0EE1CFF1CE21A3C
:1004BE00F30A20F4E20EF31E8894ECCF0894EACFF0
:1004CE00FA92EA92C8010C94043802FF2A2F3802DD
:1004DE0000383202BF38D4381A3805FF752F6D6FC9
:1004EE0064006C020038F3383439EA38CB391A38E4
:1004FE0006FF6E656761746574020038063A383A15
:10050E001A3801FF2F007F0200383C02BF38D43862
:10051E001A3803FF6D6F6400880200383C02D4382D
:10052E001A3803FF6162730090029D0299231AF438
:10053E008095909501960C94043803FF6D696E00BA
:10054E00980200384E0126393038AE02BF38D43802
:10055E001A3803FF6D617800A40200384E011F396E
:10056E003038BA02BF38D4381A3806FF7769746843
:10057E00696EB0020038CA389C39F3389C39EA38B3
:10058E0046391A3807FF746F757070657200BC02B9
:10059E000038AC383738610037387B00C10230384C
:1005AE00DB023738DF001C3A1A3807FF746F6C6FA6
:1005BE0077657200C9020038AC38373841003738D9
:1005CE005B00C1023038EE0237382000253A1A3867
:1005DE0003FF686C6400DC024238510104FF686F4F
:1005EE006C64EF020038F302AC3874383E3AAC3823
:1005FE00F338BF387C38EA3888381A3802FF3C2383
:10060E00F50200386B01F3027C381A3801FF230023
:10061E0005030038370174388F03DC38373809008A
:10062E00CA381F3930381E0337380700A639373815
:10063E003000A639F9021A3802FF23730D03003871
:10064E0010034E01253A1839303827031A3802FFA5
:10065E00233E230300385701F3027438AC386B0184
:10066E00BF389C391A3804FF7369676E2E03003841
:10067E002D393038450337382D00F9021A3803FF6B
:10068E00642E72003A030038F338BF38CA38E108D6
:10069E0008032603DC383E033103EA38CA389C3996
:1006AE00520461041A3802FF2E7246030038F338E2
:1006BE00293BEA384A031A3802FF642E5A030038DF
:1006CE0034394A0349041A3801FF2E0063030038F7
:1006DE00293B66031A3803FF75642E006B0300383E
:1006EE0034397F0349041A3804FF75642E7272037D
:1006FE000038F338080326033103EA38CA389C3928
:10070E00520461041A3806FF75642F6D6F647B0303
:10071E000038F3383439FC38CB39EA38BF38F3387F
:10072E00CB39EA381A3806FF64696769743F8A0361
:10073E000038CF02373830009C39AC3837380900D2
:10074E0051393038B603373807009C39AC38373852
:10075E000900C5033038B603D43834391A38AC38EA
:10076E0037017438CD033038BF03D43834391A38D2
:10077E003D391A3803FF753C3D009A030038513954
:10078E00063A1A3803FF753E3D00C103003846395C
:10079E00063A1A380038EA38AC38AC38C73BBF389E
:1007AE00383ABF38DC38CA38383A0D3AA639383AB2
:1007BE00F3381A3802FF732CC9030038AC38E8033B
:1007CE001A380038EC01AC380D3ABF38CA38143A32
:1007DE009C39F3383439AA3AFA03AC387438EC0140
:1007EE004601D83AF403EA385C3930380104AC38A3
:1007FE009338EC01D4381A3805FF697479706500A6
:10080E00E1030038AC380D3ABF38CA38143A9C3977
:10081E00F3383439AA3A1B04AC38C73BAC38280439
:10082E002404383AD83A1304EA385C3930382204B2
:10083E00AC38C73B2804D4381A3800380E3B28048D
:10084E001A3800383738FF001C3A75011A3806FF7F
:10085E0069636F756E7403040038AC38383ABF386C
:10086E00C73B1A3802FF63722E04003837380D006A
:10087E00750137380A0075011A3805FF7370616308
:10088E00650039040038210275011A3806FF7370AD
:10089E006163657344040038AC385C391C3A3439F2
:1008AE00AA3A5C044904D83A59041A3804FF7479F8
:1008BE0070654D040038CA38A639BF38AA3A6C04A0
:1008CE00BD3A93387501D83A67041A3801FF2700EC
:1008DE005D0400382D064A06183930387904373849
:1008EE00F3FF9D041A3807FF68616E646C65720031
:1008FE006D0452380A0005FF6361746368007A0460
:10090E0000388A3AF33880047438F338733A800426
:10091E007C382438EA3880047C38EA38D4383439C4
:10092E001A3805FF7468726F770082040038AC388D
:10093E0018393038A404D4381A38800474387D3A03
:10094E00EA3880047C38EA38BF38F338933AD43822
:10095E00EA381A3805FF63736B6970009804003823
:10096E00F338AC383038C604CA389338FC381139ED
:10097E003038C604373801001C062938B804EA3866
:10098E00D4381A3806FF616363657074B104003899
:10099E00AC38F338F3388601AC3837380A000739EB
:1009AE0030380C05AC3837380D00073930380C05A7
:1009BE00AC383738080011393038F804EA38FC38CA
:1009CE00CA38F33811393038EF04D4382938D20404
:1009DE00AC387501490475013E3AEA38383A29387F
:1009EE000605AC3821021F393038FF04D4382102F5
:1009FE00AC387501CA388838383AEA383E3AAC38DD
:100A0E00F33818393038D204AC385701EA38EA389E
:100A1E00BF389C393C041A3806FF726566696C6CE7
:100A2E00C90410081A00E807EF0704FF6368617233
:100A3E00130500382D06D43893381A3806FF6E7514
:100A4E006D6265721C05003837017438F3389B05EA
:100A5E00F33867059B05EA38253AF338F338F3384F
:100A6E0034393439EA38EA38BA05B43830385B05E7
:100A7E0037380100113930385205933837382E0087
:100A8E00113930385205EA3830384E05EE0837380D
:100A9E000200293862055701D438EA38D438EA38CA
:100AAE0037017C3834391A385701EA383038600546
:100ABE00840237380100EA3837017C383D391A385C
:100ACE000038CA389338373829002639303870053F
:100ADE001A38CA3893387705373801001C061A3889
:100AEE000038AC3837382400113930388105D43805
:100AFE0018021A38AC3837382500113930388A05C3
:100B0E00D43802021A38AC3837382600113930384A
:100B1E009305D4380E021A3837382300113930387D
:100B2E009A050E021A381A380038CA3893383738F0
:100B3E002B0011393038A605373801001C06CA388B
:100B4E00933837382D001139AC38F3383038B205B8
:100B5E00373801001C06EA381A3807FF3E6E756DED
:100B6E006265720025050038AC383038D805CA38B1
:100B7E0093389F0318393038C5051A38F3381309DE
:100B8E00EA38BF3837017438E939D438DC383701E0
:100B9E007438E939BB3E1309373801001C06293871
:100BAE00BB051A3805FF706172736500B405003815
:100BBE00F33812065F0174381C06EA38F305AC38B8
:100BCE00383A5F01623A373801001C061A3805FFC1
:100BDE00637363616E00D9050038BF38AC38F338E3
:100BEE003439AA3A0A06CA38BD3AA6399338CA38F1
:100BFE00113930380806D438BD3AE73AEA38D438D5
:100C0E001A38D83AFA05D438EA381A3806FF736F0C
:100C1E0075726365EE0510081600E807EF0707FF0B
:100C2E002F737472696E67000D060038CA38A802F9
:100C3E00DC38CA38A639DC38DC389C391A380AFF59
:100C4E0070617273652D6E616D6516060038210236
:100C5E0031061A380038F33812065F0174381C0654
:100C6E00FC38B604EA38F3054E01A6391206D4381C
:100C7E009C395F017C381A3809FF66696E642D6EE7
:100C8E00616D650026060038373814005B3B343939
:100C9E00AA3A65064E0137381600BD3A3E01A6390E
:100CAE005B3B2408B43830386306F338F338570109
:100CBE00EA38EA38E73A1A38D83A51065701343941
:100CCE001A3804FF7175697443060038E406933AC6
:100CDE00F9067D3A1B3D31017438183930387806E3
:100CEE008E06180530387206373812078704B43866
:100CFE0030388A06AC383738FEFF1F393038880650
:100D0E009C0629386D069506293872061A38003861
:100D1E003C04D10302003E2008041A380038D103E7
:100D2E000300206F6B0008041A380038D10304004A
:100D3E00203F3F20080437017438F3380E026E034B
:100D4E005F0174386E03EA3837017C381A3805FFB4
:100D5E00706175736500680610085301DE07E307BE
:100D6E0004FF636F6C64AE06BC06A4B6BB242224DB
:100D7E00332424BEE5E5F1E02F010FEF0DBF048310
:100D8E0018E01EBF1583CFEAC683D8E0D783A7ED40
:100D9E00B6E00C94043804FF7761726DB706003824
:100DAE0063093738AD073738B306FB0729026C06DF
:100DBE001A3803FF73703000D20669380600ED064C
:100DCE00F10602FF7370E006523808000038C73B88
:100DDE009B381A380038C73BA3381A3803FF727095
:100DEE003000E8060038FD0674381A385238040010
:100DFE0005FF646570746800F5060038E4068A3AEB
:100E0E009C390D3A3E3A1A3809FF696E7465727054
:100E1E0072657400FF0600382D06B4385C39303820
:100E2E003607373826005B3B3439AA3A32074E0173
:100E3E00BD3ADC38DC38F338F3383E013738280059
:100E4E00A6395B3B2438EA38EA38DC3830383007CC
:100E5E006D3CD83A1E075701830729381307D4383B
:100E6E001A380AFF7265632D696E746E756D0B0705
:100E7E0000382A053038540731017438303851079C
:100E8E0037380200113930384E07BF38D43BD43BC7
:100E9E0029385207D4383D391A3834391A3808FFF0
:100EAE007265632D66696E64380700384A06AC3881
:100EBE0030386F075C393038660729386D073101D5
:100ECE00743830386D07EC0129386E0724383D39F7
:100EDE001A380CFF7265632D6E6F74666F756E64D3
:100EEE005607003861043738F3FF9D041A3806FFA1
:100EFE003F737461636B7007003804072D39303807
:100F0E008B073738FCFF9D041A3803FF7665720095
:100F1E007E070038EF3D0804490437017438F33872
:100F2E000E02FD3D293B0803100337382E00F9024F
:100F3E0026033103EA3837017C3861044904053E43
:100F4E0008041A3804FF6E6F6F708C07AE070C948E
:100F5E00043806FF756E75736564A9070038E406DC
:100F6E00A5019C391A380200746FB007003870045E
:100F7E00383A310174383038CE07E101C807EC0138
:100F8E001A380038EA38AC38383AF338C73BAC3840
:100F9E00383A383AC73B24381A380038383AC73B03
:100FAE005B3B1A380038383AC73B373B1A380038A3
:100FBE00383AC73B74381A380038383AC73B7C3851
:100FCE001A380038383AC73B173BA63974381A38E6
:100FDE000038383AC73B173BA6397C381A3806FF1B
:100FEE00646566657221BA070038AC38373803007D
:100FFE00A639C73B24381A3806FF64656665724009
:10100E00F6070038AC38383A383AC73B24381A3825
:10101E0010080E94D73CAC383E3ABF38383AC73B2E
:10102E00243824381A380FFF7365617263682D7780
:10103E006F72646C69737400030800383439BF38FA
:10104E0037383308BF386A08AC38183930383208A8
:10105E005701D43834391A380038F338F3384E0182
:10106E00EA38DC38DC38FC385908850830384D0849
:10107E005701D438FC388F3E383A3D39EA38C73BF1
:10108E005C3930384B08840234391A38EA38D4388F
:10109E003D391A380BFF6E616D653E737472696E61
:1010AE0067001A08003833043738FF001C3A1A3824
:1010BE0011FF74726176657273652D776F72646C51
:1010CE0069737400510800385B3BAC3830387D08CA
:1010DE004E01F338F338BF382438EA38EA38DC38B2
:1010EE0030387D088F3EC73B29386C0857011A38B7
:1010FE0008FF69636F6D706172655F080038F338C1
:10110E00CA38EA380739303890085701D43834399C
:10111E001A38BF383439AA3AB308CA387438B60800
:10112E00CA38C73BB608AC383738000146393038B4
:10113E00A408BF383738FF001C3A07393038AB08DF
:10114E0057013439E73A1A38383ABF384601BF38B2
:10115E0037380200BE3A940857013D391A38003824
:10116E00AC383738FF001C3AE202BF380E3B373836
:10117E00FF001C3AE2020E3B253A1A3801FF2A0004
:10118E007F080038AF39DA081A3801FF6A00C5083F
:10119E000038733A37380900A63974381A3803FF05
:1011AE00643E7300CC080038D4381A3804FF6461EA
:1011BE006273D6080038AC382D393038E708EE089F
:1011CE001A3807FF646E656761746500DD080038C4
:1011DE00E13E373801003439BB3E1A3805FF636DE6
:1011EE006F766500E808FB08BF93AF93E991F9911C
:1011FE00A991B991092F082B21F01D9111930197F7
:10120E00E1F7AF91BF91899199910C94043805FF44
:10121E00327377617000F5080038DC38F338DC384B
:10122E00EA381A3803FF746962000E0942387B01EE
:10123E000AFF726566696C6C2D7469621909003853
:10124E001D0937386400CE0465017C3834395F01DE
:10125E007C383738FFFF1A380AFF736F7572636573
:10126E002D7469621F0900381D09650174381A381A
:10127E0007FF65652D7573657200330942383800B6
:10128E0006FF65653E72616D3F0900383439AA3A32
:10129E005A09CA385B3BCA387C384601BF3846010A
:1012AE00BF38D83A500957011A3809FF696E697468
:1012BE002D7573657200470900384509173B37389D
:1012CE001C000D3A4C091A3808FF286D61726B65C7
:0C12DE0072295C09693836005A3D5E3DFB
:10700000BF93AF93DB0111966EF0FD01EE0FFF1FF2
:10701000659175911196FB01EE0FFF1F059115917A
:10702000F8010994E89466E071E0F5CF04FF657813
:1070300069746B091B38AF91BF91E6CF07FF657884
:1070400065637574650016382538BC01899199917E
:10705000E2CF2A38FD01EE0FFF1FA591B591D4CFE5
:107060003138982B89919991A9F31196CDCF383861
:107070009A938A93FD01EE0FFF1F859195911196CA
:10708000C3CF42389A938A93FB013196EE0FFF1FCC
:1070900085919591B9CF4C389A938A93CB010196FB
:1070A000B3CF52389A938A93FB013196EE0FFF1FAC
:1070B00085919591840D951DA7CF07FF2876616C6A
:1070C000756529001E380038BA01B33CE101693802
:1070D0001A380E94D73CAC38BF38383AC73B2438FE
:1070E0001A3801FF40005D387538FC01819191919B
:1070F0008BCF01FF210071387D38FC018991999176
:1071000091838083899199917FCF02FF63217938A0
:107110008938FC018991999180838991999174CFE3
:1071200002FF634085389438FC01992780816CCF39
:1071300002FF407590380038173BA63974381A386A
:1071400002FF217598380038173BA6397C381A3869
:1071500003FF64757000A038AD389A938A9354CFBA
:1071600004FF3F647570A838B538082F092B11F05B
:107170009A938A9349CF04FF73776170B038C0380F
:107180008C01899199911A930A933ECF04FF6F76EF
:107190006572BB38CB389A938A938A819B8134CFAE
:1071A00004FF64726F70C638D538899199912CCFDD
:1071B00003FF726F7400D038DD388C01299139914A
:1071C000899199913A932A931A930A931DCF02FFBA
:1071D000723ED838EB389A938A938F919F9114CF4F
:1071E00002FF3E72E738F4389F938F93899199910B
:1071F0000BCF02FF7240F038FD389A938A938F913B
:107200009F919F938F9300CF02FF3C3EF93808393E
:10721000299139918217930751F132C001FF3D0046
:10722000043900389C3918391A3802FF303D0E39BC
:107230001939982BE1F424C001FF3C0015390038BE
:107240009C392D391A3801FF3E001C3900389C3911
:107250005C391A3802FF303C23392E3997FD10C0B3
:1072600006C001FF30002A3935399A938A93C1014B
:10727000CBCE04FF7472756531393E399A938A9387
:107280008FEF9FEFC1CE02FF753C39394739299105
:1072900039918217930758F351F3F2CF02FF753EED
:1072A00043395239299139912817390700F3F9F2F6
:1072B000E7CF02FF303E4E395D3982159305BCF2AF
:1072C000B1F2DECF02FF643E59390038CC3E6D3951
:1072D0001A3803FF64303E0062396E398215930517
:1072E000899199918205930514F209F2C9CF02FFA1
:1072F000643C69390038CC3E82391A3803FF643067
:107300003C0077398339229697FD0C9440390C94D0
:10731000373904FF6C6F67327E398E39FC0199274B
:1073200080E18A9522F0EE0FFF1FD8F76DCE9A9577
:107330006BCE01FF2D0089399D3909911991081BE8
:10734000190BC80161CE01FF2B009939A7390991AA
:107350001991800F911F58CE02FF6D2AA339B039C1
:107360008C01899199919C0131027001209FC0018B
:107370003003F308900DE11CF31C1203F308900D89
:10738000E11CF31C9A938A93C7013ECE06FF756DEC
:107390002F6D6F64AC39CC397C01299139910991F9
:1073A000199140E15527000F111F221F331F551F50
:1073B0002E153F05520518F003952E193F094A95E1
:1073C00089F73A932A93C8011FCE03FF756D2A00EF
:1073D000C639EA398C0189919991809FF001222761
:1073E0003327909FF00D211D331D819FF00D211D2E
:1073F000331D919F200D311DCF019A938A93C901AE
:1074000003CE06FF696E76657274E539073A80959A
:107410009095FACD02FF322F013A0E3A9595879555
:10742000F3CD02FF322A0A3A153A880F991FECCDA4
:1074300003FF616E6400113A1D3A0991199180238E
:107440009123E2CD02FF6F72183A263A0991199101
:10745000802B912BD9CD03FF786F7200223A303AFE
:107460000991199180279127CFCD02FF312B2B3A1B
:10747000393A0196C9CD02FF312D353A3F3A01978D
:10748000C3CD06FF6C73686966743B3A473AFC01EA
:107490008991999131971AF0880F991FFBCFB4CD3C
:1074A00006FF727368696674413A563AFC01899125
:1074B000999131971AF096958795FBCFA5CD02FF4C
:1074C0002B21503A633AFC018991999120813181B5
:1074D000820F931F808391838991999195CD03FFAA
:1074E000727040005F3A743A9A938A938DB79EB750
:1074F0008BCD03FF727021006F3A7E3A2FB7F8945C
:107500008DBF9EBF2FBF899199917ECD03FF737070
:107510004000793A8B3A9A938A93CE0175CD03FF56
:1075200073702100863A943AEC01899199916CCD5F
:10753000993AFD01EE0FFF1F0591159111962991C2
:1075400039911F930F933F932F939F938F9389911B
:1075500099915ACDAB3AFD01EE0FFF1F05911591A0
:107560001196299139918217930759F7D80189917A
:1075700099914ACD01FF69008F3AFD38BF3AEF91EA
:10758000FF91E80FF91F192F899199912F913F9140
:10759000E217F30717FF02C03CF001C02CF43F9341
:1075A0002F93FF93EF9356CD0F911F9111962CCDF2
:1075B000D93AEF91FF9131962F913F91E217F3075E
:1075C00099F3EDCF06FF756E6C6F6F70BA3AE83ABB
:1075D0001F910F911F910F911F910F9115CD06FFD4
:1075E000636D6F76653EE23AF53ABF93AF93E991EA
:1075F000F991A991B991092F082B41F0E80FF91FD2
:10760000A80FB91F1E9112930197E1F7AF91BF9197
:1076100089919991F9CC02FF3E3CEF3A0F3B092F3B
:10762000982F802FF1CC03FF757040000B3B183B67
:107630009A938A93C201E8CC03FF75702100133B33
:10764000213B2C0189919991DFCC03FF733E6400AB
:107650001C3B0038AC382D391A3803FF6E6F7400AC
:10766000253B003818391A3802FF21652D3B383B7D
:10767000FC01899199912FB7F89428D000B508178B
:1076800009F00BD0319622D000B5091711F0892FDF
:1076900004D02FBF89919991B7CCF999FECF07B744
:1076A00000FDFDCFF2BDE1BD80BDFA9AF99A0895C3
:1076B00002FF4065343B5C3B2FB7F894FC0106D0D9
:1076C00080B5319603D090B52FBF9ECCF999FECFEF
:1076D000F2BDE1BDF89A089502FF2169583B1008F8
:1076E0000A00D407D90709FF2821692D6E72777720
:1076F00029006C3B7B3B1FB71F93F8949C01899139
:107700009991AF93BF93CF93DF9309D0DF91CF913E
:10771000BF91AF91899199911F911FBF75CC10D0E6
:10772000E094F0948E219F21982B19F0F90102E04A
:1077300020D0F90104E01DD0F90100E11AD008952C
:10774000F901E07CFF7FEF01A0E4B0E0FE01EE0F65
:10775000FF1F45915591FE01E217F30711F00A0151
:1077600002C07A010C01002704D02196119771F70D
:107770000895F999FECF17B710FDFDCFEE0FFF1F4B
:10778000016007BFE895089502FF4069733BC83B5D
:10779000FC01EE0FFF1F8591959136CC07006C69B7
:1077A000746572616C00C43B0038E1013738EC014C
:1077B0001A380800736C69746572616CCE3B0038CE
:1077C000E101D103E4031A3800389501E101FFFF1C
:1077D0001A38003883079501BF386F3B1A380038D4
:1077E00095011A3800388307EC011A3805006168E2
:1077F00065616400D93B0038E1012938E43B1A385F
:1078000002006966F63B0038E1013038E43B1A3883
:107810000400656C7365003C0038E1012938E43BE5
:10782000BF38E93B1A3804007468656E083C0038BC
:10783000E93B1A380500626567696E00133C003841
:10784000EF3B1A3805007768696C65001A3C003810
:10785000E1013038E43BBF381A38060072657065C4
:107860006174223C0038453CE93B1A380500756ECE
:1078700074696C002D3C0038E1013038F23B1A3855
:107880000500616761696E00363C0038E101293806
:10789000F23B1A380200646F403C0038E101983A2C
:1078A000E43BEF3B1A3804006C6F6F704A3C0038C1
:1078B000E101D83AF23BE93B1A3805002B6C6F6FB7
:1078C0007000533C0038E101BE3AF23BE93B1A3804
:1078D00005FF6C65617665005D3C6E3C0F911F9104
:1078E0000F911F91AF91BF918FCB03003F646F0049
:1078F000683C0038E101AA3AE43BEF3B1A3806FF46
:10790000637265617465753C0038BA01B33CE1018E
:107910004C381A3806FF6865616465727F3C003830
:107920009501F338F338AC385C393038A13CAC38C9
:10793000373800FF253AE803EA385B3BEC01EA38C8
:107940001A383738F0FF9D0407FF776C73636F7048
:1079500065008A3C10083400D407D90706FF726519
:107960007665616CA43C003837384D017438B43802
:107970003038C23C37384F017438373B34393738E8
:107980004D017C381A3806FF6C6174657374AE3C27
:107990004238DF010500646F65733E00C33C003868
:1079A000E101E13CE1010E94E101D73C1A389A93E0
:1079B0008A93CB0101967F916F91BF93AF93DB01C7
:1079C00023CB0038EA3837384F0174385B3B8F3EA1
:1079D000383A6F3B1A3801FF3A00CA3C0038BA0106
:1079E0009501C83C7C38E1010038123D1A3807FF88
:1079F0003A6E6F6E616D6500EB3C00389501AC38F6
:107A0000C83C7C38E1010038123D1A3801003B00C7
:107A1000F73C0038E1011A381B3DB33C1A3801FF2E
:107A20005D00063D00383738010031017C381A38D6
:107A300001005B000F3D0038343931017C381A38C1
:107A400008FF7661726961626C65183D0038A501B6
:107A5000333D37380200AE011A3808FF636F6E738A
:107A600074616E74203D0038BA01B33CE1014238C4
:107A7000EC011A3804FF757365722D3D0038BA01A8
:107A8000B33CE1015238EC011A3805FF76616C75A0
:107A900065003A3D003863389D01EC01E1015A3D33
:107AA000E1015E3D9D01AC38383A383AC8079E0185
:107AB000373B1A380038C73B5B3B1A380038C73BA6
:107AC000373B1A3807007265637572736500453D70
:107AD0000038C83C7438EC011A3809FF696D6D65CF
:107AE000646961746500623D0038513E5B3BAC38AF
:107AF000C73B3738FF7F1C3ABF386F3B1A38060048
:107B00005B636861725D6D3D0038E10137382005C7
:107B1000EC011A38060061626F7274227F3D0038F2
:107B2000E10130389501E101FFFF063FE1013738FF
:107B3000E101FEFFE1019D049501BF386F3B1A385A
:107B400005FF61626F7274008A3D00383738FFFFAD
:107B50009D0404FF636F6465A03D0038BA01B33C27
:107B60009501383AEC011A3808FF656E642D636F91
:107B70006465A93D0038E1010C94E10104381A382C
:107B80000BFF656E7669726F6E6D656E7400B43D45
:107B900042380C0009FF776F72646C69737473006C
:107BA00000000038373808001A3804FF2F7061646D
:107BB000CA3D00388A3A6B019C391A3805FF2F6894
:107BC0006F6C6400D53D00386B01A5019C391A38F3
:107BD0000AFF666F7274682D6E616D65DE3D003858
:107BE000D1030700616D666F727468001A3807FF71
:107BF00076657273696F6E00E83D0038373834007F
:107C00001A3803FF63707500F73D003837383700C6
:107C100033041A3808FF6D63752D696E666F013E77
:107C20000038373833001A3805FF2F757365720036
:107C30000A3E0038373826001A3804FF40655B5D7D
:107C4000C03D0038AC385B3BF338FC383439BF38C2
:107C5000AA3A333EBD3A3E01CA38A6395B3BBF382B
:107C60003D39BE3A2A3E5701EA381A3804FF2165E9
:107C70005B5D1D3E00384E01373BBF383439AA3AB0
:107C8000473E4601BF38CA38373BD83A413ED43820
:107C90001A380BFF6765742D63757272656E740018
:107CA000363E0038373810005B3B1A3809FF6765ED
:107CB000742D6F7264657200493E003837381400C5
:107CC000213E1A3807FF636F6D7061726500563E82
:107CD000693EBF93AF938C0189919991DC018991A1
:107CE00099919C0189919991FC01ED90F190EF148B
:107CF00051F40A9519F02A95C1F701C02A95022B73
:107D000011F4882702C08FEF00C0982FAF91BF9168
:107D10007BC907FF6E66613E6C666100623E00389B
:107D200033043738FF001C3A383A0D3AA6391A386E
:107D300004FF66696C6C893E0038DC38DC38343905
:107D4000AA3AA73E4E018838383AD83AA23ED438EB
:107D5000D4381A3803FF64322A00983EAF3E0991A6
:107D60001991000F111F881F991F1A930A934CC96C
:107D700002FF642BAA3EBC3E29913991E990F9900B
:107D800049915991240F351F8E1D9F1D3A932A93B7
:107D90003BC902FF642DB83ECD3E29913991E9904F
:107DA000F99049915991421B530BE80AF90A5A93E9
:107DB0004A93C70129C907FF64696E76657274002A
:107DC000C93EE23E099119918095909500951095D4
:107DD0001A930A9319C902FF752EDB3E0038343915
:107DE00076031A3802FF2E73EB3E0038E4068A3A17
:107DF0004601AA3A023FBD3A7438EE3E37380200D7
:107E0000BE3AFB3E1A3802002E22F23E00380E3FE8
:107E1000E10108041A3802007322033F00383738A2
:107E20002200DE05310174383038193FE101D103F9
:107E3000E4031A3806FF4564656665720B3F003837
:107E4000BA01B33CE10110089D01AC38EC01E1013D
:107E5000D407E101D9074601C8079E011A3806FF79
:107E60005264656665721A3F0038BA01B33CE1019D
:107E70001008A501EC0137380200AE01E101DE0770
:107E8000E101E3071A38020069732F3F003831011E
:107E9000743830384F3FF801E101FB071A3870049D
:107EA000FB071A380BFF6170706C7475726E6B652E
:107EB0007900433F0038B000D80090074904D1034F
:107EC0000A00466F7274686475696E6F08041A3828
:107ED00003FF316D7300523F6D3FE0EAFFE03197E1
:107EE000F1F792C802FF6D73683F00383439AA3A3F
:107EF0007C3F6C3FD83A793F1A380DFF73686F7733
:107F00002D776F72646C69737400723F0038373874
:107F10008C3FBF386A081A380038590808044904E9
:107F20003D391A3805FF776F726473007D3F003862
:0A7F3000373816005B3B863F1A3815
:00000001FF
