:020000020000FC
:02000400E6D044
:02000800E4D042
:02000C00E2D040
:02001000E0D03E
:02001400DED03C
:02001800DCD03A
:02001C00DAD038
:02002000D8D036
:02002400D6D034
:02002800D4D032
:02002C00D2D030
:02003000D0D02E
:02003400CED02C
:02003800CCD02A
:02003C00CAD028
:02004000C8D026
:02004400C6D024
:02004800C4D022
:02004C00C2D020
:02005000C0D01E
:02005400BED01C
:02005800BCD01A
:02005C00BAD018
:02006000B8D016
:02006400B6D014
:02006800B4D012
:02006C00B2D010
:02007000B0D00E
:02007400AED00C
:02007800ACD00A
:02007C00AAD008
:02008000A8D006
:02008400A6D004
:02008800A4D002
:02008C00A2D000
:02009000A0D0FE
:020094009ED0FC
:020098009CD0FA
:02009C009AD0F8
:0200A00098D0F6
:0200A40096D0F4
:1000A80094D0000A000400702B000A0041546D65CA
:0600B8006761333255348C
:040064000C945F0099
:1000BE00AF93AFB7AF93BF93EF93FF93B091CE00D3
:1000CE00A0910001E2E0F1E0EA0FF31DB083A395E9
:1000DE00AF70A0930001FF91EF91BF91AF91AFBFB1
:1000EE00AF91189500383439373800017C381A38FA
:1000FE0006FF72782D697372000000389E0030384A
:10010E008500373801019338AC38383A37380F004C
:10011E001C3A37380101883837380201A63993382E
:10012E001A3807FF72783F2D697372007F0000380E
:10013E00D50637380101933837380001933807391F
:10014E001A3807FF74782D706F6C6C0098000038A9
:10015E00BC003038AF003738CE0088381A3808FF68
:10016E0074783F2D706F6C6CA8000038D506373848
:10017E00C8009338373820001C3A1A3804FF7562CD
:10018E007272B600693854005A3D5E3D06FF2B75FB
:10019E0073617274C5000038373898003738C9005B
:1001AE008838373806003738CA008838C900AC3866
:1001BE000E3B3738CD0088383738CC008838790078
:0401CE00CF071A3805
:040000000C94DE0678
:1001D2000A920FB60A920F900F900A94009214019D
:1001E20009900FBE09906894089504FF2B696E74FC
:1001F200CD00FB0078940C94043804FF2D696E74D2
:10020200F6000301F8940C94043804FF696E74211B
:10021200FE00003837381501A6397C381A3804FF39
:10022200696E74400601003837381501A6397438F2
:100232001A3808FF696E742D747261701001210101
:10024200809314018991999168940C940438003830
:1002520037381401933837381501A63974382438E1
:1002620033011A38340102D00C940438189505FF72
:10027200665F637075001A016938560041014A01D0
:100282000038C73BAC3868015B3BBF385B3BBF38CB
:100292001A3800383738EBFFBF0405FF73746174F6
:1002A2006500380142386B0104FF626173654E01DB
:1002B20052380C0005FF63656C6C73005501003801
:1002C200143A1A3805FF63656C6C2B005B016901F7
:1002D20002960C94043804FF32647570630100388E
:1002E200CA38CA381A3805FF3264726F70006C015E
:1002F2000038D438D4381A3803FF3E696E007401CE
:100302005238180004FF237469627D0142386D017E
:1003120003FF7061640083010038C701373864004D
:10032200A6391A3804FF656D6974890132080E0016
:100332000A08110805FF656D69743F0093013208D0
:1003420010000A08110803FF6B6579009B0132084F
:1003520012000A08110804FF6B65793FA4013208F4
:1003620014000A08110802FF6470AC016938020027
:100372005A3D5E3D03FF65647000B40169380600B2
:100382005A3D5E3D04FF68657265BB016938040031
:100392005A3D5E3D05FF616C6C6F7400C30100380D
:1003A200C701A639EA07C8011A3808FF286372652F
:1003B20061746529CB0100384F06AA3CAC38F3388A
:1003C2008F3CEA38373871017C3837386F017C3816
:1003D2001A3801005C00D60100383406BF38D43820
:1003E20081017C381A3801002800EA0100383738C8
:1003F2002900000679011A3807FF636F6D70696C76
:100402006500F4010038EA38AC38383AF338C73BB3
:100412000E021A3801FF2C00FD010038B7016F3BB4
:10042200B701383AEA07B8011A3803005B275D00C2
:100432000B0200380302373892040E021A3803FF07
:1004420062696E00160200383738020059017C38A2
:100452001A3807FF646563696D616C002002003819
:1004620037380A0059017C381A3803FF686578006A
:100472002A0200383738100059017C381A3802FF36
:10048200626C36024238200007FF7475726E6B652B
:100492007900400232080800F607FB0705FF2A2F01
:1004A2006D6F640045020038F338AF39EA38CB3952
:1004B2001A3804FF2F6D6F644F025F029C0109918D
:1004C2001991412F432717FF04C0109500950F5F24
:1004D2001F4F37FF04C0309520952F5F3F4FEE240A
:1004E200FF1851E1001F111F5A9539F447FF04C04C
:1004F200109500950F5F1F4F0BC0EE1CFF1CE21AF8
:10050200F30A20F4E20EF31E8894ECCF0894EACFAB
:10051200FA92EA92C8010C94043802FF2A2F5A0276
:1005220000385402BF38D4381A3805FF752F6D6F62
:1005320064008E020038F3383439EA38CB391A387D
:1005420006FF6E656761746596020038063A383AAE
:100552001A3801FF2F00A10200385E02BF38D438DA
:100562001A3803FF6D6F6400AA0200385E02D438A5
:100572001A3803FF61627300B202BF0299231AF4B0
:100582008095909501960C94043803FF6D696E0076
:10059200BA020038700126393038D002BF38D43858
:1005A2001A3803FF6D617800C602003870011F39E6
:1005B2003038DC02BF38D4381A3806FF77697468DD
:1005C200696ED2020038CA389C39F3389C39EA384D
:1005D20046391A3807FF746F757070657200DE0253
:1005E2000038AC383738610037387B00E3023038E6
:1005F200FD023738DF001C3A1A3807FF746F6C6F40
:1006020077657200EB020038AC3837384100373872
:100612005B00E3023038100337382000253A1A38DD
:1006220003FF686C6400FE024238730104FF686FC6
:100632006C64110300381503AC3874383E3AAC3898
:10064200F338BF387C38EA3888381A3802FF3C233E
:10065200170300388D0115037C381A3801FF230077
:100662002703003859017438B103DC3837380900E0
:10067200CA381F393038400337380700A6393738AF
:100682003000A6391B031A3802FF23732F030038E8
:1006920032037001253A1839303849031A3802FFFB
:1006A200233E45030038790115037438AC388D01B7
:1006B200BF389C391A3804FF7369676E50030038DB
:1006C2002D393038670337382D001B031A3803FFE2
:1006D200642E72005C030038F338BF38CA3803094D
:1006E2002A034803DC3860035303EA38CA389C39CA
:1006F200740483041A3802FF2E7268030038F33838
:10070200293BEA386C031A3802FF642E7C03003856
:1007120034396C036B041A3801FF2E00850300384C
:10072200293B88031A3803FF75642E008D030038B5
:100732003439A1036B041A3804FF75642E729403D2
:100742000038F3382A0348035303EA38CA389C397D
:10075200740483041A3806FF75642F6D6F649D0359
:100762000038F3383439FC38CB39EA38BF38F3383B
:10077200CB39EA381A3806FF64696769743FAC03FB
:100782000038F102373830009C39AC38373809006C
:1007920051393038D803373807009C39AC383738EC
:1007A2000900E7033038D803D43834391A38AC3862
:1007B20059017438EF033038E103D43834391A3828
:1007C2003D391A3803FF753C3D00BC0300385139EE
:1007D200063A1A3803FF753E3D00E30300384639F6
:1007E200063A1A380038EA38AC38AC38C73BBF385A
:1007F200383ABF38DC38CA38383A0D3AA639383A6E
:10080200F3381A3802FF732CEB030038AC380A04B1
:100812001A3800380E02AC380D3ABF38CA38143ACA
:100822009C39F3383439AA3A1C04AC3874380E02B5
:100832006801D83A1604EA385C3930382304AC38F7
:1008420093380E02D4381A3805FF6974797065003E
:1008520003040038AC380D3ABF38CA38143A9C3910
:10086200F3383439AA3A3D04AC38C73BAC384A04B1
:100872004604383AD83A3504EA385C393038440408
:10088200AC38C73B4A04D4381A3800380E3B4A0405
:100892001A3800383738FF001C3A97011A3806FF19
:1008A20069636F756E7425040038AC38383ABF3806
:1008B200C73B1A3802FF63725004003837380D0004
:1008C200970137380A0097011A3805FF7370616380
:1008D20065005B040038430297011A3806FF737003
:1008E2006163657366040038AC385C391C3A34398C
:1008F200AA3A7E046B04D83A7B041A3804FF74794E
:1009020070656F040038CA38A639BF38AA3A8E0417
:10091200BD3A93389701D83A89041A3801FF270063
:100922007F0400384F066C06183930389B0437387C
:10093200F3FFBF041A3807FF68616E646C657200CA
:100942008F0452380A0005FF6361746368009C04D7
:1009520000388A3AF338A2047438F338733AA2049E
:100962007C382438EA38A2047C38EA38D43834395E
:100972001A3805FF7468726F7700A4040038AC3827
:1009820018393038C604D4381A38A20474387D3A7B
:10099200EA38A2047C38EA38BF38F338933AD438BC
:1009A200EA381A3805FF63736B697000BA040038BD
:1009B200F338AC383038E804CA389338FC38113987
:1009C2003038E804373801003E062938DA04EA38BC
:1009D200D4381A3806FF616363657074D304003833
:1009E200AC38F338F338A801AC3837380A00073985
:1009F20030382E05AC3837380D00073930382E051F
:100A0200AC3837380800113930381A05EA38FC3862
:100A1200CA38F338113930381105D4382938F4047A
:100A2200AC3897016B0497013E3AEA38383A2938D4
:100A32002805AC3843021F3930382105D438430227
:100A4200AC389701CA388838383AEA383E3AAC3876
:100A5200F33818393038F404AC387901EA38EA3816
:100A6200BF389C395E041A3806FF726566696C6C81
:100A7200EB0432081A000A08110804FF6368617265
:100A8200350500384F06D43893381A3806FF6E758C
:100A92006D6265723E05003859017438F338BD0540
:100AA200F3388905BD05EA38253AF338F338F338C7
:100AB20034393439EA38EA38DC05B43830387D055F
:100AC20037380100113930387405933837382E0021
:100AD200113930387405EA38303870051009373862
:100AE2000200293884057901D438EA38D438EA3842
:100AF20059017C3834391A387901EA38303882059C
:100B0200A60237380100EA3859017C383D391A38D3
:100B12000038CA38933837382900263930389205D8
:100B22001A38CA3893389905373801003E061A3800
:100B32000038AC383738240011393038A305D4389E
:100B42003A021A38AC383738250011393038AC053A
:100B5200D43824021A38AC383738260011393038E4
:100B6200B505D43830021A383738230011393038F5
:100B7200BC0530021A381A380038CA389338373868
:100B82002B0011393038C805373801003E06CA3803
:100B9200933837382D001139AC38F3383038D40552
:100BA200373801003E06EA381A3807FF3E6E756D87
:100BB2006265720047050038AC383038FA05CA3829
:100BC2009338C10318393038E7051A38F338350934
:100BD200EA38BF3859017438E939D438DC38590158
:100BE2007438E939BB3E3509373801003E062938E9
:100BF200DD051A3805FF706172736500D60500388D
:100C0200F3383406810174383E06EA381506AC38EA
:100C1200383A8101623A373801003E061A3805FF38
:100C2200637363616E00FB050038BF38AC38F3387C
:100C32003439AA3A2C06CA38BD3AA6399338CA388A
:100C4200113930382A06D438BD3AE73AEA38D4386E
:100C52001A38D83A1C06D438EA381A3806FF736FA5
:100C6200757263651006320816000A08110807FF3C
:100C72002F737472696E67002F060038CA38CA0271
:100C8200DC38CA38A639DC38DC389C391A380AFF15
:100C920070617273652D6E616D65380600384302AE
:100CA20053061A380038F3383406810174383E0688
:100CB200FC38D804EA3815067001A6393406D4384F
:100CC2009C3981017C381A3809FF66696E642D6E81
:100CD200616D650048060038373814005B3B3439D3
:100CE200AA3A8706700137381600BD3A6001A63964
:100CF2005B3B4608B43830388506F338F33879015F
:100D0200EA38EA38E73A1A38D83A730679013439B8
:100D12001A3804FF71756974650600380607933A3C
:100D22001B077D3A1B3D53017438183930389A0637
:100D3200B0063A053038940637383407A904B43877
:100D42003038AC06AC383738FEFF1F393038AA06C7
:100D5200BE0629388F06B706293894061A38003895
:100D62005E04F30302003E202A041A380038F3031B
:100D72000300206F6B002A041A380038F3030400C2
:100D8200203F3F202A0459017438F338300290037F
:100D9200810174389003EA3859017C381A3805FF0A
:100DA2007061757365008A063208750100080508CE
:100DB20004FF636F6C64D006DE06A4B6BB24222453
:100DC200332424BEE7E7F1E02F010FEF0DBF0483C8
:100DD2001AE01EBF1583CFEAC683DAE0D783A9EFF4
:100DE200B6E00C94043804FF7761726DD9060038BE
:100DF20085093738CF073738D5061D084B028E06CE
:100E02001A3803FF73703000F406693806000F07C2
:100E1200130702FF73700207523808000038C73BFD
:100E22009B381A380038C73BA3381A3803FF727050
:100E320030000A0700381F0774381A385238040085
:100E420005FF6465707468001707003806078A3A60
:100E52009C390D3A3E3A1A3809FF696E7465727010
:100E620072657400210700384F06B4385C39303897
:100E72005807373826005B3B3439AA3A54077001C9
:100E8200BD3ADC38DC38F338F338600137382800F3
:100E9200A6395B3B2438EA38EA38DC383038520766
:100EA2006D3CD83A40077901A50729383507D4386F
:100EB2001A380AFF7265632D696E746E756D2D079F
:100EC20000384C05303876075301743830387307D0
:100ED20037380200113930387007BF38D43BD43B61
:100EE20029387407D4383D391A3834391A3808FF8A
:100EF2007265632D66696E645A0700386C06AC38F9
:100F0200303891075C393038880729388F07530108
:100F1200743830388F070E022938900724383D394B
:100F22001A380CFF7265632D6E6F74666F756E648E
:100F32007807003883043738F3FFBF041A3806FFF6
:100F42003F737461636B9207003826072D3930387E
:100F5200AD073738FCFFBF041A3803FF766572000D
:100F6200A0070038EF3D2A046B0459017438F338A6
:100F72003002FD3D293B2A03320337382E001B0382
:100F820048035303EA3859017C3883046B04053E55
:100F92002A041A3804FF6E6F6F70AE07D0070C94E4
:100FA200043806FF756E75736564CB070038060753
:100FB200C7019C391A380200746FD20700389204B4
:100FC200383A530174383038F0070302EA070E0248
:100FD2001A380038EA38AC38383AF338C73BAC38FC
:100FE200383A383AC73B24381A380038383AC73BBF
:100FF2005B3B1A380038383AC73B373B1A3800385F
:10100200383AC73B74381A380038383AC73B7C380C
:101012001A380038383AC73B173BA63974381A38A1
:101022000038383AC73B173BA6397C381A3806FFD6
:10103200646566657221DC070038AC383738030016
:10104200A639C73B24381A3806FF646566657240C4
:1010520018080038AC38383A383AC73B24381A38BE
:1010620032080E94D73CAC383E3ABF38383AC73BC8
:10107200243824381A380FFF7365617263682D773C
:101082006F72646C69737400250800383439BF3894
:1010920037385508BF388C08AC38183930385408FE
:1010A2007901D43834391A380038F338F3387001FA
:1010B200EA38DC38DC38FC387B08A70830386F089F
:1010C2007901D438FC388F3E383A3D39EA38C73B8B
:1010D2005C3930386D08A60234391A38EA38D43807
:1010E2003D391A380BFF6E616D653E737472696E1D
:1010F20067003C08003855043738FF001C3A1A389C
:1011020011FF74726176657273652D776F72646C0C
:1011120069737400730800385B3BAC3830389F0841
:101122007001F338F338BF382438EA38EA38DC384B
:1011320030389F088F3EC73B29388E0879011A380C
:1011420008FF69636F6D7061726581080038F3385A
:10115200CA38EA3807393038B2087901D438343914
:101162001A38BF383439AA3AD508CA387438D80878
:10117200CA38C73BD808AC3837380001463930384E
:10118200C608BF383738FF001C3A07393038CD0857
:1011920079013439E73A1A38383ABF386801BF382A
:1011A20037380200BE3AB60879013D391A3800389C
:1011B200AC383738FF001C3A0403BF380E3B3738CF
:1011C200FF001C3A04030E3B253A1A3801FF2A009D
:1011D200A1080038AF39FC081A3801FF6A00E70895
:1011E2000038733A37380900A63974381A3803FFC1
:1011F200643E7300EE080038D4381A3804FF646184
:101202006273F8080038AC382D39303809091009F2
:101212001A3807FF646E656761746500FF0800385D
:10122200E13E373801003439BB3E1A3805FF636DA1
:101232006F7665000A091D09BF93AF93E991F99191
:10124200A991B991092F082B21F01D9111930197B2
:10125200E1F7AF91BF91899199910C94043805FF00
:1012620032737761700017090038DC38F338DC38E4
:10127200EA381A3803FF74696200300942389D0166
:101282000AFF726566696C6C2D7469623B090038ED
:101292003F0937386400F00487017C383439810112
:1012A2007C383738FFFF1A380AFF736F757263652F
:1012B2002D746962410900383F09870174381A3870
:1012C20007FF65652D757365720055094238380050
:1012D20006FF65653E72616D610900383439AA3ACC
:1012E2007C09CA385B3BCA387C386801BF38680160
:1012F200BF38D83A720979011A3809FF696E6974E0
:101302002D7573657200690900386709173B373814
:101312001C000D3A6E091A3808FF286D61726B6560
:0C13220072297E09693836005A3D5E3D94
:10700000BF93AF93DB0111966EF0FD01EE0FFF1FF2
:10701000659175911196FB01EE0FFF1F059115917A
:10702000F8010994E89468E271E0F5CF04FF65780F
:1070300069748D091B38AF91BF91E6CF07FF657862
:1070400065637574650016382538BC01899199917E
:10705000E2CF2A38FD01EE0FFF1FA591B591D4CFE5
:107060003138982B89919991A9F31196CDCF383861
:107070009A938A93FD01EE0FFF1F859195911196CA
:10708000C3CF42389A938A93FB013196EE0FFF1FCC
:1070900085919591B9CF4C389A938A93CB010196FB
:1070A000B3CF52389A938A93FB013196EE0FFF1FAC
:1070B00085919591840D951DA7CF07FF2876616C6A
:1070C000756529001E380038DC01B33C03026938BD
:1070D0001A380E94D73CAC38BF38383AC73B2438FE
:1070E0001A3801FF40005D387538FC01819191919B
:1070F0008BCF01FF210071387D38FC018991999176
:1071000091838083899199917FCF02FF63217938A0
:107110008938FC018991999180838991999174CFE3
:1071200002FF634085389438FC01992780816CCF39
:1071300002FF407590380038173BA63974381A386A
:1071400002FF217598380038173BA6397C381A3869
:1071500003FF64757000A038AD389A938A9354CFBA
:1071600004FF3F647570A838B538082F092B11F05B
:107170009A938A9349CF04FF73776170B038C0380F
:107180008C01899199911A930A933ECF04FF6F76EF
:107190006572BB38CB389A938A938A819B8134CFAE
:1071A00004FF64726F70C638D538899199912CCFDD
:1071B00003FF726F7400D038DD388C01299139914A
:1071C000899199913A932A931A930A931DCF02FFBA
:1071D000723ED838EB389A938A938F919F9114CF4F
:1071E00002FF3E72E738F4389F938F93899199910B
:1071F0000BCF02FF7240F038FD389A938A938F913B
:107200009F919F938F9300CF02FF3C3EF93808393E
:10721000299139918217930751F132C001FF3D0046
:10722000043900389C3918391A3802FF303D0E39BC
:107230001939982BE1F424C001FF3C0015390038BE
:107240009C392D391A3801FF3E001C3900389C3911
:107250005C391A3802FF303C23392E3997FD10C0B3
:1072600006C001FF30002A3935399A938A93C1014B
:10727000CBCE04FF7472756531393E399A938A9387
:107280008FEF9FEFC1CE02FF753C39394739299105
:1072900039918217930758F351F3F2CF02FF753EED
:1072A00043395239299139912817390700F3F9F2F6
:1072B000E7CF02FF303E4E395D3982159305BCF2AF
:1072C000B1F2DECF02FF643E59390038CC3E6D3951
:1072D0001A3803FF64303E0062396E398215930517
:1072E000899199918205930514F209F2C9CF02FFA1
:1072F000643C69390038CC3E82391A3803FF643067
:107300003C0077398339229697FD0C9440390C94D0
:10731000373904FF6C6F67327E398E39FC0199274B
:1073200080E18A9522F0EE0FFF1FD8F76DCE9A9577
:107330006BCE01FF2D0089399D3909911991081BE8
:10734000190BC80161CE01FF2B009939A7390991AA
:107350001991800F911F58CE02FF6D2AA339B039C1
:107360008C01899199919C0131027001209FC0018B
:107370003003F308900DE11CF31C1203F308900D89
:10738000E11CF31C9A938A93C7013ECE06FF756DEC
:107390002F6D6F64AC39CC397C01299139910991F9
:1073A000199140E15527000F111F221F331F551F50
:1073B0002E153F05520518F003952E193F094A95E1
:1073C00089F73A932A93C8011FCE03FF756D2A00EF
:1073D000C639EA398C0189919991809FF001222761
:1073E0003327909FF00D211D331D819FF00D211D2E
:1073F000331D919F200D311DCF019A938A93C901AE
:1074000003CE06FF696E76657274E539073A80959A
:107410009095FACD02FF322F013A0E3A9595879555
:10742000F3CD02FF322A0A3A153A880F991FECCDA4
:1074300003FF616E6400113A1D3A0991199180238E
:107440009123E2CD02FF6F72183A263A0991199101
:10745000802B912BD9CD03FF786F7200223A303AFE
:107460000991199180279127CFCD02FF312B2B3A1B
:10747000393A0196C9CD02FF312D353A3F3A01978D
:10748000C3CD06FF6C73686966743B3A473AFC01EA
:107490008991999131971AF0880F991FFBCFB4CD3C
:1074A00006FF727368696674413A563AFC01899125
:1074B000999131971AF096958795FBCFA5CD02FF4C
:1074C0002B21503A633AFC018991999120813181B5
:1074D000820F931F808391838991999195CD03FFAA
:1074E000727040005F3A743A9A938A938DB79EB750
:1074F0008BCD03FF727021006F3A7E3A2FB7F8945C
:107500008DBF9EBF2FBF899199917ECD03FF737070
:107510004000793A8B3A9A938A93CE0175CD03FF56
:1075200073702100863A943AEC01899199916CCD5F
:10753000993AFD01EE0FFF1F0591159111962991C2
:1075400039911F930F933F932F939F938F9389911B
:1075500099915ACDAB3AFD01EE0FFF1F05911591A0
:107560001196299139918217930759F7D80189917A
:1075700099914ACD01FF69008F3AFD38BF3AEF91EA
:10758000FF91E80FF91F192F899199912F913F9140
:10759000E217F30717FF02C03CF001C02CF43F9341
:1075A0002F93FF93EF9356CD0F911F9111962CCDF2
:1075B000D93AEF91FF9131962F913F91E217F3075E
:1075C00099F3EDCF06FF756E6C6F6F70BA3AE83ABB
:1075D0001F910F911F910F911F910F9115CD06FFD4
:1075E000636D6F76653EE23AF53ABF93AF93E991EA
:1075F000F991A991B991092F082B41F0E80FF91FD2
:10760000A80FB91F1E9112930197E1F7AF91BF9197
:1076100089919991F9CC02FF3E3CEF3A0F3B092F3B
:10762000982F802FF1CC03FF757040000B3B183B67
:107630009A938A93C201E8CC03FF75702100133B33
:10764000213B2C0189919991DFCC03FF733E6400AB
:107650001C3B0038AC382D391A3803FF6E6F7400AC
:10766000253B003818391A3802FF21652D3B383B7D
:10767000FC01899199912FB7F89428D000B508178B
:1076800009F00BD0319622D000B5091711F0892FDF
:1076900004D02FBF89919991B7CCF999FECF07B744
:1076A00000FDFDCFF2BDE1BD80BDFA9AF99A0895C3
:1076B00002FF4065343B5C3B2FB7F894FC0106D0D9
:1076C00080B5319603D090B52FBF9ECCF999FECFEF
:1076D000F2BDE1BDF89A089502FF2169583B3208D6
:1076E0000A00F607FB0709FF2821692D6E727777DC
:1076F00029006C3B7B3B1FB71F93F8949C01899139
:107700009991AF93BF93CF93DF9309D0DF91CF913E
:10771000BF91AF91899199911F911FBF75CC10D0E6
:10772000E094F0948E219F21982B19F0F90102E04A
:1077300020D0F90104E01DD0F90100E11AD008952C
:10774000F901E07CFF7FEF01A0E4B0E0FE01EE0F65
:10775000FF1F45915591FE01E217F30711F00A0151
:1077600002C07A010C01002704D02196119771F70D
:107770000895F999FECF17B710FDFDCFEE0FFF1F4B
:10778000016007BFE895089502FF4069733BC83B5D
:10779000FC01EE0FFF1F8591959136CC07006C69B7
:1077A000746572616C00C43B0038030237380E0206
:1077B0001A380800736C69746572616CCE3B0038CE
:1077C0000302F30306041A380038B7010302FFFF6F
:1077D0001A380038A507B701BF386F3B1A38003890
:1077E000B7011A380038A5070E021A38050061687B
:1077F00065616400D93B003803022938E43B1A383C
:1078000002006966F63B003803023038E43B1A3860
:107810000400656C7365003C003803022938E43BC2
:10782000BF38E93B1A3804007468656E083C0038BC
:10783000E93B1A380500626567696E00133C003841
:10784000EF3B1A3805007768696C65001A3C003810
:1078500003023038E43BBF381A38060072657065A1
:107860006174223C0038453CE93B1A380500756ECE
:1078700074696C002D3C003803023038F23B1A3832
:107880000500616761696E00363C003803022938E3
:10789000F23B1A380200646F403C00380302983A09
:1078A000E43BEF3B1A3804006C6F6F704A3C0038C1
:1078B0000302D83AF23BE93B1A3805002B6C6F6F94
:1078C0007000533C00380302BE3AF23BE93B1A38E1
:1078D00005FF6C65617665005D3C6E3C0F911F9104
:1078E0000F911F91AF91BF918FCB03003F646F0049
:1078F000683C00380302AA3AE43BEF3B1A3806FF23
:10790000637265617465753C0038DC01B33C030249
:107910004C381A3806FF6865616465727F3C003830
:10792000B701F338F338AC385C393038A13CAC38A7
:10793000373800FF253A0A04EA385B3B0E02EA3882
:107940001A383738F0FFBF0407FF776C73636F7026
:1079500065008A3C32083400F607FB0706FF7265B3
:107960007665616CA43C003837386F017438B438E0
:107970003038C23C373871017438373B34393738C6
:107980006F017C381A3806FF6C6174657374AE3C05
:10799000423801020500646F65733E00C33C003845
:1079A0000302E13C03020E940302D73C1A389A9377
:1079B0008A93CB0101967F916F91BF93AF93DB01C7
:1079C00023CB0038EA383738710174385B3B8F3E7F
:1079D000383A6F3B1A3801FF3A00CA3C0038DC01E4
:1079E000B701C83C7C3803020038123D1A3807FF43
:1079F0003A6E6F6E616D6500EB3C0038B701AC38D4
:107A0000C83C7C3803020038123D1A3801003B00A4
:107A1000F73C003803021A381B3DB33C1A3801FF0B
:107A20005D00063D00383738010053017C381A38B4
:107A300001005B000F3D0038343953017C381A389F
:107A400008FF7661726961626C65183D0038C70194
:107A5000333D37380200D0011A3808FF636F6E7368
:107A600074616E74203D0038DC01B33C030242387F
:107A70000E021A3804FF757365722D3D0038DC0163
:107A8000B33C030252380E021A3805FF76616C755A
:107A900065003A3D00386338BF010E0203025A3DCB
:107AA00003025E3DBF01AC38383A383AEA07C001FC
:107AB000373B1A380038C73B5B3B1A380038C73BA6
:107AC000373B1A3807007265637572736500453D70
:107AD0000038C83C74380E021A3809FF696D6D65AC
:107AE000646961746500623D0038513E5B3BAC38AF
:107AF000C73B3738FF7F1C3ABF386F3B1A38060048
:107B00005B636861725D6D3D003803023738420582
:107B10000E021A38060061626F7274227F3D0038CF
:107B200003023038B7010302FFFF063F0302373874
:107B30000302FEFF0302BF04B701BF386F3B1A38D0
:107B400005FF61626F7274008A3D00383738FFFFAD
:107B5000BF0404FF636F6465A03D0038DC01B33CE3
:107B6000B701383A0E021A3808FF656E642D636F4C
:107B70006465A93D003803020C94030204381A38E6
:107B80000BFF656E7669726F6E6D656E7400B43D45
:107B900042380C0009FF776F72646C69737473006C
:107BA00000000038373808001A3804FF2F7061646D
:107BB000CA3D00388A3A8D019C391A3805FF2F6872
:107BC0006F6C6400D53D00388D01C7019C391A38AF
:107BD0000AFF666F7274682D6E616D65DE3D003858
:107BE000F3030700616D666F727468001A3807FF4F
:107BF00076657273696F6E00E83D0038373834007F
:107C00001A3803FF63707500F73D003837385900A4
:107C100055041A3808FF6D63752D696E666F013E55
:107C20000038373855001A3805FF2F757365720014
:107C30000A3E0038373826001A3804FF40655B5D7D
:107C4000C03D0038AC385B3BF338FC383439BF38C2
:107C5000AA3A333EBD3A6001CA38A6395B3BBF3809
:107C60003D39BE3A2A3E7901EA381A3804FF2165C7
:107C70005B5D1D3E00387001373BBF383439AA3A8E
:107C8000473E6801BF38CA38373BD83A413ED438FE
:107C90001A380BFF6765742D63757272656E740018
:107CA000363E0038373810005B3B1A3809FF6765ED
:107CB000742D6F7264657200493E003837381400C5
:107CC000213E1A3807FF636F6D7061726500563E82
:107CD000693EBF93AF938C0189919991DC018991A1
:107CE00099919C0189919991FC01ED90F190EF148B
:107CF00051F40A9519F02A95C1F701C02A95022B73
:107D000011F4882702C08FEF00C0982FAF91BF9168
:107D10007BC907FF6E66613E6C666100623E00389B
:107D200055043738FF001C3A383A0D3AA6391A384C
:107D300004FF66696C6C893E0038DC38DC38343905
:107D4000AA3AA73E70018838383AD83AA23ED438C9
:107D5000D4381A3803FF64322A00983EAF3E0991A6
:107D60001991000F111F881F991F1A930A934CC96C
:107D700002FF642BAA3EBC3E29913991E990F9900B
:107D800049915991240F351F8E1D9F1D3A932A93B7
:107D90003BC902FF642DB83ECD3E29913991E9904F
:107DA000F99049915991421B530BE80AF90A5A93E9
:107DB0004A93C70129C907FF64696E76657274002A
:107DC000C93EE23E099119918095909500951095D4
:107DD0001A930A9319C902FF752EDB3E0038343915
:107DE00098031A3802FF2E73EB3E003806078A3AD2
:107DF0006801AA3A023FBD3A7438EE3E37380200B5
:107E0000BE3AFB3E1A3802002E22F23E00380E3FE8
:107E100003022A041A3802007322033F003837385D
:107E200022000006530174383038193F0302F3036F
:107E300006041A3806FF4564656665720B3F003814
:107E4000DC01B33C03023208BF01AC380E0203026E
:107E5000F6070302FB076801EA07C0011A3806FFAC
:107E60005264656665721A3F0038DC01B33C030258
:107E70003208C7010E0237380200D00103020008A1
:107E8000030205081A38020069732F3F00385301B6
:107E9000743830384F3F1A0203021D081A38920412
:107EA0001D081A380BFF6170706C7475726E6B650B
:107EB0007900433F0038D200FA00B2076B04F303A5
:107EC0000A00466F7274686475696E6F2A041A3806
:107ED00003FF316D7300523F6D3FE0EAFFE03197E1
:107EE000F1F792C802FF6D73683F00383439AA3A3F
:107EF0007C3F6C3FD83A793F1A380DFF73686F7733
:107F00002D776F72646C69737400723F0038373874
:107F10008C3FBF388C081A3800387B082A046B0461
:107F20003D391A3805FF776F726473007D3F003862
:0A7F3000373816005B3B863F1A3815
:00000001FF
