:020000020000FC
:020004004FD1DA
:020008004DD1D8
:02000C004BD1D6
:0200100049D1D4
:0200140047D1D2
:0200180045D1D0
:02001C0043D1CE
:0200200041D1CC
:020024003FD1CA
:020028003DD1C8
:02002C003BD1C6
:0200300039D1C4
:0200340037D1C2
:0200380035D1C0
:02003C0033D1BE
:0200400031D1BC
:020044002FD1BA
:020048002DD1B8
:02004C002BD1B6
:0200500029D1B4
:0200540027D1B2
:0200580025D1B0
:02005C0023D1AE
:0200600021D1AC
:020064001FD1AA
:020068001DD1A8
:02006C001BD1A6
:0200700019D1A4
:0200740017D1A2
:0200780015D1A0
:02007C0013D19E
:0200800011D19C
:020084000FD19A
:020088000DD198
:02008C000BD196
:0200900009D194
:0200940007D192
:0200980005D190
:02009C0003D18E
:0200A00001D18C
:0200A400FFD08B
:0200A800FDD089
:0200AC00FBD087
:0200B000F9D085
:0200B400F7D083
:0200B800F5D081
:0200BC00F3D07F
:0200C000F1D07D
:0200C400EFD07B
:0200C800EDD079
:0200CC00EBD077
:0200D000E9D075
:0200D400E7D073
:0200D800E5D071
:0200DC00E3D06F
:1000E000E1D000200010FFFF39000A0041546D6587
:1000F00067613132383008FF31772E72657365746D
:10010000000082009A938A9399276C9A7498E0E889
:10011000F7E03197F1F71FB7F894749A6C98E0E024
:10012000F1E03197F1F78CB184FF9FEF1FBF6C981E
:100130007498E0E8F6E03197F1F7892F0C9404F019
:1001400007FF31772E736C6F74007B00A7006C9AE9
:1001500074981FB7F894E8E1F0E03197F1F78894CC
:10016000879510F46C98749AE4E2F0E03197F1F717
:100170000CB104FD8068ECECF0E03197F1F76C987D
:10018000749AE8E0F0E03197F1F71FBF0C9404F0A7
:040064000C94C80030
:10019000AF93AFB7AF93BF93EF93FF93B091C60008
:1001A000A0910002E2E0F2E0EA0FF31DB083A39514
:1001B000AF70A0930002FF91EF91BF91AF91AFBFDD
:1001C000AF91189500F046F140F000028EF020F05B
:1001D00006FF72782D697372A00000F0070139F0F4
:1001E000EE0040F00102A5F0BEF04AF240F00F0030
:1001F0002EF240F001029AF040F00202B8F1A5F0B0
:1002000020F007FF72783F2D69737200E80000F05C
:100210003E0740F00102A5F040F00002A5F019F100
:1002200020F007FF74782D706F6C6C00010100F0F6
:10023000250139F0180140F0C6009AF020F008FFBF
:1002400074783F2D706F6C6C110100F03E0740F028
:10025000C000A5F040F020002EF220F004FF7562EF
:1002600072721F017BF054007BF57FF506FF2B7542
:10027000736172742E0100F040F0980040F0C100EC
:100280009AF040F0060040F0C2009AF03201BEF051
:1002900026F340F0C5009AF040F0C4009AF0E20066
:0402A000380820F00A
:040000000C9447070E
:1002A4000A920FB60A920F900F900A9400921402C9
:1002B40009900FBE09906894089504FF2B696E7429
:1002C4003601640178940C9404F004FF2D696E7473
:1002D4005F016C01F8940C9404F004FF696E7421BE
:1002E400670100F040F01502B8F18EF020F004FF31
:1002F400696E74406F0100F040F01502B8F186F0A9
:1003040020F008FF696E742D7472617079018A019E
:10031400809314028991999168940C9404F000F0EC
:1003240040F01402A5F040F01502B8F186F02AF06E
:100334009C0120F09D0102D00C9404F0189505FF57
:10034400665F6370750083017BF05600AA01B301F8
:1003540000F0E5F3BEF0D10173F3D1F073F3D1F003
:1003640020F000F040F0EBFF280505FF7374617482
:100374006500A1014EF0870204FF62617365B70155
:1003840061F00C0005FF63656C6C7300BE0100F046
:1003940026F220F005FF63656C6C2B00C401D201CA
:1003A40002960C9404F004FF32647570CC0100F0E2
:1003B400DCF0DCF020F005FF3264726F7000D501D0
:1003C40000F0E6F0E6F020F003FF3E696E00DD0188
:1003D40061F0180004FF23746962E6014EF089029B
:1003E40003FF70616400EC0100F0300240F064002F
:1003F400B8F120F004FF656D6974F2019B080E00EA
:1004040073087A0805FF656D69743F00FC019B0859
:10041400100073087A0803FF6B65790004029B08D7
:10042400120073087A0804FF6B65793F0D029B087C
:10043400140073087A0802FF647015027BF002004E
:100444007BF57FF503FF656470001D027BF00600F9
:100454007BF57FF504FF6865726524027BF0040078
:100464007BF57FF505FF616C6C6F74002C0200F066
:100474003002B8F15308310220F008FF2863726596
:1004840061746529340200F0B806CBF4BEF005F1BE
:10049400B0F4FCF040F08D028EF040F08B028EF050
:1004A40020F001005C003F0200F09D06D1F0E6F070
:1004B400EA018EF020F001002800530200F040F021
:1004C40029006906E20120F007FF636F6D70696C13
:1004D40065005D0200F0FCF0BEF04AF205F1E5F3C0
:1004E400770220F001FF2C00660200F0200287F35F
:1004F40020024AF25308210220F003005B275D002A
:10050400740200F06C0240F0FB04770220F003FF59
:1005140062696E007F0200F040F00200C2018EF0BA
:1005240020F007FF646563696D616C00890200F067
:1005340040F00A00C2018EF020F003FF68657800E5
:10054400930200F040F01000C2018EF020F002FF90
:10055400626C9F024EF0200007FF7475726E6B652B
:100564007900A9029B0808005F08640805FF2A2F88
:100574006D6F6400AE0200F005F1C1F1FCF0DDF135
:1005840020F004FF2F6D6F64B802C8029C0109912A
:100594001991412F432717FF04C0109500950F5F51
:1005A4001F4F37FF04C0309520952F5F3F4FEE2437
:1005B400FF1851E1001F111F5A9539F447FF04C079
:1005C400109500950F5F1F4F0BC0EE1CFF1CE21A25
:1005D400F30A20F4E20EF31E8894ECCF0894EACFD9
:1005E400FA92EA92C8010C9404F002FF2A2FC30283
:1005F40000F0BD02D1F0E6F020F005FF752F6D6F1D
:100604006400F70200F005F146F1FCF0DDF120F0A2
:1006140006FF6E6567617465FF0200F018F24AF226
:1006240020F001FF2F000A0300F0C702D1F0E6F02A
:1006340020F003FF6D6F6400130300F0C702E6F0BF
:1006440020F003FF616273001B03280399231AF44B
:100654008095909501960C9404F003FF6D696E00EB
:10066400230300F0D90138F139F03903D1F0E6F071
:1006740020F003FF6D6178002F0300F0D90131F100
:1006840039F04503D1F0E6F020F006FF776974688D
:10069400696E3B0300F0DCF0AEF105F1AEF1FCF065
:1006A40058F120F007FF746F75707065720047038E
:1006B40000F0BEF040F0610040F07B004C0339F0E4
:1006C400660340F0DF002EF220F007FF746F6C6FBA
:1006D40077657200540300F0BEF040F0410040F032
:1006E4005B004C0339F0790340F0200037F220F02E
:1006F40003FF686C640067034EF08F0204FF686FA9
:100704006C647A0300F07E03BEF086F050F2BEF013
:1007140005F1D1F08EF0FCF09AF020F002FF3C23BA
:10072400800300F0F6017E038EF020F001FF230029
:10073400900300F0C20186F01A04EEF040F00900C4
:10074400DCF031F139F0A90340F00700B8F140F0D2
:100754003000B8F1840320F002FF2373980300F003
:100764009B03D90137F22AF139F0B20320F002FFDA
:10077400233EAE0300F0E2017E0386F0BEF0F601F4
:10078400D1F0AEF120F004FF7369676EB90300F095
:100794003FF139F0D00340F02D00840320F003FF33
:1007A400642E7200C50300F005F1D1F0DCF06C0991
:1007B4009303B103EEF0C903BC03FCF0DCF0AEF12B
:1007C400DD04EC0420F002FF2E72D10300F005F1E9
:1007D40041F3FCF0D50320F002FF642EE50300F0A2
:1007E40046F1D503D40420F001FF2E00EE0300F0FF
:1007F40041F3F10320F003FF75642E00F60300F0CB
:1008040046F10A04D40420F004FF75642E72FD033B
:1008140000F005F19303B103BC03FCF0DCF0AEF18E
:10082400DD04EC0420F006FF75642F6D6F6406048C
:1008340000F005F146F10EF1DDF1FCF0D1F005F127
:10084400DDF1FCF020F006FF64696769743F15046C
:1008540000F05A0340F03000AEF1BEF040F0090061
:1008640063F139F0410440F00700AEF1BEF040F00E
:100874000900500439F04104E6F046F120F0BEF0DE
:10088400C20186F0580439F04A04E6F046F120F03B
:100894004FF120F003FF753C3D00250400F063F1A7
:1008A40018F220F003FF753E3D004C0400F058F1AF
:1008B40018F220F000F0FCF0BEF0BEF0E5F3D1F049
:1008C4004AF2D1F0EEF0DCF04AF21FF2B8F14AF24B
:1008D40005F120F002FF732C540400F0BEF0730401
:1008E40020F000F07702BEF01FF2D1F0DCF026F227
:1008F400AEF105F146F1BFF28504BEF086F0770251
:10090400D101F0F27F04FCF06EF139F08C04BEF0FA
:10091400A5F07702E6F020F005FF697479706500B0
:100924006C0400F0BEF01FF2D1F0DCF026F2AEF160
:1009340005F146F1BFF2A604BEF0E5F3BEF0B30440
:10094400AF044AF2F0F29E04FCF06EF139F0AD040B
:10095400BEF0E5F3B304E6F020F000F026F3B304B0
:1009640020F000F040F0FF002EF2000220F006FF1D
:1009740069636F756E748E0400F0BEF04AF2D1F0B4
:10098400E5F320F002FF6372B90400F040F00D00BB
:10099400000240F00A00000220F005FF737061635A
:1009A4006500C40400F0AC02000220F006FF73707E
:1009B40061636573CF0400F0BEF06EF12EF246F170
:1009C400BFF2E704D404F0F2E40420F004FF7479E5
:1009D4007065D80400F0DCF0B8F1D1F0BFF2F70490
:1009E400D5F2A5F00002F0F2F20420F001FF270096
:1009F400E80400F0B806D5062AF139F0040540F001
:100A0400F3FF280520F007FF68616E646C657200CF
:100A1400F80461F00A0005FF63617463680005056A
:100A240000F09CF205F10B0586F005F185F20B054B
:100A34008EF02AF0FCF00B058EF0FCF0E6F046F1A7
:100A440020F005FF7468726F77000D0500F0BEF0AA
:100A54002AF139F02F05E6F020F00B0586F08FF22D
:100A6400FCF00B058EF0FCF0D1F005F1A5F2E6F0F8
:100A7400FCF020F005FF63736B697000230500F040
:100A840005F1BEF039F05105DCF0A5F00EF123F1CB
:100A940039F0510540F00100A7062FF04305FCF0A2
:100AA400E6F020F006FF6163636570743C0500F0B6
:100AB400BEF005F105F11102BEF040F00A0019F193
:100AC40039F09705BEF040F00D0019F139F09705A3
:100AD400BEF040F0080023F139F08305FCF00EF17C
:100AE400DCF005F123F139F07A05E6F02FF05D052D
:100AF400BEF00002D404000250F2FCF04AF22FF0DF
:100B04009105BEF0AC0231F139F08A05E6F0AC0291
:100B1400BEF00002DCF09AF04AF2FCF050F2BEF0B3
:100B240005F12AF139F05D05BEF0E201FCF0FCF0BC
:100B3400D1F0AEF1C70420F006FF726566696C6CF3
:100B440054059B081A0073087A0804FF63686172ED
:100B54009E0500F0B806E6F0A5F020F006FF6E75DD
:100B64006D626572A70500F0C20186F005F12606E4
:100B740005F1F2052606FCF037F205F105F105F161
:100B840046F146F1FCF0FCF04506C6F039F0E60506
:100B940040F0010023F139F0DD05A5F040F02E000E
:100BA40023F139F0DD05FCF039F0D905790940F07D
:100BB40002002FF0ED05E201E6F0FCF0E6F0FCF0B7
:100BC400C2018EF046F120F0E201FCF039F0EB05B1
:100BD4000F0340F00100FCF0C2018EF04FF120F051
:100BE40000F0DCF0A5F040F0290038F139F0FB0505
:100BF40020F0DCF0A5F0020640F00100A70620F08A
:100C040000F0BEF040F0240023F139F00C06E6F0C9
:100C1400A30220F0BEF040F0250023F139F01506C0
:100C2400E6F08D0220F0BEF040F0260023F139F00A
:100C34001E06E6F0990220F040F0230023F139F07B
:100C44002506990220F020F000F0DCF0A5F040F039
:100C54002B0023F139F0310640F00100A706DCF047
:100C6400A5F040F02D0023F1BEF005F139F03D066A
:100C740040F00100A706FCF020F007FF3E6E756D02
:100C840062657200B00500F0BEF039F06306DCF076
:100C9400A5F02A042AF139F0500620F005F19E0946
:100CA400FCF0D1F0C20186F0FBF1E6F0EEF0C201F7
:100CB40086F0FBF1DCF69E0940F00100A7062FF058
:100CC400460620F005FF7061727365003F0600F070
:100CD40005F19D06EA0186F0A706FCF07E06BEF04B
:100CE4004AF2EA0174F240F00100A70620F005FF81
:100CF400637363616E00640600F0D1F0BEF005F129
:100D040046F1BFF29506DCF0D5F2B8F1A5F0DCF0BF
:100D140023F139F09306E6F0D5F2FFF2FCF0E6F0A9
:100D240020F0F0F28506E6F0FCF020F006FF736F89
:100D34007572636579069B08160073087A0807FFC5
:100D44002F737472696E6700980600F0DCF0330349
:100D5400EEF0DCF0B8F1EEF0EEF0AEF120F00AFFC8
:100D640070617273652D6E616D65A10600F0AC0251
:100D7400BC0620F000F005F19D06EA0186F0A70606
:100D84000EF14105FCF07E06D901B8F19D06E6F0AE
:100D9400AEF1EA018EF020F009FF66696E642D6EF3
:100DA400616D6500B10600F040F0140073F346F184
:100DB400BFF2F006D90140F01600D5F2C901B8F12E
:100DC40073F3AF08C6F039F0EE0605F105F1E20160
:100DD400FCF0FCF0FFF220F0F0F2DC06E20146F158
:100DE40020F004FF71756974CE0600F06F07A5F258
:100DF40084078FF23CF5BC0186F02AF139F0030731
:100E04001907A30539F0FD0640F09D071205C6F049
:100E140039F01507BEF040F0FEFF31F139F0130749
:100E240027072FF0F80620072FF0FD0620F000F02A
:100E3400C7045C0402003E20930420F000F05C042C
:100E44000300206F6B00930420F000F05C040400A6
:100E5400203F3F209304C20186F005F19902F90373
:100E6400EA0186F0F903FCF0C2018EF020F005FFE0
:100E7400706175736500F3069B08910269086E083A
:100E840004FF636F6C6439074707A4B6BB242224AC
:100E9400332424BEE3E9F2E02F010FEF0DBF0483F6
:100EA40011E21EBF1583CFEAC683D1E2D783A2E63F
:100EB400B7E00C9404F004FF7761726D420700F010
:100EC400EE0940F0380840F03E078608B402F70601
:100ED40020F003FF737030005D077BF00600780795
:100EE4007C0702FF73706B0761F0080000F0E5F304
:100EF400ADF020F000F0E5F3B5F020F003FF7270E0
:100F04003000730700F0880786F020F061F00400D9
:100F140005FF646570746800800700F06F079CF239
:100F2400AEF11FF250F220F009FF696E7465727021
:100F3400726574008A0700F0B806C6F06EF139F0E5
:100F4400C10740F0260073F346F1BFF2BD07D90193
:100F5400D5F2EEF0EEF005F105F1C90140F02800FC
:100F6400B8F173F32AF0FCF0FCF0EEF039F0BB07B3
:100F74008EF4F0F2A907E2010E082FF09E07E6F0C6
:100F840020F00AFF7265632D696E746E756D9607A5
:100F940000F0B50539F0DF07BC0186F039F0DC0755
:100FA40040F0020023F139F0D907D1F0F5F3F5F35D
:100FB4002FF0DD07E6F04FF120F046F120F008FFB6
:100FC4007265632D66696E64C30700F0D506BEF0D2
:100FD40039F0FA076EF139F0F1072FF0F807BC0188
:100FE40086F039F0F80777022FF0F9072AF04FF16D
:100FF40020F00CFF7265632D6E6F74666F756E64FE
:10100400E10700F0EC0440F0F3FF280520F006FFB0
:101014003F737461636BFB0700F08F073FF139F096
:10102400160840F0FCFF280520F003FF76657200E7
:10103400090800F010F69304D404C20186F005F107
:1010440099021EF641F393039B0340F02E008403A0
:10105400B103BC03FCF0C2018EF0EC04D40426F608
:10106400930420F004FF6E6F6F70170839080C9416
:1010740004F006FF756E75736564340800F06F073D
:101084003002AEF120F00200746F3B0800F0FB0464
:101094004AF2BC0186F039F059086C025308770211
:1010A40020F000F0FCF0BEF04AF205F1E5F3BEF0EA
:1010B4004AF24AF2E5F32AF020F000F04AF2E5F3AE
:1010C40073F320F000F04AF2E5F34FF320F000F060
:1010D4004AF2E5F386F020F000F04AF2E5F38EF0F0
:1010E40020F000F04AF2E5F32FF3B8F186F020F097
:1010F40000F04AF2E5F32FF3B8F18EF020F006FF8A
:10110400646566657221450800F0BEF040F0030096
:10111400B8F1E5F32AF020F006FF646566657240D5
:10112400810800F0BEF04AF24AF2E5F32AF020F01A
:101134009B080E94F8F4BEF050F2D1F04AF2E5F3B5
:101144002AF02AF020F00FFF7365617263682D772F
:101154006F72646C697374008E0800F046F1D1F00C
:1011640040F0BE08D1F0F508BEF02AF139F0BD0810
:10117400E201E6F046F120F000F005F105F1D901B5
:10118400FCF0EEF0EEF00EF1E408100939F0D808A6
:10119400E201E6F00EF1B0F64AF24FF1FCF0E5F3AD
:1011A4006EF139F0D6080F0346F120F0FCF0E6F0BA
:1011B4004FF120F00BFF6E616D653E737472696EC2
:1011C4006700A50800F0BE0440F0FF002EF220F0F6
:1011D40011FF74726176657273652D776F72646C3A
:1011E40069737400DC0800F073F3BEF039F0080989
:1011F400D90105F105F1D1F02AF0FCF0FCF0EEF094
:1012040039F00809B0F6E5F32FF0F708E20120F011
:1012140008FF69636F6D70617265EA0800F005F19B
:10122400DCF0FCF019F139F01B09E201E6F046F1BB
:1012340020F0D1F046F1BFF23E09DCF086F041091E
:10124400DCF0E5F34109BEF040F0000158F139F05B
:101254002F09D1F040F0FF002EF219F139F03609D0
:10126400E20146F1FFF220F04AF2D1F0D101D1F0CF
:1012740040F00200D6F21F09E2014FF120F000F025
:10128400BEF040F0FF002EF26D03D1F026F340F0E3
:10129400FF002EF26D0326F337F220F001FF2A003F
:1012A4000A0900F0C1F1650920F001FF6A00500944
:1012B40000F085F240F00900B8F186F020F003FF59
:1012C400643E7300570900F0E6F020F004FF646107
:1012D4006273610900F0BEF03FF139F072097909D7
:1012E40020F007FF646E656761746500680900F0AB
:1012F40002F740F0010046F1DCF620F005FF636DD3
:101304006F76650073098609BF93AF93E991F991EC
:10131400A991B991092F082B21F01D9111930197DF
:10132400E1F7AF91BF91899199910C9404F005FF75
:10133400327377617000800900F0EEF005F1EEF091
:10134400FCF020F003FF7469620099094EF0B902C1
:101354000AFF726566696C6C2D746962A40900F0F9
:10136400A80940F064005905F0018EF046F1EA0145
:101374008EF040F0FFFF20F00AFF736F7572636513
:101384002D746962AA0900F0A809F00186F020F022
:1013940007FF65652D7573657200BE094EF0380050
:1013A40006FF65653E72616DCA0900F046F1BFF241
:1013B400E509DCF073F3DCF08EF0D101D1F0D1015A
:1013C400D1F0F0F2DB09E20120F009FF696E6974E3
:1013D4002D7573657200D20900F0D0092FF340F027
:1013E4001C001FF2D70920F008FF286D61726B659D
:0C13F4007229E7097BF036007BF57FF5DD
:020000021000EC
:10E00000BF93AF93DB0111969EF0FD015527EE0FF4
:10E01000FF1F551F5BBF679177911196FB01552735
:10E02000EE0FFF1F551F5BBF07911791F801099471
:10E03000E89461E971E0F2CF04FF65786974F6094C
:10E0400021F0AF91BF91E0CF07FF657865637574EC
:10E0500065001CF02BF0BC0189919991DFCF30F065
:10E06000FD015527EE0FFF1F551F5BBFA791B7910D
:10E07000CBCF3AF0982B8991999191F31196C4CF17
:10E0800041F09A938A93FD015527EE0FFF1F551F0C
:10E090005BBF879197911196B7CF4EF09A938A9371
:10E0A000FB0131965527EE0FFF1F551F5BBF879170
:10E0B0009791AACF5BF09A938A93CB010196A4CF54
:10E0C00061F09A938A93FB0131965527EE0FFF1F5B
:10E0D000551F5BBF87919791840D951D95CF07FFC5
:10E0E0002876616C7565290024F000F04502D4F4AF
:10E0F0006C027BF020F00E94F8F4BEF0D1F04AF2FE
:10E10000E5F32AF020F001FF40006FF087F0FC01FA
:10E110008191919179CF01FF210083F08FF0FC0173
:10E120008991999191838083899199916DCF02FF13
:10E1300063218BF09BF0FC018991999180838991F7
:10E14000999162CF02FF634097F0A6F0FC019927F6
:10E1500080815ACF02FF4075A2F000F02FF3B8F192
:10E1600086F020F002FF2175AAF000F02FF3B8F13D
:10E170008EF020F003FF64757000B2F0BFF09A9348
:10E180008A9342CF04FF3F647570BAF0C7F0082F3E
:10E19000092B11F09A938A9337CF04FF737761703C
:10E1A000C2F0D2F08C01899199911A930A932CCFE5
:10E1B00004FF6F766572CDF0DDF09A938A938A81C1
:10E1C0009B8122CF04FF64726F70D8F0E7F08991D1
:10E1D00099911ACF03FF726F7400E2F0EFF08C0197
:10E1E00029913991899199913A932A931A930A9393
:10E1F0000BCF02FF723EEAF0FDF09A938A938F9163
:10E200009F9102CF02FF3E72F9F006F19F938F9328
:10E2100089919991F9CE02FF724002F10FF19A9320
:10E220008A938F919F919F938F93EECE02FF3C3EF6
:10E230000BF11AF1299139918217930751F132C0EC
:10E2400001FF3D0016F100F0AEF12AF120F002FFCF
:10E25000303D20F12BF1982BE1F424C001FF3C006C
:10E2600027F100F0AEF13FF120F001FF3E002EF16A
:10E2700000F0AEF16EF120F002FF303C35F140F1DC
:10E2800097FD10C006C001FF30003CF147F19A93A2
:10E290008A93C101B9CE04FF7472756543F150F1E0
:10E2A0009A938A938FEF9FEFAFCE02FF753C4BF1AD
:10E2B00059F1299139918217930758F351F3F2CF0D
:10E2C00002FF753E55F164F12991399128173907FC
:10E2D00000F3F9F2E7CF02FF303E60F16FF18215F3
:10E2E0009305BCF2B1F2DECF02FF643E6BF100F0A9
:10E2F000EDF67FF120F003FF64303E0074F180F111
:10E3000082159305899199918205930514F209F27A
:10E31000C9CF02FF643C7BF100F0EDF694F120F0F0
:10E3200003FF64303C0089F195F1229697FD0C942F
:10E3300052F10C9449F104FF6C6F673290F1A0F137
:10E34000FC01992780E18A9522F0EE0FFF1FD8F794
:10E350005BCE9A9559CE01FF2D009BF1AFF109914B
:10E360001991081B190BC8014FCE01FF2B00ABF10F
:10E37000B9F109911991800F911F46CE02FF6D2AC4
:10E38000B5F1C2F18C01899199919C013102700122
:10E39000209FC0013003F308900DE11CF31C120311
:10E3A000F308900DE11CF31C9A938A93C7012CCEBD
:10E3B00006FF756D2F6D6F64BEF1DEF17C01299152
:10E3C00039910991199140E15527000F111F221F22
:10E3D000331F551F2E153F05520518F003952E19B2
:10E3E0003F094A9589F73A932A93C8010DCE03FF56
:10E3F000756D2A00D8F1FCF18C0189919991809F6B
:10E40000F00122273327909FF00D211D331D819F9E
:10E41000F00D211D331D919F200D311DCF019A93C9
:10E420008A93C901F1CD06FF696E76657274F7F1C2
:10E4300019F280959095E8CD02FF322F13F220F269
:10E4400095958795E1CD02FF322A1CF227F2880FBD
:10E45000991FDACD03FF616E640023F22FF2099158
:10E46000199180239123D0CD02FF6F722AF238F2E6
:10E4700009911991802B912BC7CD03FF786F720002
:10E4800034F242F20991199180279127BDCD02FF04
:10E49000312B3DF24BF20196B7CD02FF312D47F201
:10E4A00051F20197B1CD06FF6C73686966744DF245
:10E4B00059F2FC018991999131971AF0880F991FAF
:10E4C000FBCFA2CD06FF72736869667453F268F2DF
:10E4D000FC018991999131971AF096958795FBCF18
:10E4E00093CD02FF2B2162F275F2FC018991999183
:10E4F00020813181820F931F80839183899199912B
:10E5000083CD03FF7270400071F286F29A938A9372
:10E510008DB79EB779CD03FF7270210081F290F222
:10E520002FB7F8948DBF9EBF2FBF899199916CCD65
:10E5300003FF737040008BF29DF29A938A93CE0191
:10E5400063CD03FF7370210098F2A6F2EC0189916C
:10E5500099915ACDABF2FD015527EE0FFF1F551FC4
:10E560005BBF079117911196299139911F930F93D2
:10E570003F932F939F938F938991999145CDC0F2AB
:10E58000FD015527EE0FFF1F551F5BBF0791179128
:10E590001196299139918217930741F7D8018991F2
:10E5A000999132CD01FF6900A1F20FF1D7F2EF91FD
:10E5B000FF91E80FF91F192F899199912F913F91A0
:10E5C000E217F30717FF02C03CF001C02CF43F93A1
:10E5D0002F93FF93EF9344CD0F911F91119614CD7C
:10E5E000F1F2EF91FF9131962F913F91E217F307EE
:10E5F00099F3EDCF06FF756E6C6F6F70D2F200F37A
:10E600001F910F911F910F911F910F91FDCC06FF4C
:10E61000636D6F76653EFAF20DF3BF93AF93E991A8
:10E62000F991A991B991092F082B41F0E80FF91F31
:10E63000A80FB91F1E9112930197E1F7AF91BF91F7
:10E6400089919991E1CC02FF3E3C07F327F3092F12
:10E65000982F802FD9CC03FF7570400023F330F33F
:10E660009A938A93C201D0CC03FF757021002BF3DB
:10E6700039F32C0189919991C7CC03FF733E640053
:10E6800034F300F0BEF03FF120F003FF6E6F740032
:10E690003DF300F02AF120F002FF216545F350F32D
:10E6A000FC01899199912FB7F89428D000B50817EB
:10E6B00009F00BD0319622D000B5091711F0892F3F
:10E6C00004D02FBF899199919FCCF999FECF07B7BC
:10E6D00000FDFDCFF2BDE1BD80BDFA9AF99A089523
:10E6E00002FF40654CF374F32FB7F894FC0106D099
:10E6F00080B5319603D090B52FBF86CCF999FECF67
:10E70000F2BDE1BDF89A089502FF216970F39B08FC
:10E710000A005F08640809FF2821692D6E72777767
:10E72000290084F393F31FB71F93F8949C018991F8
:10E730009991AF93BF93CF93DF9309D0DF91CF919E
:10E74000BF91AF91899199911F911FBF5DCC10D05E
:10E75000E094F0948E219F21982B19F0F90102E0AA
:10E7600023D0F90104E020D0F90100E11DD0089583
:10E77000F901E078FF7FEF01A0E8B0E0FE01552746
:10E78000EE0FFF1F551F5BBF47915791FE01E21728
:10E79000F30711F00A0102C07A010C01002704D02E
:10E7A0002196119759F70895F999FECF17B710FDE3
:10E7B000FDCF5527EE0FFF1F551F5BBF016007BF41
:10E7C000E895089502FF40698BF3E6F3FC015527B5
:10E7D000EE0FFF1F551F5BBF8791979115CC070068
:10E7E0006C69746572616C00E2F300F06C0240F0D9
:10E7F000770220F00800736C69746572616CEFF346
:10E8000000F06C025C046F0420F000F020026C0247
:10E81000FFFF20F000F00E082002D1F087F320F077
:10E8200000F0200220F000F00E08770220F0050032
:10E83000616865616400FAF300F06C022FF005F482
:10E8400020F00200696617F400F06C0239F005F45C
:10E8500020F00400656C736521F400F06C022FF069
:10E8600005F4D1F00AF420F004007468656E29F410
:10E8700000F00AF420F00500626567696E0034F468
:10E8800000F010F420F005007768696C65003BF437
:10E8900000F06C0239F005F4D1F020F0060072654A
:10E8A0007065617443F400F066F40AF420F005002A
:10E8B000756E74696C004EF400F06C0239F013F45C
:10E8C00020F00500616761696E0057F400F06C028A
:10E8D0002FF013F420F00200646F61F400F06C027A
:10E8E000AAF205F410F420F004006C6F6F706BF462
:10E8F00000F06C02F0F213F40AF420F005002B6C27
:10E900006F6F700074F400F06C02D6F213F40AF426
:10E9100020F005FF6C65617665007EF48FF40F9141
:10E920001F910F911F91AF91BF916ECB03003F6478
:10E930006F0089F400F06C02BFF205F410F420F0CF
:10E9400006FF63726561746596F400F04502D4F4C5
:10E950006C025BF020F006FF686561646572A0F4EC
:10E9600000F0200205F105F1BEF06EF139F0C2F4BD
:10E97000BEF040F000FF37F27304FCF073F377024F
:10E98000FCF020F040F0F0FF280507FF776C736380
:10E990006F706500ABF49B0834005F08640806FFE5
:10E9A00072657665616CC5F400F040F08B0286F00C
:10E9B000C6F039F0E3F440F08D0286F04FF346F1F3
:10E9C00040F08B028EF020F006FF6C61746573746A
:10E9D000CFF44EF01D030500646F65733E00E4F450
:10E9E00000F06C0202F56C020E946C02F8F420F058
:10E9F0009A938A93CB0101967F916F91BF93AF93C6
:10EA0000DB0102CB00F0FCF040F08D0286F073F3E6
:10EA1000B0F64AF287F320F001FF3A00EBF400F081
:10EA200045022002E9F48EF06C0200F033F520F08C
:10EA300007FF3A6E6F6E616D65000CF500F0200205
:10EA4000BEF0E9F48EF06C0200F033F520F0010026
:10EA50003B0018F500F06C0220F03CF5D4F420F0F7
:10EA600001FF5D0027F500F040F00100BC018EF0D1
:10EA700020F001005B0030F500F046F1BC018EF0A3
:10EA800020F008FF7661726961626C6539F500F00B
:10EA9000300254F540F00200390220F008FF636FA5
:10EAA0006E7374616E7441F500F04502D4F46C022B
:10EAB0004EF0770220F004FF757365724EF500F09A
:10EAC0004502D4F46C0261F0770220F005FF766114
:10EAD0006C7565005BF500F075F0280277026C023A
:10EAE0007BF56C027FF52802BEF04AF24AF2530829
:10EAF00029024FF320F000F0E5F373F320F000F06B
:10EB0000E5F34FF320F007007265637572736500DB
:10EB100066F500F0E9F486F0770220F009FF696DF0
:10EB20006D6564696174650083F500F072F673F3D6
:10EB3000BEF0E5F340F0FF7F2EF2D1F087F320F036
:10EB400006005B636861725D8EF500F06C0240F058
:10EB5000AB05770220F0060061626F727422A0F5A7
:10EB600000F06C0239F020026C02FFFF27F76C0204
:10EB700040F06C02FEFF6C0228052002D1F087F302
:10EB800020F005FF61626F727400ABF500F040F099
:10EB9000FFFF280504FF636F6465C1F500F04502BF
:10EBA000D4F420024AF2770220F008FF656E642D4B
:10EBB000636F6465CAF500F06C020C946C0204F09B
:10EBC00020F00BFF656E7669726F6E6D656E740076
:10EBD000D5F54EF00C0009FF776F72646C697374A1
:10EBE0007300000000F040F0080020F004FF2F70D8
:10EBF0006164EBF500F09CF2F601AEF120F005FF48
:10EC00002F686F6C6400F6F500F0F6013002AEF18B
:10EC100020F00AFF666F7274682D6E616D65FFF5F6
:10EC200000F05C040700616D666F7274680020F08C
:10EC300007FF76657273696F6E0009F600F040F0A9
:10EC4000340020F003FF6370750018F600F040F008
:10EC50007500BE0420F008FF6D63752D696E666F48
:10EC600022F600F040F0710020F005FF2F7573656B
:10EC700072002BF600F040F0260020F004FF406503
:10EC80005B5DE1F500F0BEF073F305F10EF146F1C6
:10EC9000D1F0BFF254F6D5F2C901DCF0B8F173F34C
:10ECA000D1F04FF1D6F24BF6E201FCF020F004FF78
:10ECB00021655B5D3EF600F0D9014FF3D1F046F1DE
:10ECC000BFF268F6D101D1F0DCF04FF3F0F262F65A
:10ECD000E6F020F00BFF6765742D63757272656E48
:10ECE000740057F600F040F0100073F320F009FFB5
:10ECF0006765742D6F72646572006AF600F040F00B
:10ED0000140042F620F007FF636F6D7061726500BA
:10ED100077F68AF6BF93AF938C0189919991DC01C4
:10ED2000899199919C0189919991FC01ED90F190C3
:10ED3000EF1451F40A9519F02A95C1F701C02A95EC
:10ED4000022B11F4882702C08FEF00C0982FAF91DB
:10ED5000BF915AC907FF6E66613E6C66610083F61B
:10ED600000F0BE0440F0FF002EF24AF21FF2B8F1AC
:10ED700020F004FF66696C6CAAF600F0EEF0EEF08D
:10ED800046F1BFF2C8F6D9019AF04AF2F0F2C3F6A2
:10ED9000E6F0E6F020F003FF64322A00B9F6D0F680
:10EDA00009911991000F111F881F991F1A930A9337
:10EDB0002BC902FF642BCBF6DDF629913991E9903E
:10EDC000F99049915991240F351F8E1D9F1D3A933B
:10EDD0002A931AC902FF642DD9F6EEF629913991CA
:10EDE000E990F99049915991421B530BE80AF90AAD
:10EDF0005A934A93C70108C907FF64696E76657222
:10EE00007400EAF603F709911991809590950095A1
:10EE100010951A930A93F8C802FF752EFCF600F0BD
:10EE200046F1010420F002FF2E730CF700F06F078B
:10EE30009CF2D101BFF223F7D5F286F00FF740F034
:10EE40000200D6F21CF720F002002E2213F700F089
:10EE50002FF76C02930420F00200732224F700F0D5
:10EE600040F022006906BC0186F039F03AF76C02E6
:10EE70005C046F0420F006FF4564656665722CF73C
:10EE800000F04502D4F46C029B082802BEF0770221
:10EE90006C025F086C026408D1015308290220F05B
:10EEA00006FF5264656665723BF700F04502D4F4D4
:10EEB0006C029B083002770240F0020039026C02BB
:10EEC00069086C026E0820F00200697350F700F0C8
:10EED000BC0186F039F070F783026C02860820F0DE
:10EEE000FB04860820F00BFF6170706C7475726E05
:10EEF0006B65790064F700F03B0163011B08D404E3
:10EF00005C040A00466F7274686475696E6F9304DE
:10EF100020F003FF316D730073F78EF7E0EAFFE036
:10EF20003197F1F771C802FF6D7389F700F046F170
:10EF3000BFF29DF78DF7F0F29AF720F00DFF73689E
:10EF40006F772D776F72646C6973740093F700F0BC
:10EF500040F0ADF7D1F0F50820F000F0E40893049C
:10EF6000D4044FF120F005FF776F726473009EF7B1
:0CEF700000F040F0160073F3A7F720F04B
:00000001FF
