:020000020000FC
:02000400CED05C
:02000800CCD05A
:02000C00CAD058
:02001000C8D056
:02001400C6D054
:02001800C4D052
:02001C00C2D050
:02002000C0D04E
:02002400BED04C
:02002800BCD04A
:02002C00BAD048
:02003000B8D046
:02003400B6D044
:02003800B4D042
:02003C00B2D040
:02004000B0D03E
:02004400AED03C
:02004800ACD03A
:02004C00AAD038
:02005000A8D036
:02005400A6D034
:02005800A4D032
:02005C00A2D030
:02006000A0D02E
:020064009ED02C
:020068009CD02A
:02006C009AD028
:0200700098D026
:0200740096D024
:1000780094D00010000800E01F000A0041546D658C
:06008800676136343450BC
:040050000C944700C5
:10008E00AF93AFB7AF93BF93EF93FF93B091C6000B
:10009E00A0910001E2E0F1E0EA0FF31DB083A39519
:1000AE00AF70A0930001FF91EF91BF91AF91AFBFE1
:1000BE00AF91189500703471377000017C701A7012
:1000CE0006FF72782D697372000000708600307022
:1000DE006D00377001019370AC70387237700F007D
:1000EE001C7237700101887037700201A67193700F
:1000FE001A7007FF72783F2D6973720067000070E7
:10010E00BD0637700101937037700001937007714F
:10011E001A7007FF74782D706F6C6C008000007081
:10012E00A400307097003770C60088701A7008FFF0
:10013E0074783F2D706F6C6C90000070BD06377038
:10014E00C0009370377020001C721A7004FF756225
:10015E0072729E00697054005A755E7506FF2B759B
:10016E0073617274AD000070377098003770C10003
:10017E008870377006003770C2008870B100AC709E
:10018E000E733770C50088703770C40088706100B8
:04019E00B7071A7015
:040000000C94C60690
:1001A2000A920FB60A920F900F900A9400921401CD
:1001B20009900FBE09906894089504FF2B696E742C
:1001C200B500E30078940C94047004FF2D696E74FA
:1001D200DE00EB00F8940C94047004FF696E742145
:1001E200E600007037701501A6717C701A7004FF6A
:1001F200696E7440EE00007037701501A67174705C
:100202001A7008FF696E742D74726170F80009012A
:10021200809314018991999168940C9404700070F0
:1002220037701401937037701501A67174702470C1
:100232001B011A701C0102D00C940470189505FF62
:10024200665F637075000201697056002901320110
:100252000070C773AC7050015B73BF705B73BF708B
:100262001A7000703770EBFFA70405FF7374617496
:10027200650020014270530104FF6261736536011B
:1002820052700C0005FF63656C6C73003D010070D9
:1002920014721A7005FF63656C6C2B0043015101E7
:1002A20002960C94047004FF326475704B01007066
:1002B200CA70CA701A7005FF3264726F70005401FE
:1002C2000070D470D4701A7003FF3E696E005C0136
:1002D2005270180004FF237469626501427055016F
:1002E20003FF706164006B010070AF01377064003E
:1002F200A6711A7004FF656D697471011A080E0007
:10030200F207F90705FF656D69743F007B011A0862
:100312001000F207F90703FF6B65790083011A08E1
:100322001200F207F90704FF6B65793F8C011A0886
:100332001400F207F90702FF647094016970020069
:100342005A755E7503FF656470009C016970060052
:100352005A755E7504FF68657265A30169700400D1
:100362005A755E7505FF616C6C6F7400AB010070AD
:10037200AF01A671D207B0011A7008FF2863726537
:1003820061746529B30100703706AA74AC70F3700A
:100392008F74EA70377059017C70377057017C7026
:1003A2001A7001005C00BE0100701C06BF70D470A0
:1003B20069017C701A7001002800D2010070377048
:1003C2002900E80561011A7007FF636F6D70696C9F
:1003D2006500DC010070EA70AC703872F370C773AC
:1003E200F6011A7001FF2C00E50100709F016F7386
:1003F2009F013872D207A0011A7003005B275D00CB
:10040200F3010070EB0137707A04F6011A7003FFF2
:1004120062696E00FE0100703770020041017C705B
:100422001A7007FF646563696D616C0008020070F1
:1004320037700A0041017C701A7003FF686578000A
:10044200120200703770100041017C701A7002FFB6
:10045200626C1E024270200007FF7475726E6B653B
:10046200790028021A080800DE07E30705FF2A2F91
:100472006D6F64002D020070F370AF71EA70CB7182
:100482001A7004FF2F6D6F64370247029C010991B5
:100492001991412F432717FF04C0109500950F5F54
:1004A2001F4F37FF04C0309520952F5F3F4FEE243A
:1004B200FF1851E1001F111F5A9539F447FF04C07C
:1004C200109500950F5F1F4F0BC0EE1CFF1CE21A28
:1004D200F30A20F4E20EF31E8894ECCF0894EACFDC
:1004E200FA92EA92C8010C94047002FF2A2F420287
:1004F20000703C02BF70D4701A7005FF752F6D6FCB
:10050200640076020070F3703471EA70CB711A7075
:1005120006FF6E65676174657E020070067238724E
:100522001A7001FF2F00890200704602BF70D4705A
:100532001A7003FF6D6F6400920200704602D4705D
:100542001A7003FF616273009A02A70299231AF4D8
:100552008095909501960C94047003FF6D696E006E
:10056200A2020070580126713070B802BF70D470B8
:100572001A7003FF6D617800AE02007058011F719E
:100582003070C402BF70D4701A7006FF7769746845
:10059200696EBA020070CA709C71F3709C71EA7045
:1005A20046711A7007FF746F757070657200C6022B
:1005B2000070AC703770610037707B00CB02307016
:1005C200E5023770DF001C721A7007FF746F6C6FE0
:1005D20077657200D3020070AC70377041003770DB
:1005E2005B00CB023070F8023770200025721A705F
:1005F20003FF686C6400E60242705B0104FF686FEF
:100602006C64F9020070FD02AC7074703E72AC70E2
:10061200F370BF707C70EA7088701A7002FF3C231E
:10062200FF0200707501FD027C701A7001FF230049
:100632000F030070410174709903DC703770090078
:10064200CA701F713070280337700700A6713770A7
:100652003000A67103031A7002FF237317030070A0
:100662001A03580125721871307031031A7002FF93
:10067200233E2D0300706101FD027470AC707501A0
:10068200BF709C711A7004FF7369676E3803007043
:100692002D7130704F0337702D0003031A7003FF62
:1006A200642E720044030070F370BF70CA70DA08DF
:1006B20012033003DC7048033B03EA70CA709C717A
:1006C2005C046B041A7002FF2E7250030070F37008
:1006D2002973EA7054031A7002FF642E64030070D7
:1006E2003471540353041A7001FF2E006D0300701D
:1006F200297370031A7003FF75642E00750300706E
:100702003471890353041A7004FF75642E727C03DA
:100712000070F370120330033B03EA70CA709C71DD
:100722005C046B041A7006FF75642F6D6F64850399
:100732000070F3703471FC70CB71EA70BF70F370AB
:10074200CB71EA701A7006FF64696769743F94039B
:100752000070D902377030009C71AC70377009009C
:1007620051713070C003377007009C71AC703770E4
:100772000900CF033070C003D47034711A70AC70AA
:1007820041017470D7033070C903D47034711A7088
:100792003D711A7003FF753C3D00A4030070517156
:1007A20006721A7003FF753E3D00CB03007046715E
:1007B20006721A700070EA70AC70AC70C773BF70CA
:1007C2003872BF70DC70CA7038720D72A6713872DE
:1007D200F3701A7002FF732CD3030070AC70F20333
:1007E2001A700070F601AC700D72BF70CA7014728C
:1007F2009C71F3703471AA720404AC707470F601C7
:100802005001D872FE03EA705C7130700B04AC7058
:100812009370F601D4701A7005FF697479706500DF
:10082200EB030070AC700D72BF70CA7014729C71D1
:10083200F3703471AA722504AC70C773AC703204C1
:100842002E043872D8721D04EA705C7130702C0468
:10085200AC70C7733204D4701A7000700E73320415
:100862001A7000703770FF001C727F011A7006FF49
:1008720069636F756E740D040070AC703872BF706E
:10088200C7731A7002FF63723804007037700D006C
:100892007F0137700A007F011A7005FF7370616370
:1008A2006500430400702B027F011A7006FF73700B
:1008B200616365734E040070AC705C711C723471BC
:1008C200AA7266045304D87263041A7004FF74791E
:1008D200706557040070CA70A671BF70AA72760460
:1008E200BD7293707F01D87271041A7001FF2700E4
:1008F200670400703706540618713070830437702D
:10090200F3FFA7041A7007FF68616E646C657200DA
:10091200770452700A0005FF6361746368008404FF
:1009220000708A72F3708A047470F37073728A04AE
:100932007C702470EA708A047C70EA70D47034711E
:100942001A7005FF7468726F77008C040070AC70C7
:1009520018713070AE04D4701A708A0474707D728B
:10096200EA708A047C70EA70BF70F3709372D4707C
:10097200EA701A7005FF63736B697000A20400705D
:10098200F370AC703070D004CA709370FC70117147
:100992003070D0043770010026062970C204EA7054
:1009A200D4701A7006FF616363657074BB040070D3
:1009B200AC70F370F3709001AC7037700A0007717D
:1009C20030701605AC7037700D0007713070160567
:1009D200AC7037700800117130700205EA70FC705B
:1009E200CA70F37011713070F904D4702970DC048C
:1009F200AC707F0153047F013E72EA703872297035
:100A02001005AC702B021F7130700905D4702B02D7
:100A1200AC707F01CA7088703872EA703E72AC7036
:100A2200F37018713070DC04AC706101EA70EA7026
:100A3200BF709C7146041A7006FF726566696C6C21
:100A4200D3041A081A00F207F90704FF63686172F7
:100A52001D0500703706D47093701A7006FF6E750C
:100A62006D6265722605007041017470F370A50510
:100A7200F3707105A505EA702572F370F370F370D7
:100A820034713471EA70EA70C405B470307065056F
:100A920037700100117130705C05937037702E0051
:100AA200117130705C05EA7030705805E7083770D4
:100AB200020029706C056101D470EA70D470EA708A
:100AC20041017C7034711A706101EA7030706A05FC
:100AD2008E0237700100EA7041017C703D711A701C
:100AE2000070CA70937037702900267130707A05D1
:100AF2001A70CA70937081053770010026061A7049
:100B02000070AC7037702400117130708B05D47096
:100B120022021A70AC703770250011713070940582
:100B2200D4700C021A70AC703770260011713070DC
:100B32009D05D47018021A7037702300117130703D
:100B4200A40518021A701A700070CA709370377078
:100B52002B0011713070B005377001002606CA7083
:100B6200937037702D001171AC70F3703070BC054A
:100B7200377001002606EA701A7007FF3E6E756D27
:100B8200626572002F050070AC703070E205CA70A9
:100B92009370A90318713070CF051A70F3700C09A5
:100BA200EA70BF7041017470E971D470DC70410168
:100BB2007470E971BB760C09377001002606297042
:100BC200C5051A7005FF706172736500BE0500707D
:100BD200F3701C06690174702606EA70FD05AC709C
:100BE2003872690162723770010026061A7005FFB9
:100BF200637363616E00E3050070BF70AC70F370E5
:100C02003471AA721406CA70BD72A6719370CA704A
:100C1200117130701206D470BD72E772EA70D4702E
:100C22001A70D8720406D470EA701A7006FF736FD5
:100C320075726365F8051A081600F207F90707FFCF
:100C42002F737472696E670017060070CA70B20261
:100C5200DC70CA70A671DC70DC709C711A700AFFBD
:100C620070617273652D6E616D65200600702B02D6
:100C72003B061A700070F3701C0669017470260638
:100C8200FC70C004EA70FD055801A6711C06D47000
:100C92009C7169017C701A7009FF66696E642D6E21
:100CA200616D650030060070377014005B7334713B
:100CB200AA726F06580137701600BD724801A671FC
:100CC2005B732E08B47030706D06F370F3706101BF
:100CD200EA70EA70E7721A70D8725B0661013471C9
:100CE2001A7004FF717569744D060070EE069372F6
:100CF20003077D721B753B01747018713070820698
:100D02009806220530707C0637701C079104B47077
:100D120030709406AC703770FEFF1F71307092060F
:100D2200A606297077069F0629707C061A70007045
:100D32004604DB0302003E2012041A700070DB033B
:100D42000300206F6B0012041A700070DB030400B2
:100D5200203F3F20120441017470F370180278039F
:100D6200690174707803EA7041017C701A7005FFA2
:100D720070617573650072061A085D01E807ED0778
:100D820004FF636F6C64B806C606A4B6BB242224B3
:100D9200332424BEEFE5F1E02F010FEF0DBF0483F2
:100DA20010E11EBF1583CFEAC683D0E1D783A1EE3F
:100DB200B6E00C94047004FF7761726DC106007096
:100DC2005C093770B7073770BD060508330276062F
:100DD2001A7003FF73703000DC0669700600F706B4
:100DE200FB0602FF7370EA06527008000070C773B8
:100DF2009B701A700070C773A3701A7003FF727031
:100E02003000F2060070070774701A705270040006
:100E120005FF646570746800FF060070EE068A7252
:100E22009C710D723E721A7009FF696E7465727060
:100E320072657400090700703706B4705C71307017
:100E42004007377026005B733471AA723C07580161
:100E5200BD72DC70DC70F370F370480137702800EB
:100E6200A6715B732470EA70EA70DC7030703A0726
:100E72006D74D872280761018D0729701D07D4701F
:100E82001A700AFF7265632D696E746E756D1507AF
:100E92000070340530705E073B01747030705B0780
:100EA20037700200117130705807BF70D473D47359
:100EB20029705C07D4703D711A7034711A7008FF82
:100EC2007265632D66696E64420700705406AC70E9
:100ED200307079075C7130707007297077073B01B9
:100EE200747030707707F6012970780724703D71AD
:100EF2001A700CFF7265632D6E6F74666F756E6487
:100F0200600700706B043770F3FFA7041A7006FFC6
:100F12003F737461636B7A0700700E072D71307036
:100F220095073770FCFFA7041A7003FF76657200FD
:100F320088070070EF751204530441017470F37056
:100F42001802FD75297312031A0337702E0003036A
:100F520030033B03EA7041017C706B045304057655
:100F620012041A7004FF6E6F6F709607B8070C9424
:100F7200047006FF756E75736564B3070070EE0644
:100F8200AF019C711A700200746FBA0700707A0484
:100F920038723B0174703070D807EB01D207F6014A
:100FA2001A700070EA70AC703872F370C773AC706C
:100FB20038723872C77324701A7000703872C7732F
:100FC2005B731A7000703872C77337731A700070CF
:100FD2003872C77374701A7000703872C7737C707D
:100FE2001A7000703872C7731773A67174701A7012
:100FF20000703872C7731773A6717C701A7006FF7F
:10100200646566657221C4070070AC7037700300B6
:10101200A671C77324701A7006FF64656665724014
:1010220000080070AC7038723872C77324701A707E
:101032001A080E94D774AC703E72BF703872C773C0
:10104200247024701A700FFF7365617263682D77C4
:101052006F72646C697374000D0800703471BF7034
:1010620037703D08BF707408AC70187130703C085E
:101072006101D47034711A700070F370F37058010A
:10108200EA70DC70DC70FC7063088F0830705708FF
:101092006101D470FC708F7638723D71EA70C7734B
:1010A2005C71307055088E0234711A70EA70D47017
:1010B2003D711A700BFF6E616D653E737472696EDD
:1010C2006700240800703D043770FF001C721A701C
:1010D20011FF74726176657273652D776F72646C3D
:1010E200697374005B0800705B73AC7030708708C2
:1010F2005801F370F370BF702470EA70EA70DC700C
:10110200307087088F76C7732970760861011A706C
:1011120008FF69636F6D7061726569080070F37032
:10112200CA70EA70077130709A086101D470347124
:101132001A70BF703471AA72BB08CA707470CA7018
:10114200C773AC703770000146713070AC08BF7065
:101152003770FF001C7207713070B308610134717F
:10116200E7721A703872BF705001BF703770020098
:10117200BE729E0861013D711A7001FF2A00890842
:101182000070AF71D3081A7001FF6A00BE080070C8
:10119200737237700900A67174701A7003FF643E8F
:1011A2007300C5080070D4701A7004FF6461627322
:1011B200CF080070AC702D713070E008E7081A702B
:1011C20007FF646E656761746500D6080070E1769A
:1011D200377001003471BB761A7005FF636D6F764C
:1011E2006500E108F408BF93AF93E991F991A991E1
:1011F200B991092F082B21F01D9111930197E1F765
:10120200AF91BF91899199910C94047005FF32734B
:1012120077617000EE080070DC70F370DC70EA70C9
:101222001A7003FF746962000709427085010AFFA0
:10123200726566696C6C2D74696212090070160918
:1012420037706400D8046F017C70347169017C705E
:101252003770FFFF1A700AFF736F757263652D7422
:1012620069621809007016096F0174701A7007FF1D
:1012720065652D75736572002C094270380006FF92
:1012820065653E72616D380900703471AA72530946
:10129200CA705B73CA707C705001BF705001BF701E
:1012A200D872490961011A7009FF696E69742D7556
:1012B20073657200400900703E09177337701C0095
:1012C2000D7245091A7008FF286D61726B657229EB
:0A12D2005509697036005A755E7503
:10E00000BF93AF93DB0111966EF0FD01EE0FFF1F82
:10E01000659175911196FB01EE0FFF1F059115910A
:10E02000F8010994E89460E171E0F5CF04FF6578A8
:10E03000697464091B70AF91BF91E6CF07FF6578E3
:10E0400065637574650016702570BC01899199919E
:10E05000E2CF2A70FD01EE0FFF1FA591B591D4CF3D
:10E060003170982B89919991A9F31196CDCF387081
:10E070009A938A93FD01EE0FFF1F8591959111965A
:10E08000C3CF42709A938A93FB013196EE0FFF1F24
:10E0900085919591B9CF4C709A938A93CB01019653
:10E0A000B3CF52709A938A93FB013196EE0FFF1F04
:10E0B00085919591840D951DA7CF07FF2876616CFA
:10E0C000756529001E700070C401B374EB0169709E
:10E0D0001A700E94D774AC70BF703872C773247006
:10E0E0001A7001FF40005D707570FC018191919183
:10E0F0008BCF01FF210071707D70FC018991999196
:10E1000091838083899199917FCF02FF63217970F8
:10E110008970FC018991999180838991999174CF3B
:10E1200002FF634085709470FC01992780816CCF59
:10E1300002FF4075907000701773A67174701A70AA
:10E1400002FF2175987000701773A6717C701A70A9
:10E1500003FF64757000A070AD709A938A9354CFDA
:10E1600004FF3F647570A870B570082F092B11F07B
:10E170009A938A9349CF04FF73776170B070C0702F
:10E180008C01899199911A930A933ECF04FF6F767F
:10E190006572BB70CB709A938A938A819B8134CFCE
:10E1A00004FF64726F70C670D570899199912CCFFD
:10E1B00003FF726F7400D070DD708C01299139916A
:10E1C000899199913A932A931A930A931DCF02FF4A
:10E1D000723ED870EB709A938A938F919F9114CF6F
:10E1E00002FF3E72E770F4709F938F93899199912B
:10E1F0000BCF02FF7240F070FD709A938A938F915B
:10E200009F919F938F9300CF02FF3C3EF97008715E
:10E21000299139918217930751F132C001FF3D00D6
:10E22000047100709C7118711A7002FF303D0E71FC
:10E230001971982BE1F424C001FF3C0015710070A6
:10E240009C712D711A7001FF3E001C7100709C7151
:10E250005C711A7002FF303C23712E7197FD10C063
:10E2600006C001FF30002A7135719A938A93C1016B
:10E27000CBCE04FF7472756531713E719A938A93A7
:10E280008FEF9FEFC1CE02FF753C39714771299125
:10E2900039918217930758F351F3F2CF02FF753E7D
:10E2A00043715271299139912817390700F3F9F216
:10E2B000E7CF02FF303E4E715D7182159305BCF2CF
:10E2C000B1F2DECF02FF643E59710070CC766D7101
:10E2D0001A7003FF64303E0062716E7182159305FF
:10E2E000899199918205930514F209F2C9CF02FF31
:10E2F000643C69710070CC7682711A7003FF6430DF
:10E300003C0077718371229697FD0C9440710C94B8
:10E31000377104FF6C6F67327E718E71FC01992733
:10E3200080E18A9522F0EE0FFF1FD8F76DCE9A9507
:10E330006BCE01FF2D0089719D7109911991081B08
:10E34000190BC80161CE01FF2B009971A7710991CA
:10E350001991800F911F58CE02FF6D2AA371B071E1
:10E360008C01899199919C0131027001209FC0011B
:10E370003003F308900DE11CF31C1203F308900D19
:10E38000E11CF31C9A938A93C7013ECE06FF756D7C
:10E390002F6D6F64AC71CC717C0129913991099119
:10E3A000199140E15527000F111F221F331F551FE0
:10E3B0002E153F05520518F003952E193F094A9571
:10E3C00089F73A932A93C8011FCE03FF756D2A007F
:10E3D000C671EA718C0189919991809FF001222781
:10E3E0003327909FF00D211D331D819FF00D211DBE
:10E3F000331D919F200D311DCF019A938A93C9013E
:10E4000003CE06FF696E76657274E57107728095BA
:10E410009095FACD02FF322F01720E729595879575
:10E42000F3CD02FF322A0A721572880F991FECCDC4
:10E4300003FF616E640011721D72099119918023AE
:10E440009123E2CD02FF6F72187226720991199121
:10E45000802B912BD9CD03FF786F7200227230721E
:10E460000991199180279127CFCD02FF312B2B7273
:10E4700039720196C9CD02FF312D35723F72019775
:10E48000C3CD06FF6C73686966743B724772FC010A
:10E490008991999131971AF0880F991FFBCFB4CDCC
:10E4A00006FF72736869667441725672FC01899145
:10E4B000999131971AF096958795FBCFA5CD02FFDC
:10E4C0002B2150726372FC018991999120813181D5
:10E4D000820F931F808391838991999195CD03FF3A
:10E4E000727040005F7274729A938A938DB79EB770
:10E4F0008BCD03FF727021006F727E722FB7F8947C
:10E500008DBF9EBF2FBF899199917ECD03FF737000
:10E51000400079728B729A938A93CE0175CD03FF76
:10E520007370210086729472EC01899199916CCD7F
:10E530009972FD01EE0FFF1F05911591119629911A
:10E5400039911F930F933F932F939F938F938991AB
:10E5500099915ACDAB72FD01EE0FFF1F05911591F8
:10E560001196299139918217930759F7D80189910A
:10E5700099914ACD01FF69008F72FD70BF72EF91D2
:10E58000FF91E80FF91F192F899199912F913F91D0
:10E59000E217F30717FF02C03CF001C02CF43F93D1
:10E5A0002F93FF93EF9356CD0F911F9111962CCD82
:10E5B000D972EF91FF9131962F913F91E217F307B6
:10E5C00099F3EDCF06FF756E6C6F6F70BA72E872DB
:10E5D0001F910F911F910F911F910F9115CD06FF64
:10E5E000636D6F76653EE272F572BF93AF93E9910A
:10E5F000F991A991B991092F082B41F0E80FF91F62
:10E60000A80FB91F1E9112930197E1F7AF91BF9127
:10E6100089919991F9CC02FF3E3CEF720F73092F5B
:10E62000982F802FF1CC03FF757040000B73187387
:10E630009A938A93C201E8CC03FF7570210013738B
:10E6400021732C0189919991DFCC03FF733E640003
:10E650001C730070AC702D711A7003FF6E6F740024
:10E660002573007018711A7002FF21652D733873BD
:10E67000FC01899199912FB7F89428D000B508171B
:10E6800009F00BD0319622D000B5091711F0892F6F
:10E6900004D02FBF89919991B7CCF999FECF07B7D4
:10E6A00000FDFDCFF2BDE1BD80BDFA9AF99A089553
:10E6B00002FF406534735C732FB7F894FC0106D0F9
:10E6C00080B5319603D090B52FBF9ECCF999FECF7F
:10E6D000F2BDE1BDF89A089502FF216958731A0846
:10E6E0000A00DE07E30709FF2821692D6E7277779C
:10E6F00029006C737B731FB71F93F8949C01899159
:10E700009991AF93BF93CF93DF9309D0DF91CF91CE
:10E71000BF91AF91899199911F911FBF75CC10D076
:10E72000E094F0948E219F21982B19F0F90102E0DA
:10E7300020D0F90104E01DD0F90100E11AD00895BC
:10E74000F901E078FF7FEF01A0E8B0E0FE01EE0FF5
:10E75000FF1F45915591FE01E217F30711F00A01E1
:10E7600002C07A010C01002704D02196119771F79D
:10E770000895F999FECF17B710FDFDCFEE0FFF1FDB
:10E78000016007BFE895089502FF40697373C8737D
:10E79000FC01EE0FFF1F8591959136CC07006C6947
:10E7A000746572616C00C4730070EB013770F60120
:10E7B0001A700800736C69746572616CCE730070B6
:10E7C000EB01DB03EE031A7000709F01EB01FFFF0A
:10E7D0001A7000708D079F01BF706F731A70007000
:10E7E0009F011A7000708D07F6011A7005006168AC
:10E7F00065616400D9730070EB012970E4731A70CD
:10E8000002006966F6730070EB013070E4731A70F1
:10E810000400656C736500740070EB012970E4738B
:10E82000BF70E9731A7004007468656E0874007034
:10E83000E9731A700500626567696E0013740070F1
:10E84000EF731A7005007768696C65001A740070C0
:10E85000EB013070E473BF701A700600726570656A
:10E860006174227400704574E9731A700500756E46
:10E8700074696C002D740070EB013070F2731A70C3
:10E880000500616761696E0036740070EB012970E4
:10E89000F2731A700200646F40740070EB0198729A
:10E8A000E473EF731A7004006C6F6F704A74007039
:10E8B000EB01D872F273E9731A7005002B6C6F6F5D
:10E8C000700053740070EB01BE72F273E9731A703A
:10E8D00005FF6C65617665005D746E740F911F9124
:10E8E0000F911F91AF91BF918FCB03003F646F00D9
:10E8F00068740070EB01AA72E473EF731A7006FF7C
:10E9000063726561746575740070C401B374EB0162
:10E910004C701A7006FF6865616465727F740070E0
:10E920009F01F370F370AC705C713070A174AC70C7
:10E93000377000FF2572F203EA705B73F601EA702C
:10E940001A703770F0FFA70407FF776C73636F705E
:10E9500065008A741A083400DE07E30706FF726553
:10E960007665616CA4740070377057017470B47070
:10E970003070C274377059017470377334713770E6
:10E9800057017C701A7006FF6C6174657374AE7405
:10E990004270E9010500646F65733E00C374007046
:10E9A000EB01E174EB010E94EB01D7741A709A93AA
:10E9B0008A93CB0101967F916F91BF93AF93DB0157
:10E9C00023CB0070EA703770590174705B738F76D7
:10E9D00038726F731A7001FF3A00CA740070C40174
:10E9E0009F01C8747C70EB01007012751A7007FFEC
:10E9F0003A6E6F6E616D6500EB7400709F01AC70D4
:10EA0000C8747C70EB01007012751A7001003B0035
:10EA1000F7740070EB011A701B75B3741A7001FF64
:10EA20005D0006750070377001003B017C701A7044
:10EA300001005B000F75007034713B017C701A702F
:10EA400008FF7661726961626C6518750070AF01CC
:10EA5000337537700200B8011A7008FF636F6E7368
:10EA600074616E7420750070C401B374EB01427060
:10EA7000F6011A7004FF757365722D750070C4017C
:10EA8000B374EB015270F6011A7005FF76616C7574
:10EA900065003A7500706370A701F601EB015A75C5
:10EAA000EB015E75A701AC7038723872D207A8010D
:10EAB00037731A700070C7735B731A700070C77376
:10EAC00037731A7007007265637572736500457558
:10EAD0000070C8747470F6011A7009FF696D6D6575
:10EAE0006469617465006275007051765B73AC7027
:10EAF000C7733770FF7F1C72BF706F731A70060088
:10EB00005B636861725D6D750070EB0137702A059B
:10EB1000F6011A70060061626F7274227F750070D0
:10EB2000EB0130709F01EB01FFFF0677EB013770BF
:10EB3000EB01FEFFEB01A7049F01BF706F731A701A
:10EB400005FF61626F7274008A7500703770FFFF95
:10EB5000A70404FF636F6465A0750070C401B374FB
:10EB60009F013872F6011A7008FF656E642D636F9D
:10EB70006465A9750070EB010C94EB0104701A70C8
:10EB80000BFF656E7669726F6E6D656E7400B4759D
:10EB900042700C0009FF776F72646C6973747300C4
:10EBA00000000070377008001A7004FF2F70616455
:10EBB000CA7500708A7275019C711A7005FF2F6802
:10EBC0006F6C6400D57500707501AF019C711A708F
:10EBD0000AFF666F7274682D6E616D65DE75007078
:10EBE000DB030700616D666F727468001A7007FFBF
:10EBF00076657273696F6E00E87500703770340067
:10EC00001A7003FF63707500F7750070377041006C
:10EC10003D041A7008FF6D63752D696E666F01768D
:10EC2000007037703D001A7005FF2F757365720014
:10EC30000A760070377026001A7004FF40655B5D2D
:10EC4000C0750070AC705B73F370FC703471BF7092
:10EC5000AA723376BD724801CA70A6715B73BF7029
:10EC60003D71BE722A766101EA701A7004FF216557
:10EC70005B5D1D76007058013773BF703471AA72E6
:10EC800047765001BF70CA703773D8724176D4701E
:10EC90001A700BFF6765742D63757272656E740070
:10ECA00036760070377010005B731A7009FF676565
:10ECB000742D6F72646572004976007037701400AD
:10ECC00021761A7007FF636F6D706172650056766A
:10ECD0006976BF93AF938C0189919991DC018991F9
:10ECE00099919C0189919991FC01ED90F190EF141B
:10ECF00051F40A9519F02A95C1F701C02A95022B03
:10ED000011F4882702C08FEF00C0982FAF91BF91F8
:10ED10007BC907FF6E66613E6C66610062760070BB
:10ED20003D043770FF001C7238720D72A6711A70A4
:10ED300004FF66696C6C89760070DC70DC7034717D
:10ED4000AA72A776580188703872D872A276D470E9
:10ED5000D4701A7003FF64322A009876AF76099156
:10ED60001991000F111F881F991F1A930A934CC9FC
:10ED700002FF642BAA76BC7629913991E990F9902B
:10ED800049915991240F351F8E1D9F1D3A932A9347
:10ED90003BC902FF642DB876CD7629913991E9906F
:10EDA000F99049915991421B530BE80AF90A5A9379
:10EDB0004A93C70129C907FF64696E7665727400BA
:10EDC000C976E276099119918095909500951095F4
:10EDD0001A930A9319C902FF752EDB7600703471FD
:10EDE00080031A7002FF2E73EB760070EE068A72B3
:10EDF0005001AA720277BD727470EE76377002000D
:10EE0000BE72FB761A7002002E22F27600700E7728
:10EE1000EB0112041A70020073220377007037703E
:10EE20002200E8053B01747030701977EB01DB03B9
:10EE3000EE031A7006FF4564656665720B77007015
:10EE4000C401B374EB011A08A701AC70F601EB0121
:10EE5000DE07EB01E3075001D207A8011A7006FF95
:10EE60005264656665721A770070C401B374EB0171
:10EE70001A08AF01F60137700200B801EB01E8078C
:10EE8000EB01ED071A70020069732F7700703B01E8
:10EE9000747030704F770202EB0105081A707A0423
:10EEA00005081A700BFF6170706C7475726E6B657B
:10EEB000790043770070BA00E2009A075304DB033D
:10EEC0000A00466F7274686475696E6F12041A7076
:10EED00003FF316D730052776D77E0EAFFE0319701
:10EEE000F1F792C802FF6D73687700703471AA72EF
:10EEF0007C776C77D87279771A700DFF73686F77AB
:10EF00002D776F72646C697374007277007037705C
:10EF10008C77BF7074081A70007063081204530471
:10EF20003D711A7005FF776F726473007D77007012
:0AEF3000377016005B7386771A70C5
:00000001FF
