:020000020000FC
:02000400BED06C
:02000800BCD06A
:02000C00BAD068
:02001000B8D066
:02001400B6D064
:02001800B4D062
:02001C00B2D060
:02002000B0D05E
:02002400AED05C
:02002800ACD05A
:02002C00AAD058
:02003000A8D056
:02003400A6D054
:02003800A4D052
:02003C00A2D050
:02004000A0D04E
:020044009ED04C
:020048009CD04A
:02004C009AD048
:0200500098D046
:0200540096D044
:1000580094D000040002001C1700090041546D658B
:060068006761313639002A
:040034000C943700F1
:10006E00AF93AFB7AF93BF93EF93FF93B091E6000B
:10007E00A0910001E2E0F1E0EA0FF31DB083A39539
:10008E00AF70A0930001FF91EF91BF91AF91AFBF01
:10009E00AF911895001C341D371C00017C1C1A1CD6
:1000AE0006FF72782D6973720000001C7600301CFA
:1000BE005D00371C0101931CAC1C381E371C0F0051
:1000CE001C1E371C0101881C371C0201A61D931C27
:1000DE001A1C07FF72783F2D697372005700001CBF
:1000EE006B06371C0101931C371C0001931C071D66
:1000FE001A1C07FF74782D706F6C6C007000001C5A
:10010E009400301C8700371CE600881C1A1C08FF60
:10011E0074783F2D706F6C6C8000001C6B06371C62
:10012E00E000931C371C20001C1E1A1C04FF756275
:10013E0072728E00691C5400B20AB60A06FF2B7545
:10014E00736172749D00001C371C9800371CE1000F
:10015E00881C371C0600371CE200881CA100AC1C52
:10016E000E1F371CE500881C371CE400881C51004C
:04017E0065071A1CDB
:040000000C947406E2
:100182000A920FB60A920F900F900A9400921401ED
:1001920009900FBE09906894089505FF665F637029
:1001A2007500A500691C5600D700E000001CC71F9F
:1001B200AC1CFE005B1FBF1C5B1FBF1C1A1C001C7B
:1001C200371CEBFF550405FF737461746500CE00A4
:1001D200421C430104FF62617365E400521C0C007F
:1001E20005FF63656C6C7300EB00001C141E1A1C87
:1001F20005FF63656C6C2B00F100FF0002960C9406
:10020200041C04FF32647570F900001CCA1CCA1C6D
:100212001A1C05FF3264726F70000201001CD41CAC
:10022200D41C1A1C03FF3E696E000A01521C1800FE
:1002320004FF237469621301421C450103FF7061CC
:1002420064001901001C5D01371C6400A61D1A1C04
:1002520004FF656D69741F01C8070E00A007A70798
:1002620005FF656D69743F002901C8071000A007EA
:10027200A70703FF6B6579003101C8071200A007C9
:10028200A70704FF6B65793F3A01C8071400A0076E
:10029200A70702FF64704201691C0200B20AB60A93
:1002A20003FF656470004A01691C0600B20AB60ABF
:1002B20004FF686572655101691C0400B20AB60A3E
:1002C20005FF616C6C6F74005901001C5D01A61D75
:1002D20080075E011A1C08FF286372656174652934
:1002E2006101001CE505010AAC1CF31CE609EA1CCD
:1002F200371C49017C1C371C47017C1C1A1C01005D
:100302005C006C01001CCA05BF1CD41C17017C1CBC
:100312001A1C010028008001001C371C29009605C8
:100322000F011A1C07FF636F6D70696C65008A010B
:10033200001CEA1CAC1C381EF31CC71FA4011A1CAB
:1003420001FF2C009301001C4D016F1F4D01381E4F
:1003520080074E011A1C03005B275D00A101001CEF
:100362009901371C2804A4011A1C03FF62696E005C
:10037200AC01001C371C0200EF007C1C1A1C07FF9A
:10038200646563696D616C00B601001C371C0A006C
:10039200EF007C1C1A1C03FF68657800C001001C7A
:1003A200371C1000EF007C1C1A1C02FF626CCC018F
:1003B200421C200007FF7475726E6B657900D601CE
:1003C200C80708008C07910705FF2A2F6D6F64008C
:1003D200DB01001CF31CAF1DEA1CCB1D1A1C04FF21
:1003E2002F6D6F64E501F5019C0109911991412F6F
:1003F200432717FF04C0109500950F5F1F4F37FF6B
:1004020004C0309520952F5F3F4FEE24FF1851E135
:10041200001F111F5A9539F447FF04C0109500952B
:100422000F5F1F4F0BC0EE1CFF1CE21AF30A20F4F1
:10043200E20EF31E8894ECCF0894EACFFA92EA9285
:10044200C8010C94041C02FF2A2FF001001CEA01CF
:10045200BF1CD41C1A1C05FF752F6D6F640024028B
:10046200001CF31C341DEA1CCB1D1A1C06FF6E6512
:10047200676174652C02001C061E381E1A1C01FFDF
:100482002F003702001CF401BF1CD41C1A1C03FFEE
:100492006D6F64004002001CF401D41C1A1C03FF9F
:1004A200616273004802550299231AF4809590956F
:1004B20001960C94041C03FF6D696E005002001C2F
:1004C2000601261D301C6602BF1CD41C1A1C03FF29
:1004D2006D6178005C02001C06011F1D301C720257
:1004E200BF1CD41C1A1C06FF77697468696E680207
:1004F200001CCA1C9C1DF31C9C1DEA1C461D1A1CD8
:1005020007FF746F7570706572007402001CAC1C7A
:10051200371C6100371C7B007902301C9302371CA8
:10052200DF001C1E1A1C07FF746F6C6F7765720068
:100532008102001CAC1C371C4100371C5B00790295
:10054200301CA602371C2000251E1A1C03FF686CF3
:1005520064009402421C4B0104FF686F6C64A702A2
:10056200001CAB02AC1C741C3E1EAC1CF31CBF1C5A
:100572007C1CEA1C881C1A1C02FF3C23AD02001CD6
:100582002301AB027C1C1A1C01FF2300BD02001CCC
:10059200EF00741C4703DC1C371C0900CA1C1F1D1A
:1005A200301CD602371C0700A61D371C3000A61DC2
:1005B200B1021A1C02FF2373C502001CC802060105
:1005C200251E181D301CDF021A1C02FF233EDB020F
:1005D200001C0F01AB02741CAC1C2301BF1C9C1D30
:1005E2001A1C04FF7369676EE602001C2D1D301C85
:1005F200FD02371C2D00B1021A1C03FF642E72008B
:10060200F202001CF31CBF1CCA1C8808C002DE02D6
:10061200DC1CF602E902EA1CCA1C9C1D0A0419042D
:100622001A1C02FF2E72FE02001CF31C291FEA1C78
:1006320002031A1C02FF642E1203001C341D020363
:1006420001041A1C01FF2E001B03001C291F1E039C
:100652001A1C03FF75642E002303001C341D37038C
:1006620001041A1C04FF75642E722A03001CF31C79
:10067200C002DE02E902EA1CCA1C9C1D0A0419041B
:100682001A1C06FF75642F6D6F643303001CF31C84
:10069200341DFC1CCB1DEA1CBF1CF31CCB1DEA1C29
:1006A2001A1C06FF64696769743F4203001C8702D3
:1006B200371C30009C1DAC1C371C0900511D301C1E
:1006C2006E03371C07009C1DAC1C371C09007D0300
:1006D200301C6E03D41C341D1A1CAC1CEF00741C9D
:1006E2008503301C7703D41C341D1A1C3D1D1A1CB3
:1006F20003FF753C3D005203001C511D061E1A1CCF
:1007020003FF753E3D007903001C461D061E1A1CA0
:10071200001CEA1CAC1CAC1CC71FBF1C381EBF1C33
:10072200DC1CCA1C381E0D1EA61D381EF31C1A1C0A
:1007320002FF732C8103001CAC1CA0031A1C001CBA
:10074200A401AC1C0D1EBF1CCA1C141E9C1DF31C54
:10075200341DAA1EB203AC1C741CA401FE00D81ED8
:10076200AC03EA1C5C1D301CB903AC1C931CA40135
:10077200D41C1A1C05FF6974797065009903001C6A
:10078200AC1C0D1EBF1CCA1C141E9C1DF31C341D68
:10079200AA1ED303AC1CC71FAC1CE003DC03381E2B
:1007A200D81ECB03EA1C5C1D301CDA03AC1CC71F2D
:1007B200E003D41C1A1C001C0E1FE0031A1C001CB0
:1007C200371CFF001C1E2D011A1C06FF69636F7582
:1007D2006E74BB03001CAC1C381EBF1CC71F1A1C46
:1007E20002FF6372E603001C371C0D002D01371C4B
:1007F2000A002D011A1C05FF737061636500F10385
:10080200001CD9012D011A1C06FF73706163657308
:10081200FC03001CAC1C5C1D1C1E341DAA1E14040F
:100822000104D81E11041A1C04FF747970650504B2
:10083200001CCA1CA61DBF1CAA1E2404BD1E931C9C
:100842002D01D81E1F041A1C01FF27001504001CCD
:10085200E5050206181D301C3104371CF3FF550450
:100862001A1C07FF68616E646C6572002504521CD5
:100872000A0005FF6361746368003204001C8A1E6B
:10088200F31C3804741CF31C731E38047C1C241CD7
:10089200EA1C38047C1CEA1CD41C341D1A1C05FFFB
:1008A2007468726F77003A04001CAC1C181D301C6F
:1008B2005C04D41C1A1C3804741C7D1EEA1C380407
:1008C2007C1CEA1CBF1CF31C931ED41CEA1C1A1CC1
:1008D20005FF63736B6970005004001CF31CAC1CB1
:1008E200301C7E04CA1C931CFC1C111D301C7E048F
:1008F200371C0100D405291C7004EA1CD41C1A1CE4
:1009020006FF6163636570746904001CAC1CF31C10
:10091200F31C3E01AC1C371C0A00071D301CC4042A
:10092200AC1C371C0D00071D301CC404AC1C371C4A
:100932000800111D301CB004EA1CFC1CCA1CF31C6C
:10094200111D301CA704D41C291C8A04AC1C2D01C7
:1009520001042D013E1EEA1C381E291CBE04AC1CDB
:10096200D9011F1D301CB704D41CD901AC1C2D01A8
:10097200CA1C881C381EEA1C3E1EAC1CF31C181D27
:10098200301C8A04AC1C0F01EA1CEA1CBF1C9C1D13
:10099200F4031A1C06FF726566696C6C8104C80751
:1009A2001A00A007A70704FF63686172CB04001C4A
:1009B200E505D41C931C1A1C06FF6E756D626572E8
:1009C200D404001CEF00741CF31C5305F31C1F0518
:1009D2005305EA1C251EF31CF31CF31C341D341DA5
:1009E200EA1CEA1C7205B41C301C1305371C0100FA
:1009F200111D301C0A05931C371C2E00111D301CC2
:100A02000A05EA1C301C06059508371C0200291C41
:100A12001A050F01D41CEA1CD41CEA1CEF007C1C32
:100A2200341D1A1C0F01EA1C301C18053C02371C2D
:100A32000100EA1CEF007C1C3D1D1A1C001CCA1C94
:100A4200931C371C2900261D301C28051A1CCA1CA1
:100A5200931C2F05371C0100D4051A1C001CAC1C6A
:100A6200371C2400111D301C3905D41CD0011A1C5E
:100A7200AC1C371C2500111D301C4205D41CBA01C8
:100A82001A1CAC1C371C2600111D301C4B05D41C33
:100A9200C6011A1C371C2300111D301C5205C60149
:100AA2001A1C1A1C001CCA1C931C371C2B00111D7B
:100AB200301C5E05371C0100D405CA1C931C371C70
:100AC2002D00111DAC1CF31C301C6A05371C0100E3
:100AD200D405EA1C1A1C07FF3E6E756D6265720032
:100AE200DD04001CAC1C301C9005CA1C931C57036F
:100AF200181D301C7D051A1CF31CBA08EA1CBF1C09
:100B0200EF00741CE91DD41CDC1CEF00741CE91DF1
:100B1200DB0CBA08371C0100D405291C73051A1C0A
:100B220005FF7061727365006C05001CF31CCA0539
:100B32001701741CD405EA1CAB05AC1C381E170146
:100B4200621E371C0100D4051A1C05FF6373636122
:100B52006E009105001CBF1CAC1CF31C341DAA1EA8
:100B6200C205CA1CBD1EA61D931CCA1C111D301C29
:100B7200C005D41CBD1EE71EEA1CD41C1A1CD81EBC
:100B8200B205D41CEA1C1A1C06FF736F75726365EA
:100B9200A605C8071600A007A70707FF2F737472E0
:100BA200696E6700C505001CCA1C6002DC1CCA1CF9
:100BB200A61DDC1CDC1C9C1D1A1C0AFF70617273D2
:100BC200652D6E616D65CE05001CD901E9051A1C03
:100BD200001CF31CCA051701741CD405FC1C6E040E
:100BE200EA1CAB050601A61DCA05D41C9C1D1701F3
:100BF2007C1C1A1C09FF66696E642D6E616D6500AE
:100C0200DE05001C371C14005B1F341DAA1E1D06C6
:100C12000601371C1600BD1EF600A61D5B1FDC0771
:100C2200B41C301C1B06F31CF31C0F01EA1CEA1C4B
:100C3200E71E1A1CD81E09060F01341D1A1C04FFD8
:100C420071756974FB05001C9C06931EB1067D1E1E
:100C5200730AE900741C181D301C30064606D004C5
:100C6200301C2A06371CCA063F04B41C301C42063C
:100C7200AC1C371CFEFF1F1D301C40065406291CED
:100C820025064D06291C2A061A1C001CF40389039A
:100C920002003E20C0031A1C001C89030300206FBF
:100CA2006B00C0031A1C001C89030400203F3F2074
:100CB200C003EF00741CF31CC60126031701741C49
:100CC2002603EA1CEF007C1C1A1C05FF7061757379
:100CD20065002006C8074D0196079B0704FF636F56
:100CE2006C6466067406A4B6BB242224332424BE94
:100CF200EFE4F1E02F010FEF0DBF048314E01EBFFC
:100D02001583CFEAC683D4E0D783AFE8B6E00C946C
:100D1200041C04FF7761726D6F06001C0A09371C00
:100D22006507371C6B06B307E10124061A1C03FF93
:100D3200737030008A06691C0600A506A90602FF28
:100D420073709806521C0800001CC71F9B1C1A1CBB
:100D5200001CC71FA31C1A1C03FF72703000A006E0
:100D6200001CB506741C1A1C521C040005FF6465A5
:100D720070746800AD06001C9C068A1E9C1D0D1E28
:100D82003E1E1A1C09FF696E7465727072657400EA
:100D9200B706001CE505B41C5C1D301CEE06371CB2
:100DA20026005B1F341DAA1EEA060601BD1EDC1CBE
:100DB200DC1CF31CF31CF600371C2800A61D5B1F6D
:100DC200241CEA1CEA1CDC1C301CE806C309D81EE1
:100DD200D6060F013B07291CCB06D41C1A1C0AFF9E
:100DE2007265632D696E746E756DC306001CE20434
:100DF200301C0C07E900741C301C0907371C020068
:100E0200111D301C0607BF1C2A092A09291C0A07C2
:100E1200D41C3D1D1A1C341D1A1C08FF7265632D5B
:100E220066696E64F006001C0206AC1C301C2707C3
:100E32005C1D301C1E07291C2507E900741C301C90
:100E42002507A401291C2607241C3D1D1A1C0CFF82
:100E52007265632D6E6F74666F756E640E07001C8B
:100E62001904371CF3FF55041A1C06FF3F73746103
:100E7200636B2807001CBC062D1D301C4307371C62
:100E8200FCFF55041A1C03FF766572003607001C2E
:100E9200470BC0030104EF00741CF31CC601550B81
:100EA200291FC002C802371C2E00B102DE02E9026D
:100EB200EA1CEF007C1C190401045D0BC0031A1C20
:100EC20004FF6E6F6F70440766070C94041C06FFE4
:100ED200756E757365646107001C9C065D019C1D3F
:100EE2001A1C0200746F6807001C2804381EE900EF
:100EF200741C301C860799018007A4011A1C001C6F
:100F0200EA1CAC1C381EF31CC71FAC1C381E381E52
:100F1200C71F241C1A1C001C381EC71F5B1F1A1C6B
:100F2200001C381EC71F371F1A1C001C381EC71F83
:100F3200741C1A1C001C381EC71F7C1C1A1C001CA7
:100F4200381EC71F171FA61D741C1A1C001C381E32
:100F5200C71F171FA61D7C1C1A1C06FF6465666549
:100F620072217207001CAC1C371C0300A61DC71F90
:100F7200241C1A1C06FF646566657240AE07001CDD
:100F8200AC1C381E381EC71F241C1A1CC8070E941E
:100F92002E0AAC1C3E1EBF1C381EC71F241C241C5C
:100FA2001A1C0FFF7365617263682D776F72646C30
:100FB20069737400BB07001C341DBF1C371CEB0790
:100FC200BF1C2208AC1C181D301CEA070F01D41CE0
:100FD200341D1A1C001CF31CF31C0601EA1CDC1C49
:100FE200DC1CFC1C11083D08301C05080F01D41C38
:100FF200FC1CE80B381E3D1DEA1CC71F5C1D301C83
:1010020003083C02341D1A1CEA1CD41C3D1D1A1C88
:101012000BFF6E616D653E737472696E6700D20775
:10102200001CEB03371CFF001C1E1A1C11FF7472FC
:101032006176657273652D776F72646C6973740083
:101042000908001C5B1FAC1C301C35080601F31C90
:10105200F31CBF1C241CEA1CEA1CDC1C301C3508D7
:10106200E80BC71F291C24080F011A1C08FF69631B
:101072006F6D706172651708001CF31CCA1CEA1CB4
:10108200071D301C48080F01D41C341D1A1CBF1C3C
:10109200341DAA1E6908CA1C741CCA1CC71FAC1CBA
:1010A200371C0001461D301C5A08BF1C371CFF00AC
:1010B2001C1E071D301C61080F01341DE71E1A1C7F
:1010C200381EBF1CFE00BF1C371C0200BE1E4C088F
:1010D2000F013D1D1A1C01FF2A003708001CAF1D1D
:1010E20081081A1C01FF6A006C08001C731E371C61
:1010F2000900A61D741C1A1C03FF643E73007308CA
:10110200001CD41C1A1C04FF646162737D08001C5D
:10111200AC1C2D1D301C8E0895081A1C07FF646E2E
:101122006567617465008408001CCD0C371C0100E2
:10113200341DDB0C1A1C05FF636D6F7665008F088A
:10114200A208BF93AF93E991F991A991B991092F9F
:10115200082B21F01D9111930197E1F7AF91BF91F7
:10116200899199910C94041C05FF32737761700088
:101172009C08001CDC1CF31CDC1CEA1C1A1C03FF70
:1011820074696200B508421C75010AFF72656669DE
:101192006C6C2D746962C008001CC408371C6400A2
:1011A20086041D017C1C341D17017C1C371CFFFFAB
:1011B2001A1C0AFF736F757263652D746962C60823
:1011C200001CC4081D01741C1A1C07FF65652D75DF
:1011D20073657200DA08421C380006FF65653E72CC
:1011E200616DE608001C341DAA1E0109CA1C5B1FA2
:1011F200CA1C7C1CFE00BF1CFE00BF1CD81EF708C8
:101202000F011A1C09FF696E69742D7573657200EE
:10121200EE08001CEC08171F371C1C000D1EF308FB
:101222001A1C04FF535043520309421C4C0004FF92
:10123200535044521209421C4E0004FF5350535261
:101242001809421C4D0007006C69746572616C00DC
:101252001E09001C9901371CA4011A1C0800736C9A
:1012620069746572616C2409001C990189039C03ED
:101272001A1C001C4D019901FFFF1A1C001C3B07A0
:101282004D01BF1C6F1F1A1C001C4D011A1C001CB3
:101292003B07A4011A1C05006168656164002F09FF
:1012A200001C9901291C3A091A1C020069664C09A2
:1012B200001C9901301C3A091A1C0400656C736504
:1012C2005609001C9901291C3A09BF1C3F091A1C26
:1012D20004007468656E5E09001C3F091A1C050053
:1012E200626567696E006909001C45091A1C0500E0
:1012F2007768696C65007009001C9901301C3A0915
:10130200BF1C1A1C06007265706561747809001CA6
:101312009B093F091A1C0500756E74696C008309EC
:10132200001C9901301C48091A1C0500616761699B
:101332006E008C09001C9901291C48091A1C020024
:10134200646F9609001C9901981E3A0945091A1CF6
:1013520004006C6F6F70A009001C9901D81E480927
:101362003F091A1C05002B6C6F6F7000A909001C45
:101372009901BE1E48093F091A1C05FF6C6561767A
:101382006500B309C4090F911F910F911F91AF918D
:10139200BF910C94041C03003F646F00BE09001C43
:1013A2009901AA1E3A0945091A1C06FF6372656172
:1013B2007465CC09001C72010A0A99014C1C1A1CA2
:1013C20006FF686561646572D609001C4D01F31C55
:1013D200F31CAC1C5C1D301CF809AC1C371C00FF54
:1013E200251EA003EA1C5B1FA401EA1C1A1C371C61
:1013F200F0FF550407FF776C73636F706500E109B6
:10140200C80734008C07910706FF72657665616C28
:10141200FB09001C371C4701741CB41C301C190A40
:10142200371C4901741C371F341D371C47017C1CB3
:101432001A1C06FF6C6174657374050A421CD9019B
:101442000500646F65733E001A0A001C9901390A8F
:1014520099010E9499012E0A1A1C9A938A93CB0130
:1014620001967F916F91BF93AF93DB010C94041CA3
:10147200001CEA1C371C4901741C5B1FE80B381E58
:101482006F1F1A1C01FF3A00210A001C72014D0154
:101492001F0A7C1C9901001C6A0A1A1C07FF3A6E7B
:1014A2006F6E616D6500430A001C4D01AC1C1F0A82
:1014B2007C1C9901001C6A0A1A1C01003B004F0A9D
:1014C200001C99011A1C730A0A0A1A1C01FF5D000A
:1014D2005E0A001C371C0100E9007C1C1A1C01007A
:1014E2005B00670A001C341DE9007C1C1A1C08FF03
:1014F2007661726961626C65700A001C5D018B0A1B
:10150200371C020066011A1C08FF636F6E73746158
:101512006E74780A001C72010A0A9901421CA40125
:101522001A1C04FF75736572850A001C72010A0A8F
:101532009901521CA4011A1C05FF76616C756500A5
:10154200920A001C631C5501A4019901B20A990177
:10155200B60A5501AC1C381E381E80075601371FCB
:101562001A1C001CC71F5B1F1A1C001CC71F371F39
:101572001A1C070072656375727365009D0A001C70
:101582001F0A741CA4011A1C09FF696D6D65646948
:1015920061746500BA0A001CA90B5B1FAC1CC71F53
:1015A200371CFF7F1C1EBF1C6F1F1A1C06005B63CB
:1015B2006861725DC50A001C9901371CD804A40138
:1015C2001A1C060061626F727422D70A001C99010C
:1015D200301C4D019901FFFF5B0C9901371C9901E9
:1015E200FEFF990155044D01BF1C6F1F1A1C05FF18
:1015F20061626F727400E20A001C371CFFFF55041F
:1016020004FF636F6465F80A001C72010A0A4D0147
:10161200381EA4011A1C08FF656E642D636F646591
:10162200010B001C99010C949901041C1A1C0BFF5C
:10163200656E7669726F6E6D656E74000C0B421C7E
:101642000C0009FF776F72646C6973747300000099
:10165200001C371C08001A1C04FF2F706164220B47
:10166200001C8A1E23019C1D1A1C05FF2F686F6C2B
:1016720064002D0B001C23015D019C1D1A1C0AFF36
:10168200666F7274682D6E616D65360B001C89037E
:101692000700616D666F727468001A1C07FF766539
:1016A2007273696F6E00400B001C371C34001A1CE9
:1016B20003FF637075004F0B001C371C3100EB03F6
:1016C2001A1C08FF6D63752D696E666F590B001C3D
:1016D200371C2D001A1C05FF2F7573657200620BF3
:1016E200001C371C26001A1C04FF40655B5D180BAA
:1016F200001CAC1C5B1FF31CFC1C341DBF1CAA1E6F
:101702008B0BBD1EF600CA1CA61D5B1FBF1C3D1D18
:10171200BE1E820B0F01EA1C1A1C04FF21655B5DD1
:10172200750B001C0601371FBF1C341DAA1E9F0B20
:10173200FE00BF1CCA1C371FD81E990BD41C1A1CD2
:101742000BFF6765742D63757272656E74008E0B84
:10175200001C371C10005B1F1A1C09FF6765742DE3
:101762006F7264657200A10B001C371C1400790BA8
:101772001A1C07FF636F6D7061726500AE0BC10BBF
:10178200BF93AF938C0189919991DC0189919991D1
:101792009C0189919991FC01ED90F190EF1451F423
:1017A2000A9519F02A95C1F701C02A95022B11F466
:1017B200882702C08FEF00C0982FAF91BF910C9481
:1017C200041C07FF6E66613E6C666100BA0B001C6A
:1017D200EB03371CFF001C1E381E0D1EA61D1A1C13
:1017E20004FF2B696E74E20BF60B78940C94041CC4
:1017F20004FF2D696E74F10BFE0BF8940C94041C1B
:1018020004FF696E7421F90B001C371C1501A61D1B
:101812007C1C1A1C04FF696E7440010C001C371CEE
:101822001501A61D741C1A1C08FF696E742D7472B2
:1018320061700B0C1C0C809314018991999168942E
:101842000C94041C001C371C1401931C371C15013A
:10185200A61D741C241C2E0C1A1C2F0C02D00C94D6
:10186200041C18950BFF6170706C7475726E6B6559
:101872007900150C001CAA00F50B48071A1C02FF80
:10188200752E330C001C341D2E031A1C02FF2E73FE
:10189200400C001C9C068A1EFE00AA1E570CBD1E90
:1018A200741C430C371C0200BE1E500C1A1C020092
:1018B2002E22470C001C630C9901C0031A1C020063
:1018C2007322580C001C371C22009605E900741C78
:1018D200301C6E0C990189039C031A1C0DFF73685E
:1018E2006F772D776F72646C69737400600C001CE3
:1018F200371C7E0CBF1C22081A1C001C1108C003D6
:1019020001043D1D1A1C05FF776F726473006F0C92
:10191200001C371C16005B1F780C1A1C06FF45645E
:1019220065666572840C001C72010A0A9901C80777
:101932005501AC1CA40199018C0799019107FE0085
:10194200800756011A1C06FF5264656665728F0C89
:10195200001C72010A0A9901C8075D01A401371C23
:10196200020066019901960799019B071A1C020061
:101972006973A40C001CE900741C301CC40CB00177
:101982009901B3071A1C2804B3071A1C07FF6469DC
:101992006E7665727400B80CCE0C0991199180951F
:1019A2009095009510951A930A930C94041C02FFCB
:1019B200642BC70CDC0C29913991E990F99049917B
:1019C2005991240F351F8E1D9F1D3A932A930C9413
:1019D200041C02FF642DD80CEE0C29913991E99078
:1019E200F99049915991421B530BE80AF90A5A930B
:1019F2004A93C7010C94041C06FF6321407370696B
:101A0200EA0C030D03D099270C94041C8EBD0DB56E
:0E1A1200087F0DBD0DB507FFFACF8EB5089504
:10380000BF93AF93DB0111966EF0FD01EE0FFF1F2A
:10381000659175911196FB01EE0FFF1F05911591B2
:10382000F8010994E89463E27CE0F5CF04FF657841
:103830006974FD0C1B1CAF91BF91E6CF07FF657843
:10384000656375746500161C251CBC0189919991EE
:10385000E2CF2A1CFD01EE0FFF1FA591B591D4CF39
:10386000311C982B89919991A9F31196CDCF381CD1
:103870009A938A93FD01EE0FFF1F85919591119602
:10388000C3CF421C9A938A93FB013196EE0FFF1F20
:1038900085919591B9CF4C1C9A938A93CB0101964F
:1038A000B3CF521C9A938A93FB013196EE0FFF1F00
:1038B00085919591840D951DA7CF07FF2876616CA2
:1038C000756529001E1C001C72010A0A9901691CF9
:1038D0001A1C0E942E0AAC1CBF1C381EC71F241CB9
:1038E0001A1C01FF40005D1C751CFC018191919127
:1038F0008BCF01FF2100711C7D1CFC0189919991E6
:1039000091838083899199917FCF02FF6321791CF4
:10391000891CFC018991999180838991999174CF37
:1039200002FF6340851C941CFC01992780816CCFA9
:1039300002FF4075901C001C171FA61D741C1A1C4A
:1039400002FF2175981C001C171FA61D7C1C1A1C49
:1039500003FF64757000A01CAD1C9A938A9354CF2A
:1039600004FF3F647570A81CB51C082F092B11F0CB
:103970009A938A9349CF04FF73776170B01CC01C7F
:103980008C01899199911A930A933ECF04FF6F7627
:103990006572BB1CCB1C9A938A938A819B8134CF1E
:1039A00004FF64726F70C61CD51C899199912CCF4D
:1039B00003FF726F7400D01CDD1C8C0129913991BA
:1039C000899199913A932A931A930A931DCF02FFF2
:1039D000723ED81CEB1C9A938A938F919F9114CFBF
:1039E00002FF3E72E71CF41C9F938F93899199917B
:1039F0000BCF02FF7240F01CFD1C9A938A938F91AB
:103A00009F919F938F9300CF02FF3C3EF91C081DAE
:103A1000299139918217930751F132C001FF3D007E
:103A2000041D001C9C1D181D1A1C02FF303D0E1D9C
:103A3000191D982BE1F424C001FF3C00151D001C4A
:103A40009C1D2D1D1A1C01FF3E001C1D001C9C1DF1
:103A50005C1D1A1C02FF303C231D2E1D97FD10C05B
:103A600006C001FF30002A1D351D9A938A93C101BB
:103A7000CBCE04FF74727565311D3E1D9A938A93F7
:103A80008FEF9FEFC1CE02FF753C391D471D299175
:103A900039918217930758F351F3F2CF02FF753E25
:103AA000431D521D299139912817390700F3F9F266
:103AB000E7CF02FF303E4E1D5D1D82159305BCF21F
:103AC000B1F2DECF02FF643E591D001CED0C6D1DEE
:103AD0001A1C03FF64303E00621D6E1D82159305A3
:103AE000899199918205930514F209F2C9CF02FFD9
:103AF000643C691D001CED0C821D1A1C03FF643020
:103B00003C00771D831D229697FD0C94401D0C945C
:103B1000371D04FF6C6F67327E1D8E1DFC019927D7
:103B200080E18A9522F0EE0FFF1FD8F76DCE9A95AF
:103B30006BCE01FF2D00891D9D1D09911991081B58
:103B4000190BC80161CE01FF2B00991DA71D09911A
:103B50001991800F911F58CE02FF6D2AA31DB01D31
:103B60008C01899199919C0131027001209FC001C3
:103B70003003F308900DE11CF31C1203F308900DC1
:103B8000E11CF31C9A938A93C7013ECE06FF756D24
:103B90002F6D6F64AC1DCC1D7C0129913991099169
:103BA000199140E15527000F111F221F331F551F88
:103BB0002E153F05520518F003952E193F094A9519
:103BC00089F73A932A93C8011FCE03FF756D2A0027
:103BD000C61DEA1D8C0189919991809FF0012227D1
:103BE0003327909FF00D211D331D819FF00D211D66
:103BF000331D919F200D311DCF019A938A93C901E6
:103C000003CE06FF696E76657274E51D071E80950A
:103C10009095FACD02FF322F011E0E1E95958795C5
:103C2000F3CD02FF322A0A1E151E880F991FECCD14
:103C300003FF616E6400111E1D1E099119918023FE
:103C40009123E2CD02FF6F72181E261E0991199171
:103C5000802B912BD9CD03FF786F7200221E301E6E
:103C60000991199180279127CFCD02FF312B2B1E6F
:103C7000391E0196C9CD02FF312D351E3F1E019719
:103C8000C3CD06FF6C73686966743B1E471EFC015A
:103C90008991999131971AF0880F991FFBCFB4CD74
:103CA00006FF727368696674411E561EFC01899195
:103CB000999131971AF096958795FBCFA5CD02FF84
:103CC0002B21501E631EFC01899199912081318125
:103CD000820F931F808391838991999195CD03FFE2
:103CE000727040005F1E741E9A938A938DB79EB7C0
:103CF0008BCD03FF727021006F1E7E1E2FB7F894CC
:103D00008DBF9EBF2FBF899199917ECD03FF7370A8
:103D10004000791E8B1E9A938A93CE0175CD03FFC6
:103D200073702100861E941EEC01899199916CCDCF
:103D3000991EFD01EE0FFF1F059115911196299116
:103D400039911F930F933F932F939F938F93899153
:103D500099915ACDAB1EFD01EE0FFF1F05911591F4
:103D60001196299139918217930759F7D8018991B2
:103D700099914ACD01FF69008F1EFD1CBF1EEF9176
:103D8000FF91E80FF91F192F899199912F913F9178
:103D9000E217F30717FF02C03CF001C02CF43F9379
:103DA0002F93FF93EF9356CD0F911F9111962CCD2A
:103DB000D91EEF91FF9131962F913F91E217F307B2
:103DC00099F3EDCF06FF756E6C6F6F70BA1EE81E2B
:103DD0001F910F911F910F911F910F9115CD06FF0C
:103DE000636D6F76653EE21EF51EBF93AF93E9915A
:103DF000F991A991B991092F082B41F0E80FF91F0A
:103E0000A80FB91F1E9112930197E1F7AF91BF91CF
:103E100089919991F9CC02FF3E3CEF1E0F1F092FAB
:103E2000982F802FF1CC03FF757040000B1F181FD7
:103E30009A938A93C201E8CC03FF75702100131F87
:103E4000211F2C0189919991DFCC03FF733E6400FF
:103E50001C1F001CAC1C2D1D1A1C03FF6E6F740070
:103E6000251F001C181D1A1C02FF21652D1F381F5D
:103E7000FC01899199912FB7F89428D000B50817C3
:103E800009F00BD0319622D000B5091711F0892F17
:103E900004D02FBF89919991B7CCF999FECF07B77C
:103EA00000FDFDCFF2BDE1BD80BDFA9AF99A0895FB
:103EB00002FF4065341F5C1F2FB7F894FC0106D049
:103EC00080B5319603D090B52FBF9ECCF999FECF27
:103ED000F2BDE1BDF89A089502FF2169581FC80795
:103EE0000A008C07910709FF2821692D6E727777E8
:103EF00029006C1F7B1F1FB71F93F8949C018991A9
:103F00009991AF93BF93CF93DF9309D0DF91CF9176
:103F1000BF91AF91899199911F911FBF75CC10D01E
:103F2000E094F0948E219F21982B19F0F90102E082
:103F300020D0F90104E01DD0F90100E11AD0089564
:103F4000F901E07CFF7FEF01A0E4B0E0FE01EE0F9D
:103F5000FF1F45915591FE01E217F30711F00A0189
:103F600002C07A010C01002704D02196119771F745
:103F70000895F999FECF17B710FDFDCFEE0FFF1F83
:103F8000016007BFE895089502FF4069731FC81FCD
:0C3F9000FC01EE0FFF1F8591959136CCCF
:00000001FF
